:0400000050EF00F0CD
:100008005F82FACF80F0FBCF81F0E9CF82F0EACFB0
:1000180083F0E1CF84F0E2CF85F0D9CF86F0DACF54
:1000280087F0F3CF88F0F4CF89F0F6CF8AF0F7CFD6
:100038008BF0F8CF8CF0F5CF8DF0F2B8F2A203D0A8
:1000480093EC26F00BD0F0B6F0A003D040EC1EF0F5
:1000580005D0F2BAF2A402D097EC2CF08DC0F5FFCF
:100068008CC0F8FF8BC0F7FF8AC0F6FF89C0F4FF89
:1000780088C0F3FF87C0DAFF86C0D9FF85C0E2FFDA
:1000880084C0E1FF83C0EAFF82C0E9FF81C0FBFFB3
:0C00980080C0FAFF5F92110020EF2BF0F7
:1006000000010000000A00000064000000E8030090
:100610000010270000A086010040420F008096983D
:100620000000E1F50500CA9A3B00803FCDCC3DD7E4
:10063000233C12833AB7D138C62737388635C0D61F
:1006400033CC2B32708930E7DB2EE53C1E42A20D05
:1006500000803F00204100C842007A44401C4650C0
:10066000C34724744997184BBCBE4C6B6E4E0315A0
:100670005079AD60F3497100003FB83E40DCD8428C
:10068000688D45C0DA470001020304020303040534
:1006900043617061636974616E63653A2025302E31
:1006A00032662070462028436F756E743A20257597
:1006B00029202D2052616E67653A2025640D0A00BD
:1006C000256C752E25362E366C7500433D2531324E
:1006D0002E33666E4600433D2531322E306670461D
:0D06E00000433D2531322E36667546000080
:1006EE0098EF0CF0250E01013819D8B438D001015D
:1006FE0020EE02F01651D9261751DA22DE50DE1006
:10070E00D8B416D0010120EE02F01651D926175199
:10071E00DA2202D898EF0CF00500FA6EDE50FD6E6C
:10072E00DE50FE6EF850FF6EFA5001013851120085
:10073E0016C1D9FF17C1DAFFDECF1CF1DDCF1DF1D7
:10074E001CC1D9FF1DC1DAFF38C1DFFF16C1D9FFA9
:10075E0017C1DAFFDE2A000EDD2298EF0CF0000E34
:10076E000101306F000E2F6F000E0101356F000E6C
:10077E00346F05D0010134850101184B192B18C1B6
:10078E00F6FF19C1F7FF0800F550300AD8B4F2D7BA
:10079E0018C1F6FF19C1F7FF0800F550C6EC2CF092
:1007AE00D8A040D0000E0101306F000E2F6F2FC168
:1007BE009CF030C19DF0000E00019F6F0A0E9E6FDF
:1007CE0016EC2CF09CC02FF19DC030F1D00E010123
:1007DE001C6FFF0E01011D6F18C1F6FF19C1F7FF47
:1007EE000800F55001011E6F1F6B01011C51010124
:1007FE001E2701011D5101011F2301011E5101017F
:10080E002F2701011F51010130230101184B192B14
:10081E0018C1F6FF19C1F7FF0800F550C6EC2CF011
:10082E00D8B0C5D718C1F6FF19C1F7FF0800F550AB
:10083E002E0AD8A439D00101358D0101184B192B80
:10084E00000E0101376F000E366F23D036C19CF0BB
:10085E0037C19DF0000E00019F6F0A0E9E6F16ECC1
:10086E002CF018C1F6FF19C1F7FF0800F550000172
:10087E009C27000E00019D23D00E00019C25010136
:10088E00366FFF0E00019D210101376F0101184BDC
:10089E00192B18C1F6FF19C1F7FF0800F550C6EC69
:1008AE002CF0D8A012D0D2D7000E0101376F000E57
:1008BE00366F0101358909D00101348906D0010155
:1008CE00358524D00101348D21D018C1F6FF19C110
:1008DE00F7FF0101184B192B0800F5CF38F1010174
:1008EE003851000AD8B4A7EF0CF0640AD8B40ED071
:1008FE00020AD8B4E4D70F0AD8B408D0050AD8B47F
:10090E00DBD7190AD8B4DED798EF0CF0070E010129
:10091E003515D8B4CEEF09F0010135A905D0000E7A
:10092E000101376F060E366F1AC1D9FF1BC1DAFFF0
:10093E00DFCF1CF1030EDE26DFCF1DF1000EDD2210
:10094E001CC1D9FF1DC1DAFFDECF31F1DECF32F18E
:10095E00DDCF33F1010133AF11D031C18EF032C191
:10096E008FF033C190F067EC2CF08EC031F18FC058
:10097E0032F190C033F1030E01013413000E010168
:10098E00266F000E256F0101315101013211010157
:10099E003311D8B49BD0820E01011C6FFF0E0101E2
:1009AE001D6F31C11EF132C11FF133C120F134C1AF
:1009BE0021F1100E06D00101D890213320331F33C0
:1009CE001E33E82EF8D701011E5101011C2501012D
:1009DE00256F000E01011D210101266F0101250762
:1009EE00D8A0260725C19CF026C19DF0000E00015F
:1009FE009F6F030E9E6F16EC2CF09CC025F19DC0D0
:100A0E0026F125C194F026C195F0000E0001976FD6
:100A1E000A0E966F66EC27F094C025F195C026F16C
:100A2E00010126AF04D001012507D8A02607010138
:100A3E002551000869EC15F0B1C02BF1B2C02CF1B4
:100A4E00B3C02DF12BC1A2F02CC1A3F02DC1A4F087
:100A5E0031C1A5F032C1A6F033C1A7F082EC21F06E
:100A6E00A2C02BF1A3C02CF1A4C02DF12BC18EF08E
:100A7E002CC18FF02DC190F0000E0001916F800EF1
:100A8E000001926F3F0E0001936F02EC27F0000100
:100A9E00D8B005D001012507D8A0260717D02BC145
:100AAE008EF02CC18FF02DC190F0000E0001916FD1
:100ABE00200E0001926F410E0001936F02EC27F0A1
:100ACE000001D8A003D00101254B262B010137BF11
:100ADE0008D0010137511DE10D0E0101365DD8B070
:100AEE0018D031C107F132C108F133C109F101014A
:100AFE003651B8EC19F0B1C00AF1B2C00BF1B3C067
:100B0E000CF10EEC1BF007C131F108C132F109C135
:100B1E0033F1010126BF08D0010126512AE10A0E48
:100B2E000101255DD8B025D00101315101013211ED
:100B3E0001013311D8B463D031C104F132C105F1D2
:100B4E0033C106F1D7EC22F0010104510101051168
:100B5E000101061101010711D8A451D0010126BFD0
:100B6E004ED00101265105E1020E0101255DD8A0EE
:100B7E0046D02BC18EF02CC18FF02DC190F0700E8F
:100B8E000001916F890E0001926F400E0001936F6C
:100B9E0002EC27F00001D8B003D00101F70E02D00D
:100BAE000101F80E2527FF0E26230101255169ECC0
:100BBE0015F0B1C02BF1B2C02CF1B3C02DF131C183
:100BCE008EF032C18FF033C190F02BC191F02CC159
:100BDE0092F02DC193F0EFEC1FF08EC027F18FC075
:100BEE0028F190C029F191C02AF1000E0101316F58
:100BFE00000E0101326F000E0101336F33D031C18F
:100C0E0004F132C105F133C106F1D7EC22F004C173
:100C1E0027F105C128F106C129F107C12AF131C119
:100C2E0010F132C111F133C112F127C196F028C172
:100C3E0097F029C198F02AC199F0E3EC29F096C0FB
:100C4E0013F197C014F198C015F146EC2BF010C1BA
:100C5E0031F111C132F112C133F1000E0101266FD3
:100C6E00000E256F010E0101386F0A0E01013819B1
:100C7E00D8B41ED001013851040D010EF324F66EC6
:100C8E00060EF420F76E0900F5500101275D0900EC
:100C9E00F550010128590900F550010129590900A3
:100CAE00F55001012A59D8A003D00101382BDDD708
:100CBE0038C11CF101011D6B1CBF1D07010136510E
:100CCE0001011C270101375101011D23010125518D
:100CDE0001011C270101265101011D2301011C5197
:100CEE0001012F5F01011D510101305B01013651E0
:100CFE0001013711D8B404D001012F07D8A0300755
:100D0E00030E0101341501011C6F000E0101351592
:100D1E0001011D6F01011C5101011D11D8B404D038
:100D2E0001012F07D8A03007010134A5C0D0030E52
:100D3E000101341501011C6F000E01013515010171
:100D4E001D6F01011C5101011D11D8B46DD001019F
:100D5E0020EE02F01651D9261751DA22DE50DE109F
:100D6E00D8B414D0010120EE02F01651D926175135
:100D7E00DA2201D859D00500FA6EDE50FD6EDE5033
:100D8E00FE6EF850FF6EFA502D0E120016C1D9FFEE
:100D9E0017C1DAFFDECF1CF1DDCF1DF11CC1D9FF6B
:100DAE001DC1DAFF2D0EDF6E16C1D9FF17C1DAFF96
:100DBE00DE2A000EDD2238D0010120EE02F016519F
:100DCE00D9261751DA22DE50DE10D8B414D0010124
:100DDE0020EE02F01651D9261751DA2201D820D072
:100DEE000500FA6EDE50FD6EDE50FE6EF850FF6EA0
:100DFE00FA50300E120016C1D9FF17C1DAFFDECF3E
:100E0E001CF1DDCF1DF11CC1D9FF1DC1DAFF300E63
:100E1E00DF6E16C1D9FF17C1DAFFDE2A000EDD2202
:100E2E0001012F07D8A03007010130BF03D1010106
:100E3E003051C2E101012F05D8A0FCD0BDD7010170
:100E4E0020EE02F01651D9261751DA22DE50DE10AE
:100E5E00D8B414D0010120EE02F01651D926175144
:100E6E00DA2201D820D00500FA6EDE50FD6EDE507B
:100E7E00FE6EF850FF6EFA50200E120016C1D9FF0A
:100E8E0017C1DAFFDECF1CF1DDCF1DF11CC1D9FF7A
:100E9E001DC1DAFF200EDF6E16C1D9FF17C1DAFFB2
:100EAE00DE2A000EDD2201012F07D8A03007010136
:100EBE0030BF07D001013051C2E101012F05D8B07A
:100ECE00BED7030E0101341501011C6F000E010186
:100EDE00351501011D6F01011C5101011D11D8B401
:100EEE00A9D0010120EE02F01651D9261751DA22AF
:100EFE00DE50DE10D8B414D0010120EE02F01651EF
:100F0E00D9261751DA2201D895D00500FA6EDE5097
:100F1E00FD6EDE50FE6EF850FF6EFA502D0E120072
:100F2E0016C1D9FF17C1DAFFDECF1CF1DDCF1DF1DF
:100F3E001CC1D9FF1DC1DAFF2D0E7AD016C1D9FF03
:100F4E0017C1DAFFDE2A000EDD2274D027C18EF023
:100F5E0028C18FF029C190F02AC191F001013851BA
:100F6E00040D010EF324F66E060EF420F76E090042
:100F7E00F5CF92F00900F5CF93F00900F5CF94F07C
:100F8E000A00F5CF95F0C5EC27F08EC02BF18FC07F
:100F9E002CF190C02DF191C02EF12BC19BF02CC1E4
:100FAE009CF02DC19DF02EC19EF00A0E00019F6F88
:100FBE00000EA06F000EA16F000EA26FCBEC28F0FA
:100FCE009BC02BF19CC02CF19DC02DF19EC02EF12B
:100FDE00010120EE02F01651D9261751DA22DE5009
:100FEE00DE10D8B416D0010120EE02F01651D9262B
:100FFE001751DA2201D81ED00500FA6EDE50FD6EB2
:10100E00DE50FE6EF850FF6EFA5001012B51300F7C
:10101E00120001012B51300F16C1D9FF17C1DAFF93
:10102E00DECF1CF1DDCF1DF11CC1D9FF1DC1DAFFD2
:10103E00DF6E84D70101380701013829D8B439D0C1
:10104E0085D7010120EE02F01651D9261751DA226A
:10105E00DE50DE10D8B414D0010120EE02F016518D
:10106E00D9261751DA2201D820D00500FA6EDE50AB
:10107E00FD6EDE50FE6EF850FF6EFA50300E12000E
:10108E0016C1D9FF17C1DAFFDECF1CF1DDCF1DF17E
:10109E001CC1D9FF1DC1DAFF300EDF6E16C1D9FF9C
:1010AE0017C1DAFFDE2A000EDD2201012507D8A0C6
:1010BE002607010126BF07D001012651C2E1010119
:1010CE002505D8B0BED7010137BF0CD0010137516D
:1010DE0005E1090E0101365DD8A004D0080E01010C
:1010EE00386F02D036C138F1010138510101365F37
:1010FE00000E010138BFFF0E0101375B01013851AF
:10110E000101D8B434D0010120EE02F01651D926D7
:10111E001751DA22DE50DE10D8B414D0010120EEC1
:10112E0002F01651D9261751DA2201D820D0050027
:10113E00FA6EDE50FD6EDE50FE6EF850FF6EFA5007
:10114E002E0E120016C1D9FF17C1DAFFDECF1CF129
:10115E00DDCF1DF11CC1D9FF1DC1DAFF2E0EDF6ED2
:10116E0016C1D9FF17C1DAFFDE2A000EDD220101FA
:10117E00385169EC15F0B1C022F1B2C023F1B3C001
:10118E0024F131C1A5F032C1A6F033C1A7F022C1BE
:10119E00A2F023C1A3F024C1A4F082EC21F0A2C0DE
:1011AE0004F1A3C005F1A4C006F1D7EC22F004C1EE
:1011BE0027F105C128F106C129F107C12AF1A1D0F5
:1011CE0027C18EF028C18FF029C190F02AC191F06D
:1011DE0001013851040D010EF324F66E060EF420B3
:1011EE00F76E0900F5CF92F00900F5CF93F00900E4
:1011FE00F5CF94F00A00F5CF95F0C5EC27F08EC030
:10120E002BF18FC02CF190C02DF191C02EF12BC17E
:10121E009BF02CC19CF02DC19DF02EC19EF00A0EAC
:10122E0000019F6F000EA06F000EA16F000EA26F47
:10123E00CBEC28F09BC02BF19CC02CF19DC02DF166
:10124E009EC02EF1010120EE02F01651D926175143
:10125E00DA22DE50DE10D8B416D0010120EE02F0F4
:10126E001651D9261751DA2201D824D00500FA6E6C
:10127E00DE50FD6EDE50FE6EF850FF6EFA5001012C
:10128E002B51300F120001012B51300F16C1D9FF17
:10129E0017C1DAFFDECF1CF1DDCF1DF11CC1D9FF66
:1012AE001DC1DAFFDF6E16C1D9FF17C1DAFFDE2AC4
:1012BE00000EDD2227C19BF028C19CF029C19DF0B4
:1012CE002AC19EF001013851040D010EF324F66E71
:1012DE00060EF420F76E0900F5CF9FF00900F5CF4A
:1012EE00A0F00900F5CFA1F00A00F5CFA2F0CBECEB
:1012FE0028F09BC027F19CC028F19DC029F19EC00B
:10130E002AF10101380701013829D8B439D058D74C
:10131E00010120EE02F01651D9261751DA22DE50C5
:10132E00DE10D8B414D0010120EE02F01651D926E9
:10133E001751DA2201D820D00500FA6EDE50FD6E6C
:10134E00DE50FE6EF850FF6EFA50300E120016C1CF
:10135E00D9FF17C1DAFFDECF1CF1DDCF1DF11CC1A5
:10136E00D9FF1DC1DAFF300EDF6E16C1D9FF17C1CE
:10137E00DAFFDE2A000EDD2201013607D8A037077C
:10138E000101365101013711D8B4CBD2C1D70101B9
:10139E0034BD46D0010134A919D01AC1D9FF1BC1E1
:1013AE00DAFFDFCF1CF1040EDE26DFCF1DF1000EBB
:1013BE00DD221CC1D9FF1DC1DAFFDECF27F1DECF42
:1013CE0028F1DECF29F1DECF2AF11AD01AC1D9FFCA
:1013DE001BC1DAFFDFCF1CF1020EDE26DFCF1DF1BF
:1013EE00000EDD221CC1D9FF1DC1DAFFDECF27F1B1
:1013FE00DDCF28F10101000E28BFFF0E296F2A6FE5
:10140E0001012AAF44D0030E0101341301012A1F3A
:10141E00291F281F276D000E282329232A2337D0A2
:10142E00010134A919D01AC1D9FF1BC1DAFFDFCFD0
:10143E001CF1040EDE26DFCF1DF1000EDD221CC1D5
:10144E00D9FF1DC1DAFFDECF27F1DECF28F1DECFC7
:10145E0029F1DECF2AF11BD01AC1D9FF1BC1DAFF49
:10146E00DFCF1CF1020EDE26DFCF1DF1000EDD22D6
:10147E001CC1D9FF1DC1DAFFDECF1EF1DDCF1FF17A
:10148E001EC127F11FC128F10101296B2A6B010131
:10149E00365101013711D8A40DD001012751010198
:1014AE0028110101291101012A11D8A403D001012B
:1014BE00364B372B010E0101386F0A0E0101381918
:1014CE00D8B41ED001013851040D010EF324F66E6E
:1014DE00060EF420F76E0900F5500101275D090094
:1014EE00F550010128590900F5500101295909004B
:1014FE00F55001012A59D8A003D00101382BDDD7B0
:10150E00800E010138BF7F0E01011C6F01013651A3
:10151E000101385D01013751800A01011C59D8B013
:10152E0003D036C138F118D001013751800A0101BC
:10153E001C6F010138510101365D800E010138BF6B
:10154E007F0E01011C59D8B007D00101385101019D
:10155E00366F376B36BF370701012F51010130113E
:10156E00D8B414D0030E0101341501011C6F000E06
:10157E000101351501011D6F01011C5101011D11E4
:10158E00D8B404D001012F07D8A03007010135AD22
:10159E001ED001012F510101365D01013751800A24
:1015AE0001011C6F01013051800A01011C59D8B094
:1015BE0009D00101365101012F5F0101375101019F
:1015CE00305B05D0000E0101306F000E2F6F800EC4
:1015DE00010138BF7F0E01011C6F01012F51010166
:1015EE00385D01013051800A01011C59D8B00BD071
:1015FE000101385101012F5F000E010138BFFF0EAE
:10160E000101305B05D0000E0101306F000E2F6F0F
:10161E00010134A583D0030E0101341501011C6FA5
:10162E00000E0101351501011D6F01011C51010153
:10163E001D11D8B434D0010120EE02F01651D92676
:10164E001751DA22DE50DE10D8B414D0010120EE8C
:10165E0002F01651D9261751DA2201D820D00500F2
:10166E00FA6EDE50FD6EDE50FE6EF850FF6EFA50D2
:10167E002D0E120016C1D9FF17C1DAFFDECF1CF1F5
:10168E00DDCF1DF11CC1D9FF1DC1DAFF2D0EDF6E9E
:10169E0016C1D9FF17C1DAFFDE2A000EDD220101C5
:1016AE002F5101013011D8B431D1010120EE02F0D9
:1016BE001651D9261751DA22DE50DE10D8B414D0C6
:1016CE00010120EE02F01651D9261751DA2201D867
:1016DE0020D00500FA6EDE50FD6EDE50FE6EF85024
:1016EE00FF6EFA50300E120016C1D9FF17C1DAFF85
:1016FE00DECF1CF1DDCF1DF11CC1D9FF1DC1DAFFFC
:10170E00300EDF6E16C1D9FF17C1DAFFDE2A000ECA
:10171E00DD2201012F07D8A03007C1D701012F51BB
:10172E0001013011D8B43ED0010120EE02F0165165
:10173E00D9261751DA22DE50DE10D8B414D00101AA
:10174E0020EE02F01651D9261751DA2201D820D0F8
:10175E000500FA6EDE50FD6EDE50FE6EF850FF6E26
:10176E00FA50200E120016C1D9FF17C1DAFFDECFD4
:10177E001CF1DDCF1DF11CC1D9FF1DC1DAFF200EFA
:10178E00DF6E16C1D9FF17C1DAFFDE2A000EDD2289
:10179E0001012F07D8A0300701012F51010130118F
:1017AE00D8A4C2D7030E0101341501011C6F000E1F
:1017BE000101351501011D6F01011C5101011D11A2
:1017CE00D8B4A4D0010120EE02F01651D92617513B
:1017DE00DA22DE50DE10D8B414D0010120EE02F071
:1017EE001651D9261751DA2201D890D00500FA6E7B
:1017FE00DE50FD6EDE50FE6EF850FF6EFA502D0E6E
:10180E00120016C1D9FF17C1DAFFDECF1CF1DDCFF2
:10181E001DF11CC1D9FF1DC1DAFF2D0EDF6E6FD079
:10182E0036C11CF137C11DF10101D8901C371D378F
:10183E000101D8901C371D37010E01011C25F66ED3
:10184E00060E1D21F76E0900F5CF92F00900F5CFB7
:10185E0093F00900F5CF94F00A00F5CF95F027C16B
:10186E008EF028C18FF029C190F02AC191F0C5ECFD
:10187E0027F08EC09BF08FC09CF090C09DF091C061
:10188E009EF00A0E00019F6F000EA06F000EA16F5A
:10189E00000EA26FCBEC28F000019B51300F01011E
:1018AE00386F010120EE02F01651D9261751DA22B7
:1018BE00DE50DE10D8B415D0010120EE02F0165124
:1018CE00D9261751DA2201D821D00500FA6EDE5042
:1018DE00FD6EDE50FE6EF850FF6EFA50010138516B
:1018EE00120016C1D9FF17C1DAFFDECF1CF1DDCF12
:1018FE001DF11CC1D9FF1DC1DAFF38C1DFFF16C1B2
:10190E00D9FF17C1DAFFDE2A000EDD2201013607EC
:10191E00D8A037070101362983E101013729D8A460
:10192E007FD718C1F6FF19C1F7FF0101184B192B0C
:10193E000800F5CF38F101013851D8A479EF03F042
:10194E00000E0101176F000E166F120056EF15F004
:10195E00250E00017619D8B436D020EE02F046508E
:10196E00D9264750DA22DE50DE10D8B415D020EE3C
:10197E0002F04650D9264750DA2202D856EF15F01B
:10198E000500FA6EDE50FD6EDE50FE6EF850FF6EF4
:10199E00FA5000017651120046C0D9FF47C0DAFF57
:1019AE00DECF4CF0DDCF4DF04CC0D9FF4DC0DAFF8D
:1019BE0076C0DFFF46C0D9FF47C0DAFFDE2A000E31
:1019CE00DD2256EF15F0000E0001716F000E706FE4
:1019DE00000E0001736F000E726F04D0000172854D
:1019EE00484A492A48C0F6FF49C0F7FF0800F5509B
:1019FE00300AD8B4F3D748C0F6FF49C0F7FF080045
:101A0E00F55034EC2DF0D8A035D0000E0001716FDA
:101A1E00000E706F70C00FF071C010F0000E126EDD
:101A2E000A0E116EEEEC2CF00FC070F010C071F0BB
:101A3E00D00E4C6EFF0E4D6E48C0F6FF49C0F7FF3C
:101A4E000800F5504E6E4F6A4C504E264D504F22A8
:101A5E004E50000170274F5000017123484A492A09
:101A6E0048C0F6FF49C0F7FF0800F55034EC2DF0E2
:101A7E00D8B0D0D748C0F6FF49C0F7FF0800F550E0
:101A8E002E0AD8A432D00001738D484A492A000E7E
:101A9E000001756F000E746F1DD074C00FF075C00D
:101AAE0010F0000E126E0A0E116EEEEC2CF048C005
:101ABE00F6FF49C0F7FF0800F5500F26000E102262
:101ACE00D00E0F240001746FFF0E10200001756FF1
:101ADE00484A492A48C0F6FF49C0F7FF0800F550AA
:101AEE0034EC2DF0D8A012D0D8D7000E0001756FAF
:101AFE00000E746F0001738909D00001728906D03F
:101B0E000001738523D00001728D20D048C0F6FFEE
:101B1E0049C0F7FF484A492A0800F5CF76F0000180
:101B2E007651000AD8B464EF15F0640AD8B40ED01A
:101B3E00020AD8B4E5D70F0AD8B408D0050AD8B42B
:101B4E00DCD7190AD8B4DFD756EF15F0070E00010F
:101B5E007315D8B4AFEF12F0000173A905D0000EC3
:101B6E000001756F060E746F4AC0D9FF4BC0DAFFC5
:101B7E00DFCF4CF0030EDE26DFCF4DF0000EDD2260
:101B8E004CC0D9FF4DC0DAFFDECF6DF0DECF6EF068
:101B9E00DDCF6FF000016FAF11D06DC001F06EC0E0
:101BAE0002F06FC003F001EC2DF001C06DF002C029
:101BBE006EF003C06FF0030E00017213000E0001F1
:101BCE00646F000E636F00016D5100016E11000114
:101BDE006F11D8B48BD0820E4C6EFF0E4D6E6DC051
:101BEE004EF06EC04FF06FC050F070C051F0100E3E
:101BFE0005D0D890513250324F324E32E82EF9D7AE
:101C0E004E504C240001636F000E4D200001646F96
:101C1E0000016307D8A0640763C00FF064C010F022
:101C2E00000E126E030E116EEEEC2CF00FC063F070
:101C3E0010C064F063C007F064C008F0000E0A6EB6
:101C4E000A0E096E60EC29F007C063F008C064F05C
:101C5E00000164AF04D000016307D8A0640700013F
:101C6E0063510008C0EC17F030C069F031C06AF063
:101C7E0032C06BF069C021F06AC022F06BC023F055
:101C8E006DC024F06EC025F06FC026F02CEC25F050
:101C9E0021C069F022C06AF023C06BF069C001F068
:101CAE006AC002F06BC003F0000E046E800E056E6B
:101CBE003F0E066E18EC29F0D8B005D00001630770
:101CCE00D8A0640713D069C001F06AC002F06BC0DF
:101CDE0003F0000E046E200E056E410E066E18EC1B
:101CEE0029F0D8A003D00001634B642B000175BF0F
:101CFE0008D0000175511DE10D0E0001745DD8B0C4
:101D0E0018D06DC015F06EC016F06FC017F0000140
:101D1E00745142EC1CF030C018F031C019F032C0D2
:101D2E001AF019EC1FF015C06DF016C06EF017C04A
:101D3E006FF0000164BF08D00001645126E10A0E65
:101D4E000001635DD8B021D000016D5100016E110C
:101D5E0000016F11D8B45BD06DC037F06EC038F093
:101D6E006FC039F0A6EC25F03750381039103A1004
:101D7E00D8A44DD0000164BF4AD00001645105E1E2
:101D8E00020E0001635DD8A042D069C001F06AC0A6
:101D9E0002F06BC003F0700E046E890E056E400EDD
:101DAE00066E18EC29F0D8B003D00001F70E02D061
:101DBE000001F80E6327FF0E642300016351C0EC8F
:101DCE0017F030C069F031C06AF032C06BF06DC0F0
:101DDE0001F06EC002F06FC003F069C004F06AC07B
:101DEE0005F06BC006F079EC23F001C065F002C07F
:101DFE0066F003C067F004C068F0000E00016D6F5E
:101E0E00000E00016E6F000E00016F6F33D06DC0BB
:101E1E0037F06EC038F06FC039F0A6EC25F037C041
:101E2E0065F038C066F039C067F03AC068F06DC032
:101E3E0021F06EC022F06FC023F065C009F066C0BD
:101E4E000AF067C00BF068C00CF0C9EC2AF009C0AC
:101E5E0024F00AC025F00BC026F0F6EC2BF021C0C2
:101E6E006DF022C06EF023C06FF0000E0001646FA3
:101E7E00000E636F010E0001766F0A0E00017619D7
:101E8E00D8B41ED000017651040D010EF324F66E67
:101E9E00060EF420F76E0900F5500001655D09008D
:101EAE00F550000166590900F55000016759090007
:101EBE00F55000016859D8A003D00001762BDDD76C
:101ECE0076C04CF04D6A4CBE4D06000174514C2646
:101EDE00000175514D22000163514C2600016451E1
:101EEE004D224C500001705F4D500001715B00019E
:101EFE00745100017511D8B404D000017007D8A038
:101F0E007107030E000172154C6E000E0001731561
:101F1E004D6E4C504D10D8B404D000017007D8A0AF
:101F2E007107000172A5B6D0030E000172154C6E3A
:101F3E00000E000173154D6E4C504D10D8B469D083
:101F4E0020EE02F04650D9264750DA22DE50DE103F
:101F5E00D8B413D020EE02F04650D9264750DA22DC
:101F6E0001D857D00500FA6EDE50FD6EDE50FE6EC3
:101F7E00F850FF6EFA502D0E120046C0D9FF47C022
:101F8E00DAFFDECF4CF0DDCF4DF04CC0D9FF4DC0A7
:101F9E00DAFF2D0EDF6E46C0D9FF47C0DAFFDE2A0C
:101FAE00000EDD2236D020EE02F04650D9264750E4
:101FBE00DA22DE50DE10D8B413D020EE02F04650F6
:101FCE00D9264750DA2201D820D00500FA6EDE500D
:101FDE00FD6EDE50FE6EF850FF6EFA50300E12009F
:101FEE0046C0D9FF47C0DAFFDECF4CF0DDCF4DF053
:101FFE004CC0D9FF4DC0DAFF300EDF6E46C0D9FFA0
:10200E0047C0DAFFDE2A000EDD2200017007D8A0DD
:10201E007107000171BFF8D000017151C4E10001D8
:10202E007005D8A0F1D0BFD720EE02F04650D926C9
:10203E004750DA22DE50DE10D8B413D020EE02F074
:10204E004650D9264750DA2201D820D00500FA6E24
:10205E00DE50FD6EDE50FE6EF850FF6EFA50200E12
:10206E00120046C0D9FF47C0DAFFDECF4CF0DDCFFD
:10207E004DF04CC0D9FF4DC0DAFF200EDF6E46C0CA
:10208E00D9FF47C0DAFFDE2A000EDD2200017007FD
:10209E00D8A07107000171BF07D000017151C4E1D2
:1020AE0000017005D8B0C0D7030E000172154C6E3A
:1020BE00000E000173154D6E4C504D10D8B4A4D0C7
:1020CE0020EE02F04650D9264750DA22DE50DE10BE
:1020DE00D8B413D020EE02F04650D9264750DA225B
:1020EE0001D892D00500FA6EDE50FD6EDE50FE6E07
:1020FE00F850FF6EFA502D0E120046C0D9FF47C0A1
:10210E00DAFFDECF4CF0DDCF4DF04CC0D9FF4DC025
:10211E00DAFF2D0E77D046C0D9FF47C0DAFFDE2A90
:10212E00000EDD2271D065C001F066C002F067C0FE
:10213E0003F068C004F000017651040D010EF32483
:10214E00F66E060EF420F76E0900F5CF05F00900C5
:10215E00F5CF06F00900F5CF07F00A00F5CF08F02D
:10216E00A2EC29F001C069F002C06AF003C06BF066
:10217E0004C06CF069C00EF06AC00FF06BC010F0B6
:10218E006CC011F00A0E126E000E136E000E146E5D
:10219E00000E156E96EC2AF00EC069F00FC06AF0B4
:1021AE0010C06BF011C06CF020EE02F04650D92634
:1021BE004750DA22DE50DE10D8B415D020EE02F0F1
:1021CE004650D9264750DA2201D81ED00500FA6EA5
:1021DE00DE50FD6EDE50FE6EF850FF6EFA500001BE
:1021EE006951300F120000016951300F46C0D9FFFE
:1021FE0047C0DAFFDECF4CF0DDCF4DF04CC0D9FF3B
:10220E004DC0DAFFDF6E87D7000176070001762911
:10221E00D8B437D088D720EE02F04650D926475092
:10222E00DA22DE50DE10D8B413D020EE02F0465083
:10223E00D9264750DA2201D820D00500FA6EDE509A
:10224E00FD6EDE50FE6EF850FF6EFA50300E12002C
:10225E0046C0D9FF47C0DAFFDECF4CF0DDCF4DF0E0
:10226E004CC0D9FF4DC0DAFF300EDF6E46C0D9FF2D
:10227E0047C0DAFFDE2A000EDD2200016307D8A078
:10228E006407000164BF07D000016451C4E100017E
:10229E006305D8B0C0D7000175BF0CD000017551D1
:1022AE0005E1090E0001745DD8A004D0080E0001EE
:1022BE00766F02D074C076F0000176510001745F23
:1022CE00000E000176BFFF0E0001755B0001765116
:1022DE000001D8B432D020EE02F04650D926475035
:1022EE00DA22DE50DE10D8B413D020EE02F04650C3
:1022FE00D9264750DA2201D820D00500FA6EDE50DA
:10230E00FD6EDE50FE6EF850FF6EFA502E0E12006D
:10231E0046C0D9FF47C0DAFFDECF4CF0DDCF4DF01F
:10232E004CC0D9FF4DC0DAFF2E0EDF6E46C0D9FF6E
:10233E0047C0DAFFDE2A000EDD2200017651C0EC26
:10234E0017F030C060F031C061F032C062F06DC085
:10235E0024F06EC025F06FC026F060C021F061C081
:10236E0022F062C023F02CEC25F021C037F022C001
:10237E0038F023C039F0A6EC25F037C065F038C030
:10238E0066F039C067F03AC068F09ED065C001F0C3
:10239E0066C002F067C003F068C004F00001765119
:1023AE00040D010EF324F66E060EF420F76E0900EE
:1023BE00F5CF05F00900F5CF06F00900F5CF07F0CF
:1023CE000A00F5CF08F0A2EC29F001C069F002C0B6
:1023DE006AF003C06BF004C06CF069C00EF06AC006
:1023EE000FF06BC010F06CC011F00A0E126E000EE2
:1023FE00136E000E146E000E156E96EC2AF00EC0C3
:10240E0069F00FC06AF010C06BF011C06CF020EED6
:10241E0002F04650D9264750DA22DE50DE10D8B4EC
:10242E0015D020EE02F04650D9264750DA2201D8B8
:10243E0024D00500FA6EDE50FD6EDE50FE6EF850B2
:10244E00FF6EFA5000016951300F12000001695100
:10245E00300F46C0D9FF47C0DAFFDECF4CF0DDCFDC
:10246E004DF04CC0D9FF4DC0DAFFDF6E46C0D9FF2C
:10247E0047C0DAFFDE2A000EDD2265C00EF066C010
:10248E000FF067C010F068C011F000017651040D16
:10249E00010EF324F66E060EF420F76E0900F5CF4A
:1024AE0012F00900F5CF13F00900F5CF14F00A0071
:1024BE00F5CF15F096EC2AF00EC065F00FC066F061
:1024CE0010C067F011C068F0000176070001762990
:1024DE00D8B437D05BD720EE02F04650D9264750FD
:1024EE00DA22DE50DE10D8B413D020EE02F04650C1
:1024FE00D9264750DA2201D820D00500FA6EDE50D8
:10250E00FD6EDE50FE6EF850FF6EFA50300E120069
:10251E0046C0D9FF47C0DAFFDECF4CF0DDCF4DF01D
:10252E004CC0D9FF4DC0DAFF300EDF6E46C0D9FF6A
:10253E0047C0DAFFDE2A000EDD2200017407D8A0A4
:10254E0075070001745100017511D8B4A8D2C3D714
:10255E00000172BD46D0000172A919D04AC0D9FF40
:10256E004BC0DAFFDFCF4CF0040EDE26DFCF4DF08E
:10257E00000EDD224CC0D9FF4DC0DAFFDECF65F074
:10258E00DECF66F0DECF67F0DECF68F01AD04AC03D
:10259E00D9FF4BC0DAFFDFCF4CF0020EDE26DFCFC5
:1025AE004DF0000EDD224CC0D9FF4DC0DAFFDECF5C
:1025BE0065F0DDCF66F00001000E66BFFF0E676F9F
:1025CE00686F000168AF44D0030E00017213000162
:1025DE00681F671F661F656D000E662367236823DD
:1025EE0037D0000172A919D04AC0D9FF4BC0DAFF0B
:1025FE00DFCF4CF0040EDE26DFCF4DF0000EDD22D5
:10260E004CC0D9FF4DC0DAFFDECF65F0DECF66F0ED
:10261E00DECF67F0DECF68F01BD04AC0D9FF4BC0CB
:10262E00DAFFDFCF4CF0020EDE26DFCF4DF0000ECC
:10263E00DD224CC0D9FF4DC0DAFFDECF4EF0DDCF2C
:10264E004FF04EC065F04FC066F00001676B686BCF
:10265E000001745100017511D8A40DD0000165510F
:10266E00000166110001671100016811D8A403D0A2
:10267E000001744B752B010E0001766F0A0E0001DE
:10268E007619D8B41ED000017651040D010EF32434
:10269E00F66E060EF420F76E0900F5500001655D2A
:1026AE000900F550000166590900F55000016759FF
:1026BE000900F55000016859D8A003D00001762B0F
:1026CE00DDD7800E000176BF7F0E4C6E0001745177
:1026DE000001765D00017551800A4C58D8B003D0C8
:1026EE0074C076F016D000017551800A4C6E000150
:1026FE0076510001745D800E000176BF7F0E4C583E
:10270E00D8B007D0000176510001746F756B74BF9D
:10271E0075070001705100017111D8B410D0030E6D
:10272E00000172154C6E000E000173154D6E4C506B
:10273E004D10D8B404D000017007D8A07107000165
:10274E0073AD1CD0000170510001745D0001755114
:10275E00800A4C6E00017151800A4C58D8B009D0D5
:10276E00000174510001705F000175510001715B31
:10277E0005D0000E0001716F000E706F800E00010B
:10278E0076BF7F0E4C6E000170510001765D000128
:10279E007151800A4C58D8B00BD00001765100010F
:1027AE00705F000E000176BFFF0E0001715B05D059
:1027BE00000E0001716F000E706F000172A57BD0CC
:1027CE00030E000172154C6E000E000173154D6E56
:1027DE004C504D10D8B432D020EE02F04650D926CF
:1027EE004750DA22DE50DE10D8B413D020EE02F0BD
:1027FE004650D9264750DA2201D820D00500FA6E6D
:10280E00DE50FD6EDE50FE6EF850FF6EFA502D0E4D
:10281E00120046C0D9FF47C0DAFFDECF4CF0DDCF45
:10282E004DF04CC0D9FF4DC0DAFF2D0EDF6E46C005
:10283E00D9FF47C0DAFFDE2A000EDD2200017051FB
:10284E0000017111D8B420D120EE02F04650D926E5
:10285E004750DA22DE50DE10D8B413D020EE02F04C
:10286E004650D9264750DA2201D820D00500FA6EFC
:10287E00DE50FD6EDE50FE6EF850FF6EFA50300EDA
:10288E00120046C0D9FF47C0DAFFDECF4CF0DDCFD5
:10289E004DF04CC0D9FF4DC0DAFF300EDF6E46C092
:1028AE00D9FF47C0DAFFDE2A000EDD2200017007D5
:1028BE00D8A07107C3D70001705100017111D8B4AF
:1028CE003CD020EE02F04650D9264750DA22DE5098
:1028DE00DE10D8B413D020EE02F04650D926475061
:1028EE00DA2201D820D00500FA6EDE50FD6EDE50E1
:1028FE00FE6EF850FF6EFA50200E120046C0D9FF41
:10290E0047C0DAFFDECF4CF0DDCF4DF04CC0D9FF23
:10291E004DC0DAFF200EDF6E46C0D9FF47C0DAFF8A
:10292E00DE2A000EDD2200017007D8A0710700011B
:10293E00705100017111D8A4C4D7030E0001721595
:10294E004C6E000E000173154D6E4C504D10D8B4E8
:10295E009BD020EE02F04650D9264750DA22DE50A8
:10296E00DE10D8B413D020EE02F04650D9264750D0
:10297E00DA2201D889D00500FA6EDE50FD6EDE50E7
:10298E00FE6EF850FF6EFA502D0E120046C0D9FFA3
:10299E0047C0DAFFDECF4CF0DDCF4DF04CC0D9FF93
:1029AE004DC0DAFF2D0EDF6E68D074C04CF075C0CE
:1029BE004DF0D8904C364D36D8904C364D36010EE3
:1029CE004C24F66E060E4D20F76E0900F5CF05F07D
:1029DE000900F5CF06F00900F5CF07F00A00F5CF94
:1029EE0008F065C001F066C002F067C003F068C071
:1029FE0004F0A2EC29F001C00EF002C00FF003C0EB
:102A0E0010F004C011F00A0E126E000E136E000EBE
:102A1E00146E000E156E96EC2AF00E50300F00015B
:102A2E00766F20EE02F04650D9264750DA22DE505D
:102A3E00DE10D8B414D020EE02F04650D9264750FE
:102A4E00DA2201D821D00500FA6EDE50FD6EDE507E
:102A5E00FE6EF850FF6EFA5000017651120046C01D
:102A6E00D9FF47C0DAFFDECF4CF0DDCF4DF04CC0C2
:102A7E00D9FF4DC0DAFF76C0DFFF46C0D9FF47C091
:102A8E00DAFFDE2A000EDD2200017407D8A07507DA
:102A9E00000174298AE100017529D8A486D748C09F
:102AAE00F6FF49C0F7FF484A492A0800F5CF76F0ED
:102ABE0000017651D8A4AFEF0CF0000E476E000E59
:102ACE00466E12000101036F010103AF2AD101010D
:102ADE00036D01010351800A120FD8A0ACD0000E75
:102AEE0000019F6F030E9E6F000E0001976F0A0E7E
:102AFE00966F000E0001916F640E906F01010351ED
:102B0E0000018E6F8F6B8EBF8F077AEC28F08EC010
:102B1E0094F08FC095F066EC27F0090E0001942515
:102B2E0000019C6F000E0001952100019D6F16ECB7
:102B3E002CF0290E00019C25F66E060E00019D213B
:102B4E00F76E0900F5CFA5F00900F5CFA6F00A0043
:102B5E00F5CFA7F0000E0001976F640E966F01017E
:102B6E0003510001946F956B94BF950766EC27F0A7
:102B7E00120E0001942500019C6F000E000195219C
:102B8E0000019D6F000E00019F6F030E9E6F16ECED
:102B9E002CF0290E00019C25F66E060E00019D21DB
:102BAE00F76E0900F5CFA2F00900F5CFA3F00A00E9
:102BBE00F5CFA4F082EC21F0A2C000F1A3C001F188
:102BCE00A4C002F100C1A2F001C1A3F002C1A4F0A1
:102BDE00000E00019F6F030E9E6F000E0001916F9D
:102BEE000A0E906F0101035100018E6F8F6B8EBF25
:102BFE008F077AEC28F08EC09CF08FC09DF016ECFB
:102C0E002CF0290E00019C25F66E060E00019D216A
:102C1E00F76E0900F5CFA5F00900F5CFA6F00A0072
:102C2E00F5CFA7F082EC21F0A2C0B1F0A3C0B2F0B4
:102C3E00A4C0B3F0120001010351800A750FD8A091
:102C4E005DD0000E0001976F0A0E966F01010351C1
:102C5E000001946F956B94BF950766EC27F0090EF3
:102C6E000001942500019C6F000E000195210001CA
:102C7E009D6F000E00019F6F030E9E6F16EC2CF0E1
:102C8E00290E00019C25F66E060E00019D21F76EA1
:102C9E000900F5CFA2F00900F5CFA3F00A00F5CF99
:102CAE00A4F0000E00019F6F030E9E6F000E000138
:102CBE00916F0A0E906F0101035100018E6F8F6BA1
:102CCE008EBF8F077AEC28F08EC09CF08FC09DF0DF
:102CDE0016EC2CF0290E00019C25F66E060E000156
:102CEE009D21F76E0900F5CFA5F00900F5CFA6F0EE
:102CFE000A00F5CFA7F082EC21F096D7010103511F
:102D0E00030D290EF324F66E060EF420F76E09005D
:102D1E00F5CFB1F00900F5CFB2F00A00F5CFB3F060
:102D2E00120001010351800A120FD8A0ACD0000E80
:102D3E0000019F6F030E9E6F000E0001976F0A0E2B
:102D4E00966F000E0001916F640E906F010103519A
:102D5E0000018E6F8F6B8EBF8F077AEC28F08EC0BE
:102D6E0094F08FC095F066EC27F0090E00019425C3
:102D7E0000019C6F000E0001952100019D6F16EC65
:102D8E002CF0500E00019C25F66E060E00019D21C2
:102D9E00F76E0900F5CFA5F00900F5CFA6F00A00F1
:102DAE00F5CFA7F0000E0001976F640E966F01012C
:102DBE0003510001946F956B94BF950766EC27F055
:102DCE00120E0001942500019C6F000E000195214A
:102DDE0000019D6F000E00019F6F030E9E6F16EC9B
:102DEE002CF0500E00019C25F66E060E00019D2162
:102DFE00F76E0900F5CFA2F00900F5CFA3F00A0097
:102E0E00F5CFA4F082EC21F0A2C000F1A3C001F135
:102E1E00A4C002F100C1A2F001C1A3F002C1A4F04E
:102E2E00000E00019F6F030E9E6F000E0001916F4A
:102E3E000A0E906F0101035100018E6F8F6B8EBFD2
:102E4E008F077AEC28F08EC09CF08FC09DF016ECA8
:102E5E002CF0500E00019C25F66E060E00019D21F1
:102E6E00F76E0900F5CFA5F00900F5CFA6F00A0020
:102E7E00F5CFA7F082EC21F0A2C0B1F0A3C0B2F062
:102E8E00A4C0B3F0120001010351800A750FD8A03F
:102E9E005DD0000E0001976F0A0E966F010103516F
:102EAE000001946F956B94BF950766EC27F0090EA1
:102EBE000001942500019C6F000E00019521000178
:102ECE009D6F000E00019F6F030E9E6F16EC2CF08F
:102EDE00500E00019C25F66E060E00019D21F76E28
:102EEE000900F5CFA2F00900F5CFA3F00A00F5CF47
:102EFE00A4F0000E00019F6F030E9E6F000E0001E6
:102F0E00916F0A0E906F0101035100018E6F8F6B4E
:102F1E008EBF8F077AEC28F08EC09CF08FC09DF08C
:102F2E0016EC2CF0500E00019C25F66E060E0001DC
:102F3E009D21F76E0900F5CFA5F00900F5CFA6F09B
:102F4E000A00F5CFA7F082EC21F096D701010351CC
:102F5E00030D500EF324F66E060EF420F76E0900E4
:102F6E00F5CFB1F00900F5CFB2F00A00F5CFB3F00E
:102F7E001200366E36AEFBD0366C3650800A120F0B
:102F8E00D8A091D0000E126E030E116E000E0A6EB6
:102F9E000A0E096E000E046E640E036E3650016E3C
:102FAE00026A01BE02065EEC2AF001C007F002C002
:102FBE0008F060EC29F0090E07240F6E000E0820B1
:102FCE00106EEEEC2CF0290E0F24F66E060E10206D
:102FDE00F76E0900F5CF24F00900F5CF25F00A00B1
:102FEE00F5CF26F0000E0A6E640E096E3650076E8F
:102FFE00086A07BE080660EC29F0120E07240F6E51
:10300E00000E0820106E000E126E030E116EEEEC06
:10301E002CF0290E0F24F66E060E1020F76E090006
:10302E00F5CF21F00900F5CF22F00A00F5CF23F0FD
:10303E002CEC25F021C033F022C034F023C035F043
:10304E0033C021F034C022F035C023F0000E126ED2
:10305E00030E116E000E046E0A0E036E3650016ED4
:10306E00026A01BE02065EEC2AF001C00FF002C039
:10307E0010F0EEEC2CF0290E0F24F66E060E10203A
:10308E00F76E0900F5CF24F00900F5CF25F00A0000
:10309E00F5CF26F02CEC25F021C030F022C031F017
:1030AE0023C032F012003650800A750FD8A04DD0D2
:1030BE00000E0A6E0A0E096E3650076E086A07BEBB
:1030CE00080660EC29F0090E07240F6E000E08208A
:1030DE00106E000E126E030E116EEEEC2CF0290E19
:1030EE000F24F66E060E1020F76E0900F5CF21F0B4
:1030FE000900F5CF22F00A00F5CF23F0000E126E74
:10310E00030E116E000E046E0A0E036E3650016E23
:10311E00026A01BE02065EEC2AF001C00FF002C088
:10312E0010F0EEEC2CF0290E0F24F66E060E102089
:10313E00F76E0900F5CF24F00900F5CF25F00A004F
:10314E00F5CF26F02CEC25F0A7D73650030D290E1F
:10315E00F324F66E060EF420F76E0900F5CF30F06C
:10316E000900F5CF31F00A00F5CF32F012003650DB
:10317E00800A120FD8A091D0000E126E030E116E9F
:10318E00000E0A6E0A0E096E000E046E640E036EB9
:10319E003650016E026A01BE02065EEC2AF001C0D4
:1031AE0007F002C008F060EC29F0090E07240F6E3C
:1031BE00000E0820106EEEEC2CF0500E0F24F66E62
:1031CE00060E1020F76E0900F5CF24F00900F5CF9A
:1031DE0025F00A00F5CF26F0000E0A6E640E096E79
:1031EE003650076E086A07BE080660EC29F0120E0C
:1031FE0007240F6E000E0820106E000E126E030EC6
:10320E00116EEEEC2CF0500E0F24F66E060E102002
:10321E00F76E0900F5CF21F00900F5CF22F00A0074
:10322E00F5CF23F02CEC25F021C033F022C034F082
:10323E0023C035F033C021F034C022F035C023F066
:10324E00000E126E030E116E000E046E0A0E036E49
:10325E003650016E026A01BE02065EEC2AF001C013
:10326E000FF002C010F0EEEC2CF0500E0F24F66EA4
:10327E00060E1020F76E0900F5CF24F00900F5CFE9
:10328E0025F00A00F5CF26F02CEC25F021C030F009
:10329E0022C031F023C032F012003650800A750F72
:1032AE00D8A04DD0000E0A6E0A0E096E3650076E6B
:1032BE00086A07BE080660EC29F0090E07240F6E97
:1032CE00000E0820106E000E126E030E116EEEEC44
:1032DE002CF0500E0F24F66E060E1020F76E09001D
:1032EE00F5CF21F00900F5CF22F00A00F5CF23F03B
:1032FE00000E126E030E116E000E046E0A0E036E99
:10330E003650016E026A01BE02065EEC2AF001C062
:10331E000FF002C010F0EEEC2CF0500E0F24F66EF3
:10332E00060E1020F76E0900F5CF24F00900F5CF38
:10333E0025F00A00F5CF26F02CEC25F0A7D7365055
:10334E00030D500EF324F66E060EF420F76E0900F0
:10335E00F5CF30F00900F5CF31F00A00F5CF32F09D
:10336E0012000101066F6D0E01010665BAD0000E46
:10337E0000019F6F030E9E6F000E0001976F0A0EE5
:10338E00966F000E0001916F640E906F06C18EF065
:10339E0000018F6B7AEC28F08EC094F08FC095F000
:1033AE0066EC27F0090E0001942500019C6F000EBB
:1033BE000001952100019D6F16EC2CF0290E0001E5
:1033CE009C25F66E060E00019D21F76E0900F5CFC5
:1033DE00A5F00900F5CFA6F00A00F5CFA7F0000E74
:1033EE000001976F640E966F06C194F00001956B05
:1033FE0066EC27F0120E0001942500019C6F000E62
:10340E000001952100019D6F000E00019F6F030EBC
:10341E009E6F16EC2CF0290E00019C25F66E060E02
:10342E0000019D21F76E0900F5CFA2F00900F5CF3E
:10343E00A3F00A00F5CFA4F082EC21F0A2C003F1B4
:10344E00A3C004F1A4C005F1000E00019F6F030E8E
:10345E009E6F000E0001916F0A0E906F06C18EF0E6
:10346E0000018F6B7AEC28F08EC09CF08FC09DF01F
:10347E0016EC2CF0290E00019C25F66E060E0001AE
:10348E009D21F76E0900F5CFA5F00900F5CFA6F046
:10349E000A00F5CFA7F003C1A2F004C1A3F005C145
:1034AE00A4F082EC21F0A2C000F1A3C001F1A4C0EF
:1034BE0002F100C1A2F001C1A3F002C1A4F0000EFE
:1034CE000001A56F000E0001A66F3F0E0001A76F51
:1034DE0082EC21F0A2C0B1F0A3C0B2F0A4C0B3F050
:1034EE0012000A0E010106656ED0000E00019F6FDC
:1034FE00030E9E6F000E0001916F0A0E906F06C1B3
:10350E008EF000018F6B7AEC28F08EC09CF08FC08D
:10351E009DF016EC2CF0290E00019C25F66E060E81
:10352E0000019D21F76E0900F5CFA5F00900F5CF3A
:10353E00A6F00A00F5CFA7F0000E0001976F0A0E55
:10354E00966F06C194F00001956B66EC27F0090E9C
:10355E000001942500019C6F000E000195210001D1
:10356E009D6F000E00019F6F030E9E6F16EC2CF0E8
:10357E00290E00019C25F66E060E00019D21F76EA8
:10358E000900F5CFA2F00900F5CFA3F00A00F5CFA0
:10359E00A4F082EC21F0A2C003F1A3C004F1A4C0F8
:1035AE0005F103C1A2F004C1A3F005C1A4F0000E01
:1035BE000001A56F000E0001A66F3F0E0001A76F60
:1035CE0082EC21F087D701010651030D290EF32459
:1035DE00F66E060EF420F76E0900F5CFA2F0090084
:1035EE00F5CFA3F00A00F5CFA4F0000E0001A56FF1
:1035FE00000E0001A66F3F0E0001A76F82EC21F0B6
:10360E00A2C0B1F0A3C0B2F0A4C0B3F0120009C1C1
:10361E00B4F00001B56BB66B010108350001B4378B
:10362E0001E3B5810001B45101010F6F0CC1B4F07B
:10363E000001B56BB66B01010B350001B43701E328
:10364E00B5810001B45101010E6F01010F5101014D
:10365E00D8B411D001010E5101010F5DD8B012D0B6
:10366E0001010F51000801010E250001B46F180E63
:10367E000001B46507D00AC107F10BC108F10CC1F6
:10368E0009F1120001010E510101D8B411D001014E
:10369E000F5101010E5DD8B012D001010E5100087C
:1036AE0001010F250001B46F180E0001B46507D09B
:1036BE0007C107F108C108F109C109F11200060E90
:1036CE0001010D6F010109AF02D001010D8F010142
:1036DE000CAF02D001010D8D0101088FFF0E01010B
:1036EE000717FF0E01010817000E0101091701014E
:1036FE000B8FFF0E01010A17FF0E01010B17000EB3
:10370E0001010C1701010E5101010F5DD8B025D03A
:10371E000101D8900A370B370C3701010E07010152
:10372E000F5101010E19D8B411D001010D070DC1B1
:10373E00B4F0070E0001B417D8B408D0E9D70101D0
:10374E00D89009330833073301010F2B01010E51B5
:10375E0001010F19D8B42BD0F2D701010F5101017D
:10376E000E5DD8B024D00101D8900737083709373D
:10377E0001010F0701010F5101010E19D8B411D02B
:10378E0001010D070DC1B4F0070E0001B417D8B436
:10379E0008D0E9D70101D8900C330B330A3301015D
:1037AE000E2B01010E5101010F19D8A4F3D70101FF
:1037BE000DAF12D0FF0E0101071BFF0E0101081BFA
:1037CE00FF0E0101091B010E01010727000E010169
:1037DE000823000E0101092301010DAD12D0FF0EC9
:1037EE0001010A1BFF0E01010B1BFF0E01010C1B39
:1037FE00010E01010A27000E01010B23000E01012B
:10380E000C23000E01010D6F0101075101010A2762
:10381E000101085101010B230101095101010C2382
:10382E0001010CAF15D0FF0E01010A1BFF0E0101A5
:10383E000B1BFF0E01010C1B010E01010A27000ECE
:10384E0001010B23000E01010C23010E01010D6F6E
:10385E000AC18EF00BC18FF00CC190F00FC191F028
:10386E000DC192F0A6EC24F08EC007F18FC008F1C6
:10387E0090C009F11200396E6D0E39649FD0000EA2
:10388E00126E030E116E000E0A6E0A0E096E000EF7
:10389E00046E640E036E39C001F0026A5EEC2AF00B
:1038AE0001C007F002C008F060EC29F0090E0724F1
:1038BE000F6E000E0820106EEEEC2CF0290E0F2469
:1038CE00F66E060E1020F76E0900F5CF24F00900F3
:1038DE00F5CF25F00A00F5CF26F0000E0A6E640E25
:1038EE00096E39C007F0086A60EC29F0120E072441
:1038FE000F6E000E0820106E000E126E030E116E6B
:10390E00EEEC2CF0290E0F24F66E060E1020F76E3C
:10391E000900F5CF21F00900F5CF22F00A00F5CF0E
:10392E0023F02CEC25F021C036F022C037F023C056
:10393E0038F0000E126E030E116E000E046E0A0E9B
:10394E00036E39C001F0026A5EEC2AF001C00FF07E
:10395E0002C010F0EEEC2CF0290E0F24F66E060EBF
:10396E001020F76E0900F5CF24F00900F5CF25F0F1
:10397E000A00F5CF26F036C021F037C022F038C04D
:10398E0023F02CEC25F021C033F022C034F023C0FC
:10399E0035F033C021F034C022F035C023F0000ED4
:1039AE00246E000E256E3F0E266E2CEC25F021C0E7
:1039BE0030F022C031F023C032F012000A0E39640A
:1039CE005DD0000E126E030E116E000E046E0A0E06
:1039DE00036E39C001F0026A5EEC2AF001C00FF0EE
:1039EE0002C010F0EEEC2CF0290E0F24F66E060E2F
:1039FE001020F76E0900F5CF24F00900F5CF25F061
:103A0E000A00F5CF26F0000E0A6E0A0E096E39C0B6
:103A1E0007F0086A60EC29F0090E07240F6E000EFD
:103A2E000820106E000E126E030E116EEEEC2CF0CE
:103A3E00290E0F24F66E060E1020F76E0900F5CF34
:103A4E0021F00900F5CF22F00A00F5CF23F02CEC7F
:103A5E0025F021C036F022C037F023C038F036C032
:103A6E0021F037C022F038C023F0000E246E000E75
:103A7E00256E3F0E266E2CEC25F099D73950030D8E
:103A8E00290EF324F66E060EF420F76E0900F5CF1C
:103A9E0021F00900F5CF22F00A00F5CF23F0000E39
:103AAE00246E000E256E3F0E266E2CEC25F021C0E6
:103ABE0030F022C031F023C032F0120043EC2DF072
:103ACE00F28EF28C21EC2AF06CEC2DF01F0E8B1284
:103ADE003C0E8A128B928A9658C08EF059C08FF087
:103AEE005AC090F0240E0001916F740E0001926F77
:103AFE00490E0001936F02EC27F00001D8A026D0EA
:103B0E00460E0101396F010E01013A6FE10E0101FE
:103B1E003B6F060E01013C6F58C096F059C097F0EE
:103B2E005AC098F0240E0001996F740E00019A6F1E
:103B3E00490E00019B6F31EC22F096C03DF197C00B
:103B4E003EF198C03FF1F7EC2AF08AD058C08EF0C3
:103B5E0059C08FF05AC090F0240E0001916F740E70
:103B6E000001926F490E0001936F02EC27F00001E5
:103B7E00D8B03AD058C08EF059C08FF05AC090F0DD
:103B8E00000E0001916F7A0E0001926F440E00013B
:103B9E00936F02EC27F00001D8A026D0460E01014B
:103BAE00396F010E01013A6FCB0E01013B6F060E0C
:103BBE0001013C6F58C096F059C097F05AC098F06A
:103BCE00000E0001996F7A0E00019A6F440E0001EB
:103BDE009B6F31EC22F096C03DF197C03EF198C03C
:103BEE003FF1F7EC2AF03CD058C08EF059C08FF060
:103BFE005AC090F0000E0001916F7A0E0001926F84
:103C0E00440E0001936F02EC27F00001D8B028D0CB
:103C1E00000E00018E6F000E00018F6F000E00016E
:103C2E00906F58C091F059C092F05AC093F002ECC8
:103C3E0027F00001D8B014D0460E0101396F010EE5
:103C4E0001013A6FD60E01013B6F060E01013C6F6A
:103C5E0058C03DF159C03EF15AC03FF1F7EC2AF081
:103C6E00460E0001926F010E0001936F6CEC2BF06B
:103C7E0033D7050E5E6002D05E2A02D0030E5E5E62
:103C8E008A0EF66E060EF76E0800F5CF01F0010EE5
:103C9E00026E012A02D0D8900236012EFCD7890E70
:103CAE00F66E060EF76E0800F5CF03F0010E046EE9
:103CBE00032A02D0D8900436032EFCD7880EF66E57
:103CCE00060EF76E0800F5CF05F0010E066E052AFA
:103CDE0002D0D8900636052EFCD7870EF66E060E4D
:103CEE00F76E0800F5CF07F0010E086E072A02D016
:103CFE00D8900836072EFCD7860EF66E060EF76E97
:103D0E000800F5CF09F0010E0A6E092A02D0D890EC
:103D1E000A36092EFCD70A5008100610041002109D
:103D2E008B128F0EF66E060EF76E0800F5CF01F0B1
:103D3E00010E026E012A02D0D8900236012EFCD757
:103D4E008E0EF66E060EF76E0800F5CF03F0010E1E
:103D5E00046E032A02D0D8900436032EFCD78C0EA4
:103D6E00F66E060EF76E0800F5CF05F0010E066E24
:103D7E00052A02D0D8900636052EFCD78B0EF66E8D
:103D8E00060EF76E0800F5CF07F0010E086E072A33
:103D9E0002D0D8900836072EFCD708500610041013
:103DAE0002108A12FF0E016EFF0E026E5E50036E3F
:103DBE00046A0150032602500422860E0324F66E76
:103DCE00060E0420F76E0800F5CF05F0010E066E04
:103DDE00052A02D0D8900636052EFCD70650FF0ACB
:103DEE008B16FF0E016EFF0E026E5E50036E046A9E
:103DFE0001500326025004228B0E0324F66E060E8B
:103E0E000420F76E0800F5CF05F0010E066E052AA8
:103E1E0002D0D8900636052EFCD70650FF0A8A1619
:103E2E00F090120017C01BF01C6A1D6A16341B3668
:103E3E0001E31C801B50206E1AC01BF01C6A1D6A09
:103E4E0019341B3601E31C801B501F6E2050D8B452
:103E5E000BD01F50205CD8B00ED0205000081F246D
:103E6E001B6E180E1B6407D018C015F019C016F083
:103E7E001AC017F012001F50D8B40BD020501F5C80
:103E8E00D8B00ED01F50000820241B6E180E1B64D5
:103E9E0007D015C015F016C016F017C017F0120097
:103EAE00060E1E6E17BE1E8E1ABE1E8C168EFF0EB0
:103EBE001516FF0E1616000E1716198EFF0E181673
:103ECE00FF0E1916000E1A161F50205CD8B01BD00C
:103EDE00D890183619361A361F0620501F18D8B427
:103EEE000DD01E061EC01BF0070E1B16D8B406D032
:103EFE00EFD7D890173216321532202A1F502018BD
:103F0E00D8B41FD0F6D720501F5CD8B01AD0D89096
:103F1E00153616361736200620501F18D8B40DD079
:103F2E001E061EC01BF0070E1B16D8B406D0EFD708
:103F3E00D8901A32193218321F2A1F502018D8A4BE
:103F4E00F7D71EAE0CD0FF0E151AFF0E161AFF0E67
:103F5E00171A010E1526000E1622000E17221EAC81
:103F6E000CD0FF0E181AFF0E191AFF0E1A1A010E98
:103F7E001826000E1922000E1A22000E1E6E155063
:103F8E0018261650192217501A221AAE0ED0FF0EEE
:103F9E00181AFF0E191AFF0E1A1A010E1826000E05
:103FAE001922000E1A22010E1E6E18C001F019C041
:103FBE0002F01AC003F020C004F01EC005F023EC7E
:103FCE0028F001C015F002C016F003C017F0120061
:103FDE0090C094F00001956B966B00018F35000137
:103FEE00943701E395810001945100019C6F00010B
:103FFE009C51D8A40AD0000E00018E6F000E8F6F58
:10400E00000E906F000E916F120093C094F000019D
:10401E00956B966B000192350001943701E3958103
:10402E000001945100019B6F00019B51D8A40AD04E
:10403E00000E00018E6F000E8F6F000E906F000E3F
:10404E00916F120000018F8FFF0E00018E17FF0E71
:10405E0000018F17000E000190170001928FFF0EC6
:10406E0000019117FF0E00019217000E0001931729
:10407E00000E0001976F000E986F000E996F000EE4
:10408E009A6F7F0E00019C5F00019B51980F0001FB
:10409E009C5F180E00019B6F0001D89097379837E0
:1040AE0099379A370001915100018E5D00019251AE
:1040BE0000018F590001935100019059D8A00ED0E4
:1040CE000001915100018E5F0001925100018F5B42
:1040DE00000193510001905B000197810001D8907F
:1040EE008E378F37903700019B2FD6D700019CAFAC
:1040FE001AD000019C51800A970FD8B00AD0000E3A
:10410E0000018E6F000E8F6F000E906F000E916F7C
:10411E0012000001D8909A339933983397330001E7
:10412E009C3FF7D71BD0170E00019C6512D0000ED6
:10413E0000018E6F000E8F6F000E906F000E916F4C
:10414E0012000001D8909737983799379A370001A7
:10415E009C0700019C510001D8A4F3D797C08EF0A4
:10416E0098C08FF099C090F09AC091F012000001A3
:10417E00903591350001996F00019951D8A40AD05C
:10418E00000E00018E6F000E8F6F000E906F000EEE
:10419E00916F12000001933594350001986F000164
:1041AE009851D8A40AD0000E00018E6F000E8F6FAA
:1041BE00000E906F000E916F12000001908FFF0E97
:1041CE0000018E17FF0E8F17FF0E9017000E91171E
:1041DE000001938FFF0E00019117FF0E9217FF0E35
:1041EE009317000E9417000E0001946F000E956F3A
:1041FE00000E966F000E976F7F0E0001995F000103
:10420E009851A00F0001995F200E0001986F0001D8
:10421E00D890943795379637973700019151000112
:10422E008E5D0001925100018F59000193510001E2
:10423E0090590001945100019159D8A012D000015B
:10424E00915100018E5F0001925100018F5B0001C0
:10425E0093510001905B000194510001915B0001AC
:10426E0094810001D8908E378F37903791370001A7
:10427E00982FCDD7000199AF1AD000019951800A1D
:10428E009F0FD8B00AD0000E00018E6F000E8F6FF8
:10429E00000E906F000E916F12000001D8909733B0
:1042AE009633953394330001993FF7D71BD01F0EE9
:1042BE000001996512D0000E00018E6F000E8F6FF7
:1042CE00000E906F000E916F12000001D89094377F
:1042DE0095379637973700019907000199510001DC
:1042EE00D8A4F3D794C08EF095C08FF096C090F0FE
:1042FE0097C091F01200A4C0A8F00001A96BAA6BA0
:10430E000001A3350001A83701E3A9810001A851DE
:10431E000001AB6F0001AB51D8A40AD0000E000112
:10432E00A26F000E0001A36F000E0001A46F120019
:10433E00A7C0A8F00001A96BAA6B0001A635000169
:10434E00A83701E3A9810001A8510001B06F000157
:10435E00B051D8A40AD0000E0001A26F000E0001C9
:10436E00A36F000E0001A46F12000001B0517B0F6D
:10437E000001AB27A4C0B0F00001A7510001B01B93
:10438E00800E0001B0170001A38F0001A68FFF0E53
:10439E000001A517FF0E0001A617000E0001A717BA
:1043AE00000E0001AC6F000E0001AD6F000E00019B
:1043BE00AE6F070E0001AF6F0001A2A10CD000017D
:1043CE00A5510001AC270001A6510001AD2300014B
:1043DE00A7510001AE230001D890A433A333A2331A
:1043EE000001D890A537A637A7370001AF2FE4D725
:1043FE00090E0001AF6F0001A2A10CD00001A55162
:10440E000001AC270001A6510001AD230001A75108
:10441E000001AE230001D890A433A333A2330001D0
:10442E00D890AE33AD33AC330001AF2FE4D7ACC070
:10443E008EF0ADC08FF0AEC090F0ABC091F0B0C0BA
:10444E0092F0A6EC24F08EC0A2F08FC0A3F090C024
:10445E00A4F0120098C09CF000019D6B9E6B0001B1
:10446E00973500019C3701E39D8100019C510001AD
:10447E00A36F0001A351D8A40AD0000E0001966FBD
:10448E00000E0001976F000E0001986F12009BC086
:10449E009CF000019D6B9E6B00019A3500019C37CC
:1044AE0001E39D8100019C510001A46F0001A45104
:1044BE00D8A40AD0000E0001966F000E0001976F6F
:1044CE00000E0001986F1200000E0001A06F000E8A
:1044DE000001A16F000E0001A26F0001A451890F0F
:1044EE000001A35F98C0A4F000019B510001A41B22
:1044FE00800E0001A4170001978FFF0E0001961782
:10450E00FF0E00019717000E0001981700019A8FF9
:10451E00FF0E00019917FF0E00019A17000E000101
:10452E009B17180E00019F6F0001D890A037A1377E
:10453E00A237000199510001965D00019A510001C8
:10454E00975900019B5100019859D8A00ED0000137
:10455E0099510001965F00019A510001975B00018D
:10456E009B510001985B0001A0810001D890963705
:10457E009737983700019F2FD7D7A0C08EF0A1C0D4
:10458E008FF0A2C090F0A3C091F0A4C092F0A6EC60
:10459E0024F08EC096F08FC097F090C098F0120065
:1045AE0006C108F10101096B0A6B01010535010114
:1045BE00083701E30981010108510101126F010160
:1045CE001251D8A40AD0000E0101046F000E056F1F
:1045DE00000E066F000E076F1200170E0101086F16
:1045EE0004C109F105C10AF106C10BF10101082947
:1045FE0001010C6F05D00101D8900B330A3309333A
:10460E0001010C2FF8D70101095101010D6F0101B4
:10461E00058FFF0E01010417FF0E01010517000E95
:10462E00010106170101045101010E6F010105512F
:10463E0001010F6F010106510101106F0101116B94
:10464E008E0E0101125F010112AF1AD0010112513B
:10465E00800A8F0FD8B00AD0000E0101046F000E31
:10466E00056F000E066F000E076F12000101D89045
:10467E00113310330F330E330101123FF7D71BD016
:10468E00170E0101126512D0000E0101046F000E0B
:10469E00056F000E066F000E076F12000101D89015
:1046AE000E370F3710371137010112070101125162
:1046BE000101D8A4F3D701010D510101D8B409D0DD
:1046CE000101111F101F0F1F0E6D000E0F2310235F
:1046DE0011230EC104F10FC105F110C106F111C174
:1046EE0007F1120003C007F0086A096A02340736A0
:1046FE0001E3088007500F6E0F50D8A409D0000EAA
:10470E00016E000E026E000E036E000E046E12009D
:10471E0006C007F0086A096A0534073601E3088007
:10472E0007500E6E0E50D8A409D0000E016E000E6A
:10473E00026E000E036E000E046E1200028EFF0E4D
:10474E000116FF0E0216000E0316058EFF0E04163E
:10475E00FF0E0516000E0616000E0A6E000E0B6EEC
:10476E00000E0C6E000E0D6E7F0E0F5E0E50980F2B
:10477E000F5E180E0E6ED8900A360B360C360D36AE
:10478E000450015C0550025806500358D8A007D0BB
:10479E000450015E0550025A0650035A0A80D89002
:1047AE000136023603360E2EE6D70FAE16D00F5058
:1047BE00800A970FD8B009D0000E016E000E026E5F
:1047CE00000E036E000E046E1200D8900D320C32E5
:1047DE000B320A320F3EF9D715D0170E0F640FD0D9
:1047EE00000E016E000E026E000E036E000E046EC1
:1047FE001200D8900A360B360C360D360F060F50B7
:10480E00D8A4F7D70AC001F00BC002F00CC003F019
:10481E000DC004F01200033404340C6E0C50D8A4F6
:10482E0009D0000E016E000E026E000E036E000E19
:10483E00046E1200063407340B6E0B50D8A409D048
:10484E00000E016E000E026E000E036E000E046E60
:10485E001200038EFF0E0116FF0E0216FF0E031638
:10486E00000E0416068EFF0E0416FF0E0516FF0E22
:10487E000616000E0716000E076E000E086E000ECE
:10488E00096E000E0A6E7F0E0C5E0B50A00F0C5EB2
:10489E00200E0B6ED8900736083609360A360450AD
:1048AE00015C055002580650035807500458D8A012
:1048BE0009D00450015E0550025A0650035A0750A3
:1048CE00045A0780D89001360236033604360B2E72
:1048DE00E1D70CAE16D00C50800A9F0FD8B009D07D
:1048EE00000E016E000E026E000E036E000E046EC0
:1048FE001200D8900A320932083207320C3EF9D72C
:10490E0015D01F0E0C640FD0000E016E000E026E3D
:10491E00000E036E000E046E1200D8900736083695
:10492E0009360A360C060C50D8A4F7D707C001F08A
:10493E0008C002F009C003F00AC004F01200000122
:10494E0091510001D8B408D000018E5100018F1191
:10495E0000019011D8A411D0000E00018E6F000E30
:10496E0000018F6F000E0001906F12000001912B5D
:10497E000001D89090338F338E33000E00018E15C8
:10498E000001936F000E00018F150001946FFE0E53
:10499E00000190150001956F0001935100019411D3
:1049AE0000019511D8B411D0E1D70001912B010E61
:1049BE0000018E27000E00018F23000E00019023B0
:1049CE000001D89090338F338E33000E00018E1578
:1049DE000001936F000E00018F150001946FFF0E02
:1049EE00000190150001956F000193510001941183
:1049FE0000019511D8B408D0D8D700019107000155
:104A0E00D8908E378F37903700018FBF04D0020EAB
:104A1E0000019161F2D7000191B102D000018F9F88
:104A2E000001D890913300019151000190130001C3
:104A3E0092510001D8B402D00001908F8EC08EF03A
:104A4E008FC08FF090C090F0120023C027F0286A1C
:104A5E00296A2234273601E3288027502A6E2A50ED
:104A6E00D8A407D0000E216E000E226E000E236E0B
:104A7E00120026C027F0286A296A2534273601E35A
:104A8E00288027502F6E2F50D8A407D0000E216EED
:104A9E00000E226E000E236E12002F507B0F2A2660
:104AAE0023C02FF026502F1A800E2F16228E258E01
:104ABE00FF0E2416FF0E2516000E2616000E2B6E68
:104ACE00000E2C6E000E2D6E070E2E6E21A006D03F
:104ADE0024502B2625502C2226502D22D8902332BE
:104AEE0022322132D8902436253626362E2EEED777
:104AFE00090E2E6E21A006D024502B2625502C22D6
:104B0E0026502D22D890233222322132D8902D32A7
:104B1E002C322B322E2EEED72BC001F02CC002F0F1
:104B2E002DC003F02AC004F02FC005F023EC28F0AE
:104B3E0001C021F002C022F003C023F0120039C0E0
:104B4E003BF03C6A3D6A38343B3601E33C803B50D7
:104B5E00456E4550D8A409D0000E376E000E386E43
:104B6E00000E396E000E3A6E1200170E3B6E37C0F5
:104B7E003CF038C03DF039C03EF03B283F6E04D0CB
:104B8E00D8903E323D323C323F2EFAD73C50406EEA
:104B9E00388EFF0E3716FF0E3816000E39163750A8
:104BAE00416E3850426E3950436E446A8E0E455EE9
:104BBE0045AE16D04550800A8F0FD8B009D0000EE2
:104BCE00376E000E386E000E396E000E3A6E120001
:104BDE00D8904432433242324132453EF9D715D055
:104BEE00170E45640FD0000E376E000E386E000E95
:104BFE00396E000E3A6E1200D89041364236433668
:104C0E00443645064550D8A4F7D74050D8B408D0FE
:104C1E00441E431E421E416C000E42224322442279
:104C2E0041C037F042C038F043C039F044C03AF0CA
:104C3E00120032C036F0376A386A3134363601E344
:104C4E00378036503D6E3D50D8A407D0000E306EE2
:104C5E00000E316E000E326E120035C036F0376A1D
:104C6E00386A3434363601E3378036503E6E3E5065
:104C7E00D8A407D0000E306E000E316E000E326ECC
:104C8E001200000E3A6E000E3B6E000E3C6E3E5051
:104C9E00890F3D5E32C03EF035503E1A800E3E16F4
:104CAE00318EFF0E3016FF0E3116000E3216348E78
:104CBE00FF0E3316FF0E3416000E3516180E396E13
:104CCE00D8903A363B363C363350305C34503158FF
:104CDE0035503258D8A007D03350305E3450315A48
:104CEE003550325A3A80D890303631363236392EE7
:104CFE00E7D73AC001F03BC002F03CC003F03DC024
:104D0E0004F03EC005F023EC28F001C030F002C0E4
:104D1E0031F003C032F012009FEC2DF0D5EC2BF0E9
:104D2E0001C0B7F002C0B8F0000E126E030E116E85
:104D3E00FF0E5E240F6E106AFF0E1022EEEC2CF0AA
:104D4E00770E0F24F66E060E1020F76E0900F5CFC3
:104D5E0024F00900F5CF25F00A00F5CF26F0000E5D
:104D6E00186ED80E196EC10E1A6EB7C009F0B8C003
:104D7E000AF013EC2DF009C015F00AC016F00BC0A6
:104D8E0017F019EC1FF015C021F016C022F017C055
:104D9E0023F02CEC25F021C030F022C031F023C0DE
:104DAE0032F0A40E336E400E346E400E356E20EC93
:104DBE0026F030C058F031C059F032C05AF0900E83
:104DCE000001776F060E0001786F58C079F059C058
:104DDE007AF05AC07BF0B7C07CF0B8C07DF05EC0F0
:104DEE007EF000017F6B4CEC2CF094EC2DF09DECE2
:104DFE002DF0F2921200000190AF1DD08EC094F0F3
:104E0E008FC095F090C096F00001941F951F961FCD
:104E1E00942B000E95239623000E0001942500017D
:104E2E008E6F000E0001952100018F6F800E000124
:104E3E0096210001906F000193AF1DD091C094F0A8
:104E4E0092C095F093C096F00001941F951F961F87
:104E5E00942B000E95239623000E0001942500013D
:104E6E00916F000E000195210001926F800E0001DE
:104E7E0096210001936F000E00018E1B000E0001A3
:104E8E008F1B800E0001901B000E0001911B000E67
:104E9E000001921B800E0001931B00019151000135
:104EAE008E5D0001925100018F5900019351000156
:104EBE009059D8B002D0D8901200D8801200000EAF
:104ECE000001996F000197AF08D00001966D971FF2
:104EDE00D8B0972B010E0001996F000195AF08D045
:104EEE000001946D951FD8B0952B010E0001991BF2
:104EFE00000E00019B6F000E9A6F0001965100018B
:104F0E009711D8B42CD0010E0001986F06D0000175
:104F1E00D890963797370001982B000197AFF7D7A7
:104F2E000001D8909A379B37000196510001945D8D
:104F3E000001975100019559D8A00AD00001965151
:104F4E000001945F000197510001955B00019A8169
:104F5E000001D890973396330001982FE1D70001C6
:104F6E0099510001D8B405D000019A6D9B1FD8B09D
:104F7E009B2B9AC094F09BC095F01200000E00017E
:104F8E00966F000E976F000E986F000E996F0001CE
:104F9E009251000193110001941100019511D8B4A2
:104FAE0042D0010E00019A6F08D00001D8909237BE
:104FBE0093379437953700019A2B000195AFF5D7AB
:104FCE000001D8909637973798379937000192514C
:104FDE0000018E5D0001935100018F590001945123
:104FEE00000190590001955100019159D8A012D09D
:104FFE000001925100018E5F0001935100018F5B01
:10500E00000194510001905B000195510001915BEC
:10501E00000196810001D8909533943393339233E7
:10502E0000019A2FCDD796C08EF097C08FF098C002
:10503E0090F099C091F012000450D8B405D00150F0
:10504E0002100310D8A40CD0000E016E000E026EDA
:10505E00000E036E1200042AD8900332023201327F
:10506E00000E0114066E000E0214076EFE0E0314DF
:10507E00086E065007100810D8B40CD0ECD7042ACE
:10508E00010E0126000E0222000E0322D8900332DA
:10509E0002320132000E0114066E000E0214076E6B
:1050AE00FF0E0314086E065007100810D8B406D071
:1050BE00E6D70406D89001360236033602BE03D078
:1050CE00020E0460F6D704A0029ED890043204505B
:1050DE0003120550D8A4038E01C001F002C002F0E5
:1050EE0003C003F01200000E0001936F00018FAF9A
:1050FE0008D000018E6D8F1FD8B08F2B010E0001CE
:10510E00936F000191AF05D00001906D911FD8B043
:10511E00912B0001905100019111D8B426D0010EAF
:10512E000001926F06D00001D890903791370001A0
:10513E00922B000191AFF7D70001905100018E5DC7
:10514E000001915100018F59D8A008D00001905153
:10515E0000018E5F0001915100018F5B0001D8901C
:10516E00913390330001922FE7D700019351000144
:10517E00D8B405D000018E6D8F1FD8B08F2B8EC086
:10518E008EF08FC08FF0120000019F510001A01110
:10519E000001A1110001A211D8B43AD0010E0001F4
:1051AE00A36F08D00001D8909F37A037A137A23740
:1051BE000001A32B0001A2AFF5D700019F51000102
:1051CE009B5D0001A05100019C590001A1510001FD
:1051DE009D590001A25100019E59D8A010D0000186
:1051EE009F5100019B5F0001A05100019C5B0001DB
:1051FE00A15100019D5B0001A25100019E5B0001C7
:10520E00D890A233A133A0339F330001A32FD5D75B
:10521E009BC09BF09CC09CF09DC09DF09EC09EF0DC
:10522E00120003AE16D001C007F002C008F003C092
:10523E0009F0071E081E091E072A000E0822092261
:10524E00000E0724016E000E0820026E800E09204B
:10525E00036E06AE16D004C007F005C008F006C0F7
:10526E0009F0071E081E091E072A000E0822092231
:10527E00000E0724046E000E0820056E800E092015
:10528E00066E000E011A000E021A800E031A000E90
:10529E00041A000E051A800E061A0450015C055001
:1052AE00025806500358D8B002D0D8901200D880B9
:1052BE001200000E0C6E0AAE06D0096C0A1ED8B093
:1052CE000A2A010E0C6E08AE06D0076C081ED8B066
:1052DE00082A010E0C1A000E0E6E000E0D6E0950ED
:1052EE000A10D8B41CD0010E0B6E04D0D89009361B
:1052FE000A360B2A0AAEFAD7D8900D360E3609505A
:10530E00075C0A500858D8A005D00950075E0A500D
:10531E00085A0D80D8900A3209320B2EEDD70C5058
:10532E00D8B404D00D6C0E1ED8B00E2A0DC007F0E6
:10533E000EC008F01200000E096E000E0A6E000E6E
:10534E000B6E000E0C6E0550061007100810D8B428
:10535E002AD0010E0D6E06D0D890053606360736C9
:10536E0008360D2A08AEF8D7D89009360A360B360D
:10537E000C360550015C0650025807500358085071
:10538E000458D8A009D00550015E0650025A0750A5
:10539E00035A0850045A0980D89008320732063250
:1053AE0005320D2EE1D709C001F00AC002F00BC084
:1053BE0003F00CC004F012008E0E00019E6F08D098
:1053CE000001D890993398339733963300019E2B72
:1053DE00000E0001961500019A6F000E0001971540
:1053EE0000019B6F000E0001981500019C6FFF0ECF
:1053FE000001991500019D6F00019A5100019B114A
:10540E0000019C1100019D11D8A4DAD796C08EF030
:10541E0097C08FF098C090F09EC091F0000E0001E2
:10542E00926FA6EC24F08EC096F08FC097F090C0CD
:10543E0098F01200000E31EC2CF0680E0001916F06
:10544E00E40EE82EFED7912FFCD700D0030EDBEC36
:10545E002CF01A0E0001916FF80EE82EFED7912F48
:10546E00FCD700D0030EDBEC2CF03A0E0001916F4E
:10547E00230EE82EFED7912FFCD700F0030EDBECA7
:10548E002CF0020EDBEC2CF0020EDBEC2CF0080EF6
:10549E00DBEC2CF0000EDBEC2CF00C0EDBEC2CF02D
:1054AE00000EDBEC2CF0060EDBEC2CF01200000EE6
:1054BE00066E02AE06D0016C021ED8B0022A010E94
:1054CE00066E04AE04D0036C041ED8B0042A03503A
:1054DE000410D8B418D0010E056E04D0D89003363F
:1054EE000436052A04AEFAD70350015C0450025864
:1054FE00D8A004D00350015E0450025AD890043252
:10550E000332052EF1D70650D8B404D0016C021E1A
:10551E00D8B0022A01C001F002C002F012001250EF
:10552E00131014101510D8B424D0010E166E06D018
:10553E00D8901236133614361536162A15AEF8D7FD
:10554E0012500E5C13500F5814501058155011581D
:10555E00D8A008D012500E5E13500F5A1450105A85
:10556E001550115AD8901532143213321232162E9B
:10557E00E7D70EC00EF00FC00FF010C010F011C024
:10558E0011F012008E0E116E06D0D8900C320B3226
:10559E000A320932112A000E09140D6E000E0A1479
:1055AE000E6E000E0B140F6EFF0E0C14106E0D50BF
:1055BE000E100F101010D8A4E8D709C001F00AC0C1
:1055CE0002F00BC003F011C004F0000E056E23ECC8
:1055DE0028F001C009F002C00AF003C00BF012005F
:1055EE0039C142F13AC143F1000E0101446F000E80
:1055FE000101456F3D0E0101406F010E0101416F2A
:10560E00420E0101166F010E0101176F3BC118F119
:10561E003CC119F1400E01011A6F010E01011B6F01
:10562E0077EC03F042C1D9FF43C1DAFF000EDF6E03
:10563E001200420EF66E5B0EF76E000EF86E09004B
:10564E00F5CFD0F00900F5CFD1F0440EF66E5B0E1B
:10565E00F76E000EF86E0900F5CF5EF000EEB7F0B3
:10566E00130EEE6AE806FDE15B6A5A6A596A586AD9
:10567E005F905F92000EF86E000165EF1DF0010164
:10568E0013510101141101011511D8B409D0000EE6
:10569E000101131B000E0101141B800E0101151BCD
:1056AE0010C107F111C108F112C109F113C10AF1BC
:1056BE0014C10BF115C10CF10EEC1BF007C110F16A
:1056CE0008C111F109C112F11200000E0001956F0F
:1056DE00000E946F10D00001945100019225D96EE6
:1056EE000001955100019321DA6EDF5090EC2BF002
:1056FE000001944B952B0001945100019225D96E17
:10570E000001955100019321DA6EDF50D8B41200DA
:10571E00E2D70001916F000191510F0B00018F6FC5
:10572E0000019151F00B0001906F898800019039B2
:10573E000F0B31EC2CF0898A350EE82EFED700F0D7
:10574E00899A00018F5131EC2CF0898A350EE82EA2
:10575E00FED700F0899A1200110ED56E150ED76E77
:10576E009F0ED66ED650D7CF90F00001916B90C0A1
:10577E0091F00001906B000190115C6E000191514F
:10578E005D6EF294F28A4A0E00018E6F5A0E00017F
:10579E008F6F80EC2DF099EC2DF01200D6CF09F022
:1057AE00D7CF0AF05CC003F05DC004F0031E041EE8
:1057BE00034A042A09500AC005F0066A05C006F01D
:1057CE00056A0526000E062203500524076E0450B6
:1057DE000620086E07C001F008C002F01200245027
:1057EE0025102610D8B406D0000E241A000E251A45
:1057FE00800E261A21C015F022C016F023C017F015
:10580E0024C018F025C019F026C01AF019EC1FF0AC
:10581E0015C021F016C022F017C023F012000001AF
:10582E009C5100019E03F3CFA0F0F4CFA1F0000134
:10583E009C5100019F03F3500001A12700019D51CF
:10584E0000019E03F3500001A127A0C09CF0A1C04F
:10585E009DF0120000018E6F00018EA102D0898092
:10586E0001D0899000018EA302D0898201D0899245
:10587E0000018EA502D0898401D0899400018EA7E3
:10588E0002D08986120089961200000E546E000E08
:10589E00556E1E0E566E5B0E576E790E526E000EC4
:1058AE00536E540E466E000E476E77C048F078C0A9
:1058BE0049F0520E4A6E000E4B6EADEC0CF012001B
:1058CE0000018E5100018F1100019011D8B409D042
:1058DE00000E00018E1B000E00018F1B800E0001BA
:1058EE00901B8EC08EF08FC08FF090C090F0120083
:1058FE00000E896E3C0E8A6E1F0E8B6EC00E926E5F
:10590E00C30E936E200E946E200E0F013A6F000E92
:10591E000F01396F000E0F01386F6168F19E120092
:10592E00F2945D50D76E5CC0D6FF0001CE510001DF
:10593E00CF11D8B4120001D8120005000001FA6E82
:10594E00CE51FD6ECF51FE6EF850FF6EFA50120022
:10595E00F090F19A000E00018E6F000E00018F6F15
:10596E0085EC2DF0F086F292F19C000E00018E6F08
:10597E00000E00018F6F8AEC2DF0F28812000001EC
:10598E00906F000E00018F6F3A0E0001906107D0EC
:10599E002F0E0001906503D0010E00018F6F8FC096
:1059AE008EF000018E3112000001906F8998000177
:1059BE00905131EC2CF0898A150E00018F6FC60EB6
:1059CE00E82EFED78F2FFCD700D0899A12000F50E9
:1059DE001102F3CF13F0F4CF14F00F501202F35064
:1059EE00142610501102F350142613C00FF014C0D9
:1059FE0010F01200015002100310D8B406D0000EA1
:105A0E00011A000E021A800E031A01C001F002C024
:105A1E0002F003C003F0120009C001F00AC002F048
:105A2E00036A8E0E046E000E056E23EC28F001C084
:105A3E0009F002C00AF003C00BF012008BAE02D0C8
:105A4E00010E01D0000EFF0A016E013201328B50A1
:105A5E0001187F0B01188B6E1200036E000E026E82
:105A6E003A0E036005D02F0E036402D0010E026EB3
:105A7E0002C001F0013012009BEC2DF07FEC2CF0F7
:105A8E0073EC2DF0AFEC2CF0B3EC2BF050EC2DF0C2
:105A9E001200080EB86E800EAB6E240EAC6EA00E09
:105AAE00AF6E010EB06E12005FB28FEF2DF00001DF
:105ABE008F6F00018F5165EC2DF0120000018E6F7B
:105ACE009EA8FED78EC0ADFF1200000EDBEC2CF0B0
:105ADE00010EDBEC2CF01200700ED36E040ED26EA3
:105AEE00000E9B6E1200016E9EA8FED701C0ADFF88
:105AFE0012008EC0CEF08FC0CFF012008EC0CCF050
:105B0E008FC0CDF012008EC0CAF08FC0CBF0120045
:105B1E00026E02507AEC2DF012005D50D76E5CC012
:105B2E00D6FF1200D58E1200D09E1200D58E120016
:075B3E00D59E120070460223
:020000040020DA
:08000000FFFFFFFFFFFFFFFF00
:020000040030CA
:0E000000FF231F3CFFBF85FF0FC00FE00F4026
:00000001FF
