:040000004AEF00F0D3
:100008001C82FACF01F0FBCF02F0E9CF03F0EACF70
:1000180004F0E1CF05F0E2CF06F0D9CF07F0DACF50
:1000280008F0F3CF09F0F4CF0AF0F6CF0BF0F7CFD2
:100038000CF0F8CF0DF0F5CF0EF0F2BAF2A403D021
:10004800A3EC00F005D0F2B8F2A202D002EC01F065
:100058000EC0F5FF0DC0F8FF0CC0F7FF0BC0F6FF90
:100068000AC0F4FF09C0F3FF08C0DAFF07C0D9FFD0
:1000780006C0E2FF05C0E1FF04C0EAFF03C0E9FFD4
:1000880002C0FBFF01C0FAFF1C921100EAEF00F06A
:10009800C8EC00F08AA202D0010E01D0000EFF0ABF
:1000A800136E13468A501318FD0B13188A6E000E30
:1000B800156E000E146E15BE06D01550EBE1050E38
:1000C800145CD8B0E7D7340E136EF20EE82EFED7C4
:1000D800132EFCD7144A152AEED7110ED56ED76801
:1000E800FE0ED66ED650D7CF11F0126A11C012F09C
:1000F800116A11101A6E12501B6EF294F28A140EC5
:100108000F6E020E106EF8EC00F006EC01F0120013
:10011800000E896E020E8A6E000E8B6E9268FD0EBE
:10012800936EBF0E946EBC0E0F013A6F3C0E0F011A
:10013800396F2F0E0F01386F6168F19E1200F2942B
:100148001B50D76E1AC0D6FF18501910D8B4120019
:1001580001D812000500FA6E1850FD6E1950FE6E97
:10016800F850FF6EFA50120016501710D8B412004B
:1001780001D812000500FA6E1650FD6E1750FE6E7B
:10018800F850FF6EFA50120008EC01F08CEC00F009
:10019800F1EC00F0E0EC00F071EC00F0D5EC00F0D0
:1001A8001200080EB86E800EAB6E240EAC6EA00E58
:1001B800AF6E010EB06E1200F292F19C160E0F6E29
:1001C800020E106EFDEC00F0F28812001C901C92DA
:1001D800000EF86E00014CEF00F0700ED36E040EA6
:1001E800D26E000E9B6E12000FC018F010C019F0EE
:1001F80012000FC016F010C017F01200F292B8ECFF
:1002080000F01200D58E1200D09E120012001200CB
:020000040020DA
:08000000FFFFFFFFFFFFFFFF00
:020000040030CA
:0E000000FF231F3CFFBF85FF0FC00FE00F4026
:00000001FF
