:0400000058EF00F0C5
:100008005F82FACF97F0FBCF98F0E9CF99F0EACF6B
:100018009AF0E1CF9BF0E2CF9CF0D9CF9DF0DACFF8
:100028009EF0F3CF9FF0F4CFA0F0F6CFA1F0F7CF7A
:10003800A2F0F8CFA3F0F5CFA4F0F2BC9DA005D0B4
:100048009EA003D039EC17F011D0F0B6F0A003D081
:10005800ECEC15F00BD0F2B8F2A203D035EC13F0AB
:1000680005D0F2BAF2A402D06AEC17F0A4C0F5FFEA
:10007800A3C0F8FFA2C0F7FFA1C0F6FFA0C0F4FF1D
:100088009FC0F3FF9EC0DAFF9DC0D9FF9CC0E2FF6E
:100098009BC0E1FF9AC0EAFF99C0E9FF98C0FBFF47
:0C00A80097C0FAFF5F921100C6EF15F040
:1006000000010000000A00000064000000E8030090
:100610000010270000A086010040420F008096983D
:100620000000E1F50500CA9A3B00803FCDCC3DD7E4
:10063000233C12833AB7D138C62737388635C0D61F
:1006400033CC2B32708930E7DB2EE53C1E42A20D05
:1006500000803F00204100C842007A44401C4650C0
:10066000C34724744997184BBCBE4C6B6E4E0315A0
:100670005079AD60F3497100003F9AF940DCD842EF
:10068000708A45C0DA47000102030402030304052F
:100690000D0A53657474696E672072616E67652018
:1006A0003D2025640D0A00433D4552524F52202003
:1006B000202020202020200052616E6765202564C4
:1006C000202825642920202000256C752E25362E13
:1006D000366C7500433D2531322E33666E4600433D
:1006E0003D2531322E3066704600433D2531322E95
:1006F00036667546000012EF0BF0250E00017619E4
:10070000D8B436D020EE02F04050D9264150DA223B
:10071000DE50DE10D8B415D020EE02F04050D926BD
:100720004150DA2202D812EF0BF00500FA6EDE50CB
:10073000FD6EDE50FE6EF850FF6EFA5000017651ED
:10074000120040C0D9FF41C0DAFFDECF46F0DDCF56
:1007500047F046C0D9FF47C0DAFF76C0DFFF40C090
:10076000D9FF41C0DAFFDE2A000EDD2212EF0BF0C6
:10077000000E0001646F000E636F000E0001666FD3
:10078000000E656F42C0F6FF43C0F7FF0800F5504A
:1007900010EC18F0D8A035D0000E0001646F000EE8
:1007A000636F63C00FF064C010F0000E126E0A0E8B
:1007B000116EABEC17F00FC063F010C064F0D00EF8
:1007C000466EFF0E476E42C0F6FF43C0F7FF0800BB
:1007D000F550486E496A46504826475049224850CD
:1007E00000016327495000016423424A432A42C062
:1007F000F6FF43C0F7FF0800F55010EC18F0D8B032
:10080000D0D742C0F6FF43C0F7FF0800F5502E0ACC
:10081000D8A432D00001668D424A432A000E00015E
:10082000756F000E746F1DD074C00FF075C010F09E
:10083000000E126E0A0E116EABEC17F042C0F6FFFE
:1008400043C0F7FF0800F5500F26000E1022D00E0F
:100850000F240001746FFF0E10200001756F424AD3
:10086000432A42C0F6FF43C0F7FF0800F55010ECE2
:1008700018F0D8A012D0D8D7000E0001756F000E66
:10088000746F0001668909D00001658906D00001F6
:10089000668523D00001658D20D042C0F6FF43C09D
:1008A000F7FF424A432A0800F5CF76F0000176515F
:1008B000000AD8B420EF0BF0640AD8B40ED0020AB4
:1008C000D8B4E5D70F0AD8B408D0050AD8B4DCD715
:1008D000190AD8B4DFD712EF0BF0070E0001661526
:1008E000D8B4E9EF08F0000166A905D0000E0001B8
:1008F000756F060E746F44C0D9FF45C0DAFFDFCFB5
:1009000046F0030EDE26DFCF47F0000EDD2246C0A4
:10091000D9FF47C0DAFFDECF71F0DECF72F0DDCF56
:1009200073F0000173AF11D071C001F072C002F01A
:1009300073C003F0BEEC17F001C071F002C072F09A
:1009400003C073F0030E00016513000E0001686F11
:10095000000E676F000171510001721100017311E7
:10096000D8B48BD0820E466EFF0E476E71C048F031
:1009700072C049F073C04AF074C04BF0100E05D03D
:10098000D8904B324A3249324832E82EF9D7485093
:1009900046240001676F000E47200001686F0001C8
:1009A0006707D8A0680767C00FF068C010F0000E96
:1009B000126E030E116EABEC17F00FC067F010C093
:1009C00068F067C007F068C008F0000E0A6E0A0EF3
:1009D000096E46EC14F007C067F008C068F000012B
:1009E00068AF04D000016707D8A06807000167510D
:1009F000000825EC0BF024C06DF025C06EF026C079
:100A00006FF06DC015F06EC016F06FC017F071C0BA
:100A100018F072C019F073C01AF048EC12F015C04B
:100A20006DF016C06EF017C06FF06DC001F06EC0B3
:100A300002F06FC003F0000E046E800E056E3F0ED4
:100A4000066EFEEC13F0D8B005D000016707D8A001
:100A5000680713D06DC001F06EC002F06FC003F0E4
:100A6000000E046E200E056E410E066EFEEC13F0B5
:100A7000D8A003D00001674B682B000175BF08D0D8
:100A8000000175511DE10D0E0001745DD8B018D044
:100A900071C02EF072C02FF073C030F0000174519D
:100AA0001DEC0DF024C031F025C032F026C033F02B
:100AB00040EC0EF02EC071F02FC072F030C073F019
:100AC000000168BF08D00001685126E10A0E00014C
:100AD000675DD8B021D00001715100017211000191
:100AE0007311D8B45BD071C024F072C025F073C00C
:100AF00026F0CEEC11F02450251026102710D8A493
:100B00004DD0000168BF4AD00001685105E1020ED6
:100B10000001675DD8A042D06DC001F06EC002F048
:100B20006FC003F0700E046E890E056E400E066EE7
:100B3000FEEC13F0D8B003D00001F70E02D0000194
:100B4000F80E6727FF0E68230001675125EC0BF0B4
:100B500024C06DF025C06EF026C06FF071C001F0AA
:100B600072C002F073C003F06DC004F06EC005F0F7
:100B70006FC006F0A1EC10F001C069F002C06AF08D
:100B800003C06BF004C06CF0000E0001716F000E2A
:100B90000001726F000E0001736F33D071C024F03A
:100BA00072C025F073C026F0CEEC11F024C069F0BD
:100BB00025C06AF026C06BF027C06CF071C03AF017
:100BC00072C03BF073C03CF069C009F06AC00AF023
:100BD0006BC00BF06CC00CF070EC15F009C03DF070
:100BE0000AC03EF00BC03FF076EC16F03AC071F050
:100BF0003BC072F03CC073F0000E0001686F000E45
:100C0000676F010E0001766F0A0E00017619D8B4E5
:100C10001ED000017651040D010EF324F66E060E6F
:100C2000F420F76E0900F5500001695D0900F550E8
:100C300000016A590900F55000016B590900F5508F
:100C400000016C59D8A003D00001762BDDD776C007
:100C500046F0476A46BE4706000174514626000129
:100C6000755147220001675146260001685147220D
:100C700046500001635F47500001645B00017451FE
:100C800000017511D8B404D000016307D8A064072F
:100C9000030E00016515466E000E00016615476ED5
:100CA00046504710D8B437D032D020EE02F0405032
:100CB000D9264150DA22DE50DE10D8B413D020EE0F
:100CC00002F04050D9264150DA2201D820D0050048
:100CD000FA6EDE50FD6EDE50FE6EF850FF6EFA507A
:100CE000200E120040C0D9FF41C0DAFFDECF46F02F
:100CF000DDCF47F046C0D9FF47C0DAFF200EDF6ED8
:100D000040C0D9FF41C0DAFFDE2A000EDD2200011B
:100D10006307D8A06407000164BF07D000016451D5
:100D2000C4E100016305D8B0C0D7030E000165150A
:100D3000466E000E00016615476E46504710D8B447
:100D4000A4D020EE02F04050D9264150DA22DE50E5
:100D5000DE10D8B413D020EE02F04050D926415016
:100D6000DA2201D892D00500FA6EDE50FD6EDE5018
:100D7000FE6EF850FF6EFA502D0E120040C0D9FFE3
:100D800041C0DAFFDECF46F0DDCF47F046C0D9FFE5
:100D900047C0DAFF2D0E77D040C0D9FF41C0DAFF3F
:100DA000DE2A000EDD2271D069C001F06AC002F0B7
:100DB0006BC003F06CC004F000017651040D010E0D
:100DC000F324F66E060EF420F76E0900F5CF05F059
:100DD0000900F5CF06F00900F5CF07F00A00F5CFBE
:100DE00008F088EC14F001C06DF002C06EF003C092
:100DF0006FF004C070F06DC00EF06EC00FF06FC0E9
:100E000010F070C011F00A0E126E000E136E000E7C
:100E1000146E000E156E3DEC15F00EC06DF00FC097
:100E20006EF010C06FF011C070F020EE02F0405074
:100E3000D9264150DA22DE50DE10D8B415D020EE8B
:100E400002F04050D9264150DA2201D81ED00500C8
:100E5000FA6EDE50FD6EDE50FE6EF850FF6EFA50F8
:100E600000016D51300F120000016D51300F40C074
:100E7000D9FF41C0DAFFDECF46F0DDCF47F046C0F4
:100E8000D9FF47C0DAFFDF6E87D700017607000180
:100E90007629D8B437D088D720EE02F04050D92632
:100EA0004150DA22DE50DE10D8B413D020EE02F02A
:100EB0004050D9264150DA2201D820D00500FA6EE0
:100EC000DE50FD6EDE50FE6EF850FF6EFA50300EB2
:100ED000120040C0D9FF41C0DAFFDECF46F0DDCFBF
:100EE00047F046C0D9FF47C0DAFF300EDF6E40C082
:100EF000D9FF41C0DAFFDE2A000EDD2200016707BC
:100F0000D8A06807000168BF07D000016851C4E19C
:100F100000016705D8B0C0D7000175BF0CD0000133
:100F2000755105E1090E0001745DD8A004D0080ECA
:100F30000001766F02D074C076F000017651000196
:100F4000745F000E000176BFFF0E0001755B0001AB
:100F500076510001D8B432D020EE02F04050D926AC
:100F60004150DA22DE50DE10D8B413D020EE02F069
:100F70004050D9264150DA2201D820D00500FA6E1F
:100F8000DE50FD6EDE50FE6EF850FF6EFA502E0EF3
:100F9000120040C0D9FF41C0DAFFDECF46F0DDCFFE
:100FA00047F046C0D9FF47C0DAFF2E0EDF6E40C0C3
:100FB000D9FF41C0DAFFDE2A000EDD2200017651A2
:100FC00025EC0BF024C060F025C061F026C062F073
:100FD00071C018F072C019F073C01AF060C015F03B
:100FE00061C016F062C017F048EC12F015C024F092
:100FF00016C025F017C026F0CEEC11F024C069F021
:1010000025C06AF026C06BF027C06CF09ED069C086
:1010100001F06AC002F06BC003F06CC004F0000184
:101020007651040D010EF324F66E060EF420F76ED1
:101030000900F5CF05F00900F5CF06F00900F5CF5E
:1010400007F00A00F5CF08F088EC14F001C06DF04D
:1010500002C06EF003C06FF004C070F06DC00EF0FF
:101060006EC00FF06FC010F070C011F00A0E126E5B
:10107000000E136E000E146E000E156E3DEC15F092
:101080000EC06DF00FC06EF010C06FF011C070F0A8
:1010900020EE02F04050D9264150DA22DE50DE1018
:1010A000D8B415D020EE02F04050D9264150DA22B3
:1010B00001D824D00500FA6EDE50FD6EDE50FE6EC3
:1010C000F850FF6EFA5000016D51300F1200000110
:1010D0006D51300F40C0D9FF41C0DAFFDECF46F07E
:1010E000DDCF47F046C0D9FF47C0DAFFDF6E40C012
:1010F000D9FF41C0DAFFDE2A000EDD2269C00EF002
:101100006AC00FF06BC010F06CC011F00001765196
:10111000040D010EF324F66E060EF420F76E09009E
:10112000F5CF12F00900F5CF13F00900F5CF14F058
:101130000A00F5CF15F03DEC15F00EC069F00FC0B8
:101140006AF010C06BF011C06CF00001760700016E
:101150007629D8B437D05BD720EE02F04050D9269C
:101160004150DA22DE50DE10D8B413D020EE02F067
:101170004050D9264150DA2201D820D00500FA6E1D
:10118000DE50FD6EDE50FE6EF850FF6EFA50300EEF
:10119000120040C0D9FF41C0DAFFDECF46F0DDCFFC
:1011A00047F046C0D9FF47C0DAFF300EDF6E40C0BF
:1011B000D9FF41C0DAFFDE2A000EDD2200017407EC
:1011C000D8A075070001745100017511D8B42AD256
:1011D000C3D7000165BD46D0000165A919D044C040
:1011E000D9FF45C0DAFFDFCF46F0040EDE26DFCFA1
:1011F00047F0000EDD2246C0D9FF47C0DAFFDECF40
:1012000069F0DECF6AF0DECF6BF0DECF6CF01AD083
:1012100044C0D9FF45C0DAFFDFCF46F0020EDE261C
:10122000DFCF47F0000EDD2246C0D9FF47C0DAFF0E
:10123000DECF69F0DDCF6AF00001000E6ABFFF0E5D
:101240006B6F6C6F00016CAF44D0030E000165132F
:1012500000016C1F6B1F6A1F696D000E6A236B23F0
:101260006C2337D0000165A919D044C0D9FF45C00F
:10127000DAFFDFCF46F0040EDE26DFCF47F0000EA8
:10128000DD2246C0D9FF47C0DAFFDECF69F0DECFEE
:101290006AF0DECF6BF0DECF6CF01BD044C0D9FF1C
:1012A00045C0DAFFDFCF46F0020EDE26DFCF47F083
:1012B000000EDD2246C0D9FF47C0DAFFDECF48F07E
:1012C000DDCF49F048C069F049C06AF000016B6B9E
:1012D0006C6B0001745100017511D8A40DD0000190
:1012E000695100016A1100016B1100016C11D8A451
:1012F00003D00001744B752B010E0001766F0A0EAE
:1013000000017619D8B41ED000017651040D010EEB
:10131000F324F66E060EF420F76E0900F550000176
:10132000695D0900F55000016A590900F550000196
:101330006B590900F55000016C59D8A003D0000189
:10134000762BDDD7800E000176BF7F0E466E000142
:1013500074510001765D00017551800A4658D8B07D
:1013600003D074C076F016D000017551800A466E25
:10137000000176510001745D800E000176BF7F0E82
:101380004658D8B007D0000176510001746F756BD4
:1013900074BF75070001635100016411D8B410D007
:1013A000030E00016515466E000E00016615476EBE
:1013B00046504710D8B404D000016307D8A0640792
:1013C000000166AD1CD0000163510001745D000195
:1013D0007551800A466E00016451800A4658D8B0A3
:1013E00009D0000174510001635F000175510001D3
:1013F000645B05D0000E0001646F000E636F800E09
:10140000000176BF7F0E466E000163510001765DDC
:1014100000016451800A4658D8B00BD000017651C3
:101420000001635F000E000176BFFF0E0001645BE8
:1014300005D0000E0001646F000E636F0001635160
:1014400000016411D8B43CD020EE02F04050D926FF
:101450004150DA22DE50DE10D8B413D020EE02F074
:101460004050D9264150DA2201D820D00500FA6E2A
:10147000DE50FD6EDE50FE6EF850FF6EFA50200E0C
:10148000120040C0D9FF41C0DAFFDECF46F0DDCF09
:1014900047F046C0D9FF47C0DAFF200EDF6E40C0DC
:1014A000D9FF41C0DAFFDE2A000EDD22000163070A
:1014B000D8A064070001635100016411D8A4C4D707
:1014C000030E00016515466E000E00016615476E9D
:1014D00046504710D8B49BD020EE02F04050D92699
:1014E0004150DA22DE50DE10D8B413D020EE02F0E4
:1014F0004050D9264150DA2201D889D00500FA6E31
:10150000DE50FD6EDE50FE6EF850FF6EFA502D0E6E
:10151000120040C0D9FF41C0DAFFDECF46F0DDCF78
:1015200047F046C0D9FF47C0DAFF2D0EDF6E68D006
:1015300074C046F075C047F0D89046364736D8900C
:1015400046364736010E4624F66E060E4720F76EE5
:101550000900F5CF05F00900F5CF06F00900F5CF39
:1015600007F00A00F5CF08F069C001F06AC002F088
:101570006BC003F06CC004F088EC14F001C00EF0F6
:1015800002C00FF003C010F004C011F00A0E126E7A
:10159000000E136E000E146E000E156E3DEC15F06D
:1015A0000E50300F0001766F20EE02F04050D92629
:1015B0004150DA22DE50DE10D8B414D020EE02F012
:1015C0004050D9264150DA2201D821D00500FA6EC8
:1015D000DE50FD6EDE50FE6EF850FF6EFA500001D8
:1015E0007651120040C0D9FF41C0DAFFDECF46F08D
:1015F000DDCF47F046C0D9FF47C0DAFF76C0DFFF36
:1016000040C0D9FF41C0DAFFDE2A000EDD22000112
:101610007407D8A07507000174298AE100017529B3
:10162000D8A486D742C0F6FF43C0F7FF424A432AF8
:101630000800F5CF76F000017651D8A47DEF03F0D5
:10164000000E416E000E406E12002A6E2AAEFBD0D4
:101650002A6C2A50800A120FD8A091D0000E126E68
:10166000030E116E000E0A6E0A0E096E000E046E55
:10167000640E036E2A50016E026A01BE020605EC7A
:1016800015F001C007F002C008F046EC14F0090E96
:1016900007240F6E000E0820106EABEC17F0290E19
:1016A0000F24F66E060E1020F76E0900F5CF18F025
:1016B0000900F5CF19F00A00F5CF1AF0000E0A6EF6
:1016C000640E096E2A50076E086A07BE080646ECCB
:1016D00014F0120E07240F6E000E0820106E000E7C
:1016E000126E030E116EABEC17F0290E0F24F66E7E
:1016F000060E1020F76E0900F5CF15F00900F5CFA2
:1017000016F00A00F5CF17F048EC12F015C027F0DC
:1017100016C028F017C029F027C015F028C016F011
:1017200029C017F0000E126E030E116E000E046E2B
:101730000A0E036E2A50016E026A01BE020605EC13
:1017400015F001C00FF002C010F0ABEC17F0290E3D
:101750000F24F66E060E1020F76E0900F5CF18F074
:101760000900F5CF19F00A00F5CF1AF048EC12F095
:1017700015C024F016C025F017C026F012002A501C
:10178000800A750FD8A04DD0000E0A6E0A0E096EA1
:101790002A50076E086A07BE080646EC14F0090EC8
:1017A00007240F6E000E0820106E000E126E030E3E
:1017B000116EABEC17F0290E0F24F66E060E1020FA
:1017C000F76E0900F5CF15F00900F5CF16F00A0005
:1017D000F5CF17F0000E126E030E116E000E046EA0
:1017E0000A0E036E2A50016E026A01BE020605EC63
:1017F00015F001C00FF002C010F0ABEC17F0290E8D
:101800000F24F66E060E1020F76E0900F5CF18F0C3
:101810000900F5CF19F00A00F5CF1AF048EC12F0E4
:10182000A7D72A50030D290EF324F66E060EF420D6
:10183000F76E0900F5CF24F00900F5CF25F00A0076
:10184000F5CF26F012002A50800A120FD8A091D0AE
:10185000000E126E030E116E000E0A6E0A0E096E55
:10186000000E046E640E036E2A50016E026A01BE01
:10187000020605EC15F001C007F002C008F046ECC6
:1018800014F0090E07240F6E000E0820106EABEC4A
:1018900017F0500E0F24F66E060E1020F76E09009A
:1018A000F5CF18F00900F5CF19F00A00F5CF1AF0BE
:1018B000000E0A6E640E096E2A50076E086A07BE93
:1018C000080646EC14F0120E07240F6E000E0820D6
:1018D000106E000E126E030E116EABEC17F0500E70
:1018E0000F24F66E060E1020F76E0900F5CF15F0E6
:1018F0000900F5CF16F00A00F5CF17F048EC12F00A
:1019000015C027F016C028F017C029F027C015F021
:1019100028C016F029C017F0000E126E030E116ECB
:10192000000E046E0A0E036E2A50016E026A01BE9A
:10193000020605EC15F001C00FF002C010F0ABEC90
:1019400017F0500E0F24F66E060E1020F76E0900E9
:10195000F5CF18F00900F5CF19F00A00F5CF1AF00D
:1019600048EC12F015C024F016C025F017C026F080
:1019700012002A50800A750FD8A04DD0000E0A6EB2
:101980000A0E096E2A50076E086A07BE080646EC62
:1019900014F0090E07240F6E000E0820106E000EC2
:1019A000126E030E116EABEC17F0500E0F24F66E94
:1019B000060E1020F76E0900F5CF15F00900F5CFDF
:1019C00016F00A00F5CF17F0000E126E030E116E1E
:1019D000000E046E0A0E036E2A50016E026A01BEEA
:1019E000020605EC15F001C00FF002C010F0ABECE0
:1019F00017F0500E0F24F66E060E1020F76E090039
:101A0000F5CF18F00900F5CF19F00A00F5CF1AF05C
:101A100048EC12F0A7D72A50030D500EF324F66EAF
:101A2000060EF420F76E0900F5CF24F00900F5CF7B
:101A300025F00A00F5CF26F012002D6E6D0E2D64F4
:101A40009FD0000E126E030E116E000E0A6E0A0E6B
:101A5000096E000E046E640E036E2DC001F0026A62
:101A600005EC15F001C007F002C008F046EC14F0D8
:101A7000090E07240F6E000E0820106EABEC17F055
:101A8000290E0F24F66E060E1020F76E0900F5CF12
:101A900018F00900F5CF19F00A00F5CF1AF0000E82
:101AA0000A6E640E096E2DC007F0086A46EC14F049
:101AB000120E07240F6E000E0820106E000E126E1C
:101AC000030E116EABEC17F0290E0F24F66E060E06
:101AD0001020F76E0900F5CF15F00900F5CF16F0CC
:101AE0000A00F5CF17F048EC12F015C02AF016C026
:101AF0002BF017C02CF0000E126E030E116E000EAC
:101B0000046E0A0E036E2DC001F0026A05EC15F09A
:101B100001C00FF002C010F0ABEC17F0290E0F243B
:101B2000F66E060E1020F76E0900F5CF18F00900CA
:101B3000F5CF19F00A00F5CF1AF02AC015F02BC026
:101B400016F02CC017F048EC12F015C027F016C0A4
:101B500028F017C029F027C015F028C016F029C0BA
:101B600017F0000E186E000E196E3F0E1A6E48EC3C
:101B700012F015C024F016C025F017C026F0120090
:101B80000A0E2D645DD0000E126E030E116E000E53
:101B9000046E0A0E036E2DC001F0026A05EC15F00A
:101BA00001C00FF002C010F0ABEC17F0290E0F24AB
:101BB000F66E060E1020F76E0900F5CF18F009003A
:101BC000F5CF19F00A00F5CF1AF0000E0A6E0A0ED2
:101BD000096E2DC007F0086A46EC14F0090E0724C0
:101BE0000F6E000E0820106E000E126E030E116EA6
:101BF000ABEC17F0290E0F24F66E060E1020F76ED0
:101C00000900F5CF15F00900F5CF16F00A00F5CF61
:101C100017F048EC12F015C02AF016C02BF017C0D0
:101C20002CF02AC015F02BC016F02CC017F0000EB7
:101C3000186E000E196E3F0E1A6E48EC12F099D70E
:101C40002D50030D290EF324F66E060EF420F76EC8
:101C50000900F5CF15F00900F5CF16F00A00F5CF11
:101C600017F0000E186E000E196E3F0E1A6E48EC3B
:101C700012F015C024F016C025F017C026F012008F
:101C800030C034F0356A366A2F34343601E335809B
:101C90003450396E33C034F0356A366A32343436F3
:101CA00001E335803450386E3950D8B40BD03850F9
:101CB000395CD8B00ED0395000083824346E180E74
:101CC000346407D031C02EF032C02FF033C030F072
:101CD00012003850D8B40BD03950385CD8B00ED080
:101CE000385000083924346E180E346407D02EC0E2
:101CF0002EF02FC02FF030C030F01200060E376EDD
:101D000030BE378E33BE378C2F8EFF0E2E16FF0E51
:101D10002F16000E3016328EFF0E3116FF0E3216C1
:101D2000000E33163850395CD8B01BD0D8903136FD
:101D300032363336380639503818D8B40DD0370615
:101D400037C034F0070E3416D8B406D0EFD7D89089
:101D500030322F322E32392A38503918D8B41FD0A9
:101D6000F6D73950385CD8B01AD0D8902E362F36E6
:101D70003036390639503818D8B40DD0370637C048
:101D800034F0070E3416D8B406D0EFD7D8903332DB
:101D900032323132382A38503918D8A4F7D737AE12
:101DA0000CD0FF0E2E1AFF0E2F1AFF0E301A010E46
:101DB0002E26000E2F22000E302237AC0CD0FF0E44
:101DC000311AFF0E321AFF0E331A010E3126000EA1
:101DD0003222000E3322000E376E2E5031262F5045
:101DE00032223050332233AE0ED0FF0E311AFF0EA6
:101DF000321AFF0E331A010E3126000E3222000E67
:101E00003322010E376E31C001F032C002F033C010
:101E100003F039C004F037C005F0A7EC13F001C09F
:101E20002EF002C02FF003C030F012000B6E8A0EAD
:101E3000F66E060EF76E0800F5CF01F0010E026E89
:101E4000012A02D0D8900236012EFCD7890EF66EF8
:101E5000060EF76E0800F5CF03F0010E046E032A9C
:101E600002D0D8900436032EFCD7880EF66E060EEC
:101E7000F76E0800F5CF05F0010E066E052A02D0B8
:101E8000D8900636052EFCD7870EF66E060EF76E36
:101E90000800F5CF07F0010E086E072A02D0D8908F
:101EA0000836072EFCD7860EF66E060EF76E080073
:101EB000F5CF09F0010E0A6E092A02D0D8900A3631
:101EC000092EFCD70A5008100610041002108B12BD
:101ED0008F0EF66E060EF76E0800F5CF01F0010EBC
:101EE000026E012A02D0D8900236012EFCD78E0E47
:101EF000F66E060EF76E0800F5CF03F0010E046EC5
:101F0000032A02D0D8900436032EFCD78C0EF66E2E
:101F1000060EF76E0800F5CF05F0010E066E052AD5
:101F200002D0D8900636052EFCD78B0EF66E060E24
:101F3000F76E0800F5CF07F0010E086E072A02D0F1
:101F4000D8900836072EFCD708500610041002104F
:101F50008A12FF0E016EFF0E026E0B50036E046AB2
:101F60000150032602500422860E0324F66E060E4C
:101F70000420F76E0800F5CF05F0010E066E052A65
:101F800002D0D8900636052EFCD70650FF0A8B16D5
:101F9000FF0E016EFF0E026E0B50036E046A0150BD
:101FA0000326025004228B0E0324F66E060E042034
:101FB000F76E0800F5CF05F0010E066E052A02D077
:101FC000D8900636052EFCD70650FF0A8A16120056
:101FD0006EEC18F061EC18F0F2988B8EA5C001F051
:101FE000A6C002F0A7C003F0240E046E740E056EA6
:101FF000490E066EFEEC13F0D8A01FD0870E4C6E73
:10200000000E4D6EEA0E4E6E060E4F6EA5C03AF0F3
:10201000A6C03BF0A7C03CF0240E3D6E740E3E6E91
:10202000490E3F6EC2EC12F03AC050F03BC051F086
:102030003CC052F034EC16F05DD0A5C001F0A6C053
:1020400002F0A7C003F0240E046E740E056E490E54
:10205000066EFEEC13F0D8B02FD0A5C001F0A6C0DC
:1020600002F0A7C003F0000E046E7A0E056E440E57
:10207000066EFEEC13F0D8A01FD0870E4C6E000E3B
:102080004D6ED40E4E6E060E4F6EA5C03AF0A6C031
:102090003BF0A7C03CF0000E3D6E7A0E3E6E440E43
:1020A0003F6EC2EC12F03AC050F03BC051F03CC061
:1020B00052F034EC16F01ED00001A7AF0BD0870E03
:1020C0004C6E000E4D6EA70E4E6E060E4F6E34EC2B
:1020D00016F010D0870E4C6E000E4D6EDF0E4E6E59
:1020E000060E4F6EA5C050F0A6C051F0A7C052F02A
:1020F00034EC16F0770E4C6E000E4D6EB80E4E6E30
:10210000060E4F6E5DC050F0516A5CC052F0536ACB
:1021100034EC16F0010E096E870E0A6E000E0B6E7F
:10212000010E1FEC18F0020E096E770E0A6E000EFB
:102130000B6E010E1FEC18F0F2886CEC18F08B9E01
:10214000120003C007F0086A096A0234073601E387
:10215000088007500F6E0F50D8A409D0000E016EF2
:10216000000E026E000E036E000E046E120006C01A
:1021700007F0086A096A0534073601E3088007504A
:102180000E6E0E50D8A409D0000E016E000E026E25
:10219000000E036E000E046E1200028EFF0E01167A
:1021A000FF0E0216000E0316058EFF0E0416FF0E1C
:1021B0000516000E0616000E0A6E000E0B6E000EBF
:1021C0000C6E000E0D6E7F0E0F5E0E50980F0F5EA0
:1021D000180E0E6ED8900A360B360C360D3604509B
:1021E000015C0550025806500358D8A007D004508F
:1021F000015E0550025A0650035A0A80D8900136F3
:10220000023603360E2EE6D70FAE16D00F50800AD8
:10221000970FD8B009D0000E016E000E026E000EAE
:10222000036E000E046E1200D8900D320C320B3289
:102230000A320F3EF9D715D0170E0F640FD0000EDB
:10224000016E000E026E000E036E000E046E120090
:10225000D8900A360B360C360D360F060F50D8A420
:10226000F7D70AC001F00BC002F00CC003F00DC09C
:1022700004F01200033404340C6E0C50D8A409D0BE
:10228000000E016E000E026E000E036E000E046E54
:102290001200063407340B6E0B50D8A409D0000E80
:1022A000016E000E026E000E036E000E046E120030
:1022B000038EFF0E0116FF0E0216FF0E0316000E10
:1022C0000416068EFF0E0416FF0E0516FF0E0616E8
:1022D000000E0716000E076E000E086E000E096E47
:1022E000000E0A6E7F0E0C5E0B50A00F0C5E200ECF
:1022F0000B6ED8900736083609360A360450015C52
:10230000055002580650035807500458D8A009D069
:102310000450015E0550025A0650035A0750045AF1
:102320000780D89001360236033604360B2EE1D7EB
:102330000CAE16D00C50800A9F0FD8B009D0000EFA
:10234000016E000E026E000E036E000E046E12008F
:10235000D8900A320932083207320C3EF9D715D02C
:102360001F0E0C640FD0000E016E000E026E000EE8
:10237000036E000E046E1200D89007360836093638
:102380000A360C060C50D8A4F7D707C001F008C0D5
:1023900002F009C003F00AC004F0120026C028F0C1
:1023A000296A2A6A2534283601E329802850326EAA
:1023B0003250D8A409D0000E246E000E256E000EF7
:1023C000266E000E276E1200170E286E24C029F00C
:1023D00025C02AF026C02BF028282C6E04D0D890D7
:1023E0002B322A3229322C2EFAD729502D6E258EE7
:1023F000FF0E2416FF0E2516000E261624502E6EF4
:1024000025502F6E2650306E316A8E0E325E32AEFF
:1024100016D03250800A8F0FD8B009D0000E246E2B
:10242000000E256E000E266E000E276E1200D8904C
:10243000313230322F322E32323EF9D715D0170ECC
:1024400032640FD0000E246E000E256E000E266E34
:10245000000E276E1200D8902E362F3630363136C9
:1024600032063250D8A4F7D72D50D8B408D0311E38
:10247000301E2F1E2E6C000E2F22302231222EC035
:1024800024F02FC025F030C026F031C027F0120014
:1024900017C01BF01C6A1D6A16341B3601E31C8032
:1024A0001B501E6E1E50D8A407D0000E156E000ED5
:1024B000166E000E176E12001AC01BF01C6A1D6A01
:1024C00019341B3601E31C801B50236E2350D8A403
:1024D00007D0000E156E000E166E000E176E12005D
:1024E00023507B0F1E2617C023F01A50231A800E8C
:1024F0002316168E198EFF0E1816FF0E1916000ED3
:102500001A16000E1F6E000E206E000E216E070EB2
:10251000226E15A006D018501F26195020221A50DE
:102520002122D890173216321532D8901836193623
:102530001A36222EEED7090E226E15A006D018509C
:102540001F26195020221A502122D89017321632F5
:102550001532D890213220321F32222EEED71FC0E2
:1025600001F020C002F021C003F01EC004F023C01F
:1025700005F0A7EC13F001C015F002C016F003C07F
:1025800017F012003CC040F0416A426A3B344036CA
:1025900001E341804050476E4750D8A407D0000E59
:1025A0003A6E000E3B6E000E3C6E12003FC040F0D3
:1025B000416A426A3E34403601E341804050486EF1
:1025C0004850D8A407D0000E3A6E000E3B6E000EA5
:1025D0003C6E1200000E446E000E456E000E466EFC
:1025E0004850890F475E3CC048F03F50481A800E63
:1025F00048163B8EFF0E3A16FF0E3B16000E3C1699
:102600003E8EFF0E3D16FF0E3E16000E3F16180EB4
:10261000436ED8904436453646363D503A5C3E507F
:102620003B583F503C58D8A007D03D503A5E3E50F2
:102630003B5A3F503C5A4480D8903A363B363C3661
:10264000432EE7D744C001F045C002F046C003F076
:1026500047C004F048C005F0A7EC13F001C03AF001
:1026600002C03BF003C03CF012005E04D8A402D0CC
:102670008B9E12006EEC18F055EC16F001C0A8F01D
:1026800002C0A9F08B8E000E126E030E116EFF0EAB
:102690005D240F6E106AFF0E1022ABEC17F0770E60
:1026A0000F24F66E060E1020F76E0900F5CF18F015
:1026B0000900F5CF19F00A00F5CF1AF0000E316EBF
:1026C000D80E326EC10E336EA8C009F0A9C00AF050
:1026D000D0EC17F009C02EF00AC02FF00BC030F07C
:1026E00040EC0EF02EC015F02FC016F030C017F0E1
:1026F00048EC12F015C03AF016C03BF017C03CF0A1
:10270000A40E3D6E400E3E6E400E3F6EC2EC12F0C7
:102710003AC0A5F03BC0A6F03CC0A7F05C04D8A42A
:102720000FD0E80E0001A85D030E0001A959D8B032
:1027300007D0020E5D6404D05D065D5016EC0FF00C
:1027400061EC18F08B9E6CEC18F0F29212000450C1
:10275000D8B405D0015002100310D8A40CD0000E3C
:10276000016E000E026E000E036E1200042AD89055
:10277000033202320132000E0114066E000E021402
:10278000076EFE0E0314086E065007100810D8B42A
:102790000CD0ECD7042A010E0126000E0222000EF6
:1027A0000322D890033202320132000E0114066E69
:1027B000000E0214076EFF0E0314086E0650071079
:1027C0000810D8B406D0E6D70406D89001360236F1
:1027D000033602BE03D0020E0460F6D704A0029EA8
:1027E000D8900432045003120550D8A4038E01C0BF
:1027F00001F002C002F003C003F0120003AE16D0D5
:1028000001C007F002C008F003C009F0071E081E4F
:10281000091E072A000E08220922000E0724016E55
:10282000000E0820026E800E0920036E06AE16D040
:1028300004C007F005C008F006C009F0071E081E16
:10284000091E072A000E08220922000E0724046E22
:10285000000E0820056E800E0920066E000E011A7B
:10286000000E021A800E031A000E041A000E051A3A
:10287000800E061A0450015C055002580650035899
:10288000D8B002D0D8901200D8801200000E0C6E82
:102890000AAE06D0096C0A1ED8B00A2A010E0C6EC8
:1028A00008AE06D0076C081ED8B0082A010E0C1A14
:1028B000000E0E6E000E0D6E09500A10D8B41CD01A
:1028C000010E0B6E04D0D89009360A360B2A0AAED8
:1028D000FAD7D8900D360E360950075C0A500858C2
:1028E000D8A005D00950075E0A50085A0D80D8902C
:1028F0000A3209320B2EEDD70C50D8B404D00D6C2F
:102900000E1ED8B00E2A0DC007F00EC008F012003F
:10291000000E096E000E0A6E000E0B6E000E0C6E9D
:102920000550061007100810D8B42AD0010E0D6EFD
:1029300006D0D89005360636073608360D2A08AE7A
:10294000F8D7D89009360A360B360C360550015C9C
:10295000065002580750035808500458D8A009D010
:102960000550015E0650025A0750035A0850045A97
:102970000980D89008320732063205320D2EE1D791
:1029800009C001F00AC002F00BC003F00CC004F053
:102990001200000ED0EC16F0680E0101036FE40E79
:1029A000E82EFED7032FFCD700F0030E98EC17F0AB
:1029B0001A0E0101036FF80EE82EFED7032FFCD785
:1029C00000F0030E98EC17F03A0E0101036F230E8E
:1029D000E82EFED7032FFCD7030E98EC17F0020E5B
:1029E00098EC17F0020E98EC17F0080E98EC17F020
:1029F000000E98EC17F00C0E98EC17F0000E98EC07
:102A000017F0060E98EC17F01200000E066E02AEDC
:102A100006D0016C021ED8B0022A010E066E04AE6A
:102A200004D0036C041ED8B0042A03500410D8B498
:102A300018D0010E056E04D0D89003360436052A4E
:102A400004AEFAD70350015C04500258D8A004D059
:102A50000350015E0450025AD89004320332052E0E
:102A6000F1D70650D8B404D0016C021ED8B0022AA7
:102A700001C001F002C002F0120012501310141035
:102A80001510D8B424D0010E166E06D0D890123688
:102A9000133614361536162A15AEF8D712500E5CBA
:102AA00013500F581450105815501158D8A008D072
:102AB00012500E5E13500F5A1450105A1550115ADE
:102AC000D8901532143213321232162EE7D70EC0B8
:102AD0000EF00FC00FF010C010F011C011F0120076
:102AE0008E0E116E06D0D8900C320B320A3209329B
:102AF000112A000E09140D6E000E0A140E6E000E3F
:102B00000B140F6EFF0E0C14106E0D500E100F10E4
:102B10001010D8A4E8D709C001F00AC002F00BC019
:102B200003F011C004F0000E056EA7EC13F001C015
:102B300009F002C00AF003C00BF01200056E040495
:102B4000D8A410D005507F0F086E08380F0B066E02
:102B500008500F0B076E0650E2EC17F00750E2EC3E
:102B600017F01200020E0418D8A412000550BF0F6F
:102B7000086E08380F0B066E08500F0B076E0650D4
:102B8000E2EC17F00750E2EC17F01200E20EF66EDE
:102B9000300EF76E000EF86E0900F5CFC2F0090096
:102BA000F5CFC3F0E00EF66E300EF76E000EF86E45
:102BB0000900F5CF5CF00900F5CF5DF000EEA5F05F
:102BC000170EEE6AE806FDE15E6A5F905F92000E06
:102BD000F86E0001F2EF17F05C04D8A404D05DC0D9
:102BE000AAF0000E5C6E050E5D6002D05D2A02D078
:102BF000030E5D5E5C50D8A407D00001AA515D1899
:102C0000D8A402D0010E5C6E900E4C6E060E4D6E76
:102C10005DC04EF04F6AEBEC16F05D5016EC0FF015
:102C2000F0901200110ED56E150ED76E9F0ED66E57
:102C3000D650D7CF02F10101036B02C103F10101AC
:102C4000026B010102115A6E010103515B6EF29495
:102C5000F28A2C0E0101006F2D0E0101016F57EC5D
:102C600018F068EC18F012004CC056F04DC057F048
:102C7000000E586E000E596E500E546E000E556EBA
:102C8000560E406E000E416E4EC042F04FC043F0F3
:102C9000540E446E000E456E7BEC03F056C0D9FF17
:102CA00057C0DAFF000EDF6E1200D6CF09F0D7CF83
:102CB0000AF05AC003F05BC004F0031E041E034A6E
:102CC000042A09500AC005F0066A05C006F0056A24
:102CD0000526000E062203500524076E0450062028
:102CE000086E07C001F008C002F012003D503E100F
:102CF0003F10D8B406D0000E3D1A000E3E1A800ECA
:102D00003F1A3AC02EF03BC02FF03CC030F03DC01F
:102D100031F03EC032F03FC033F040EC0EF02EC038
:102D20003AF02FC03BF030C03CF012005E50D8A407
:102D30000FD08BAE02D0010E01D0000EFF0A0C6E38
:102D40000C320C328B500C187F0B0C188B6E01D090
:102D50008B9E5C04D8A41200050E5D6012005D2AF3
:102D60005D5016EC0FF01200046E04500F0B026E53
:102D70000450F00B036E898A03380F0B82EC17F0B6
:102D80008988350EE82EFED700F08998025082EC33
:102D900017F08988350EE82EFED700F089981200CA
:102DA0000101006F010100A102D0898601D089963E
:102DB000010100A302D0898401D08994010100A5FA
:102DC00002D0898201D08992010100A702D08980B6
:102DD000120089901200000E526E000E536EB80E53
:102DE000546E300E556E4E0E506E000E516E520ED9
:102DF000406E000E416E4CC042F04DC043F0500E8C
:102E0000446E000E456E7BEC03F01200000E086E5F
:102E1000000E076E0BD007500524D96E085006200F
:102E2000DA6EDF50B4EC16F0074A082A0750052482
:102E3000D96E08500620DA6EDF50D8B41200EBD7F6
:102E4000300ECD6E000ECC6E020ECF6E180ECE6E12
:102E5000CECFC0F0CFCFC1F09E909D80D00E0101AB
:102E6000006F1F0E0101016F52EC18F066EC18F0B4
:102E700012009E900001C151CF6EC0C0CEFF000174
:102E8000BE510001BF11D8B4120001D812000500D4
:102E90000001FA6EBE51FD6EBF51FE6EF850FF6E1E
:102EA000FA501200000E896E3C0E8A6E1F0E8B6E59
:102EB000C00E926EC30E936E200E946E200E0F0104
:102EC0003A6F000E0F01396F000E0F01386F616805
:102ED000F19E1200F2945B50D76E5AC0D6FF0001EB
:102EE000BC510001BD11D8B4120001D81200050078
:102EF0000001FA6EBC51FD6EBD51FE6EF850FF6EC2
:102F0000FA501200016E01A002D0898601D0899684
:102F100001A202D0898401D0899401A402D08982BF
:102F200001D0899201A602D08980120089901200F6
:102F30000101026F899A01010251D0EC16F08988D3
:102F4000150E0101016FC60EE82EFED7012FFCD72A
:102F500000F0899812000F501102F3CF13F0F4CF54
:102F600014F00F501202F350142610501102F350B7
:102F7000142613C00FF014C010F0120001500210FC
:102F80000310D8B406D0000E011A000E021A800EEB
:102F9000031A01C001F002C002F003C003F01200E6
:102FA00009C001F00AC002F0036A8E0E046E000E22
:102FB000056EA7EC13F001C009F002C00AF003C0CF
:102FC0000BF01200036E899A035082EC17F0898887
:102FD000150E026EC60EE82EFED7022EFCD700D0CC
:102FE0008998120001EC18F0F28EF28CC9EC14F002
:102FF00037EC18F01F0E8B123C0E8A128B928A96B9
:10300000FFD76AEC18F052EC17F03EEC18F045ECE4
:1030100018F020EC17F012EC16F02CEC18F012005F
:10302000036E000E026E3A0E036005D02F0E03648D
:1030300002D0010E026E02C001F0013012000C6ECF
:1030400009C004F00C509EEC15F00AC005F00BC04E
:1030500006F006EC17F01200080EB86E800EAB6E8C
:10306000240EAC6EA00EAF6E010EB06E1200000EFC
:1030700098EC17F0010E98EC17F01200700ED36E5A
:10308000040ED26E000E9B6E1200F090F19AF08644
:10309000F292F19CF2881200016E9EA8FED701C048
:1030A000ADFF120000C1BEF001C1BFF0120000C1AF
:1030B000BCF001C1BDF01200026E02504CEC18F0E1
:1030C00012005B50D76E5AC0D6FF1200CD8012009E
:1030D000D58E1200D09E1200D58E1200D59E120001
:0430E0000102704633
:020000040020DA
:08000000FFFFFFFFFFFFFFFF00
:020000040030CA
:0E000000FF231F3CFFBF85FF0FC00FE00F4026
:00000001FF
