:040000004AEF00F0D3
:100008005F82FACF77F0FBCF78F0E9CF79F0EACFCB
:100018007AF0E1CF7BF0E2CF7CF0D9CF7DF0DACF78
:100028007EF0F3CF7FF0F4CF80F0F6CF81F0F7CFFA
:1000380082F0F8CF83F0F5CF84F0F2BAF2A403D0BF
:1000480078EC29F005D0F2B8F2A202D0F7EC24F04F
:1000580084C0F5FF83C0F8FF82C0F7FF81C0F6FFB8
:1000680080C0F4FF7FC0F3FF7EC0DAFF7DC0D9FFF8
:100078007CC0E2FF7BC0E1FF7AC0EAFF79C0E9FFFC
:1000880078C0FBFF77C0FAFF5F9211004CEF2AF0AF
:1006000000010000000A00000064000000E8030090
:100610000010270000A086010040420F008096983D
:100620000000E1F50500CA9A3B00803FCDCC3DD7E4
:10063000233C12833AB7D138C62737388635C0D61F
:1006400033CC2B32708930E7DB2EE53C1E42A20D05
:1006500000803F00204100C842007A44401C4650C0
:10066000C34724744997184BBCBE4C6B6E4E0315A0
:100670005079AD60F3497143617061636974616E73
:1006800063653A2025302E32662070462028436F5D
:10069000756E743A202575290D0A00256C752E2576
:1006A000362E366C7500433A2531322E3066704650
:1006B00000002CEF0CF0250E01012819D8B438D019
:1006C000010120EE02F00651D9260751DA22DE5050
:1006D000DE10D8B416D0010120EE02F00651D92662
:1006E0000751DA2202D82CEF0CF00500FA6EDE502A
:1006F000FD6EDE50FE6EF850FF6EFA50010128517B
:10070000120006C1D9FF07C1DAFFDECF0CF1DDCF41
:100710000DF10CC1D9FF0DC1DAFF28C1DFFF06C101
:10072000D9FF07C1DAFFDE2A000EDD222CEF0CF024
:10073000000E0101226F000E216F000E0101206FDB
:10074000000E1F6F05D001011F850101084B092B09
:1007500008C1F6FF09C1F7FF0800F550300AD8B408
:10076000F2D708C1F6FF09C1F7FF0800F550C1EC48
:1007700029F0D8A040D0000E0101226F000E216F99
:1007800021C193F022C194F0000E0001966F0A0E71
:10079000956F27EC29F093C021F194C022F1D00E7F
:1007A00001010C6FFF0E01010D6F08C1F6FF09C1B9
:1007B000F7FF0800F55001010E6F0F6B01010C519E
:1007C00001010E2701010D5101010F2301010E51FD
:1007D0000101212701010F51010122230101084BD1
:1007E000092B08C1F6FF09C1F7FF0800F550C1EC5D
:1007F00029F0D8B0C5D708C1F6FF09C1F7FF080036
:10080000F5502E0AD8A439D00101208D0101084BE2
:10081000092B000E0101276F000E266F23D026C181
:1008200093F027C194F0000E0001966F0A0E956FA9
:1008300027EC29F008C1F6FF09C1F7FF0800F550C1
:1008400000019327000E00019423D00E0001932590
:100850000101266FFF0E000194210101276F0101A4
:10086000084B092B08C1F6FF09C1F7FF0800F55036
:10087000C1EC29F0D8A013D0D2D7000E0101276F08
:10088000000E266F010120890AD001011F8907D0BF
:10089000010120851FD0C00E01011F131BD008C10C
:1008A000F6FF09C1F7FF0101084B092B0800F5CF3E
:1008B00028F101012851000AD8B43BEF0CF0660A78
:1008C000D8B4E6D70A0AD8B4E0D7190AD8B4E3D71F
:1008D0002CEF0CF0070E01012015D8B4ABEF09F096
:1008E000010120A905D0000E0101276F060E266F19
:1008F0000AC1D9FF0BC1DAFFDFCF0CF1030EDE26F0
:10090000DFCF0DF1000EDD220CC1D9FF0DC1DAFFE2
:10091000DECF23F1DECF24F1DDCF25F1010125AFBC
:1009200011D023C185F024C186F025C187F091EC58
:1009300029F085C023F186C024F187C025F1030E7C
:1009400001011F13000E01011A6F000E196F010142
:1009500023510101241101012511D8B49BD0820E2D
:1009600001010C6FFF0E01010D6F23C10EF124C1B7
:100970000FF125C110F126C111F1100E06D00101B1
:10098000D890113310330F330E33E82EF8D701010E
:100990000E5101010C250101196F000E01010D21FD
:1009A00001011A6F01011907D8A01A0719C193F0A4
:1009B0001AC194F0000E0001966F030E956F27EC9C
:1009C00029F093C019F194C01AF119C18BF01AC122
:1009D0008CF0000E00018E6F0A0E8D6FE3EC23F099
:1009E0008BC019F18CC01AF101011AAF04D00101BA
:1009F0001907D8A01A07010119510008AFEC14F02B
:100A0000A8C01BF1A9C01CF1AAC01DF11BC199F01F
:100A10001CC19AF01DC19BF023C19CF024C19DF024
:100A200025C19EF014EC1FF099C01BF19AC01CF177
:100A30009BC01DF11BC185F01CC186F01DC187F054
:100A4000000E0001886F800E0001896F3F0E0001CB
:100A50008A6F7FEC23F00001D8B005D0010119079F
:100A6000D8A01A0717D01BC185F01CC186F01DC184
:100A700087F0000E0001886F200E0001896F410E83
:100A800000018A6F7FEC23F00001D8A003D00101A0
:100A9000194B1A2B010127BF08D0010127511DE175
:100AA0000D0E0101265DD8B018D023C1B2F024C1CB
:100AB000B3F025C1B4F001012651FEEC18F0A8C036
:100AC000B5F0A9C0B6F0AAC0B7F054EC1AF0B2C0A5
:100AD00023F1B3C024F1B4C025F101011ABF08D03D
:100AE00001011A512AE10A0E0101195DD8B025D081
:100AF000010123510101241101012511D8B463D052
:100B000023C1AFF024C1B0F025C1B1F0C3EC1FF098
:100B10000001AF510001B0110001B1110001B2118B
:100B2000D8A451D001011ABF4ED001011A5105E1DC
:100B3000020E0101195DD8A046D01BC185F01CC171
:100B400086F01DC187F0700E0001886F890E0001CC
:100B5000896F400E00018A6F7FEC23F00001D8B04E
:100B600003D00101F70E02D00101F80E1927FF0E84
:100B70001A2301011951AFEC14F0A8C01BF1A9C050
:100B80001CF1AAC01DF123C185F024C186F025C146
:100B900087F01BC188F01CC189F01DC18AF081EC6F
:100BA0001DF085C015F186C016F187C017F188C009
:100BB00018F1000E0101236F000E0101246F000ED9
:100BC0000101256F33D023C1AFF024C1B0F025C19E
:100BD000B1F0C3EC1FF0AFC015F1B0C016F1B1C059
:100BE00017F1B2C018F123C100F124C101F125C1F0
:100BF00002F115C18DF016C18EF017C18FF018C12A
:100C000090F0B4EC26F08DC003F18EC004F18FC0DB
:100C100005F155EC28F000C123F101C124F102C116
:100C200025F1000E01011A6F000E196F010E01016E
:100C3000286F0A0E01012819D8B41ED001012851CD
:100C4000040D010EF324F66E060EF420F76E090073
:100C5000F5500101155D0900F55001011659090013
:100C6000F550010117590900F55001011859D8A094
:100C700003D00101282BDDD728C10CF101010D6B38
:100C80000CBF0D070101265101010C27010127515D
:100C900001010D230101195101010C2701011A5114
:100CA00001010D2301010C510101215F01010D51D1
:100CB0000101225B0101265101012711D8B404D0A2
:100CC00001012107D8A02207030E01011F15010110
:100CD0000C6F000E0101201501010D6F01010C5177
:100CE00001010D11D8B404D001012107D8A02207B9
:100CF00001011FA5C0D0030E01011F1501010C6FDA
:100D0000000E0101201501010D6F01010C510101BF
:100D10000D11D8B46DD0010120EE02F00651D92694
:100D20000751DA22DE50DE10D8B414D0010120EED3
:100D300002F00651D9260751DA2201D859D0050010
:100D4000FA6EDE50FD6EDE50FE6EF850FF6EFA5009
:100D50002D0E120006C1D9FF07C1DAFFDECF0CF15C
:100D6000DDCF0DF10CC1D9FF0DC1DAFF2D0EDF6E05
:100D700006C1D9FF07C1DAFFDE2A000EDD2238D016
:100D8000010120EE02F00651D9260751DA22DE5089
:100D9000DE10D8B414D0010120EE02F00651D9269D
:100DA0000751DA2201D820D00500FA6EDE50FD6E20
:100DB000DE50FE6EF850FF6EFA50300E120006C183
:100DC000D9FF07C1DAFFDECF0CF1DDCF0DF10CC189
:100DD000D9FF0DC1DAFF300EDF6E06C1D9FF07C1A2
:100DE000DAFFDE2A000EDD2201012107D8A022074A
:100DF000010122BF03D101012251C2E101012105FC
:100E0000D8A0FCD0BDD7010120EE02F00651D926B2
:100E10000751DA22DE50DE10D8B414D0010120EEE2
:100E200002F00651D9260751DA2201D820D0050058
:100E3000FA6EDE50FD6EDE50FE6EF850FF6EFA5018
:100E4000200E120006C1D9FF07C1DAFFDECF0CF178
:100E5000DDCF0DF10CC1D9FF0DC1DAFF200EDF6E21
:100E600006C1D9FF07C1DAFFDE2A000EDD2201012B
:100E70002107D8A02207010122BF07D0010122517A
:100E8000C2E101012105D8B0BED7030E01011F1533
:100E900001010C6F000E0101201501010D6F010110
:100EA0000C5101010D11D8B4A9D0010120EE02F0BE
:100EB0000651D9260751DA22DE50DE10D8B414D0FC
:100EC000010120EE02F00651D9260751DA2201D89D
:100ED00095D00500FA6EDE50FD6EDE50FE6EF850C5
:100EE000FF6EFA502D0E120006C1D9FF07C1DAFFBE
:100EF000DECF0CF1DDCF0DF10CC1D9FF0DC1DAFF52
:100F00002D0E7AD006C1D9FF07C1DAFFDE2A000E06
:100F1000DD2274D015C185F016C186F017C187F0A7
:100F200018C188F001012851040D010EF324F66E5A
:100F3000060EF420F76E0900F5CF89F00900F5CF11
:100F40008AF00900F5CF8BF00A00F5CF8CF042EC67
:100F500024F085C01BF186C01CF187C01DF188C03C
:100F60001EF11BC192F01CC193F01DC194F01EC173
:100F700095F00A0E0001966F000E976F000E986FA5
:100F8000000E996F9CEC25F092C01BF193C01CF1F0
:100F900094C01DF195C01EF1010120EE02F0065132
:100FA000D9260751DA22DE50DE10D8B416D001015E
:100FB00020EE02F00651D9260751DA2201D81ED0C0
:100FC0000500FA6EDE50FD6EDE50FE6EF850FF6ECC
:100FD000FA5001011B51300F120001011B51300F5B
:100FE00006C1D9FF07C1DAFFDECF0CF1DDCF0DF16D
:100FF0000CC1D9FF0DC1DAFFDF6E84D701012807CC
:1010000001012829D8B439D085D7010120EE02F09A
:101010000651D9260751DA22DE50DE10D8B414D09A
:10102000010120EE02F00651D9260751DA2201D83B
:1010300020D00500FA6EDE50FD6EDE50FE6EF850D8
:10104000FF6EFA50300E120006C1D9FF07C1DAFF59
:10105000DECF0CF1DDCF0DF10CC1D9FF0DC1DAFFF0
:10106000300EDF6E06C1D9FF07C1DAFFDE2A000E9F
:10107000DD2201011907D8A01A0701011ABF07D004
:1010800001011A51C2E101011905D8B0BED7010111
:1010900027BF0CD00101275105E1090E0101265D92
:1010A000D8A004D0080E0101286F02D026C128F173
:1010B000010128510101265F000E010128BFFF0E2A
:1010C0000101275B010128510101D8B434D001018D
:1010D00020EE02F00651D9260751DA22DE50DE104A
:1010E000D8B414D0010120EE02F00651D9260751E0
:1010F000DA2201D820D00500FA6EDE50FD6EDE50F7
:10110000FE6EF850FF6EFA502E0E120006C1D9FF87
:1011100007C1DAFFDECF0CF1DDCF0DF10CC1D9FF35
:101120000DC1DAFF2E0EDF6E06C1D9FF07C1DAFF4F
:10113000DE2A000EDD2201012851AFEC14F0A8C018
:1011400012F1A9C013F1AAC014F123C19CF024C16B
:101150009DF025C19EF012C199F013C19AF014C1FF
:101160009BF014EC1FF099C0AFF09AC0B0F09BC098
:10117000B1F0C3EC1FF0AFC015F1B0C016F1B1C0B3
:1011800017F1B2C018F1A1D015C185F016C186F0D3
:1011900017C187F018C188F001012851040D010E14
:1011A000F324F66E060EF420F76E0900F5CF89F0F1
:1011B0000900F5CF8AF00900F5CF8BF00A00F5CFD2
:1011C0008CF042EC24F085C01BF186C01CF187C076
:1011D0001DF188C01EF11BC192F01CC193F01DC10E
:1011E00094F01EC195F00A0E0001966F000E976FE5
:1011F000000E986F000E996F9CEC25F092C01BF1C9
:1012000093C01CF194C01DF195C01EF1010120EEA8
:1012100002F00651D9260751DA22DE50DE10D8B48A
:1012200016D0010120EE02F00651D9260751DA222C
:1012300001D824D00500FA6EDE50FD6EDE50FE6E41
:10124000F850FF6EFA5001011B51300F12000101DE
:101250001B51300F06C1D9FF07C1DAFFDECF0CF1F9
:10126000DDCF0DF10CC1D9FF0DC1DAFFDF6E06C174
:10127000D9FF07C1DAFFDE2A000EDD2215C192F088
:1012800016C193F017C194F018C195F001012851CF
:10129000040D010EF324F66E060EF420F76E09001D
:1012A000F5CF96F00900F5CF97F00900F5CF98F04B
:1012B0000A00F5CF99F09CEC25F092C015F193C08F
:1012C00016F194C017F195C018F10101280701012A
:1012D0002829D8B439D058D7010120EE02F00651A0
:1012E000D9260751DA22DE50DE10D8B414D001011D
:1012F00020EE02F00651D9260751DA2201D820D07B
:101300000500FA6EDE50FD6EDE50FE6EF850FF6E88
:10131000FA50300E120006C1D9FF07C1DAFFDECF46
:101320000CF1DDCF0DF10CC1D9FF0DC1DAFF300E8C
:10133000DF6E06C1D9FF07C1DAFFDE2A000EDD220B
:1013400001012607D8A02707010126510101271115
:10135000D8B482D2C1D701011FA919D00AC1D9FFBF
:101360000BC1DAFFDFCF0CF1040EDE26DFCF0DF16B
:10137000000EDD220CC1D9FF0DC1DAFFDECF15F161
:10138000DECF16F1DECF17F1DECF18F11BD00AC188
:10139000D9FF0BC1DAFFDFCF0CF1020EDE26DFCF63
:1013A0000DF1000EDD220CC1D9FF0DC1DAFFDECF39
:1013B0000EF1DDCF0FF10EC115F10FC116F10101D4
:1013C000176B186B0101265101012711D8A40DD00C
:1013D0000101155101011611010117110101181127
:1013E000D8A403D00101264B272B010E0101286F41
:1013F0000A0E01012819D8B41ED001012851040D8C
:10140000010EF324F66E060EF420F76E0900F55077
:101410000101155D0900F550010116590900F5504B
:10142000010117590900F55001011859D8A003D03E
:101430000101282BDDD7800E010128BF7F0E01019D
:101440000C6F010126510101285D01012751800A1D
:1014500001010C59D8B003D026C128F118D00101E0
:101460002751800A01010C6F010128510101265DFD
:10147000800E010128BF7F0E01010C59D8B007D0A2
:10148000010128510101266F276B26BF27070101A3
:10149000215101012211D8B414D0030E01011F15EE
:1014A00001010C6F000E0101201501010D6F0101FA
:1014B0000C5101010D11D8B404D001012107D8A0AD
:1014C0002207010120AD1ED0010121510101265D3D
:1014D00001012751800A01010C6F01012251800A8C
:1014E00001010C59D8B009D0010126510101215F39
:1014F000010127510101225B05D0000E0101226F7D
:10150000000E216F800E010128BF7F0E01010C6FBC
:10151000010121510101285D01012251800A0101CF
:101520000C59D8B00BD0010128510101215F000EE8
:10153000010128BFFF0E0101225B05D0000E010151
:10154000226F000E216F01011FA583D0030E010140
:101550001F1501010C6F000E0101201501010D6F17
:1015600001010C5101010D11D8B434D0010120EE5C
:1015700002F00651D9260751DA22DE50DE10D8B427
:1015800014D0010120EE02F00651D9260751DA22CB
:1015900001D820D00500FA6EDE50FD6EDE50FE6EE2
:1015A000F850FF6EFA502D0E120006C1D9FF07C188
:1015B000DAFFDECF0CF1DDCF0DF10CC1D9FF0DC18B
:1015C000DAFF2D0EDF6E06C1D9FF07C1DAFFDE2A72
:1015D000000EDD220101215101012211D8B431D1C7
:1015E000010120EE02F00651D9260751DA22DE5021
:1015F000DE10D8B414D0010120EE02F00651D92635
:101600000751DA2201D820D00500FA6EDE50FD6EB7
:10161000DE50FE6EF850FF6EFA50300E120006C11A
:10162000D9FF07C1DAFFDECF0CF1DDCF0DF10CC120
:10163000D9FF0DC1DAFF300EDF6E06C1D9FF07C139
:10164000DAFFDE2A000EDD2201012107D8A02207E1
:10165000C1D70101215101012211D8B43ED00101AD
:1016600020EE02F00651D9260751DA22DE50DE10B4
:10167000D8B414D0010120EE02F00651D92607514A
:10168000DA2201D820D00500FA6EDE50FD6EDE5061
:10169000FE6EF850FF6EFA50200E120006C1D9FF00
:1016A00007C1DAFFDECF0CF1DDCF0DF10CC1D9FFA0
:1016B0000DC1DAFF200EDF6E06C1D9FF07C1DAFFC8
:1016C000DE2A000EDD2201012107D8A02207010138
:1016D000215101012211D8A4C2D7030E01011F1507
:1016E00001010C6F000E0101201501010D6F0101B8
:1016F0000C5101010D11D8B4A4D0010120EE02F06B
:101700000651D9260751DA22DE50DE10D8B414D0A3
:10171000010120EE02F00651D9260751DA2201D844
:1017200090D00500FA6EDE50FD6EDE50FE6EF85071
:10173000FF6EFA502D0E120006C1D9FF07C1DAFF65
:10174000DECF0CF1DDCF0DF10CC1D9FF0DC1DAFFF9
:101750002D0EDF6E6FD026C10CF127C10DF10101F6
:10176000D8900C370D370101D8900C370D37010E8A
:1017700001010C25F66E060E0D21F76E0900F5CF5E
:1017800089F00900F5CF8AF00900F5CF8BF00A0047
:10179000F5CF8CF015C185F016C186F017C187F022
:1017A00018C188F042EC24F085C092F086C093F016
:1017B00087C094F088C095F00A0E0001966F000E65
:1017C000976F000E986F000E996F9CEC25F000014A
:1017D0009251300F0101286F010120EE02F00651F5
:1017E000D9260751DA22DE50DE10D8B415D0010117
:1017F00020EE02F00651D9260751DA2201D821D075
:101800000500FA6EDE50FD6EDE50FE6EF850FF6E83
:10181000FA5001012851120006C1D9FF07C1DAFFB1
:10182000DECF0CF1DDCF0DF10CC1D9FF0DC1DAFF18
:1018300028C1DFFF06C1D9FF07C1DAFFDE2A000E8B
:10184000DD2201012607D8A027070101262983E10F
:1018500001012729D8A47FD708C1F6FF09C1F7FFE6
:101860000101084B092B0800F5CF28F1010128518F
:10187000D8A45BEF03F0000E0101076F000E066FA6
:1018800012009CEF14F0250E00017619D8B436D062
:1018900020EE02F04650D9264750DA22DE50DE1004
:1018A000D8B415D020EE02F04650D9264750DA229F
:1018B00002D89CEF14F00500FA6EDE50FD6EDE508B
:1018C000FE6EF850FF6EFA5000017651120046C0CD
:1018D000D9FF47C0DAFFDECF4CF0DDCF4DF04CC072
:1018E000D9FF4DC0DAFF76C0DFFF46C0D9FF47C041
:1018F000DAFFDE2A000EDD229CEF14F0000E00015C
:10190000736F000E726F000E0001716F000E706F2A
:1019100004D000017085484A492A48C0F6FF49C0F2
:10192000F7FF0800F550300AD8B4F3D748C0F6FFE7
:1019300049C0F7FF0800F5502FEC2AF0D8A035D0A9
:10194000000E0001736F000E726F72C00FF073C053
:1019500010F0000E126E0A0E116EE9EC29F00FC0A5
:1019600072F010C073F0D00E4C6EFF0E4D6E48C07A
:10197000F6FF49C0F7FF0800F5504E6E4F6A4C5015
:101980004E264D504F224E50000172274F500001FD
:101990007323484A492A48C0F6FF49C0F7FF0800A8
:1019A000F5502FEC2AF0D8B0D0D748C0F6FF49C088
:1019B000F7FF0800F5502E0AD8A432D00001718D2F
:1019C000484A492A000E0001756F000E746F1DD041
:1019D00074C00FF075C010F0000E126E0A0E116E7A
:1019E000E9EC29F048C0F6FF49C0F7FF0800F550C0
:1019F0000F26000E1022D00E0F240001746FFF0E70
:101A000010200001756F484A492A48C0F6FF49C0B6
:101A1000F7FF0800F5502FEC2AF0D8A013D0D8D744
:101A2000000E0001756F000E746F000171890AD0FD
:101A30000001708907D0000171851ED0C00E000121
:101A400070131AD048C0F6FF49C0F7FF484A492A28
:101A50000800F5CF76F000017651000AD8B4AAEF5D
:101A600014F0660AD8B4E7D70A0AD8B4E1D7190A3D
:101A7000D8B4E4D79CEF14F0070E00017115D8B468
:101A80003EEF12F0000171A905D0000E0001756F44
:101A9000060E746F4AC0D9FF4BC0DAFFDFCF4CF09F
:101AA000030EDE26DFCF4DF0000EDD224CC0D9FF45
:101AB0004DC0DAFFDECF6DF0DECF6EF0DDCF6FF020
:101AC00000016FAF11D06DC001F06EC002F06FC0A9
:101AD00003F0FCEC29F001C06DF002C06EF003C011
:101AE0006FF0030E00017013000E0001686F000E0E
:101AF000676F00016D5100016E1100016F11D8B4C4
:101B00008BD0820E4C6EFF0E4D6E6DC04EF06EC0CF
:101B10004FF06FC050F070C051F0100E05D0D8904B
:101B2000513250324F324E32E82EF9D74E504C24BB
:101B30000001676F000E4D200001686F000167070C
:101B4000D8A0680767C00FF068C010F0000E126ED2
:101B5000030E116EE9EC29F00FC067F010C068F0B9
:101B600067C007F068C008F0000E0A6E0A0E096E22
:101B700031EC26F007C067F008C068F0000168AFDC
:101B800004D000016707D8A068070001675100086A
:101B900006EC17F030C069F031C06AF032C06BF06B
:101BA00069C021F06AC022F06BC023F06DC024F040
:101BB0006EC025F06FC026F018EC22F021C069F04D
:101BC00022C06AF023C06BF069C001F06AC002F065
:101BD0006BC003F0000E046E800E056E3F0E066EA5
:101BE000E9EC25F0D8B005D000016707D8A0680758
:101BF00013D069C001F06AC002F06BC003F0000EA0
:101C0000046E200E056E410E066EE9EC25F0D8A09C
:101C100003D00001674B682B000175BF08D000019D
:101C200075511DE10D0E0001745DD8B018D06DC066
:101C300015F06EC016F06FC017F00001745188ECFB
:101C40001BF030C018F031C019F032C01AF0ABEC04
:101C50001CF015C06DF016C06EF017C06FF00001DB
:101C600068BF08D00001685126E10A0E0001675DD7
:101C7000D8B021D000016D5100016E1100016F112B
:101C8000D8B45BD06DC037F06EC038F06FC039F09B
:101C900092EC22F03750381039103A10D8A44DD0B9
:101CA000000168BF4AD00001685105E1020E000141
:101CB000675DD8A042D069C001F06AC002F06BC075
:101CC00003F0700E046E890E056E400E066EE9EC90
:101CD00025F0D8B003D00001F70E02D00001F80EB5
:101CE0006727FF0E68230001675106EC17F030C02C
:101CF00069F031C06AF032C06BF06DC001F06EC0A7
:101D000002F06FC003F069C004F06AC005F06BC058
:101D100006F065EC20F001C063F002C064F003C07F
:101D200065F004C066F0000E00016D6F000E00014A
:101D30006E6F000E00016F6F33D06DC037F06EC054
:101D400038F06FC039F092EC22F037C063F038C041
:101D500064F039C065F03AC066F06DC021F06EC025
:101D600022F06FC023F063C009F064C00AF065C0C0
:101D70000BF066C00CF0D5EC27F009C024F00AC0C7
:101D800025F00BC026F007EC29F021C06DF022C031
:101D90006EF023C06FF0000E0001686F000E676FD9
:101DA000010E0001766F0A0E00017619D8B41ED01C
:101DB00000017651040D010EF324F66E060EF42098
:101DC000F76E0900F5500001635D0900F550000150
:101DD00064590900F550000165590900F5500001EA
:101DE0006659D8A003D00001762BDDD776C04CF021
:101DF0004D6A4CBE4D06000174514C2600017551D0
:101E00004D22000167514C26000168514D224C5073
:101E10000001725F4D500001735B000174510001BD
:101E20007511D8B404D000017207D8A07307030E4F
:101E3000000170154C6E000E000171154D6E4C5076
:101E40004D10D8B404D000017207D8A07307000168
:101E500070A5B6D0030E000170154C6E000E000187
:101E600071154D6E4C504D10D8B469D020EE02F073
:101E70004650D9264750DA22DE50DE10D8B413D0AF
:101E800020EE02F04650D9264750DA2201D857D02A
:101E90000500FA6EDE50FD6EDE50FE6EF850FF6EED
:101EA000FA502D0E120046C0D9FF47C0DAFFDECF30
:101EB0004CF0DDCF4DF04CC0D9FF4DC0DAFF2D0EF8
:101EC000DF6E46C0D9FF47C0DAFFDE2A000EDD22F2
:101ED00036D020EE02F04650D9264750DA22DE50A6
:101EE000DE10D8B413D020EE02F04650D926475069
:101EF000DA2201D820D00500FA6EDE50FD6EDE50E9
:101F0000FE6EF850FF6EFA50300E120046C0D9FF38
:101F100047C0DAFFDECF4CF0DDCF4DF04CC0D9FF2B
:101F20004DC0DAFF300EDF6E46C0D9FF47C0DAFF82
:101F3000DE2A000EDD2200017207D8A0730700011F
:101F400073BFF8D000017351C4E100017205D8A03D
:101F5000F1D0BFD720EE02F04650D9264750DA2202
:101F6000DE50DE10D8B413D020EE02F04650D92651
:101F70004750DA2201D820D00500FA6EDE50FD6EFF
:101F8000DE50FE6EF850FF6EFA50200E120046C072
:101F9000D9FF47C0DAFFDECF4CF0DDCF4DF04CC0AB
:101FA000D9FF4DC0DAFF200EDF6E46C0D9FF47C013
:101FB000DAFFDE2A000EDD2200017207D8A07307C7
:101FC000000173BF07D000017351C4E10001720525
:101FD000D8B0C0D7030E000170154C6E000E000182
:101FE00071154D6E4C504D10D8B4A4D020EE02F0B7
:101FF0004650D9264750DA22DE50DE10D8B413D02E
:1020000020EE02F04650D9264750DA2201D892D06D
:102010000500FA6EDE50FD6EDE50FE6EF850FF6E6B
:10202000FA502D0E120046C0D9FF47C0DAFFDECFAE
:102030004CF0DDCF4DF04CC0D9FF4DC0DAFF2D0E76
:1020400077D046C0D9FF47C0DAFFDE2A000EDD2276
:1020500071D063C001F064C002F065C003F066C0D7
:1020600004F000017651040D010EF324F66E060E05
:10207000F420F76E0900F5CF05F00900F5CF06F062
:102080000900F5CF07F00A00F5CF08F073EC26F051
:1020900001C069F002C06AF003C06BF004C06CF0CC
:1020A00069C00EF06AC00FF06BC010F06CC011F088
:1020B0000A0E126E000E136E000E146E000E156ED8
:1020C000A2EC27F00EC069F00FC06AF010C06BF0F0
:1020D00011C06CF020EE02F04650D9264750DA22AB
:1020E000DE50DE10D8B415D020EE02F04650D926CE
:1020F0004750DA2201D81ED00500FA6EDE50FD6E80
:10210000DE50FE6EF850FF6EFA5000016951300F3C
:10211000120000016951300F46C0D9FF47C0DAFFF5
:10212000DECF4CF0DDCF4DF04CC0D9FF4DC0DAFF13
:10213000DF6E87D70001760700017629D8B437D043
:1021400088D720EE02F04650D9264750DA22DE50DA
:10215000DE10D8B413D020EE02F04650D9264750F6
:10216000DA2201D820D00500FA6EDE50FD6EDE5076
:10217000FE6EF850FF6EFA50300E120046C0D9FFC6
:1021800047C0DAFFDECF4CF0DDCF4DF04CC0D9FFB9
:102190004DC0DAFF300EDF6E46C0D9FF47C0DAFF10
:1021A000DE2A000EDD2200016707D8A068070001C3
:1021B00068BF07D000016851C4E100016705D8B0CD
:1021C000C0D7000175BF0CD00001755105E1090EA3
:1021D0000001745DD8A004D0080E0001766F02D013
:1021E00074C076F0000176510001745F000E0001AA
:1021F00076BFFF0E0001755B000176510001D8B477
:1022000032D020EE02F04650D9264750DA22DE5076
:10221000DE10D8B413D020EE02F04650D926475035
:10222000DA2201D820D00500FA6EDE50FD6EDE50B5
:10223000FE6EF850FF6EFA502E0E120046C0D9FF07
:1022400047C0DAFFDECF4CF0DDCF4DF04CC0D9FFF8
:102250004DC0DAFF2E0EDF6E46C0D9FF47C0DAFF51
:10226000DE2A000EDD220001765106EC17F030C0A8
:1022700060F031C061F032C062F06DC024F06EC019
:1022800025F06FC026F060C021F061C022F062C06E
:1022900023F018EC22F021C037F022C038F023C020
:1022A00039F092EC22F037C063F038C064F039C0E6
:1022B00065F03AC066F09ED063C001F064C002F0E1
:1022C00065C003F066C004F000017651040D010EF4
:1022D000F324F66E060EF420F76E0900F5CF05F034
:1022E0000900F5CF06F00900F5CF07F00A00F5CF99
:1022F00008F073EC26F001C069F002C06AF003C078
:102300006BF004C06CF069C00EF06AC00FF06BC0D7
:1023100010F06CC011F00A0E126E000E136E000E5B
:10232000146E000E156EA2EC27F00EC069F00FC0FF
:102330006AF010C06BF011C06CF020EE02F0465055
:10234000D9264750DA22DE50DE10D8B415D020EE60
:1023500002F04650D9264750DA2201D824D0050091
:10236000FA6EDE50FD6EDE50FE6EF850FF6EFA50D3
:1023700000016951300F120000016951300F46C051
:10238000D9FF47C0DAFFDECF4CF0DDCF4DF04CC0B7
:10239000D9FF4DC0DAFFDF6E46C0D9FF47C0DAFF74
:1023A000DE2A000EDD2263C00EF064C00FF065C0AF
:1023B00010F066C011F000017651040D010EF324F7
:1023C000F66E060EF420F76E0900F5CF12F0090044
:1023D000F5CF13F00900F5CF14F00A00F5CF15F092
:1023E000A2EC27F00EC063F00FC064F010C065F0DF
:1023F00011C066F00001760700017629D8B437D005
:102400005BD720EE02F04650D9264750DA22DE5044
:10241000DE10D8B413D020EE02F04650D926475033
:10242000DA2201D820D00500FA6EDE50FD6EDE50B3
:10243000FE6EF850FF6EFA50300E120046C0D9FF03
:1024400047C0DAFFDECF4CF0DDCF4DF04CC0D9FFF6
:102450004DC0DAFF300EDF6E46C0D9FF47C0DAFF4D
:10246000DE2A000EDD2200017407D8A075070001E6
:10247000745100017511D8B45FD2C3D7000170A99F
:1024800019D04AC0D9FF4BC0DAFFDFCF4CF0040EA1
:10249000DE26DFCF4DF0000EDD224CC0D9FF4DC04F
:1024A000DAFFDECF63F0DECF64F0DECF65F0DECFA3
:1024B00066F01BD04AC0D9FF4BC0DAFFDFCF4CF02B
:1024C000020EDE26DFCF4DF0000EDD224CC0D9FF1C
:1024D0004DC0DAFFDECF4EF0DDCF4FF04EC063F0DF
:1024E0004FC064F00001656B666B00017451000120
:1024F0007511D8A40DD000016351000164110001D1
:10250000651100016611D8A403D00001744B752B2E
:10251000010E0001766F0A0E00017619D8B41ED0A4
:1025200000017651040D010EF324F66E060EF42020
:10253000F76E0900F5500001635D0900F5500001D8
:1025400064590900F550000165590900F550000172
:102550006659D8A003D00001762BDDD7800E00018C
:1025600076BF7F0E4C6E000174510001765D000154
:102570007551800A4C58D8B003D074C076F016D08C
:1025800000017551800A4C6E000176510001745DA6
:10259000800E000176BF7F0E4C58D8B007D00001E6
:1025A00076510001746F756B74BF7507000172512D
:1025B00000017311D8B410D0030E000170154C6ED9
:1025C000000E000171154D6E4C504D10D8B404D062
:1025D00000017207D8A07307000171AD1CD0000183
:1025E00072510001745D00017551800A4C6E00014A
:1025F0007351800A4C58D8B009D0000174510001C1
:10260000725F000175510001735B05D0000E00017F
:10261000736F000E726F800E000176BF7F0E4C6EDE
:10262000000172510001765D00017351800A4C581F
:10263000D8B00BD0000176510001725F000E00018E
:1026400076BFFF0E0001735B05D0000E0001736FB3
:10265000000E726F000170A57BD0030E0001701593
:102660004C6E000E000171154D6E4C504D10D8B4DB
:1026700032D020EE02F04650D9264750DA22DE5002
:10268000DE10D8B413D020EE02F04650D9264750C1
:10269000DA2201D820D00500FA6EDE50FD6EDE5041
:1026A000FE6EF850FF6EFA502D0E120046C0D9FF94
:1026B00047C0DAFFDECF4CF0DDCF4DF04CC0D9FF84
:1026C0004DC0DAFF2D0EDF6E46C0D9FF47C0DAFFDE
:1026D000DE2A000EDD220001725100017311D8B410
:1026E00020D120EE02F04650D9264750DA22DE50A3
:1026F000DE10D8B413D020EE02F04650D926475051
:10270000DA2201D820D00500FA6EDE50FD6EDE50D0
:10271000FE6EF850FF6EFA50300E120046C0D9FF20
:1027200047C0DAFFDECF4CF0DDCF4DF04CC0D9FF13
:102730004DC0DAFF300EDF6E46C0D9FF47C0DAFF6A
:10274000DE2A000EDD2200017207D8A07307C3D76E
:102750000001725100017311D8B43CD020EE02F098
:102760004650D9264750DA22DE50DE10D8B413D0B6
:1027700020EE02F04650D9264750DA2201D820D068
:102780000500FA6EDE50FD6EDE50FE6EF850FF6EF4
:10279000FA50200E120046C0D9FF47C0DAFFDECF44
:1027A0004CF0DDCF4DF04CC0D9FF4DC0DAFF200E0C
:1027B000DF6E46C0D9FF47C0DAFFDE2A000EDD22F9
:1027C00000017207D8A07307000172510001731154
:1027D000D8A4C4D7030E000170154C6E000E000182
:1027E00071154D6E4C504D10D8B49BD020EE02F0B8
:1027F0004650D9264750DA22DE50DE10D8B413D026
:1028000020EE02F04650D9264750DA2201D889D06E
:102810000500FA6EDE50FD6EDE50FE6EF850FF6E63
:10282000FA502D0E120046C0D9FF47C0DAFFDECFA6
:102830004CF0DDCF4DF04CC0D9FF4DC0DAFF2D0E6E
:10284000DF6E68D074C04CF075C04DF0D8904C3637
:102850004D36D8904C364D36010E4C24F66E060E91
:102860004D20F76E0900F5CF05F00900F5CF06F011
:102870000900F5CF07F00A00F5CF08F063C001F0BA
:1028800064C002F065C003F066C004F073EC26F08B
:1028900001C00EF002C00FF003C010F004C011F030
:1028A0000A0E126E000E136E000E146E000E156EE0
:1028B000A2EC27F00E50300F0001766F20EE02F0F0
:1028C0004650D9264750DA22DE50DE10D8B414D054
:1028D00020EE02F04650D9264750DA2201D821D006
:1028E0000500FA6EDE50FD6EDE50FE6EF850FF6E93
:1028F000FA5000017651120046C0D9FF47C0DAFFF6
:10290000DECF4CF0DDCF4DF04CC0D9FF4DC0DAFF2B
:1029100076C0DFFF46C0D9FF47C0DAFFDE2A000ECF
:10292000DD2200017407D8A07507000174298AE12F
:1029300000017529D8A486D748C0F6FF49C0F7FF23
:10294000484A492A0800F5CF76F000017651D8A40C
:1029500043EF0CF0000E476E000E466E12000001B1
:10296000AE6F0001AEAF2AD10001AE6D0001AE51D5
:10297000800A120FD8A0ACD0000E0001966F030E93
:10298000956F000E00018E6F0A0E8D6F000E000114
:10299000886F640E876F0001AE510001856F866BF2
:1029A00085BF86074BEC25F085C08BF086C08CF088
:1029B000E3EC23F0090E00018B250001936F000E5C
:1029C00000018C210001946F27EC29F0290E0001F1
:1029D0009325F66E060E00019421F76E0900F5CFDF
:1029E0009CF00900F5CF9DF00A00F5CF9EF0000E97
:1029F00000018E6F640E8D6F0001AE5100018B6F70
:102A00008C6B8BBF8C07E3EC23F0120E00018B253F
:102A10000001936F000E00018C210001946F000EE5
:102A20000001966F030E956F27EC29F0290E000127
:102A30009325F66E060E00019421F76E0900F5CF7E
:102A400099F00900F5CF9AF00A00F5CF9BF014EC4D
:102A50001FF099C0ABF09AC0ACF09BC0ADF0ABC01A
:102A600099F0ACC09AF0ADC09BF0000E0001966FDB
:102A7000030E956F000E0001886F0A0E876F00012C
:102A8000AE510001856F866B85BF86074BEC25F044
:102A900085C093F086C094F027EC29F0290E000140
:102AA0009325F66E060E00019421F76E0900F5CF0E
:102AB0009CF00900F5CF9DF00A00F5CF9EF014ECD4
:102AC0001FF099C0A8F09AC0A9F09BC0AAF012000C
:102AD0000001AE51800A750FD8A05DD0000E000134
:102AE0008E6F0A0E8D6F0001AE5100018B6F8C6BE3
:102AF0008BBF8C07E3EC23F0090E00018B2500014E
:102B0000936F000E00018C210001946F000E0001F4
:102B1000966F030E956F27EC29F0290E000193257F
:102B2000F66E060E00019421F76E0900F5CF99F0BC
:102B30000900F5CF9AF00A00F5CF9BF0000E0001D6
:102B4000966F030E956F000E0001886F0A0E876F57
:102B50000001AE510001856F866B85BF86074BEC87
:102B600025F085C093F086C094F027EC29F0290E5B
:102B700000019325F66E060E00019421F76E090000
:102B8000F5CF9CF00900F5CF9DF00A00F5CF9EF03F
:102B900014EC1FF096D70001AE51030D290EF3245B
:102BA000F66E060EF420F76E0900F5CFA8F00900C6
:102BB000F5CFA9F00A00F5CFAAF012000001AE513E
:102BC000800A120FD8A0ACD0000E0001966F030E41
:102BD000956F000E00018E6F0A0E8D6F000E0001C2
:102BE000886F640E876F0001AE510001856F866BA0
:102BF00085BF86074BEC25F085C08BF086C08CF036
:102C0000E3EC23F0090E00018B250001936F000E09
:102C100000018C210001946F27EC29F0500E000177
:102C20009325F66E060E00019421F76E0900F5CF8C
:102C30009CF00900F5CF9DF00A00F5CF9EF0000E44
:102C400000018E6F640E8D6F0001AE5100018B6F1D
:102C50008C6B8BBF8C07E3EC23F0120E00018B25ED
:102C60000001936F000E00018C210001946F000E93
:102C70000001966F030E956F27EC29F0500E0001AE
:102C80009325F66E060E00019421F76E0900F5CF2C
:102C900099F00900F5CF9AF00A00F5CF9BF014ECFB
:102CA0001FF099C0ABF09AC0ACF09BC0ADF0ABC0C8
:102CB00099F0ACC09AF0ADC09BF0000E0001966F89
:102CC000030E956F000E0001886F0A0E876F0001DA
:102CD000AE510001856F866B85BF86074BEC25F0F2
:102CE00085C093F086C094F027EC29F0500E0001C7
:102CF0009325F66E060E00019421F76E0900F5CFBC
:102D00009CF00900F5CF9DF00A00F5CF9EF014EC81
:102D10001FF099C0A8F09AC0A9F09BC0AAF01200B9
:102D20000001AE51800A750FD8A05DD0000E0001E1
:102D30008E6F0A0E8D6F0001AE5100018B6F8C6B90
:102D40008BBF8C07E3EC23F0090E00018B250001FB
:102D5000936F000E00018C210001946F000E0001A2
:102D6000966F030E956F27EC29F0500E0001932506
:102D7000F66E060E00019421F76E0900F5CF99F06A
:102D80000900F5CF9AF00A00F5CF9BF0000E000184
:102D9000966F030E956F000E0001886F0A0E876F05
:102DA0000001AE510001856F866B85BF86074BEC35
:102DB00025F085C093F086C094F027EC29F0500EE2
:102DC00000019325F66E060E00019421F76E0900AE
:102DD000F5CF9CF00900F5CF9DF00A00F5CF9EF0ED
:102DE00014EC1FF096D70001AE51030D500EF324E2
:102DF000F66E060EF420F76E0900F5CFA8F0090074
:102E0000F5CFA9F00A00F5CFAAF01200366E36AE63
:102E1000FBD0366C3650800A120FD8A091D0000E2D
:102E2000126E030E116E000E0A6E0A0E096E000E6F
:102E3000046E640E036E3650016E026A01BE020615
:102E40006AEC27F001C007F002C008F031EC26F070
:102E5000090E07240F6E000E0820106EE9EC29F011
:102E6000290E0F24F66E060E1020F76E0900F5CF1E
:102E700024F00900F5CF25F00A00F5CF26F0000E6A
:102E80000A6E640E096E3650076E086A07BE0806A1
:102E900031EC26F0120E07240F6E000E0820106E83
:102EA000000E126E030E116EE9EC29F0290E0F24AC
:102EB000F66E060E1020F76E0900F5CF21F009001E
:102EC000F5CF22F00A00F5CF23F018EC22F021C054
:102ED00033F022C034F023C035F033C021F034C0C9
:102EE00022F035C023F0000E126E030E116E000E9C
:102EF000046E0A0E036E3650016E026A01BE0206AF
:102F00006AEC27F001C00FF002C010F0E9EC29F0E4
:102F1000290E0F24F66E060E1020F76E0900F5CF6D
:102F200024F00900F5CF25F00A00F5CF26F018ECC3
:102F300022F021C030F022C031F023C032F0120064
:102F40003650800A750FD8A04DD0000E0A6E0A0EBA
:102F5000096E3650076E086A07BE080631EC26F087
:102F6000090E07240F6E000E0820106E000E126E60
:102F7000030E116EE9EC29F0290E0F24F66E060EF1
:102F80001020F76E0900F5CF21F00900F5CF22F0EF
:102F90000A00F5CF23F0000E126E030E116E000E24
:102FA000046E0A0E036E3650016E026A01BE0206FE
:102FB0006AEC27F001C00FF002C010F0E9EC29F034
:102FC000290E0F24F66E060E1020F76E0900F5CFBD
:102FD00024F00900F5CF25F00A00F5CF26F018EC13
:102FE00022F0A7D73650030D290EF324F66E060EF5
:102FF000F420F76E0900F5CF30F00900F5CF31F07D
:103000000A00F5CF32F012003650800A120FD8A015
:1030100091D0000E126E030E116E000E0A6E0A0E93
:10302000096E000E046E640E036E3650016E026A65
:1030300001BE02066AEC27F001C007F002C008F0EA
:1030400031EC26F0090E07240F6E000E0820106EDA
:10305000E9EC29F0500E0F24F66E060E1020F76EE4
:103060000900F5CF24F00900F5CF25F00A00F5CFCF
:1030700026F0000E0A6E640E096E3650076E086A5E
:1030800007BE080631EC26F0120E07240F6E000E64
:103090000820106E000E126E030E116EE9EC29F07E
:1030A000500E0F24F66E060E1020F76E0900F5CFB5
:1030B00021F00900F5CF22F00A00F5CF23F018EC3B
:1030C00022F021C033F022C034F023C035F033C0E9
:1030D00021F034C022F035C023F0000E126E030E32
:1030E000116E000E046E0A0E036E3650016E026AF7
:1030F00001BE02066AEC27F001C00FF002C010F01A
:10310000E9EC29F0500E0F24F66E060E1020F76E33
:103110000900F5CF24F00900F5CF25F00A00F5CF1E
:1031200026F018EC22F021C030F022C031F023C08C
:1031300032F012003650800A750FD8A04DD0000E24
:103140000A6E0A0E096E3650076E086A07BE080638
:1031500031EC26F0090E07240F6E000E0820106EC9
:10316000000E126E030E116EE9EC29F0500E0F24C2
:10317000F66E060E1020F76E0900F5CF21F009005B
:10318000F5CF22F00A00F5CF23F0000E126E030EE9
:10319000116E000E046E0A0E036E3650016E026A46
:1031A00001BE02066AEC27F001C00FF002C010F069
:1031B000E9EC29F0500E0F24F66E060E1020F76E83
:1031C0000900F5CF24F00900F5CF25F00A00F5CF6E
:1031D00026F018EC22F0A7D73650030D500EF3243A
:1031E000F66E060EF420F76E0900F5CF30F00900F8
:1031F000F5CF31F00A00F5CF32F012000001B16FC7
:103200006D0E0001B165BAD0000E0001966F030E7D
:10321000956F000E00018E6F0A0E8D6F000E00017B
:10322000886F640E876FB1C085F00001866B4BEC30
:1032300025F085C08BF086C08CF0E3EC23F0090EFE
:1032400000018B250001936F000E00018C2100010D
:10325000946F27EC29F0290E00019325F66E060ED7
:1032600000019421F76E0900F5CF9CF00900F5CF1D
:103270009DF00A00F5CF9EF0000E00018E6F640EE7
:103280008D6FB1C08BF000018C6BE3EC23F0120E5C
:1032900000018B250001936F000E00018C210001BD
:1032A000946F000E0001966F030E956F27EC29F0C6
:1032B000290E00019325F66E060E00019421F76E8B
:1032C0000900F5CF99F00900F5CF9AF00A00F5CF83
:1032D0009BF014EC1FF099C0AEF09AC0AFF09BC009
:1032E000B0F0000E0001966F030E956F000E000106
:1032F000886F0A0E876FB1C085F00001866B4BECBA
:1033000025F085C093F086C094F027EC29F0290EB3
:1033100000019325F66E060E00019421F76E090058
:10332000F5CF9CF00900F5CF9DF00A00F5CF9EF097
:10333000AEC099F0AFC09AF0B0C09BF014EC1FF093
:1033400099C0ABF09AC0ACF09BC0ADF0ABC099F0A7
:10335000ACC09AF0ADC09BF0000E00019C6F000E57
:1033600000019D6F3F0E00019E6F14EC1FF099C08D
:10337000A8F09AC0A9F09BC0AAF012000A0E0001A2
:10338000B1656ED0000E0001966F030E956F000EB2
:103390000001886F0A0E876FB1C085F00001866B4F
:1033A0004BEC25F085C093F086C094F027EC29F013
:1033B000290E00019325F66E060E00019421F76E8A
:1033C0000900F5CF9CF00900F5CF9DF00A00F5CF7C
:1033D0009EF0000E00018E6F0A0E8D6FB1C08BF053
:1033E00000018C6BE3EC23F0090E00018B2500013A
:1033F000936F000E00018C210001946F000E0001FC
:10340000966F030E956F27EC29F0290E0001932586
:10341000F66E060E00019421F76E0900F5CF99F0C3
:103420000900F5CF9AF00A00F5CF9BF014EC1FF0DD
:1034300099C0AEF09AC0AFF09BC0B0F0AEC099F0AA
:10344000AFC09AF0B0C09BF0000E00019C6F000E60
:1034500000019D6F3F0E00019E6F14EC1FF087D797
:103460000001B151030D290EF324F66E060EF4206F
:10347000F76E0900F5CF99F00900F5CF9AF00A0030
:10348000F5CF9BF0000E00019C6F000E00019D6FB8
:103490003F0E00019E6F14EC1FF099C0A8F09AC077
:1034A000A9F09BC0AAF01200B4C0B8F00001B96B3B
:1034B000BA6B0001B3350001B83701E3B9810001EF
:1034C000B8510001BD6FB7C0B8F00001B96BBA6B5D
:1034D0000001B6350001B83701E3B9810001B851E8
:1034E0000001BC6F0001BD510001D8B411D0000132
:1034F000BC510001BD5DD8B012D00001BD51000823
:103500000001BC250001B86F180E0001B86507D096
:10351000B5C0B2F0B6C0B3F0B7C0B4F0120000014D
:10352000BC510001D8B411D00001BD510001BC5DF7
:10353000D8B012D00001BC5100080001BD25000127
:10354000B86F180E0001B86507D0B2C0B2F0B3C0B2
:10355000B3F0B4C0B4F01200060E0001BB6F00015E
:10356000B4AF02D00001BB8F0001B7AF02D00001A1
:10357000BB8D0001B38FFF0E0001B217FF0E0001DB
:10358000B317000E0001B4170001B68FFF0E000143
:10359000B517FF0E0001B617000E0001B7170001A6
:1035A000BC510001BD5DD8B025D00001D890B53721
:1035B000B637B7370001BC070001BD510001BC1987
:1035C000D8B411D00001BB07BBC0B8F0070E000192
:1035D000B817D8B408D0E9D70001D890B433B333C2
:1035E000B2330001BD2B0001BC510001BD19D8B49C
:1035F0002BD0F2D70001BD510001BC5DD8B024D062
:103600000001D890B237B337B4370001BD070001CD
:10361000BD510001BC19D8B411D00001BB07BBC01B
:10362000B8F0070E0001B817D8B408D0E9D70001E8
:10363000D890B733B633B5330001BC2B0001BC5171
:103640000001BD19D8A4F3D70001BBAF12D0FF0E03
:103650000001B21BFF0E0001B31BFF0E0001B41BE3
:10366000010E0001B227000E0001B323000E00017D
:10367000B4230001BBAD12D0FF0E0001B51BFF0E3D
:103680000001B61BFF0E0001B71B010E0001B5279C
:10369000000E0001B623000E0001B723000E00014A
:1036A000BB6F0001B2510001B5270001B351000109
:1036B000B6230001B4510001B7230001B7AF15D004
:1036C000FF0E0001B51BFF0E0001B61BFF0E00012F
:1036D000B71B010E0001B527000E0001B623000E36
:1036E0000001B723010E0001BB6FB5C085F0B6C065
:1036F00086F0B7C087F0BDC088F0BBC089F092ECFF
:1037000021F085C0B2F086C0B3F087C0B4F01200DB
:10371000396E6D0E39649FD0000E126E030E116E5D
:10372000000E0A6E0A0E096E000E046E640E036E21
:1037300039C001F0026A6AEC27F001C007F002C04C
:1037400008F031EC26F0090E07240F6E000E082059
:10375000106EE9EC29F0290E0F24F66E060E1020EB
:10376000F76E0900F5CF24F00900F5CF25F00A0027
:10377000F5CF26F0000E0A6E640E096E39C007F010
:10378000086A31EC26F0120E07240F6E000E082096
:10379000106E000E126E030E116EE9EC29F0290E68
:1037A0000F24F66E060E1020F76E0900F5CF21F0FB
:1037B0000900F5CF22F00A00F5CF23F018EC22F033
:1037C00021C036F022C037F023C038F0000E126E50
:1037D000030E116E000E046E0A0E036E39C001F066
:1037E000026A6AEC27F001C00FF002C010F0E9ECA9
:1037F00029F0290E0F24F66E060E1020F76E090030
:10380000F5CF24F00900F5CF25F00A00F5CF26F01A
:1038100036C021F037C022F038C023F018EC22F077
:1038200021C033F022C034F023C035F033C021F082
:1038300034C022F035C023F0000E246E000E256E39
:103840003F0E266E18EC22F021C030F022C031F07D
:1038500023C032F012000A0E39645DD0000E126EE1
:10386000030E116E000E046E0A0E036E39C001F0D5
:10387000026A6AEC27F001C00FF002C010F0E9EC18
:1038800029F0290E0F24F66E060E1020F76E09009F
:10389000F5CF24F00900F5CF25F00A00F5CF26F08A
:1038A000000E0A6E0A0E096E39C007F0086A31EC84
:1038B00026F0090E07240F6E000E0820106E000E71
:1038C000126E030E116EE9EC29F0290E0F24F66E2C
:1038D000060E1020F76E0900F5CF21F00900F5CF94
:1038E00022F00A00F5CF23F018EC22F021C036F0C8
:1038F00022C037F023C038F036C021F037C022F0A4
:1039000038C023F0000E246E000E256E3F0E266E8A
:1039100018EC22F099D73950030D290EF324F66ED6
:10392000060EF420F76E0900F5CF21F00900F5CF5F
:1039300022F00A00F5CF23F0000E246E000E256E53
:103940003F0E266E18EC22F021C030F022C031F07C
:1039500023C032F0120017C01BF01C6A1D6A163417
:103960001B3601E31C801B50206E1AC01BF01C6A22
:103970001D6A19341B3601E31C801B501F6E20503A
:10398000D8B40BD01F50205CD8B00ED02050000807
:103990001F241B6E180E1B6407D018C015F019C029
:1039A00016F01AC017F012001F50D8B40BD02050D8
:1039B0001F5CD8B00ED01F50000820241B6E180EBC
:1039C0001B6407D015C015F016C016F017C017F00D
:1039D0001200060E1E6E17BE1E8E1ABE1E8C168E8E
:1039E000FF0E1516FF0E1616000E1716198EFF0E77
:1039F0001816FF0E1916000E1A161F50205CD8B0AC
:103A00001BD0D890183619361A361F0620501F18AA
:103A1000D8B40DD01E061EC01BF0070E1B16D8B45E
:103A200006D0EFD7D890173216321532202A1F5001
:103A30002018D8B41FD0F6D720501F5CD8B01AD0A9
:103A4000D890153616361736200620501F18D8B4D1
:103A50000DD01E061EC01BF0070E1B16D8B406D0D4
:103A6000EFD7D8901A32193218321F2A1F50201857
:103A7000D8A4F7D71EAE0CD0FF0E151AFF0E161ADB
:103A8000FF0E171A010E1526000E1622000E172221
:103A90001EAC0CD0FF0E181AFF0E191AFF0E1A1AC0
:103AA000010E1826000E1922000E1A22000E1E6E9C
:103AB000155018261650192217501A221AAE0ED079
:103AC000FF0E181AFF0E191AFF0E1A1A010E1826E9
:103AD000000E1922000E1A22010E1E6E18C001F0EF
:103AE00019C002F01AC003F020C004F01EC005F097
:103AF000A0EC24F001C015F002C016F003C017F0CE
:103B0000120087C08BF000018C6B8D6B0001863535
:103B100000018B3701E38C8100018B510001936F11
:103B200000019351D8A40AD0000E0001856F000E49
:103B3000866F000E876F000E886F12008AC08BF0B0
:103B400000018C6B8D6B0001893500018B3701E31F
:103B50008C8100018B510001926F00019251D8A419
:103B60000AD0000E0001856F000E866F000E876F71
:103B7000000E886F12000001868FFF0E000185176E
:103B8000FF0E00018617000E000187170001898FC4
:103B9000FF0E00018817FF0E00018917000E0001BB
:103BA0008A17000E00018E6F000E8F6F000E906F4F
:103BB000000E916F7F0E0001935F00019251980FEC
:103BC0000001935F180E0001926F0001D8908E37AC
:103BD0008F3790379137000188510001855D0001D2
:103BE00089510001865900018A5100018759D8A0E6
:103BF0000ED0000188510001855F0001895100014C
:103C0000865B00018A510001875B00018E81000103
:103C1000D8908537863787370001922FD6D7000195
:103C200093AF1AD000019351800A970FD8B00AD0F1
:103C3000000E0001856F000E866F000E876F000E6C
:103C4000886F12000001D890913390338F338E33F8
:103C50000001933FF7D71BD0170E0001936512D0D8
:103C6000000E0001856F000E866F000E876F000E3C
:103C7000886F12000001D8908E378F3790379137B8
:103C800000019307000193510001D8A4F3D78EC01F
:103C900085F08FC086F090C087F091C088F0120048
:103CA0000001873588350001906F00019051D8A43C
:103CB0000AD0000E0001856F000E866F000E876F20
:103CC000000E886F120000018A358B3500018F6F5E
:103CD00000018F51D8A40AD0000E0001856F000E9C
:103CE000866F000E876F000E886F12000001878FAD
:103CF000FF0E00018517FF0E8617FF0E8717000EB7
:103D0000881700018A8FFF0E00018817FF0E8917A0
:103D1000FF0E8A17000E8B17000E00018B6F000E2E
:103D20008C6F000E8D6F000E8E6F7F0E0001905F06
:103D300000018F51A00F0001905F200E00018F6FD6
:103D40000001D8908B378C378D378E370001885122
:103D50000001855D000189510001865900018A51E9
:103D60000001875900018B5100018859D8A012D059
:103D7000000188510001855F000189510001865BC7
:103D800000018A510001875B00018B510001885BB3
:103D900000018B810001D8908537863787378837B7
:103DA00000018F2FCDD7000190AF1AD000019051A4
:103DB000800A9F0FD8B00AD0000E0001856F000E58
:103DC000866F000E876F000E886F12000001D8907A
:103DD0008E338D338C338B330001903FF7D71BD05C
:103DE0001F0E0001906512D0000E0001856F000EBD
:103DF000866F000E876F000E886F12000001D8904A
:103E00008B378C378D378E3700019007000190512A
:103E10000001D8A4F3D78BC085F08CC086F08DC08C
:103E200087F08EC088F012009BC09FF00001A06B4D
:103E3000A16B00019A3500019F3701E3A0810001C9
:103E40009F510001A26F0001A251D8A40AD0000E18
:103E50000001996F000E00019A6F000E00019B6F28
:103E600012009EC09FF00001A06BA16B00019D3568
:103E700000019F3701E3A08100019F510001A76F5E
:103E80000001A751D8A40AD0000E0001996F000EBE
:103E900000019A6F000E00019B6F12000001A751F4
:103EA0007B0F0001A2279BC0A7F000019E510001DB
:103EB000A71B800E0001A71700019A8F00019D8F9C
:103EC000FF0E00019C17FF0E00019D17000E000160
:103ED0009E17000E0001A36F000E0001A46F000EDC
:103EE0000001A56F070E0001A66F000199A10CD07B
:103EF00000019C510001A32700019D510001A42352
:103F000000019E510001A5230001D8909B339A33F4
:103F100099330001D8909C379D379E370001A62F1A
:103F2000E4D7090E0001A66F000199A10CD0000191
:103F30009C510001A32700019D510001A423000111
:103F40009E510001A5230001D8909B339A339933E9
:103F50000001D890A533A433A3330001A62FE4D7E2
:103F6000A3C085F0A4C086F0A5C087F0A2C088F0E9
:103F7000A7C089F092EC21F085C099F086C09AF034
:103F800087C09BF01200B1C0B3F00001B46BB56BF9
:103F90000001B0350001B33701E3B4810001B35132
:103FA0000001BD6F0001BD51D8A40AD0000E000170
:103FB000AF6F000EB06F000EB16F000EB26F120047
:103FC000170E0001B36FAFC0B4F0B0C0B5F0B1C010
:103FD000B6F00001B3290001B76F05D00001D890F9
:103FE000B633B533B4330001B72FF8D70001B4515D
:103FF0000001B86F0001B08FFF0E0001AF17FF0E78
:104000000001B017000E0001B1170001AF5100010F
:10401000B96F0001B0510001BA6F0001B151000148
:10402000BB6F0001BC6B8E0E0001BD5F0001BDAF18
:104030001AD00001BD51800A8F0FD8B00AD0000EEF
:104040000001AF6F000EB06F000EB16F000EB26FC7
:1040500012000001D890BC33BB33BA33B93300012E
:10406000BD3FF7D71BD0170E0001BD6512D0000E63
:104070000001AF6F000EB06F000EB16F000EB26F97
:1040800012000001D890B937BA37BB37BC370001EE
:10409000BD070001BD510001D8A4F3D70001B851FC
:1040A0000001D8B409D00001BC1FBB1FBA1FB96DF5
:1040B000000EBA23BB23BC23B9C0AFF0BAC0B0F026
:1040C000BBC0B1F0BCC0B2F0120003C007F0086A78
:1040D000096A0234073601E3088007500F6E0F505B
:1040E000D8A409D0000E016E000E026E000E036E01
:1040F000000E046E120006C007F0086A096A053453
:10410000073601E3088007500E6E0E50D8A409D080
:10411000000E016E000E026E000E036E000E046EA5
:104120001200028EFF0E0116FF0E0216000E03167D
:10413000058EFF0E0416FF0E0516000E0616000E65
:104140000A6E000E0B6E000E0C6E000E0D6E7F0ED2
:104150000F5E0E50980F0F5E180E0E6ED8900A3636
:104160000B360C360D360450015C055002580650D3
:104170000358D8A007D00450015E0550025A0650DB
:10418000035A0A80D8900136023603360E2EE6D73F
:104190000FAE16D00F50800A970FD8B009D0000E7E
:1041A000016E000E026E000E036E000E046E120011
:1041B000D8900D320C320B320A320F3EF9D715D09F
:1041C000170E0F640FD0000E016E000E026E000E6F
:1041D000036E000E046E1200D8900A360B360C36B1
:1041E0000D360F060F50D8A4F7D70AC001F00BC048
:1041F00002F00CC003F00DC004F0120003340434CC
:104200000C6E0C50D8A409D0000E016E000E026E88
:10421000000E036E000E046E1200063407340B6E9F
:104220000B50D8A409D0000E016E000E026E000ED5
:10423000036E000E046E1200038EFF0E0116FF0EB9
:104240000216FF0E0316000E0416068EFF0E04164D
:10425000FF0E0516FF0E0616000E0716000E076E5F
:10426000000E086E000E096E000E0A6E7F0E0C5EC8
:104270000B50A00F0C5E200E0B6ED8900736083640
:1042800009360A360450015C05500258065003589E
:1042900007500458D8A009D00450015E0550025AB6
:1042A0000650035A0750045A0780D8900136023648
:1042B000033604360B2EE1D70CAE16D00C50800A14
:1042C0009F0FD8B009D0000E016E000E026E000ED6
:1042D000036E000E046E1200D8900A3209320832C2
:1042E00007320C3EF9D715D01F0E0C640FD0000E0C
:1042F000016E000E026E000E036E000E046E1200C0
:10430000D8900736083609360A360C060C50D8A461
:10431000F7D707C001F008C002F009C003F00AC0D7
:1043200004F01200000188510001D8B408D0000147
:1043300085510001861100018711D8A411D0000E0B
:104340000001856F000E0001866F000E0001876F6F
:1043500012000001882B0001D89087338633853303
:10436000000E0001851500018A6F000E0001861500
:1043700000018B6FFE0E0001871500018C6F00019C
:104380008A5100018B1100018C11D8B411D0E1D7F2
:104390000001882B010E00018527000E00018623F5
:1043A000000E000187230001D890873386338533C0
:1043B000000E0001851500018A6F000E00018615B0
:1043C00000018B6FFF0E0001871500018C6F00014B
:1043D0008A5100018B1100018C11D8B408D0D8D7B4
:1043E000000188070001D89085378637873700019C
:1043F00086BF04D0020E00018861F2D7000188B1A7
:1044000002D00001869F0001D890883300018851B6
:1044100000018713000189510001D8B402D00001C6
:10442000878F85C085F086C086F087C087F0120030
:1044300023C027F0286A296A2234273601E328801E
:1044400027502A6E2A50D8A407D0000E216E000EE5
:10445000226E000E236E120026C027F0286A296AF9
:104460002534273601E3288027502F6E2F50D8A4FB
:1044700007D0000E216E000E226E000E236E120079
:104480002F507B0F2A2623C02FF026502F1A800E84
:104490002F16228E258EFF0E2416FF0E2516000ED7
:1044A0002616000E2B6E000E2C6E000E2D6E070EC3
:1044B0002E6E21A006D024502B2625502C222650CB
:1044C0002D22D890233222322132D890243625361C
:1044D00026362E2EEED7090E2E6E21A006D02450A1
:1044E0002B2625502C2226502D22D89023322232E2
:1044F0002132D8902D322C322B322E2EEED72BC0DB
:1045000001F02CC002F02DC003F02AC004F02FC02F
:1045100005F0A0EC24F001C021F002C022F003C09D
:1045200023F0120039C03BF03C6A3D6A38343B3618
:1045300001E33C803B50456E4550D8A409D0000EA5
:10454000376E000E386E000E396E000E3A6E120095
:10455000170E3B6E37C03CF038C03DF039C03EF01E
:104560003B283F6E04D0D8903E323D323C323F2E45
:10457000FAD73C50406E388EFF0E3716FF0E3816B5
:10458000000E39163750416E3850426E3950436E26
:10459000446A8E0E455E45AE16D04550800A8F0F98
:1045A000D8B009D0000E376E000E386E000E396E8E
:1045B000000E3A6E1200D8904432433242324132F9
:1045C000453EF9D715D0170E45640FD0000E376E53
:1045D000000E386E000E396E000E3A6E1200D89042
:1045E000413642364336443645064550D8A4F7D7BF
:1045F0004050D8B408D0441E431E421E416C000EE9
:1046000042224322442241C037F042C038F043C026
:1046100039F044C03AF0120032C036F0376A386AD6
:104620003134363601E3378036503D6E3D50D8A4E4
:1046300007D0000E306E000E316E000E326E12008A
:1046400035C036F0376A386A3434363601E337809D
:1046500036503E6E3E50D8A407D0000E306E000E8D
:10466000316E000E326E1200000E3A6E000E3B6E7E
:10467000000E3C6E3E50890F3D5E32C03EF035501C
:104680003E1A800E3E16318EFF0E3016FF0E31168A
:10469000000E3216348EFF0E3316FF0E3416000E47
:1046A0003516180E396ED8903A363B363C363350B4
:1046B000305C3450315835503258D8A007D0335080
:1046C000305E3450315A3550325A3A80D8903036B4
:1046D00031363236392EE7D73AC001F03BC002F00E
:1046E0003CC003F03DC004F03EC005F0A0EC24F057
:1046F00001C030F002C031F003C032F012000001FE
:1047000087AF1DD085C08BF086C08CF087C08DF040
:1047100000018B1F8C1F8D1F8B2B000E8C238D2374
:10472000000E00018B250001856F000E00018C2119
:104730000001866F800E00018D210001876F00014E
:104740008AAF1DD088C08BF089C08CF08AC08DF0F4
:1047500000018B1F8C1F8D1F8B2B000E8C238D2334
:10476000000E00018B250001886F000E00018C21D6
:104770000001896F800E00018D2100018A6F000EFB
:104780000001851B000E0001861B800E0001871BA7
:10479000000E0001881B000E0001891B800E000125
:1047A0008A1B000188510001855D000189510001CB
:1047B000865900018A5100018759D8B002D0D8909B
:1047C0001200D8801200000E0001906F00018EAF21
:1047D00008D000018D6D8E1FD8B08E2B010E000108
:1047E000906F00018CAF08D000018B6D8C1FD8B08A
:1047F0008C2B010E0001901B000E0001926F000E29
:10480000916F00018D5100018E11D8B42CD0010E92
:1048100000018F6F06D00001D8908D378E370001D0
:104820008F2B00018EAFF7D70001D89091379237C8
:1048300000018D5100018B5D00018E5100018C59EA
:10484000D8A00AD000018D5100018B5F00018E516C
:1048500000018C5B000191810001D8908E338D3373
:1048600000018F2FE1D7000190510001D8B405D08D
:104870000001916D921FD8B0922B91C08BF092C025
:104880008CF01200000E00018D6F000E8E6F000E76
:104890008F6F000E906F0001895100018A11000195
:1048A0008B1100018C11D8B442D0010E0001916F20
:1048B00008D00001D89089378A378B378C370001B0
:1048C000912B00018CAFF5D70001D8908D378E3732
:1048D0008F379037000189510001855D00018A51B1
:1048E0000001865900018B510001875900018C514C
:1048F00000018859D8A012D0000189510001855FBC
:1049000000018A510001865B00018B510001875B29
:1049100000018C510001885B00018D810001D8905D
:104920008C338B338A3389330001912FCDD78DC0DF
:1049300085F08EC086F08FC087F090C088F012009E
:104940000450D8B405D0015002100310D8A40CD0E4
:10495000000E016E000E026E000E036E1200042A9D
:10496000D890033202320132000E0114066E000E9E
:104970000214076EFE0E0314086E0650071008108E
:10498000D8B40CD0ECD7042A010E0126000E022266
:10499000000E0322D890033202320132000E0114BD
:1049A000066E000E0214076EFF0E0314086E06500A
:1049B00007100810D8B406D0E6D70406D890013600
:1049C0000236033602BE03D0020E0460F6D704A0FE
:1049D000029ED8900432045003120550D8A4038ECE
:1049E00001C001F002C002F003C003F01200BDECF0
:1049F0002AF0E6EC28F001C0D2F002C0D3F0400E5D
:104A0000246EF70E256E430E266E000E186ED80E1D
:104A1000196EC10E1A6ED2C009F0D3C00AF00EECA6
:104A20002AF009C015F00AC016F00BC017F0ABEC65
:104A30001CF015C021F016C022F017C023F018ECAE
:104A400022F021C030F022C031F023C032F0A40E99
:104A5000336E400E346E400E356E0CEC23F030C0D9
:104A6000BEF031C0BFF032C0C0F0770E526E060EFD
:104A7000536EBEC054F0BFC055F0C0C056F0D2C097
:104A800057F0D3C058F05DEC29F0A2EC2AF0BBEC53
:104A90002AF0F2921200000E00018A6F000186AF28
:104AA00008D00001856D861FD8B0862B010E00014D
:104AB0008A6F000188AF05D00001876D881FD8B0CC
:104AC000882B0001875100018811D8B426D0010E2F
:104AD0000001896F06D00001D89087378837000120
:104AE000892B000188AFF7D7000187510001855D50
:104AF0000001885100018659D8A008D000018751D3
:104B00000001855F000188510001865B0001D8909B
:104B1000883387330001892FE7D700018A510001CC
:104B2000D8B405D00001856D861FD8B0862B85C00E
:104B300085F086C086F012000001965100019711A1
:104B40000001981100019911D8B43AD0010E00016A
:104B50009A6F08D00001D8909637973798379937D1
:104B600000019A2B000199AFF5D700019651000181
:104B7000925D000197510001935900019851000185
:104B800094590001995100019559D8A010D0000105
:104B900096510001925F000197510001935B000163
:104BA00098510001945B000199510001955B00014F
:104BB000D890993398339733963300019A2FD5D7ED
:104BC00092C092F093C093F094C094F095C095F089
:104BD000120003AE16D001C007F002C008F003C0F7
:104BE00009F0071E081E091E072A000E08220922C6
:104BF000000E0724016E000E0820026E800E0920B0
:104C0000036E06AE16D004C007F005C008F006C05B
:104C100009F0071E081E091E072A000E0822092295
:104C2000000E0724046E000E0820056E800E092079
:104C3000066E000E011A000E021A800E031A000EF4
:104C4000041A000E051A800E061A0450015C055065
:104C5000025806500358D8B002D0D8901200D8801D
:104C60001200000E0C6E0AAE06D0096C0A1ED8B0F7
:104C70000A2A010E0C6E08AE06D0076C081ED8B0CA
:104C8000082A010E0C1A000E0E6E000E0D6E095051
:104C90000A10D8B41CD0010E0B6E04D0D89009367F
:104CA0000A360B2A0AAEFAD7D8900D360E360950BE
:104CB000075C0A500858D8A005D00950075E0A5072
:104CC000085A0D80D8900A3209320B2EEDD70C50BD
:104CD000D8B404D00D6C0E1ED8B00E2A0DC007F04B
:104CE0000EC008F01200000E096E000E0A6E000ED3
:104CF0000B6E000E0C6E0550061007100810D8B48D
:104D00002AD0010E0D6E06D0D8900536063607362D
:104D100008360D2A08AEF8D7D89009360A360B3671
:104D20000C360550015C06500258075003580850D5
:104D30000458D8A009D00550015E0650025A075009
:104D4000035A0850045A0980D890083207320632B4
:104D500005320D2EE1D709C001F00AC002F00BC0E8
:104D600003F00CC004F012008E0E0001956F08D005
:104D70000001D89090338F338E338D330001952B03
:104D8000000E00018D150001916F000E00018E15BF
:104D90000001926F000E00018F150001936FFF0E4E
:104DA000000190150001946F0001915100019211D2
:104DB0000001931100019411D8A4DAD78DC085F0B9
:104DC0008EC086F08FC087F095C088F0000E00017D
:104DD000896F92EC21F085C08DF086C08EF087C07F
:104DE0008FF01200000E42EC29F0680E0001886F6F
:104DF000E40EE82EFED7882FFCD700D0030ED6ECA9
:104E000029F01A0E0001886FF80EE82EFED7882FC1
:104E1000FCD700D0030ED6EC29F03A0E0001886FC3
:104E2000230EE82EFED7882FFCD700F0030ED6EC19
:104E300029F0020ED6EC29F0020ED6EC29F0080E6D
:104E4000D6EC29F0000ED6EC29F00C0ED6EC29F0A9
:104E5000000ED6EC29F0060ED6EC29F01200000167
:104E6000896F00018805D8A418D0000189517F0FEF
:104E700000018C6F00018C390F0B00018A6F00015B
:104E80008C510F0B00018B6F00018A51D6EC29F079
:104E900000018B51D6EC29F01200020E0001881996
:104EA000D8A4120000018951BF0F00018C6F0001CE
:104EB0008C390F0B00018A6F00018C510F0B000120
:104EC0008B6F00018A51D6EC29F000018B51D6EC92
:104ED00029F01200000E066E02AE06D0016C021E12
:104EE000D8B0022A010E066E04AE04D0036C041E74
:104EF000D8B0042A03500410D8B418D0010E056E9F
:104F000004D0D89003360436052A04AEFAD70350ED
:104F1000015C04500258D8A004D00350015E045034
:104F2000025AD89004320332052EF1D70650D8B475
:104F300004D0016C021ED8B0022A01C001F002C0E8
:104F400002F012001250131014101510D8B424D00F
:104F5000010E166E06D0D89012361336143615365A
:104F6000162A15AEF8D712500E5C13500F58145075
:104F7000105815501158D8A008D012500E5E13507A
:104F80000F5A1450105A1550115AD8901532143225
:104F900013321232162EE7D70EC00EF00FC00FF0EC
:104FA00010C010F011C011F012008E0E116E06D05C
:104FB000D8900C320B320A320932112A000E091431
:104FC0000D6E000E0A140E6E000E0B140F6EFF0E07
:104FD0000C14106E0D500E100F101010D8A4E8D73E
:104FE00009C001F00AC002F00BC003F011C004F0C8
:104FF000000E056EA0EC24F001C009F002C00AF01A
:1050000003C00BF0120059EC2AF0F28EF28CF2EC95
:1050100026F08EEC2AF0360E0101296F010E0101F7
:105020002A6FA60E01012B6F060E01012C6FBEC068
:105030002DF1BFC02EF1C0C02FF12CEC28F0010ED5
:1050400000018D6F360E00018E6F010E00018F6F13
:10505000010E20EC2AF0DFD729C132F12AC133F149
:10506000000E0101346F000E0101356F2D0E01019C
:10507000306F010E0101316F320E0101066F010E1A
:105080000101076F2BC108F12CC109F1300E01019C
:105090000A6F010E01010B6F59EC03F032C1D9FF09
:1050A00033C1DAFF000EDF6E12000101035101016E
:1050B000041101010511D8B409D0000E0101031B30
:1050C000000E0101041B800E0101051B00C1B2F09E
:1050D00001C1B3F002C1B4F003C1B5F004C1B6F030
:1050E00005C1B7F054EC1AF0B2C000F1B3C001F141
:1050F000B4C002F11200000E00018C6F000E8B6F25
:1051000010D000018B5100018925D96E00018C510E
:1051100000018A21DA6EDF50C3EC28F000018B4BCE
:105120008C2B00018B5100018925D96E00018C5117
:1051300000018A21DA6EDF50D8B41200E2D7110ED6
:10514000D56E150ED76E9F0ED66ED650D7CF87F080
:105150000001886B87C088F00001876B0001871110
:105160000001D86F000188510001D96FF294F28AD2
:105170007C0E0001856F540E0001866FA8EC2AF0AA
:10518000B7EC2AF012000001886F000188510F0B64
:105190000001866F00018851F00B0001876F89883C
:1051A000000187390F0B42EC29F0898A350EE82E71
:1051B000FED700F0899A0001865142EC29F0898AD5
:1051C000350EE82EFED700F0899A1200D6CF09F0EE
:1051D000D7CF0AF0D8C003F0D9C004F0031E041ED4
:1051E000034A042A09500AC005F0066A05C006F001
:1051F000056A0526000E062203500524076E04509A
:105200000620086E07C001F008C002F0120024500A
:1052100025102610D8B406D0000E241A000E251A28
:10522000800E261A21C015F022C016F023C017F0F8
:1052300024C018F025C019F026C01AF0ABEC1CF001
:1052400015C021F016C022F017C023F01200000193
:10525000935100019503F3CF97F0F4CF98F000013C
:10526000935100019603F3500001982700019451D7
:1052700000019503F3500001982797C093F098C060
:1052800094F012000001856F000185A102D0898091
:1052900001D08990000185A302D0898201D0899232
:1052A000000185A502D0898401D08994000185A7D9
:1052B00002D08986120089961200000E5B6E000EE5
:1052C0005C6E640E5D6E550E5E6E540E596E000E71
:1052D0005A6E5B0E466E000E476E52C048F053C0C9
:1052E00049F0590E4A6E000E4B6E41EC0CF0120064
:1052F000F2940001D951D76ED8C0D6FF0001D65123
:105300000001D711D8B4120001D812000500000125
:10531000FA6ED651FD6ED751FE6EF850FF6EFA5000
:105320001200000185510001861100018711D8B4D7
:1053300009D0000E0001851B000E0001861B800EA7
:105340000001871B85C085F086C086F087C087F086
:105350001200000E896E020E8A6E000E8B6E000E19
:10536000926EFD0E936EBF0E946EBC0E0F013A6FDF
:105370003C0E0F01396F000E0F01386F6168F19E0E
:1053800012000001876F000E0001866F3A0E0001C7
:10539000876107D02F0E0001876503D0010E000141
:1053A000866F86C085F00001853112000001876F8D
:1053B00089980001875142EC29F0898A150E000175
:1053C000866FC60EE82EFED7862FFCD700D0899AAE
:1053D00012000F501102F3CF13F0F4CF14F00F505E
:1053E0001202F350142610501102F350142613C069
:1053F0000FF014C010F01200015002100310D8B4C6
:1054000006D0000E011A000E021A800E031A01C007
:1054100001F002C002F003C003F0120009C001F065
:105420000AC002F0036A8E0E046E000E056EA0EC38
:1054300024F001C009F002C00AF003C00BF0120012
:105440000001906F8DC088F0000190512FEC27F083
:105450008EC089F08FC08AF07BEC28F01200036EBA
:10546000000E026E3A0E036005D02F0E036402D0C8
:10547000010E026E02C001F0013012008AA202D0B9
:10548000010E01D0000EFF0A016E01468A5001187C
:10549000FD0B01188A6E120000EEBEF0160EEE6AC9
:1054A000E806FDE15F905F92000EF86E000103EFE9
:1054B00028F0B9EC2AF0A9EC29F095EC2AF066EC7A
:1054C0002AF09FEC28F072EC2AF01200F292F19C84
:1054D000000E0001856F000E0001866FADEC2AF012
:1054E000F2881200080EB86E800EAB6E240EAC6E01
:1054F000A00EAF6E010EB06E12005FB2B2EF2AF0D6
:105500000001866F0001865187EC2AF0120000012D
:10551000856F9EA8FED785C0ADFF1200000ED6ECA9
:1055200029F0010ED6EC29F01200700ED36E040E95
:10553000D26E000E9B6E1200016E9EA8FED701C0B7
:10554000ADFF12000001D951D76ED8C0D6FF1200AE
:1055500085C0D6F086C0D7F0120085C0D4F086C0D2
:10556000D5F01200026E02509CEC2AF01200D58E8B
:0E5570001200D09E1200D58E1200D59E1200A1
:020000040020DA
:08000000FFFFFFFFFFFFFFFF00
:020000040030CA
:0E000000FF231F3CFFBF85FF0FC00FE00F4026
:00000001FF
