:0400000050EF00F0CD
:100008005882FACFA1F0FBCFA2F0E9CFA3F0EACF54
:10001800A4F0E1CFA5F0E2CFA6F0D9CFA7F0DACFD0
:10002800A8F0F3CFA9F0F4CFAAF0F6CFABF0F7CF52
:10003800ACF0F8CFADF0F5CFAEF0F0B6F0A003D04D
:10004800C1EC15F00BD0F2B8F2A203D0B1EC10F06D
:1000580005D0F2BAF2A402D08AEC17F0AEC0F5FFD0
:10006800ADC0F8FFACC0F7FFABC0F6FFAAC0F4FF05
:10007800A9C0F3FFA8C0DAFFA7C0D9FFA6C0E2FF56
:10008800A5C0E1FFA4C0EAFFA3C0E9FFA2C0FBFF2F
:0C009800A1C0FAFF589211003EEF17F0D3
:1006000000010000000A00000064000000E8030090
:100610000010270000A086010040420F008096983D
:100620000000E1F50500CA9A3B00803FCDCC3DD7E4
:10063000233C12833AB7D138C62737388635C0D61F
:1006400033CC2B32708930E7DB2EE53C1E42A20D05
:1006500000803F00204100C842007A44401C4650C0
:10066000C34724744997184BBCBE4C6B6E4E0315A0
:100670005079AD60F3497100003F9AF940DCD842EF
:10068000708A45C0DA47000102030402030304052F
:100690000D0A53657474696E672072616E67652018
:1006A0003D2025640D0A00433D4552524F52202003
:1006B000202020202020200052616E6765202564C4
:1006C0002028256429256400256C752E25362E36B4
:1006D0006C7500433D2531322E33666E4600433D36
:1006E0002531322E3066704600433D2531322E369C
:0506F0006675460000E4
:1006F60012EF0BF0250E00017619D8B436D020EE95
:1007060002F03F50D9264050DA22DE50DE10D8B42F
:1007160015D020EE02F03F50D9264050DA2202D8FA
:1007260012EF0BF00500FA6EDE50FD6EDE50FE6E27
:10073600F850FF6EFA500001765112003FC0D9FF03
:1007460040C0DAFFDECF45F0DDCF46F045C0D9FF29
:1007560046C0DAFF76C0DFFF3FC0D9FF40C0DAFFF0
:10076600DE2A000EDD2212EF0BF0000E0001646F90
:10077600000E636F000E0001666F000E656F41C0CC
:10078600F6FF42C0F7FF0800F55021EC18F0D8A09C
:1007960035D0000E0001646F000E636F63C00FF06A
:1007A60064C010F0000E126E0A0E116ECBEC17F03C
:1007B6000FC063F010C064F0D00E456EFF0E466E9B
:1007C60041C0F6FF42C0F7FF0800F550476E486A81
:1007D6004550472646504822475000016327485057
:1007E60000016423414A422A41C0F6FF42C0F7FF96
:1007F6000800F55021EC18F0D8B0D0D741C0F6FF6C
:1008060042C0F7FF0800F5502E0AD8A432D00001E6
:10081600668D414A422A000E0001756F000E746F04
:100826001DD074C00FF075C010F0000E126E0A0EC7
:10083600116ECBEC17F041C0F6FF42C0F7FF08007F
:10084600F5500F26000E1022D00E0F240001746FF3
:10085600FF0E10200001756F414A422A41C0F6FF83
:1008660042C0F7FF0800F55021EC18F0D8A012D0CE
:10087600D8D7000E0001756F000E746F00016689EF
:1008860009D00001658906D00001668523D00001E4
:10089600658D20D041C0F6FF42C0F7FF414A422A8B
:1008A6000800F5CF76F000017651000AD8B420EFA3
:1008B6000BF0640AD8B40ED0020AD8B4E5D70F0AF2
:1008C600D8B408D0050AD8B4DCD7190AD8B4DFD70B
:1008D60012EF0BF0070E00016615D8B4E9EF08F029
:1008E600000166A905D0000E0001756F060E746F33
:1008F60043C0D9FF44C0DAFFDFCF45F0030EDE2642
:10090600DFCF46F0000EDD2245C0D9FF46C0DAFF34
:10091600DECF71F0DECF72F0DDCF73F0000173AF82
:1009260011D071C001F072C002F073C003F0F0EC98
:1009360017F001C071F002C072F003C073F0030E2D
:1009460000016513000E0001686F000E676F00015D
:1009560071510001721100017311D8B48BD0820E4F
:10096600456EFF0E466E71C047F072C048F073C008
:1009760049F074C04AF0100E05D0D8904A32493278
:1009860048324732E82EF9D7475045240001676FB1
:10099600000E46200001686F00016707D8A06807AF
:1009A60067C00FF068C010F0000E126E030E116ED5
:1009B600CBEC17F00FC067F010C068F067C007F007
:1009C60068C008F0000E0A6E0A0E096E97EC14F065
:1009D60007C067F008C068F0000168AF04D00001E6
:1009E6006707D8A0680700016751000825EC0BF0DF
:1009F60030C06DF031C06EF032C06FF06DC021F0C6
:100A06006EC022F06FC023F071C024F072C025F0D2
:100A160073C026F091EC12F021C06DF022C06EF08A
:100A260023C06FF06DC001F06EC002F06FC003F01E
:100A3600000E046E800E056E3F0E066E4FEC14F02F
:100A4600D8B005D000016707D8A0680713D06DC0DD
:100A560001F06EC002F06FC003F0000E046E200EAF
:100A6600056E410E066E4FEC14F0D8A003D00001BF
:100A7600674B682B000175BF08D0000175511DE159
:100A86000D0E0001745DD8B018D071C015F072C09B
:100A960016F073C017F0000174511DEC0DF030C054
:100AA60018F031C019F032C01AF040EC0EF015C043
:100AB60071F016C072F017C073F0000168BF08D05D
:100AC6000001685126E10A0E0001675DD8B021D009
:100AD600000171510001721100017311D8B45BD08D
:100AE60071C030F072C031F073C032F00BEC13F00D
:100AF6003050311032103310D8A44DD0000168BFE9
:100B06004AD00001685105E1020E0001675DD8A0D8
:100B160042D06DC001F06EC002F06FC003F0700EDF
:100B2600046E890E056E400E066E4FEC14F0D8B0BA
:100B360003D00001F70E02D00001F80E6727FF0E62
:100B460068230001675125EC0BF030C06DF031C011
:100B56006EF032C06FF071C001F072C002F073C067
:100B660003F06DC004F06EC005F06FC006F064ECD3
:100B760011F001C069F002C06AF003C06BF004C056
:100B86006CF0000E0001716F000E0001726F000E16
:100B96000001736F33D071C030F072C031F073C092
:100BA60032F00BEC13F030C069F031C06AF032C09D
:100BB6006BF033C06CF071C021F072C022F073C0CC
:100BC60023F069C009F06AC00AF06BC00BF06CC074
:100BD6000CF0F0EC15F009C024F00AC025F00BC0AB
:100BE60026F0CCEC16F021C071F022C072F023C0C2
:100BF60073F0000E0001686F000E676F010E0001B2
:100C0600766F0A0E00017619D8B41ED0000176510F
:100C1600040D010EF324F66E060EF420F76E09009D
:100C2600F5500001695D0900F55000016A59090097
:100C3600F55000016B590900F55000016C59D8A018
:100C460003D00001762BDDD776C045F0466A45BE57
:100C560046060001745145260001755146220001E1
:100C66006751452600016851462245500001635FE1
:100C760046500001645B0001745100017511D8B43F
:100C860004D000016307D8A06407030E00016515B0
:100C9600456E000E00016615466E45504610D8B4E6
:100CA60037D032D020EE02F03F50D9264050DA221B
:100CB600DE50DE10D8B413D020EE02F03F50D92615
:100CC6004050DA2201D820D00500FA6EDE50FD6EC3
:100CD600DE50FE6EF850FF6EFA50200E12003FC036
:100CE600D9FF40C0DAFFDECF45F0DDCF46F045C084
:100CF600D9FF46C0DAFF200EDF6E3FC0D9FF40C0E5
:100D0600DAFFDE2A000EDD2200016307D8A06407A1
:100D1600000164BF07D000016451C4E1000163050E
:100D2600D8B0C0D7030E00016515456E000E000150
:100D36006615466E45504610D8B4A4D020EE02F093
:100D46003F50D9264050DA22DE50DE10D8B413D0F8
:100D560020EE02F03F50D9264050DA2201D892D038
:100D66000500FA6EDE50FD6EDE50FE6EF850FF6E28
:100D7600FA502D0E12003FC0D9FF40C0DAFFDECF79
:100D860045F0DDCF46F045C0D9FF46C0DAFF2D0E4F
:100D960077D03FC0D9FF40C0DAFFDE2A000EDD2241
:100DA60071D069C001F06AC002F06BC003F06CC07C
:100DB60004F000017651040D010EF324F66E060EC2
:100DC600F420F76E0900F5CF05F00900F5CF06F01F
:100DD6000900F5CF07F00A00F5CF08F0D9EC14F0BA
:100DE60001C06DF002C06EF003C06FF004C070F079
:100DF6006DC00EF06EC00FF06FC010F070C011F035
:100E06000A0E126E000E136E000E146E000E156E94
:100E16008EEC15F00EC06DF00FC06EF010C06FF0C6
:100E260011C070F020EE02F03F50D9264050DA2271
:100E3600DE50DE10D8B415D020EE02F03F50D92691
:100E46004050DA2201D81ED00500FA6EDE50FD6E43
:100E5600DE50FE6EF850FF6EFA5000016D51300FF5
:100E6600120000016D51300F3FC0D9FF40C0DAFFBC
:100E7600DECF45F0DDCF46F045C0D9FF46C0DAFFEC
:100E8600DF6E87D70001760700017629D8B437D000
:100E960088D720EE02F03F50D9264050DA22DE50A5
:100EA600DE10D8B413D020EE02F03F50D9264050C1
:100EB600DA2201D820D00500FA6EDE50FD6EDE5033
:100EC600FE6EF850FF6EFA50300E12003FC0D9FF8A
:100ED60040C0DAFFDECF45F0DDCF46F045C0D9FF92
:100EE60046C0DAFF300EDF6E3FC0D9FF40C0DAFFE2
:100EF600DE2A000EDD2200016707D8A06807000180
:100F060068BF07D000016851C4E100016705D8B089
:100F1600C0D7000175BF0CD00001755105E1090E5F
:100F26000001745DD8A004D0080E0001766F02D0CF
:100F360074C076F0000176510001745F000E000166
:100F460076BFFF0E0001755B000176510001D8B433
:100F560032D020EE02F03F50D9264050DA22DE5041
:100F6600DE10D8B413D020EE02F03F50D926405000
:100F7600DA2201D820D00500FA6EDE50FD6EDE5072
:100F8600FE6EF850FF6EFA502E0E12003FC0D9FFCB
:100F960040C0DAFFDECF45F0DDCF46F045C0D9FFD1
:100FA60046C0DAFF2E0EDF6E3FC0D9FF40C0DAFF23
:100FB600DE2A000EDD220001765125EC0BF030C052
:100FC60060F031C061F032C062F071C024F072C0CE
:100FD60025F073C026F060C021F061C022F062C027
:100FE60023F091EC12F021C030F022C031F023C082
:100FF60032F00BEC13F030C069F031C06AF032C049
:101006006BF033C06CF09ED069C001F06AC002F08C
:101016006BC003F06CC004F000017651040D010EA4
:10102600F324F66E060EF420F76E0900F5CF05F0F0
:101036000900F5CF06F00900F5CF07F00A00F5CF55
:1010460008F0D9EC14F001C06DF002C06EF003C0D8
:101056006FF004C070F06DC00EF06EC00FF06FC080
:1010660010F070C011F00A0E126E000E136E000E14
:10107600146E000E156E8EEC15F00EC06DF00FC0DE
:101086006EF010C06FF011C070F020EE02F03F500D
:10109600D9264050DA22DE50DE10D8B415D020EE24
:1010A60002F03F50D9264050DA2201D824D005005C
:1010B600FA6EDE50FD6EDE50FE6EF850FF6EFA5090
:1010C60000016D51300F120000016D51300F3FC00D
:1010D600D9FF40C0DAFFDECF45F0DDCF46F045C090
:1010E600D9FF46C0DAFFDF6E3FC0D9FF40C0DAFF46
:1010F600DE2A000EDD2269C00EF06AC00FF06BC05A
:1011060010F06CC011F000017651040D010EF324AD
:10111600F66E060EF420F76E0900F5CF12F0090000
:10112600F5CF13F00900F5CF14F00A00F5CF15F04E
:101136008EEC15F00EC069F00FC06AF010C06BF0AF
:1011460011C06CF00001760700017629D8B437D0BB
:101156005BD720EE02F03F50D9264050DA22DE500F
:10116600DE10D8B413D020EE02F03F50D9264050FE
:10117600DA2201D820D00500FA6EDE50FD6EDE5070
:10118600FE6EF850FF6EFA50300E12003FC0D9FFC7
:1011960040C0DAFFDECF45F0DDCF46F045C0D9FFCF
:1011A60046C0DAFF300EDF6E3FC0D9FF40C0DAFF1F
:1011B600DE2A000EDD2200017407D8A075070001A3
:1011C600745100017511D8B42AD2C3D7000165BD88
:1011D60046D0000165A919D043C0D9FF44C0DAFF43
:1011E600DFCF45F0040EDE26DFCF46F0000EDD220F
:1011F60045C0D9FF46C0DAFFDECF69F0DECF6AF020
:10120600DECF6BF0DECF6CF01AD043C0D9FF44C0FE
:10121600DAFFDFCF45F0020EDE26DFCF46F0000E06
:10122600DD2245C0D9FF46C0DAFFDECF69F0DDCF4B
:101236006AF00001000E6ABFFF0E6B6F6C6F000153
:101246006CAF44D0030E0001651300016C1F6B1FC9
:101256006A1F696D000E6A236B236C2337D0000169
:1012660065A919D043C0D9FF44C0DAFFDFCF45F0E6
:10127600040EDE26DFCF46F0000EDD2245C0D9FF84
:1012860046C0DAFFDECF69F0DECF6AF0DECF6BF064
:10129600DECF6CF01BD043C0D9FF44C0DAFFDFCFEE
:1012A60045F0020EDE26DFCF46F0000EDD2245C0F9
:1012B600D9FF46C0DAFFDECF47F0DDCF48F047C0A2
:1012C60069F048C06AF000016B6B6C6B00017451E9
:1012D60000017511D8A40DD00001695100016A11F1
:1012E60000016B1100016C11D8A403D00001744BEE
:1012F600752B010E0001766F0A0E00017619D8B41F
:101306001ED000017651040D010EF324F66E060E72
:10131600F420F76E0900F5500001695D0900F550EB
:1013260000016A590900F55000016B590900F55092
:1013360000016C59D8A003D00001762BDDD7800EB2
:10134600000176BF7F0E456E000174510001765D87
:1013560000017551800A4558D8B003D074C076F0A4
:1013660016D000017551800A456E000176510001C4
:10137600745D800E000176BF7F0E4558D8B007D049
:10138600000176510001746F756B74BF750700011B
:10139600635100016411D8B410D0030E0001651525
:1013A600456E000E00016615466E45504610D8B4CF
:1013B60004D000016307D8A06407000166AD1CD005
:1013C600000163510001745D00017551800A456E8C
:1013D60000016451800A4558D8B009D00001745103
:1013E6000001635F000175510001645B05D0000ECA
:1013F6000001646F000E636F800E000176BF7F0EE2
:10140600456E000163510001765D00016451800A5A
:101416004558D8B00BD0000176510001635F000E2D
:10142600000176BFFF0E0001645B05D0000E0001CF
:10143600646F000E636F0001635100016411D8B43C
:101446003CD020EE02F03F50D9264050DA22DE5042
:10145600DE10D8B413D020EE02F03F50D92640500B
:10146600DA2201D820D00500FA6EDE50FD6EDE507D
:10147600FE6EF850FF6EFA50200E12003FC0D9FFE4
:1014860040C0DAFFDECF45F0DDCF46F045C0D9FFDC
:1014960046C0DAFF200EDF6E3FC0D9FF40C0DAFF3C
:1014A600DE2A000EDD2200016307D8A064070001D2
:1014B600635100016411D8A4C4D7030E0001651559
:1014C600456E000E00016615466E45504610D8B4AE
:1014D6009BD020EE02F03F50D9264050DA22DE5053
:1014E600DE10D8B413D020EE02F03F50D92640507B
:1014F600DA2201D889D00500FA6EDE50FD6EDE5084
:10150600FE6EF850FF6EFA502D0E12003FC0D9FF46
:1015160040C0DAFFDECF45F0DDCF46F045C0D9FF4B
:1015260046C0DAFF2D0EDF6E68D074C045F075C078
:1015360046F0D89045364636D89045364636010EA2
:101546004524F66E060E4620F76E0900F5CF05F027
:101556000900F5CF06F00900F5CF07F00A00F5CF30
:1015660008F069C001F06AC002F06BC003F06CC0FD
:1015760004F0D9EC14F001C00EF002C00FF003C065
:1015860010F004C011F00A0E126E000E136E000E5B
:10159600146E000E156E8EEC15F00E50300F000115
:1015A600766F20EE02F03F50D9264050DA22DE5008
:1015B600DE10D8B414D020EE02F03F50D9264050A9
:1015C600DA2201D821D00500FA6EDE50FD6EDE501B
:1015D600FE6EF850FF6EFA500001765112003FC0C1
:1015E600D9FF40C0DAFFDECF45F0DDCF46F045C07B
:1015F600D9FF46C0DAFF76C0DFFF3FC0D9FF40C043
:10160600DAFFDE2A000EDD2200017407D8A0750776
:10161600000174298AE100017529D8A486D741C042
:10162600F6FF42C0F7FF414A422A0800F5CF76F09E
:1016360000017651D8A47DEF03F0000E406E000E37
:101646003F6E1200366E36AEFBD0366C3650800AD0
:10165600120FD8A091D0000E126E030E116E000E5E
:101666000A6E0A0E096E000E046E640E036E365084
:10167600016E026A01BE020656EC15F001C007F0C3
:1016860002C008F097EC14F0090E07240F6E000E46
:101696000820106ECBEC17F0290E0F24F66E060EFE
:1016A6001020F76E0900F5CF24F00900F5CF25F0DC
:1016B6000A00F5CF26F0000E0A6E640E096E36504B
:1016C600076E086A07BE080697EC14F0120E072488
:1016D6000F6E000E0820106E000E126E030E116EB5
:1016E600CBEC17F0290E0F24F66E060E1020F76EBF
:1016F6000900F5CF21F00900F5CF22F00A00F5CF59
:1017060023F091EC12F021C033F022C034F023C054
:1017160035F033C021F034C022F035C023F0000E7E
:10172600126E030E116E000E046E0A0E036E365014
:10173600016E026A01BE020656EC15F001C00FF0FA
:1017460002C010F0CBEC17F0290E0F24F66E060E31
:101756001020F76E0900F5CF24F00900F5CF25F02B
:101766000A00F5CF26F091EC12F021C030F022C02D
:1017760031F023C032F012003650800A750FD8A01F
:101786004DD0000E0A6E0A0E096E3650076E086AB4
:1017960007BE080697EC14F0090E07240F6E000E1C
:1017A6000820106E000E126E030E116ECBEC17F0B1
:1017B600290E0F24F66E060E1020F76E0900F5CFDF
:1017C60021F00900F5CF22F00A00F5CF23F0000E34
:1017D600126E030E116E000E046E0A0E036E365064
:1017E600016E026A01BE020656EC15F001C00FF04A
:1017F60002C010F0CBEC17F0290E0F24F66E060E81
:101806001020F76E0900F5CF24F00900F5CF25F07A
:101816000A00F5CF26F091EC12F0A7D73650030D4B
:10182600290EF324F66E060EF420F76E0900F5CFA6
:1018360030F00900F5CF31F00A00F5CF32F0120092
:101846003650800A120FD8A091D0000E126E030EE9
:10185600116E000E0A6E0A0E096E000E046E640EFC
:10186600036E3650016E026A01BE020656EC15F092
:1018760001C007F002C008F097EC14F0090E072427
:101886000F6E000E0820106ECBEC17F0500E0F24D2
:10189600F66E060E1020F76E0900F5CF24F009004B
:1018A600F5CF25F00A00F5CF26F0000E0A6E640E7D
:1018B600096E3650076E086A07BE080697EC14F0E4
:1018C600120E07240F6E000E0820106E000E126E08
:1018D600030E116ECBEC17F0500E0F24F66E060EAB
:1018E6001020F76E0900F5CF21F00900F5CF22F0A0
:1018F6000A00F5CF23F091EC12F021C033F022C09C
:1019060034F023C035F033C021F034C022F035C0A6
:1019160023F0000E126E030E116E000E046E0A0EF8
:10192600036E3650016E026A01BE020656EC15F0D1
:1019360001C00FF002C010F0CBEC17F0500E0F24D0
:10194600F66E060E1020F76E0900F5CF24F009009A
:10195600F5CF25F00A00F5CF26F091EC12F021C064
:1019660030F022C031F023C032F012003650800A27
:10197600750FD8A04DD0000E0A6E0A0E096E3650AD
:10198600076E086A07BE080697EC14F0090E0724CE
:101996000F6E000E0820106E000E126E030E116EF2
:1019A600CBEC17F0500E0F24F66E060E1020F76ED5
:1019B6000900F5CF21F00900F5CF22F00A00F5CF96
:1019C60023F0000E126E030E116E000E046E0A0E48
:1019D600036E3650016E026A01BE020656EC15F021
:1019E60001C00FF002C010F0CBEC17F0500E0F2420
:1019F600F66E060E1020F76E0900F5CF24F00900EA
:101A0600F5CF25F00A00F5CF26F091EC12F0A7D716
:101A16003650030D500EF324F66E060EF420F76EC4
:101A26000900F5CF30F00900F5CF31F00A00F5CF07
:101A360032F01200396E6D0E39649FD0000E126EB0
:101A4600030E116E000E0A6E0A0E096E000E046E6B
:101A5600640E036E39C001F0026A56EC15F001C03F
:101A660007F002C008F097EC14F0090E07240F6E79
:101A7600000E0820106ECBEC17F0290E0F24F66E20
:101A8600060E1020F76E0900F5CF24F00900F5CFF9
:101A960025F00A00F5CF26F0000E0A6E640E096ED8
:101AA60039C007F0086A97EC14F0120E07240F6E7F
:101AB600000E0820106E000E126E030E116ECBEC97
:101AC60017F0290E0F24F66E060E1020F76E090089
:101AD600F5CF21F00900F5CF22F00A00F5CF23F06B
:101AE60091EC12F021C036F022C037F023C038F056
:101AF600000E126E030E116E000E046E0A0E036EB9
:101B060039C001F0026A56EC15F001C00FF002C0B0
:101B160010F0CBEC17F0290E0F24F66E060E1020EF
:101B2600F76E0900F5CF24F00900F5CF25F00A007D
:101B3600F5CF26F036C021F037C022F038C023F0AA
:101B460091EC12F021C033F022C034F023C035F0FE
:101B560033C021F034C022F035C023F0000E246ECD
:101B6600000E256E3F0E266E91EC12F021C030F06D
:101B760022C031F023C032F012000A0E39645DD063
:101B8600000E126E030E116E000E046E0A0E036E28
:101B960039C001F0026A56EC15F001C00FF002C020
:101BA60010F0CBEC17F0290E0F24F66E060E10205F
:101BB600F76E0900F5CF24F00900F5CF25F00A00ED
:101BC600F5CF26F0000E0A6E0A0E096E39C007F030
:101BD600086A97EC14F0090E07240F6E000E082011
:101BE600106E000E126E030E116ECBEC17F0290E5E
:101BF6000F24F66E060E1020F76E0900F5CF21F0C1
:101C06000900F5CF22F00A00F5CF23F091EC12F08F
:101C160021C036F022C037F023C038F036C021F09C
:101C260037C022F038C023F0000E246E000E256E59
:101C36003F0E266E91EC12F099D73950030D290EFE
:101C4600F324F66E060EF420F76E0900F5CF21F0A8
:101C56000900F5CF22F00A00F5CF23F0000E246E1E
:101C6600000E256E3F0E266E91EC12F021C030F06C
:101C760022C031F023C032F0120017C01BF01C6ADC
:101C86001D6A16341B3601E31C801B50206E1AC0D9
:101C96001BF01C6A1D6A19341B3601E31C801B509D
:101CA6001F6E2050D8B40BD01F50205CD8B00ED079
:101CB600205000081F241B6E180E1B6407D018C086
:101CC60015F019C016F01AC017F012001F50D8B43C
:101CD6000BD020501F5CD8B00ED01F500008202417
:101CE6001B6E180E1B6407D015C015F016C016F033
:101CF60017C017F01200060E1E6E17BE1E8E1ABEF5
:101D06001E8C168EFF0E1516FF0E1616000E1716D3
:101D1600198EFF0E1816FF0E1916000E1A161F50F2
:101D2600205CD8B01BD0D890183619361A361F0644
:101D360020501F18D8B40DD01E061EC01BF0070E6B
:101D46001B16D8B406D0EFD7D890173216321532F4
:101D5600202A1F502018D8B41FD0F6D720501F5C59
:101D6600D8B01AD0D8901536163617362006205019
:101D76001F18D8B40DD01E061EC01BF0070E1B166A
:101D8600D8B406D0EFD7D8901A32193218321F2A93
:101D96001F502018D8A4F7D71EAE0CD0FF0E151A68
:101DA600FF0E161AFF0E171A010E1526000E162222
:101DB600000E17221EAC0CD0FF0E181AFF0E191AB1
:101DC600FF0E1A1A010E1826000E1922000E1A22EC
:101DD600000E1E6E155018261650192217501A227C
:101DE6001AAE0ED0FF0E181AFF0E191AFF0E1A1A87
:101DF600010E1826000E1922000E1A22010E1E6E62
:101E060018C001F019C002F01AC003F020C004F097
:101E16001EC005F0F8EC13F001C015F002C016F074
:101E260003C017F012000B6E8A0EF66E060EF76EE2
:101E36000800F5CF01F0010E026E012A02D0D890FB
:101E46000236012EFCD7890EF66E060EF76E0800D6
:101E5600F5CF03F0010E046E032A02D0D8900436A3
:101E6600032EFCD7880EF66E060EF76E0800F5CF29
:101E760005F0010E066E052A02D0D8900636052E0C
:101E8600FCD7870EF66E060EF76E0800F5CF07F044
:101E9600010E086E072A02D0D8900836072EFCD706
:101EA600860EF66E060EF76E0800F5CF09F0010EE7
:101EB6000A6E092A02D0D8900A36092EFCD70A5093
:101EC60008100610041002108B128F0EF66E060E06
:101ED600F76E0800F5CF01F0010E026E012A02D05E
:101EE600D8900236012EFCD78E0EF66E060EF76ED1
:101EF6000800F5CF03F0010E046E032A02D0D89035
:101F06000436032EFCD78C0EF66E060EF76E08000E
:101F1600F5CF05F0010E066E052A02D0D8900636DA
:101F2600052EFCD78B0EF66E060EF76E0800F5CF63
:101F360007F0010E086E072A02D0D8900836072E41
:101F4600FCD708500610041002108A12FF0E016E0C
:101F5600FF0E026E0B50036E046A015003260250F8
:101F66000422860E0324F66E060E0420F76E080081
:101F7600F5CF05F0010E066E052A02D0D89006367A
:101F8600052EFCD70650FF0A8B16FF0E016EFF0EBC
:101F9600026E0B50036E046A01500326025004229F
:101FA6008B0E0324F66E060E0420F76E0800F5CF9E
:101FB60005F0010E066E052A02D0D8900636052ECB
:101FC600FCD70650FF0A8A161200AFC001F0B0C057
:101FD60002F0B1C003F0240E046E740E056E490EB5
:101FE600066E4FEC14F0D8A023D0910E0001776F47
:101FF600000E0001786FE90E0001796F060E0001F0
:102006007A6FAFC030F0B0C031F0B1C032F0240EFC
:10201600336E740E346E490E356E85EC13F030C097
:102026007BF031C07CF032C07DF08AEC16F069D0CE
:10203600AFC001F0B0C002F0B1C003F0240E046ED0
:10204600740E056E490E066E4FEC14F0D8B033D000
:10205600AFC001F0B0C002F0B1C003F0000E046ED4
:102066007A0E056E440E066E4FEC14F0D8A023D0FF
:10207600910E0001776F000E0001786FD30E0001FC
:10208600796F060E00017A6FAFC030F0B0C031F044
:10209600B1C032F0000E336E7A0E346E440E356ED9
:1020A60085EC13F030C07BF031C07CF032C07DF09F
:1020B6008AEC16F026D00001B1AF0FD0910E0001C8
:1020C600776F000E0001786FA70E0001796F060E7C
:1020D60000017A6F8AEC16F014D0910E0001776F2A
:1020E600000E0001786FDE0E0001796F060E00010A
:1020F6007A6FAFC07BF0B0C07CF0B1C07DF08AECE7
:1021060016F0810E0001776F000E0001786FB80E91
:102116000001796F060E00017A6FCAC07BF00001DC
:102126007C6BC9C07DF000017E6BB4C07FF00001FE
:10213600806B8AEC16F0010E096E910E0A6E000E87
:102146000B6E010E3DEC18F0020E096E810E0A6E42
:10215600000E0B6E010E3DEC18F012005704D8A4C9
:1021660002D08B9E120085EC18F0ABEC16F001C085
:10217600B2F002C0B3F08B8EA40E336E400E346EF6
:10218600400E356E000E126E030E116EFF0E00012C
:10219600CA250F6E106AFF0E1022CBEC17F0770ED1
:1021A6000F24F66E060E1020F76E0900F5CF24F008
:1021B6000900F5CF25F00A00F5CF26F0000E186EBF
:1021C600D80E196EC10E1A6EB2C009F0B3C00AF06D
:1021D600DEEC17F009C015F00AC016F00BC017F0B8
:1021E60040EC0EF015C021F016C022F017C023F007
:1021F60091EC12F021C030F022C031F023C032F051
:1022060085EC13F030C052F031C053F032C054F0B8
:10221600AFC015F0B0C016F0B1C017F052C018F03C
:1022260053C019F054C01AF040EC0EF015C0AFF0D0
:1022360016C0B0F017C0B1F00001B42B0A0E0001B1
:10224600B419D8A419D0AFC030F0B0C031F0B1C0C5
:1022560032F0000E336E200E346E410E356E85EC74
:1022660013F030C0AFF031C0B0F032C0B1F0E8ECDE
:102276000FF0000E0001B46F0001C905D8A412D0FA
:10228600E80E0001B25D030E0001B359D8B00AD0C2
:10229600020E0001CA6506D00001CA070001CA5134
:1022A60016EC0FF01A0E516EF80EE82EFED7512ED0
:1022B600FCD700D07AEC18F08B9E83EC18F0F292E3
:1022C600120003C007F0086A096A0234073601E300
:1022D600088007500F6E0F50D8A409D0000E016E6B
:1022E600000E026E000E036E000E046E120006C093
:1022F60007F0086A096A0534073601E308800750C3
:102306000E6E0E50D8A409D0000E016E000E026E9D
:10231600000E036E000E046E1200028EFF0E0116F2
:10232600FF0E0216000E0316058EFF0E0416FF0E94
:102336000516000E0616000E0A6E000E0B6E000E37
:102346000C6E000E0D6E7F0E0F5E0E50980F0F5E18
:10235600180E0E6ED8900A360B360C360D36045013
:10236600015C0550025806500358D8A007D0045007
:10237600015E0550025A0650035A0A80D89001366B
:10238600023603360E2EE6D70FAE16D00F50800A51
:10239600970FD8B009D0000E016E000E026E000E27
:1023A600036E000E046E1200D8900D320C320B3202
:1023B6000A320F3EF9D715D0170E0F640FD0000E54
:1023C600016E000E026E000E036E000E046E120009
:1023D600D8900A360B360C360D360F060F50D8A499
:1023E600F7D70AC001F00BC002F00CC003F00DC015
:1023F60004F01200033404340C6E0C50D8A409D037
:10240600000E016E000E026E000E036E000E046ECC
:102416001200063407340B6E0B50D8A409D0000EF8
:10242600016E000E026E000E036E000E046E1200A8
:10243600038EFF0E0116FF0E0216FF0E0316000E88
:102446000416068EFF0E0416FF0E0516FF0E061660
:10245600000E0716000E076E000E086E000E096EBF
:10246600000E0A6E7F0E0C5E0B50A00F0C5E200E47
:102476000B6ED8900736083609360A360450015CCA
:10248600055002580650035807500458D8A009D0E2
:102496000450015E0550025A0650035A0750045A6A
:1024A6000780D89001360236033604360B2EE1D764
:1024B6000CAE16D00C50800A9F0FD8B009D0000E73
:1024C600016E000E026E000E036E000E046E120008
:1024D600D8900A320932083207320C3EF9D715D0A5
:1024E6001F0E0C640FD0000E016E000E026E000E61
:1024F600036E000E046E1200D890073608360936B1
:102506000A360C060C50D8A4F7D707C001F008C04D
:1025160002F009C003F00AC004F0120023C027F03D
:10252600286A296A2234273601E3288027502A6E32
:102536002A50D8A407D0000E216E000E226E000E7F
:10254600236E120026C027F0286A296A253427360A
:1025560001E3288027502F6E2F50D8A407D0000EF5
:10256600216E000E226E000E236E12002F507B0F7E
:102576002A2623C02FF026502F1A800E2F16228EC1
:10258600258EFF0E2416FF0E2516000E2616000EAB
:102596002B6E000E2C6E000E2D6E070E2E6E21A0D9
:1025A60006D024502B2625502C2226502D22D8909A
:1025B600233222322132D8902436253626362E2E44
:1025C600EED7090E2E6E21A006D024502B262550BC
:1025D6002C2226502D22D890233222322132D89016
:1025E6002D322C322B322E2EEED72BC001F02CC0E2
:1025F60002F02DC003F02AC004F02FC005F0F8EC5D
:1026060013F001C021F002C022F003C023F0120033
:1026160032C034F0356A366A3134343601E33580F7
:1026260034503E6E3E50D8A409D0000E306E000ED7
:10263600316E000E326E000E336E1200170E346EBF
:1026460030C035F031C036F032C037F03428386E3D
:1026560004D0D890373236323532382EFAD7355044
:10266600396E318EFF0E3016FF0E3116000E321601
:1026760030503A6E31503B6E32503C6E3D6A8E0E93
:102686003E5E3EAE16D03E50800A8F0FD8B009D0BF
:10269600000E306E000E316E000E326E000E336E7E
:1026A6001200D8903D323C323B323A323E3EF9D7A8
:1026B60015D0170E3E640FD0000E306E000E316E30
:1026C600000E326E000E336E1200D8903A363B364C
:1026D6003C363D363E063E50D8A4F7D73950D8B4DE
:1026E60008D03D1E3C1E3B1E3A6C000E3B223C228F
:1026F6003D223AC030F03BC031F03CC032F03DC024
:1027060033F0120032C036F0376A386A3134363662
:1027160001E3378036503D6E3D50D8A407D0000EF9
:10272600306E000E316E000E326E120035C036F07D
:10273600376A386A3434363601E3378036503E6EAF
:102746003E50D8A407D0000E306E000E316E000E3B
:10275600326E1200000E3A6E000E3B6E000E3C6E9C
:102766003E50890F3D5E32C03EF035503E1A800E17
:102776003E16318EFF0E3016FF0E3116000E321643
:10278600348EFF0E3316FF0E3416000E3516180E55
:10279600396ED8903A363B363C363350305C34503E
:1027A600315835503258D8A007D03350305E3450A7
:1027B600315A3550325A3A80D89030363136323620
:1027C600392EE7D73AC001F03BC002F03CC003F017
:1027D6003DC004F03EC005F0F8EC13F001C030F047
:1027E60002C031F003C032F012000450D8B405D054
:1027F600015002100310D8A40CD0000E016E000E7A
:10280600026E000E036E1200042AD89003320232C2
:102816000132000E0114066E000E0214076EFE0E43
:102826000314086E065007100810D8B40CD0ECD765
:10283600042A010E0126000E0222000E0322D89061
:10284600033202320132000E0114066E000E02142B
:10285600076EFF0E0314086E065007100810D8B452
:1028660006D0E6D70406D89001360236033602BEF5
:1028760003D0020E0460F6D704A0029ED89004325C
:10288600045003120550D8A4038E01C001F002C003
:1028960002F003C003F0120003AE16D001C007F029
:1028A60002C008F003C009F0071E081E091E072A09
:1028B600000E08220922000E0724016E000E0820D1
:1028C600026E800E0920036E06AE16D004C007F015
:1028D60005C008F006C009F0071E081E091E072AD3
:1028E600000E08220922000E0724046E000E08209E
:1028F600056E800E0920066E000E011A000E021AE1
:10290600800E031A000E041A000E051A800E061A0F
:102916000450015C0550025806500358D8B002D046
:10292600D8901200D8801200000E0C6E0AAE06D0A7
:10293600096C0A1ED8B00A2A010E0C6E08AE06D023
:10294600076C081ED8B0082A010E0C1A000E0E6E6F
:10295600000E0D6E09500A10D8B41CD0010E0B6E75
:1029660004D0D89009360A360B2A0AAEFAD7D89080
:102976000D360E360950075C0A500858D8A005D007
:102986000950075E0A50085A0D80D8900A3209325B
:102996000B2EEDD70C50D8B404D00D6C0E1ED8B04B
:1029A6000E2A0DC007F00EC008F01200000E096EC8
:1029B600000E0A6E000E0B6E000E0C6E0550061011
:1029C60007100810D8B42AD0010E0D6E06D0D89084
:1029D60005360636073608360D2A08AEF8D7D890DB
:1029E60009360A360B360C360550015C065002587D
:1029F6000750035808500458D8A009D00550015E66
:102A06000650025A0750035A0850045A0980D890B3
:102A160008320732063205320D2EE1D709C001F021
:102A26000AC002F00BC003F00CC004F01200000E46
:102A360008EC17F0680E0101036FE40EE82EFED7CE
:102A4600032FFCD700F0030EB8EC17F01A0E0101A5
:102A5600036FF80EE82EFED7032FFCD700F0030E07
:102A6600B8EC17F03A0E0101036F230EE82EFED7DD
:102A7600032FFCD7030EB8EC17F0020EB8EC17F0D4
:102A8600020EB8EC17F0080EB8EC17F0000EB8EC12
:102A960017F00C0EB8EC17F0000EB8EC17F0060E97
:102AA600B8EC17F01200000E066E02AE06D0016CEE
:102AB600021ED8B0022A010E066E04AE04D0036CC4
:102AC600041ED8B0042A03500410D8B418D0010E3E
:102AD600056E04D0D89003360436052A04AEFAD71C
:102AE6000350015C04500258D8A004D00350015E84
:102AF6000450025AD89004320332052EF1D70650FC
:102B0600D8B404D0016C021ED8B0022A01C001F06C
:102B160002C002F012001250131014101510D8B48F
:102B260024D0010E166E06D0D890123613361436FF
:102B36001536162A15AEF8D712500E5C13500F58DC
:102B46001450105815501158D8A008D012500E5EC7
:102B560013500F5A1450105A1550115AD890153256
:102B6600143213321232162EE7D70EC00EF00FC0F3
:102B76000FF010C010F011C011F012000001C905CD
:102B8600D8A405D0CAC0B5F0000E0001C96F050E65
:102B96000001CA6103D00001CA2B03D0030E000155
:102BA600CA5F0001C951D8A409D00001B55100017E
:102BB600CA19D8A403D0010E0001C96F900E4B6E3E
:102BC600060E4C6ECAC04DF04E6A23EC17F000019B
:102BD600CA5116EC0FF0F09012008E0E116E06D050
:102BE600D8900C320B320A320932112A000E09141F
:102BF6000D6E000E0A140E6E000E0B140F6EFF0EF5
:102C06000C14106E0D500E100F101010D8A4E8D72B
:102C160009C001F00AC002F00BC003F011C004F0B5
:102C2600000E056EF8EC13F001C009F002C00AF0C0
:102C360003C00BF01200056E0404D8A410D0055092
:102C46007F0F086E08380F0B066E08500F0B076EC5
:102C5600065002EC18F0075002EC18F01200020EB3
:102C66000418D8A412000550BF0F086E08380F0BC1
:102C7600066E08500F0B076E065002EC18F0075050
:102C860002EC18F01200110ED56E150ED76E9F0EBF
:102C9600D66ED650D7CF02F10101036B02C103F104
:102CA6000101026B01010211556E01010351566EBD
:102CB600F294F28AD00E0101006F2C0E0101016F11
:102CC60070EC18F07FEC18F012005750D8A40FD013
:102CD6008BAE02D0010E01D0000EFF0A0C6E0C3234
:102CE6000C328B500C187F0B0C188B6E01D08B9E00
:102CF6000001C905D8A41200050E0001CA61120020
:102D06000001CA2B0001CA5116EC0FF0120077C061
:102D16004DF078C04EF0000E4F6E000E506E7B0EDA
:102D26004B6E000E4C6E4D0E3F6E000E406E79C01F
:102D360041F07AC042F04B0E436E000E446E7BECBF
:102D460003F04DC0D9FF4EC0DAFF000EDF6E120051
:102D5600D6CF09F0D7CF0AF055C003F056C004F01D
:102D6600031E041E034A042A09500AC005F0066A17
:102D760005C006F0056A0526000E06220350052446
:102D8600076E04500620086E07C001F008C002F066
:102D96001200245025102610D8B406D0000E241A8E
:102DA600000E251A800E261A21C015F022C016F034
:102DB60023C017F024C018F025C019F026C01AF059
:102DC60040EC0EF015C021F016C022F017C023F01B
:102DD6001200046E04500F0B026E0450F00B036ECB
:102DE600898A03380F0BA2EC17F08988350EE82E76
:102DF600FED700F089980250A2EC17F08988350EAC
:102E0600E82EFED700F0899812000101006F01013B
:102E160000A102D0898601D08996010100A302D0C3
:102E2600898401D08994010100A502D0898201D04C
:102E36008992010100A702D08980120089901200B0
:102E4600000E516E000E526EEA0E536E300E546E28
:102E56004D0E4F6E000E506E510E3F6E000E406EC0
:102E66004BC041F04CC042F04F0E436E000E446E14
:102E76007BEC03F012000E0EF66E310EF76E000EAE
:102E8600F86E0900F5CFC9F00900F5CFCAF000EEDB
:102E9600AFF0180EEE6AE806FDE1576A58905892B0
:102EA600000EF86E000112EF18F0000E086E000E0C
:102EB600076E0BD007500524D96E08500620DA6E2F
:102EC600DF50ECEC16F0074A082A07500524D96EA5
:102ED60008500620DA6EDF50D8B41200EBD7000E89
:102EE600896E3C0E8A6E1F0E8B6EC00E926EC30EDE
:102EF600936E200E946E200E0F013A6F000E0F0196
:102F0600396F000E0F01386F6168F19E1200F2945E
:102F16005650D76E55C0D6FF0001C7510001C811E3
:102F2600D8B4120001D8120005000001FA6EC7518C
:102F3600FD6EC851FE6EF850FF6EFA501200016E1B
:102F460001A002D0898601D0899601A202D0898487
:102F560001D0899401A402D0898201D0899201A668
:102F660002D089801200899012000101026F899AAD
:102F76000101025108EC17F08988150E0101016F55
:102F8600C60EE82EFED7012FFCD700F08998120056
:102F96000F501102F3CF13F0F4CF14F00F501202BA
:102FA600F350142610501102F350142613C00FF0DC
:102FB60014C010F0120009C001F00AC002F0036A42
:102FC6008E0E046E000E056EF8EC13F001C009F0CB
:102FD60002C00AF003C00BF01200015002100310E9
:102FE600D8B406D0000E011A000E021A800E031A7B
:102FF60001C001F002C002F003C003F01200036E2C
:10300600899A0350A2EC17F08988150E026EC60E37
:10301600E82EFED7022EFCD700D08998120030EC9D
:1030260018F0F28EF28C1AEC15F055EC18F01F0E13
:103036008B123C0E8A128B928A96FFD7036E000E75
:10304600026E3A0E036005D02F0E036402D0010E05
:10305600026E02C001F00130120081EC18F072EC31
:1030660017F05CEC18F063EC18F046EC16F04AEC3E
:1030760018F012000C6E09C004F00C501EEC16F08D
:103086000AC005F00BC006F058EC17F01200080E47
:10309600B86E800EAB6E240EAC6EA00EAF6E010E37
:1030A600B06E1200000EB8EC17F0010EB8EC17F077
:1030B6001200700ED36E040ED26E000E9B6E1200BE
:1030C600F090F19AF086F292F19CF2881200016E6D
:1030D6009EA8FED701C0ADFF120000C1C7F001C116
:1030E600C8F01200026E02506AEC18F01200565038
:1030F600D76E55C0D6FF1200D58E1200D09E120094
:0A310600D58E1200D59E12000102C2
:020000040020DA
:08000000FFFFFFFFFFFFFFFF00
:020000040030CA
:0E000000FF231F3CFFBF85FF0FC00FE00F4026
:00000001FF
