:0400000050EF00F0CD
:100008005E82FACF82F0FBCF83F0E9CF84F0EACFAB
:1000180085F0E1CF86F0E2CF87F0D9CF88F0DACF4C
:1000280089F0F3CF8AF0F4CF8BF0F6CF8CF0F7CFCE
:100038008DF0F8CF8EF0F5CF8FF0F0B6F0A003D0AA
:10004800E6EC27F00BD0F2B8F2A203D067EC21F06F
:1000580005D0F2BAF2A402D003EC2AF08FC0F5FF63
:100068008EC0F8FF8DC0F7FF8CC0F6FF8BC0F4FF81
:100078008AC0F3FF89C0DAFF88C0D9FF87C0E2FFD2
:1000880086C0E1FF85C0EAFF84C0E9FF83C0FBFFAB
:1000980082C0FAFF5E92110020EF29F073EF09F099
:1000A800250E01013B19D8B438D0010120EE02F029
:1000B8001951D9261A51DA22DE50DE10D8B416D0DA
:1000C800010120EE02F01951D9261A51DA2202D87C
:1000D80073EF09F00500FA6EDE50FD6EDE50FE6E1D
:1000E800F850FF6EFA5001013B51120019C1D9FFB7
:1000F8001AC1DAFFDECF1FF1DDCF20F11FC1D9FF12
:1001080020C1DAFF3BC1DFFF19C1D9FF1AC1DAFFED
:10011800DE2A000EDD2273EF09F0000E0101336FB5
:10012800000E326F000E0101386F000E376F05D0D8
:100138000101378501011B4B1C2B1BC1F6FF1CC19C
:10014800F7FF0800F550300AD8B4F2D71BC1F6FF04
:100158001CC1F7FF0800F5501BEC2AF0D8A040D0CE
:10016800000E0101336F000E326F32C19EF033C1B1
:100178009FF0000E0001A16F0A0EA06F82EC29F01B
:100188009EC032F19FC033F1D00E01011F6FFF0EE8
:100198000101206F1BC1F6FF1CC1F7FF0800F550D5
:1001A8000101216F226B01011F510101212701016A
:1001B80020510101222301012151010132270101AE
:1001C80022510101332301011B4B1C2B1BC1F6FFDC
:1001D8001CC1F7FF0800F5501BEC2AF0D8B0C5D7B2
:1001E8001BC1F6FF1CC1F7FF0800F5502E0AD8A462
:1001F80039D00101388D01011B4B1C2B000E010168
:100208003A6F000E396F23D039C19EF03AC19FF082
:10021800000E0001A16F0A0EA06F82EC29F01BC12D
:10022800F6FF1CC1F7FF0800F55000019E27000EDD
:1002380000019F23D00E00019E250101396FFF0E9A
:1002480000019F2101013A6F01011B4B1C2B1BC1AF
:10025800F6FF1CC1F7FF0800F5501BEC2AF0D8A0E8
:1002680012D0D2D7000E01013A6F000E396F01018A
:10027800388909D00101378906D00101388524D091
:100288000101378D21D01BC1F6FF1CC1F7FF010109
:100298001B4B1C2B0800F5CF3BF101013B51000A19
:1002A800D8B482EF09F0640AD8B40ED0020AD8B4E0
:1002B800E4D70F0AD8B408D0050AD8B4DBD7190A8E
:1002C800D8B4DED773EF09F0070E01013815D8B49A
:1002D800A9EF06F0010138A905D0000E01013A6F17
:1002E800060E396F1DC1D9FF1EC1DAFFDFCF1FF11E
:1002F800030EDE26DFCF20F1000EDD221FC1D9FF5D
:1003080020C1DAFFDECF34F1DECF35F1DDCF36F1B3
:10031800010136AF11D034C190F035C191F036C12A
:1003280092F0D3EC29F090C034F191C035F192C02D
:1003380036F1030E01013713000E0101296F000E7B
:10034800286F010134510101351101013611D8B46A
:100358009BD0820E01011F6FFF0E0101206F34C177
:1003680021F135C122F136C123F137C124F1100E34
:1003780006D00101D8902433233322332133E82EC9
:10038800F8D70101215101011F250101286F000E35
:10039800010120210101296F01012807D8A029079F
:1003A80028C19EF029C19FF0000E0001A16F030E25
:1003B800A06F82EC29F09EC028F19FC029F128C1C6
:1003C80096F029C197F0000E0001996F0A0E986FF8
:1003D80049EC24F096C028F197C029F1010129AF12
:1003E80004D001012807D8A02907010128510008D5
:1003F80044EC12F0B3C02EF1B4C02FF1B5C030F107
:100408002EC1A4F02FC1A5F030C1A6F034C1A7F0C9
:1004180035C1A8F036C1A9F043EC1EF0A4C02EF1F6
:10042800A5C02FF1A6C030F12EC190F02FC191F0D8
:1004380030C192F0000E0001936F800E0001946F9E
:100448003F0E0001956FE5EC23F00001D8B005D010
:1004580001012807D8A0290717D02EC190F02FC175
:1004680091F030C192F0000E0001936F200E000150
:10047800946F410E0001956FE5EC23F00001D8A0C0
:1004880003D00101284B292B01013ABF08D00101F3
:100498003A511DE10D0E0101395DD8B018D034C1B3
:1004A80007F135C108F136C109F10101395193EC61
:1004B80016F0B3C00AF1B4C00BF1B5C00CF1E9EC09
:1004C80017F007C134F108C135F109C136F101014E
:1004D80029BF08D0010129512AE10A0E0101285D2E
:1004E800D8B025D00101345101013511010136116F
:1004F800D8B463D034C104F135C105F136C106F171
:1005080098EC1FF0010104510101051101010611C8
:1005180001010711D8A451D0010129BF4ED0010112
:10052800295105E1020E0101285DD8A046D02EC14F
:1005380090F02FC191F030C192F0700E0001936FCE
:10054800890E0001946F400E0001956FE5EC23F0D1
:100558000001D8B003D00101F70E02D00101F80E56
:100568002827FF0E29230101285144EC12F0B3C0BB
:100578002EF1B4C02FF1B5C030F134C190F035C1BF
:1005880091F036C192F02EC193F02FC194F030C192
:1005980095F0E8EC1BF090C02AF191C02BF192C0C5
:1005A8002CF193C02DF1000E0101346F000E0101F2
:1005B800356F000E0101366F33D034C104F135C1F7
:1005C80005F136C106F198EC1FF004C12AF105C106
:1005D8002BF106C12CF107C12DF134C113F135C13E
:1005E80014F136C115F12AC198F02BC199F02CC12C
:1005F8009AF02DC19BF0C6EC26F098C016F199C070
:1006080017F19AC018F16FEC28F013C134F114C136
:1006180035F115C136F1000E0101296F000E286F62
:10062800010E01013B6F0A0E01013B19D8B41ED01F
:1006380001013B51040DEF0EF324F66E7E0EF420FB
:10064800F76E0900F55001012A5D0900F550010116
:100658002B590900F55001012C590900F5500101E9
:100668002D59D8A003D001013B2BDDD73BC11FF189
:100678000101206B1FBF20070101395101011F270C
:1006880001013A51010120230101285101011F27CD
:10069800010129510101202301011F510101325F8C
:1006A800010120510101335B0101395101013A1166
:1006B800D8B404D001013207D8A03307030E0101D2
:1006C800371501011F6F000E010138150101206F58
:1006D80001011F5101012011D8B404D001013207D2
:1006E800D8A03307010137A5C0D0030E0101371583
:1006F80001011F6F000E010138150101206F010172
:100708001F5101012011D8B46DD0010120EE02F073
:100718001951D9261A51DA22DE50DE10D8B414D075
:10072800010120EE02F01951D9261A51DA2201D816
:1007380059D00500FA6EDE50FD6EDE50FE6EF850A0
:10074800FF6EFA502D0E120019C1D9FF1AC1DAFF37
:10075800DECF1FF1DDCF20F11FC1D9FF20C1DAFFA5
:100768002D0EDF6E19C1D9FF1AC1DAFFDE2A000E7D
:10077800DD2238D0010120EE02F01951D9261A5194
:10078800DA22DE50DE10D8B414D0010120EE02F0D7
:100798001951D9261A51DA2201D820D00500FA6E4B
:1007A800DE50FD6EDE50FE6EF850FF6EFA50300ED1
:1007B800120019C1D9FF1AC1DAFFDECF1FF1DDCF50
:1007C80020F11FC1D9FF20C1DAFF300EDF6E19C139
:1007D800D9FF1AC1DAFFDE2A000EDD220101320735
:1007E800D8A03307010133BF03D101013351C2E15E
:1007F80001013205D8A0FCD0BDD7010120EE02F0DE
:100808001951D9261A51DA22DE50DE10D8B414D084
:10081800010120EE02F01951D9261A51DA2201D825
:1008280020D00500FA6EDE50FD6EDE50FE6EF850E8
:10083800FF6EFA50200E120019C1D9FF1AC1DAFF53
:10084800DECF1FF1DDCF20F11FC1D9FF20C1DAFFB4
:10085800200EDF6E19C1D9FF1AC1DAFFDE2A000E99
:10086800DD2201013207D8A03307010133BF07D0C9
:1008780001013351C2E101013205D8B0BED7030EE0
:100888000101371501011F6F000E01013815010123
:10089800206F01011F5101012011D8B4A9D0010115
:1008A80020EE02F01951D9261A51DA22DE50DE1054
:1008B800D8B414D0010120EE02F01951D9261A51EA
:1008C800DA2201D895D00500FA6EDE50FD6EDE50B2
:1008D800FE6EF850FF6EFA502D0E120019C1D9FFA6
:1008E8001AC1DAFFDECF1FF1DDCF20F11FC1D9FF1A
:1008F80020C1DAFF2D0E7AD019C1D9FF1AC1DAFF4B
:10090800DE2A000EDD2274D02AC190F02BC191F0AE
:100918002CC192F02DC193F001013B51040DEF0E53
:10092800F324F66E7E0EF420F76E0900F5CF94F0EE
:100938000900F5CF95F00900F5CF96F00A00F5CF3C
:1009480097F0A8EC24F090C02EF191C02FF192C03E
:1009580030F193C031F12EC19DF02FC19EF030C10E
:100968009FF031C1A0F00A0E0001A16F000EA26F26
:10097800000EA36F000EA46FAEEC25F09DC02EF103
:100988009EC02FF19FC030F1A0C031F1010120EECF
:1009980002F01951D9261A51DA22DE50DE10D8B4E5
:1009A80016D0010120EE02F01951D9261A51DA2287
:1009B80001D81ED00500FA6EDE50FD6EDE50FE6EC8
:1009C800F850FF6EFA5001012E51300F120001014C
:1009D8002E51300F19C1D9FF1AC1DAFFDECF1FF12E
:1009E800DDCF20F11FC1D9FF20C1DAFFDF6E84D728
:1009F80001013B0701013B29D8B439D085D7010152
:100A080020EE02F01951D9261A51DA22DE50DE10F2
:100A1800D8B414D0010120EE02F01951D9261A5188
:100A2800DA2201D820D00500FA6EDE50FD6EDE50C5
:100A3800FE6EF850FF6EFA50300E120019C1D9FF41
:100A48001AC1DAFFDECF1FF1DDCF20F11FC1D9FFB8
:100A580020C1DAFF300EDF6E19C1D9FF1AC1DAFFE3
:100A6800DE2A000EDD2201012807D8A0290701018E
:100A780029BF07D001012951C2E101012805D8B0D9
:100A8800BED701013ABF0CD001013A5105E1090E68
:100A98000101395DD8A004D0080E01013B6F02D0D6
:100AA80039C13BF101013B510101395F000E0101E0
:100AB8003BBFFF0E01013A5B01013B510101D8B474
:100AC80034D0010120EE02F01951D9261A51DA2248
:100AD800DE50DE10D8B414D0010120EE02F0195116
:100AE800D9261A51DA2201D820D00500FA6EDE5034
:100AF800FD6EDE50FE6EF850FF6EFA502E0E12009C
:100B080019C1D9FF1AC1DAFFDECF1FF1DDCF20F1FD
:100B18001FC1D9FF20C1DAFF2E0EDF6E19C1D9FF20
:100B28001AC1DAFFDE2A000EDD2201013B5144EC36
:100B380012F0B3C025F1B4C026F1B5C027F134C115
:100B4800A7F035C1A8F036C1A9F025C1A4F026C187
:100B5800A5F027C1A6F043EC1EF0A4C004F1A5C07F
:100B680005F1A6C006F198EC1FF004C12AF105C1F1
:100B78002BF106C12CF107C12DF1A1D02AC190F0AB
:100B88002BC191F02CC192F02DC193F001013B5182
:100B9800040DEF0EF324F66E7E0EF420F76E0900B6
:100BA800F5CF94F00900F5CF95F00900F5CF96F050
:100BB8000A00F5CF97F0A8EC24F090C02EF191C070
:100BC8002FF192C030F193C031F12EC19DF02FC1A9
:100BD8009EF030C19FF031C1A0F00A0E0001A16F54
:100BE800000EA26F000EA36F000EA46FAEEC25F0EE
:100BF8009DC02EF19EC02FF19FC030F1A0C031F1F1
:100C0800010120EE02F01951D9261A51DA22DE50DC
:100C1800DE10D8B416D0010120EE02F01951D92601
:100C28001A51DA2201D824D00500FA6EDE50FD6E82
:100C3800DE50FE6EF850FF6EFA5001012E51300F53
:100C4800120001012E51300F19C1D9FF1AC1DAFF64
:100C5800DECF1FF1DDCF20F11FC1D9FF20C1DAFFA0
:100C6800DF6E19C1D9FF1AC1DAFFDE2A000EDD22B4
:100C78002AC19DF02BC19EF02CC19FF02DC1A0F080
:100C880001013B51040DEF0EF324F66E7E0EF420A5
:100C9800F76E0900F5CFA1F00900F5CFA2F0090021
:100CA800F5CFA3F00A00F5CFA4F0AEEC25F09DC077
:100CB8002AF19EC02BF19FC02CF1A0C02DF101019B
:100CC8003B0701013B29D8B439D058D7010120EEA0
:100CD80002F01951D9261A51DA22DE50DE10D8B4A2
:100CE80014D0010120EE02F01951D9261A51DA2246
:100CF80001D820D00500FA6EDE50FD6EDE50FE6E83
:100D0800F850FF6EFA50300E120019C1D9FF1AC1FF
:100D1800DAFFDECF1FF1DDCF20F11FC1D9FF20C1DF
:100D2800DAFF300EDF6E19C1D9FF1AC1DAFFDE2AE9
:100D3800000EDD2201013907D8A03A070101395117
:100D480001013A11D8B4CBD2C1D7010137BD46D081
:100D5800010137A919D01DC1D9FF1EC1DAFFDFCFA4
:100D68001FF1040EDE26DFCF20F1000EDD221FC1A9
:100D7800D9FF20C1DAFFDECF2AF1DECF2BF1DECF9B
:100D88002CF1DECF2DF11AD01DC1D9FF1EC1DAFF1B
:100D9800DFCF1FF1020EDE26DFCF20F1000EDD22AD
:100DA8001FC1D9FF20C1DAFFDECF2AF1DDCF2BF139
:100DB8000101000E2BBFFF0E2C6F2D6F01012DAF0F
:100DC80044D0030E0101371301012D1F2C1F2B1FC7
:100DD8002A6D000E2B232C232D2337D0010137A990
:100DE80019D01DC1D9FF1EC1DAFFDFCF1FF1040ED4
:100DF800DE26DFCF20F1000EDD221FC1D9FF20C182
:100E0800DAFFDECF2AF1DECF2BF1DECF2CF1DECFF9
:100E18002DF11BD01DC1D9FF1EC1DAFFDFCF1FF195
:100E2800020EDE26DFCF20F1000EDD221FC1D9FF22
:100E380020C1DAFFDECF21F1DDCF22F121C12AF175
:100E480022C12BF101012C6B2D6B010139510101DC
:100E58003A11D8A40DD001012A5101012B11010129
:100E68002C1101012D11D8A403D00101394B3A2BC3
:100E7800010E01013B6F0A0E01013B19D8B41ED0C7
:100E880001013B51040DEF0EF324F66E7E0EF420A3
:100E9800F76E0900F55001012A5D0900F5500101BE
:100EA8002B590900F55001012C590900F550010191
:100EB8002D59D8A003D001013B2BDDD7800E0101AD
:100EC8003BBF7F0E01011F6F0101395101013B5DDD
:100ED80001013A51800A01011F59D8B003D039C124
:100EE8003BF118D001013A51800A01011F6F01013D
:100EF8003B510101395D800E01013BBF7F0E0101AD
:100F08001F59D8B007D001013B510101396F3A6B25
:100F180039BF3A070101325101013311D8B414D055
:100F2800030E0101371501011F6F000E010138156D
:100F38000101206F01011F5101012011D8B404D013
:100F480001013207D8A03307010138AD1ED00101D5
:100F580032510101395D01013A51800A01011F6FC7
:100F680001013351800A01011F59D8B009D001018C
:100F780039510101325F01013A510101335B05D05A
:100F8800000E0101336F000E326F800E01013BBF6E
:100F98007F0E01011F6F0101325101013B5D01010B
:100FA8003351800A01011F59D8B00BD001013B51C0
:100FB8000101325F000E01013BBFFF0E0101335BEF
:100FC80005D0000E0101336F000E326F010137A505
:100FD80083D0030E0101371501011F6F000E0101B7
:100FE80038150101206F01011F5101012011D8B4EA
:100FF80034D0010120EE02F01951D9261A51DA2213
:10100800DE50DE10D8B414D0010120EE02F01951E0
:10101800D9261A51DA2201D820D00500FA6EDE50FE
:10102800FD6EDE50FE6EF850FF6EFA502D0E120067
:1010380019C1D9FF1AC1DAFFDECF1FF1DDCF20F1C8
:101048001FC1D9FF20C1DAFF2D0EDF6E19C1D9FFEC
:101058001AC1DAFFDE2A000EDD2201013251010138
:101068003311D8B431D1010120EE02F01951D9263B
:101078001A51DA22DE50DE10D8B414D0010120EE65
:1010880002F01951D9261A51DA2201D820D00500C8
:10109800FA6EDE50FD6EDE50FE6EF850FF6EFA50AE
:1010A800300E120019C1D9FF1AC1DAFFDECF1FF1C5
:1010B800DDCF20F11FC1D9FF20C1DAFF300EDF6E6E
:1010C80019C1D9FF1AC1DAFFDE2A000EDD2201019B
:1010D8003207D8A03307C1D70101325101013311BA
:1010E800D8B43ED0010120EE02F01951D9261A5188
:1010F800DA22DE50DE10D8B414D0010120EE02F05E
:101108001951D9261A51DA2201D820D00500FA6ED1
:10111800DE50FD6EDE50FE6EF850FF6EFA50200E67
:10112800120019C1D9FF1AC1DAFFDECF1FF1DDCFD6
:1011380020F11FC1D9FF20C1DAFF200EDF6E19C1CF
:10114800D9FF1AC1DAFFDE2A000EDD2201013207BB
:10115800D8A033070101325101013311D8A4C2D7F5
:10116800030E0101371501011F6F000E010138152B
:101178000101206F01011F5101012011D8B4A4D031
:10118800010120EE02F01951D9261A51DA22DE5057
:10119800DE10D8B414D0010120EE02F01951D9267E
:1011A8001A51DA2201D890D00500FA6EDE50FD6E91
:1011B800DE50FE6EF850FF6EFA502D0E120019C167
:1011C800D9FF1AC1DAFFDECF1FF1DDCF20F11FC131
:1011D800D9FF20C1DAFF2D0EDF6E6FD039C11FF1A4
:1011E8003AC120F10101D8901F3720370101D8906A
:1011F8001F372037EF0E01011F25F66E7E0E2021C6
:10120800F76E0900F5CF94F00900F5CF95F00900C5
:10121800F5CF96F00A00F5CF97F02AC190F02BC1D0
:1012280091F02CC192F02DC193F0A8EC24F090C05D
:101238009DF091C09EF092C09FF093C0A0F00A0E5E
:101248000001A16F000EA26F000EA36F000EA46F25
:10125800AEEC25F000019D51300F01013B6F0101FB
:1012680020EE02F01951D9261A51DA22DE50DE108A
:10127800D8B415D0010120EE02F01951D9261A511F
:10128800DA2201D821D00500FA6EDE50FD6EDE505C
:10129800FE6EF850FF6EFA5001013B51120019C161
:1012A800D9FF1AC1DAFFDECF1FF1DDCF20F11FC150
:1012B800D9FF20C1DAFF3BC1DFFF19C1D9FF1AC12D
:1012C800DAFFDE2A000EDD2201013907D8A03A072D
:1012D8000101392983E101013A29D8A47FD71BC12B
:1012E800F6FF1CC1F7FF01011B4B1C2B0800F5CFB3
:1012F8003BF101013B51D8A454EF00F0000E01016D
:101308001A6F000E196F120031EF12F0250E00014E
:101318007619D8B436D020EE02F04650D926475078
:10132800DA22DE50DE10D8B415D020EE02F0465096
:10133800D9264750DA2202D831EF12F00500FA6EAA
:10134800DE50FD6EDE50FE6EF850FF6EFA50000162
:101358007651120046C0D9FF47C0DAFFDECF4CF005
:10136800DDCF4DF04CC0D9FF4DC0DAFF76C0DFFFAE
:1013780046C0D9FF47C0DAFFDE2A000EDD2231EF72
:1013880012F0000E0001716F000E706F000E000168
:10139800736F000E726F04D000017285484A492AA3
:1013A80048C0F6FF49C0F7FF0800F550300AD8B426
:1013B800F3D748C0F6FF49C0F7FF0800F55089EC9D
:1013C8002AF0D8A035D0000E0001716F000E706FA2
:1013D80070C00FF071C010F0000E126E0A0E116E80
:1013E80043EC2AF00FC070F010C071F0D00E4C6EB4
:1013F800FF0E4D6E48C0F6FF49C0F7FF0800F550D4
:101408004E6E4F6A4C504E264D504F224E500001A2
:1014180070274F5000017123484A492A48C0F6FFF7
:1014280049C0F7FF0800F55089EC2AF0D8B0D0D7AA
:1014380048C0F6FF49C0F7FF0800F5502E0AD8A4A7
:1014480032D00001738D484A492A000E0001756F99
:10145800000E746F1DD074C00FF075C010F0000E30
:10146800126E0A0E116E43EC2AF048C0F6FF49C00E
:10147800F7FF0800F5500F26000E1022D00E0F249B
:101488000001746FFF0E10200001756F484A492A49
:1014980048C0F6FF49C0F7FF0800F55089EC2AF06C
:1014A800D8A012D0D8D7000E0001756F000E746F47
:1014B8000001738909D00001728906D00001738583
:1014C80023D00001728D20D048C0F6FF49C0F7FF35
:1014D800484A492A0800F5CF76F000017651000AFB
:1014E800D8B43FEF12F0640AD8B40ED0020AD8B4C8
:1014F800E5D70F0AD8B408D0050AD8B4DCD7190A3A
:10150800D8B4DFD731EF12F0070E00017315D8B445
:101518008AEF0FF0000173A905D0000E0001756F66
:10152800060E746F4AC0D9FF4BC0DAFFDFCF4CF00C
:10153800030EDE26DFCF4DF0000EDD224CC0D9FFB2
:101548004DC0DAFFDECF6DF0DECF6EF0DDCF6FF08D
:1015580000016FAF11D06DC001F06EC002F06FC016
:1015680003F056EC2AF001C06DF002C06EF003C023
:101578006FF0030E00017213000E0001646F000E7D
:10158800636F00016D5100016E1100016F11D8B435
:101598008BD0820E4C6EFF0E4D6E6DC04EF06EC03D
:1015A8004FF06FC050F070C051F0100E05D0D890B9
:1015B800513250324F324E32E82EF9D74E504C2429
:1015C8000001636F000E4D200001646F0001630786
:1015D800D8A0640763C00FF064C010F0000E126E4C
:1015E800030E116E43EC2AF00FC063F010C064F0D4
:1015F80063C007F064C008F0000E0A6E0A0E096E98
:1016080043EC26F007C063F008C064F0000164AF43
:1016180004D000016307D8A06407000163510008E3
:101628009BEC14F030C069F031C06AF032C06BF046
:1016380069C021F06AC022F06BC023F06DC024F0AD
:101648006EC025F06FC026F07EEC22F021C069F054
:1016580022C06AF023C06BF069C001F06AC002F0D2
:101668006BC003F0000E046E800E056E3F0E066E12
:10167800FBEC25F0D8B005D000016307D8A06407BB
:1016880013D069C001F06AC002F06BC003F0000E0D
:10169800046E200E056E410E066EFBEC25F0D8A0F8
:1016A80003D00001634B642B000175BF08D0000113
:1016B80075511DE10D0E0001745DD8B018D06DC0D4
:1016C80015F06EC016F06FC017F0000174511DECD4
:1016D80019F030C018F031C019F032C01AF040ECDF
:1016E8001AF015C06DF016C06EF017C06FF000014B
:1016F80064BF08D00001645126E10A0E0001635D51
:10170800D8B021D000016D5100016E1100016F1198
:10171800D8B45BD06DC037F06EC038F06FC039F008
:10172800F8EC22F03750381039103A10D8A44DD0C0
:10173800000164BF4AD00001645105E1020E0001B6
:10174800635DD8A042D069C001F06AC002F06BC0E6
:1017580003F0700E046E890E056E400E066EFBECEB
:1017680025F0D8B003D00001F70E02D00001F80E22
:101778006327FF0E6423000163519BEC14F030C013
:1017880069F031C06AF032C06BF06DC001F06EC014
:1017980002F06FC003F069C004F06AC005F06BC0C6
:1017A80006F03AEC20F001C065F002C066F003C014
:1017B80067F004C068F0000E00016D6F000E0001B4
:1017C8006E6F000E00016F6F33D06DC037F06EC0C2
:1017D80038F06FC039F0F8EC22F037C065F038C047
:1017E80066F039C067F03AC068F06DC021F06EC08D
:1017F80022F06FC023F065C009F066C00AF067C028
:101808000BF068C00CF018EC28F009C024F00AC0EE
:1018180025F00BC026F062EC29F021C06DF022C043
:101828006EF023C06FF0000E0001646F000E636F4E
:10183800010E0001766F0A0E00017619D8B41ED089
:1018480000017651040DEF0EF324F66E7E0EF4209F
:10185800F76E0900F5500001655D0900F5500001BB
:1018680066590900F550000167590900F550000153
:101878006859D8A003D00001762BDDD776C04CF08C
:101888004D6A4CBE4D06000174514C26000175513D
:101898004D22000163514C26000164514D224C50E9
:1018A8000001705F4D500001715B0001745100012F
:1018B8007511D8B404D000017007D8A07107030EC1
:1018C800000172154C6E000E000173154D6E4C50E0
:1018D8004D10D8B404D000017007D8A071070001DA
:1018E80072A5B6D0030E000172154C6E000E0001F1
:1018F80073154D6E4C504D10D8B469D020EE02F0DF
:101908004650D9264750DA22DE50DE10D8B413D01C
:1019180020EE02F04650D9264750DA2201D857D097
:101928000500FA6EDE50FD6EDE50FE6EF850FF6E5A
:10193800FA502D0E120046C0D9FF47C0DAFFDECF9D
:101948004CF0DDCF4DF04CC0D9FF4DC0DAFF2D0E65
:10195800DF6E46C0D9FF47C0DAFFDE2A000EDD225F
:1019680036D020EE02F04650D9264750DA22DE5013
:10197800DE10D8B413D020EE02F04650D9264750D6
:10198800DA2201D820D00500FA6EDE50FD6EDE5056
:10199800FE6EF850FF6EFA50300E120046C0D9FFA6
:1019A80047C0DAFFDECF4CF0DDCF4DF04CC0D9FF99
:1019B8004DC0DAFF300EDF6E46C0D9FF47C0DAFFF0
:1019C800DE2A000EDD2200017007D8A07107000191
:1019D80071BFF8D000017151C4E100017005D8A0B1
:1019E800F1D0BFD720EE02F04650D9264750DA2270
:1019F800DE50DE10D8B413D020EE02F04650D926BF
:101A08004750DA2201D820D00500FA6EDE50FD6E6C
:101A1800DE50FE6EF850FF6EFA50200E120046C0DF
:101A2800D9FF47C0DAFFDECF4CF0DDCF4DF04CC018
:101A3800D9FF4DC0DAFF200EDF6E46C0D9FF47C080
:101A4800DAFFDE2A000EDD2200017007D8A0710738
:101A5800000171BF07D000017151C4E10001700598
:101A6800D8B0C0D7030E000172154C6E000E0001ED
:101A780073154D6E4C504D10D8B4A4D020EE02F022
:101A88004650D9264750DA22DE50DE10D8B413D09B
:101A980020EE02F04650D9264750DA2201D892D0DB
:101AA8000500FA6EDE50FD6EDE50FE6EF850FF6ED9
:101AB800FA502D0E120046C0D9FF47C0DAFFDECF1C
:101AC8004CF0DDCF4DF04CC0D9FF4DC0DAFF2D0EE4
:101AD80077D046C0D9FF47C0DAFFDE2A000EDD22E4
:101AE80071D065C001F066C002F067C003F068C03D
:101AF80004F000017651040DEF0EF324F66E7E0E0D
:101B0800F420F76E0900F5CF05F00900F5CF06F0CF
:101B18000900F5CF07F00A00F5CF08F085EC26F0AC
:101B280001C069F002C06AF003C06BF004C06CF039
:101B380069C00EF06AC00FF06BC010F06CC011F0F5
:101B48000A0E126E000E136E000E146E000E156E45
:101B5800B3EC27F00EC069F00FC06AF010C06BF04C
:101B680011C06CF020EE02F04650D9264750DA2218
:101B7800DE50DE10D8B415D020EE02F04650D9263B
:101B88004750DA2201D81ED00500FA6EDE50FD6EED
:101B9800DE50FE6EF850FF6EFA5000016951300FAA
:101BA800120000016951300F46C0D9FF47C0DAFF63
:101BB800DECF4CF0DDCF4DF04CC0D9FF4DC0DAFF81
:101BC800DF6E87D70001760700017629D8B437D0B1
:101BD80088D720EE02F04650D9264750DA22DE5048
:101BE800DE10D8B413D020EE02F04650D926475064
:101BF800DA2201D820D00500FA6EDE50FD6EDE50E4
:101C0800FE6EF850FF6EFA50300E120046C0D9FF33
:101C180047C0DAFFDECF4CF0DDCF4DF04CC0D9FF26
:101C28004DC0DAFF300EDF6E46C0D9FF47C0DAFF7D
:101C3800DE2A000EDD2200016307D8A06407000138
:101C480064BF07D000016451C4E100016305D8B046
:101C5800C0D7000175BF0CD00001755105E1090E10
:101C68000001745DD8A004D0080E0001766F02D080
:101C780074C076F0000176510001745F000E000117
:101C880076BFFF0E0001755B000176510001D8B4E4
:101C980032D020EE02F04650D9264750DA22DE50E4
:101CA800DE10D8B413D020EE02F04650D9264750A3
:101CB800DA2201D820D00500FA6EDE50FD6EDE5023
:101CC800FE6EF850FF6EFA502E0E120046C0D9FF75
:101CD80047C0DAFFDECF4CF0DDCF4DF04CC0D9FF66
:101CE8004DC0DAFF2E0EDF6E46C0D9FF47C0DAFFBF
:101CF800DE2A000EDD22000176519BEC14F030C084
:101D080060F031C061F032C062F06DC024F06EC086
:101D180025F06FC026F060C021F061C022F062C0DB
:101D280023F07EEC22F021C037F022C038F023C027
:101D380039F0F8EC22F037C065F038C066F039C0E9
:101D480067F03AC068F09ED065C001F066C002F046
:101D580067C003F068C004F000017651040DEF0E6F
:101D6800F324F66E7E0EF420F76E0900F5CF05F029
:101D78000900F5CF06F00900F5CF07F00A00F5CF06
:101D880008F085EC26F001C069F002C06AF003C0D3
:101D98006BF004C06CF069C00EF06AC00FF06BC045
:101DA80010F06CC011F00A0E126E000E136E000EC9
:101DB800146E000E156EB3EC27F00EC069F00FC05C
:101DC8006AF010C06BF011C06CF020EE02F04650C3
:101DD800D9264750DA22DE50DE10D8B415D020EECE
:101DE80002F04650D9264750DA2201D824D00500FF
:101DF800FA6EDE50FD6EDE50FE6EF850FF6EFA5041
:101E080000016951300F120000016951300F46C0BE
:101E1800D9FF47C0DAFFDECF4CF0DDCF4DF04CC024
:101E2800D9FF4DC0DAFFDF6E46C0D9FF47C0DAFFE1
:101E3800DE2A000EDD2265C00EF066C00FF067C016
:101E480010F068C011F000017651040DEF0EF32474
:101E5800F66E7E0EF420F76E0900F5CF12F0090039
:101E6800F5CF13F00900F5CF14F00A00F5CF15F0FF
:101E7800B3EC27F00EC065F00FC066F010C067F035
:101E880011C068F00001760700017629D8B437D070
:101E98005BD720EE02F04650D9264750DA22DE50B2
:101EA800DE10D8B413D020EE02F04650D9264750A1
:101EB800DA2201D820D00500FA6EDE50FD6EDE5021
:101EC800FE6EF850FF6EFA50300E120046C0D9FF71
:101ED80047C0DAFFDECF4CF0DDCF4DF04CC0D9FF64
:101EE8004DC0DAFF300EDF6E46C0D9FF47C0DAFFBB
:101EF800DE2A000EDD2200017407D8A07507000154
:101F0800745100017511D8B4A8D2C3D7000172BDAD
:101F180046D0000172A919D04AC0D9FF4BC0DAFFD8
:101F2800DFCF4CF0040EDE26DFCF4DF0000EDD22B1
:101F38004CC0D9FF4DC0DAFFDECF65F0DECF66F0CA
:101F4800DECF67F0DECF68F01AD04AC0D9FF4BC0A9
:101F5800DAFFDFCF4CF0020EDE26DFCF4DF0000EA9
:101F6800DD224CC0D9FF4DC0DAFFDECF65F0DDCFF2
:101F780066F00001000E66BFFF0E676F686F000114
:101F880068AF44D0030E000172130001681F671F79
:101F9800661F656D000E66236723682337D000012E
:101FA80072A919D04AC0D9FF4BC0DAFFDFCF4CF075
:101FB800040EDE26DFCF4DF0000EDD224CC0D9FF27
:101FC8004DC0DAFFDECF65F0DECF66F0DECF67F01A
:101FD800DECF68F01BD04AC0D9FF4BC0DAFFDFCF95
:101FE8004CF0020EDE26DFCF4DF0000EDD224CC095
:101FF800D9FF4DC0DAFFDECF4EF0DDCF4FF04EC037
:1020080065F04FC066F00001676B686B00017451A2
:1020180000017511D8A40DD00001655100016611A9
:102028000001671100016811D8A403D00001744BA6
:10203800752B010E0001766F0A0E00017619D8B4CF
:102048001ED000017651040DEF0EF324F66E7E0EBD
:10205800F420F76E0900F5500001655D0900F550A0
:10206800000166590900F550000167590900F5504B
:1020780000016859D8A003D00001762BDDD7800E67
:10208800000176BF7F0E4C6E000174510001765D31
:1020980000017551800A4C58D8B003D074C076F04E
:1020A80016D000017551800A4C6E0001765100016E
:1020B800745D800E000176BF7F0E4C58D8B007D0F3
:1020C800000176510001746F756B74BF75070001CC
:1020D800705100017111D8B410D0030E00017215AF
:1020E8004C6E000E000173154D6E4C504D10D8B457
:1020F80004D000017007D8A07107000173AD1CD08F
:10210800000170510001745D00017551800A4C6E28
:1021180000017151800A4C58D8B009D0000174519F
:102128000001705F000175510001715B05D0000E60
:102138000001716F000E706F800E000176BF7F0E78
:102148004C6E000170510001765D00017151800AEA
:102158004C58D8B00BD0000176510001705F000ECA
:10216800000176BFFF0E0001715B05D0000E000173
:10217800716F000E706F000172A57BD0030E000115
:1021880072154C6E000E000173154D6E4C504D10BB
:10219800D8B432D020EE02F04650D9264750DA2281
:1021A800DE50DE10D8B413D020EE02F04650D92607
:1021B8004750DA2201D820D00500FA6EDE50FD6EB5
:1021C800DE50FE6EF850FF6EFA502D0E120046C01B
:1021D800D9FF47C0DAFFDECF4CF0DDCF4DF04CC061
:1021E800D9FF4DC0DAFF2D0EDF6E46C0D9FF47C0BC
:1021F800DAFFDE2A000EDD220001705100017111A4
:10220800D8B420D120EE02F04650D9264750DA2221
:10221800DE50DE10D8B413D020EE02F04650D92696
:102228004750DA2201D820D00500FA6EDE50FD6E44
:10223800DE50FE6EF850FF6EFA50300E120046C0A7
:10224800D9FF47C0DAFFDECF4CF0DDCF4DF04CC0F0
:10225800D9FF4DC0DAFF300EDF6E46C0D9FF47C048
:10226800DAFFDE2A000EDD2200017007D8A0710710
:10227800C3D70001705100017111D8B43CD020EED1
:1022880002F04650D9264750DA22DE50DE10D8B484
:1022980013D020EE02F04650D9264750DA2201D852
:1022A80020D00500FA6EDE50FD6EDE50FE6EF8504E
:1022B800FF6EFA50200E120046C0D9FF47C0DAFF61
:1022C800DECF4CF0DDCF4DF04CC0D9FF4DC0DAFF6A
:1022D800200EDF6E46C0D9FF47C0DAFFDE2A000EA7
:1022E800DD2200017007D8A07107000170510001BC
:1022F8007111D8A4C4D7030E000172154C6E000EDC
:10230800000173154D6E4C504D10D8B49BD020EE83
:1023180002F04650D9264750DA22DE50DE10D8B4F3
:1023280013D020EE02F04650D9264750DA2201D8C1
:1023380089D00500FA6EDE50FD6EDE50FE6EF85054
:10234800FF6EFA502D0E120046C0D9FF47C0DAFFC3
:10235800DECF4CF0DDCF4DF04CC0D9FF4DC0DAFFD9
:102368002D0EDF6E68D074C04CF075C04DF0D8905B
:102378004C364D36D8904C364D36EF0E4C24F66E12
:102388007E0E4D20F76E0900F5CF05F00900F5CF58
:1023980006F00900F5CF07F00A00F5CF08F065C090
:1023A80001F066C002F067C003F068C004F085EC75
:1023B80026F001C00EF002C00FF003C010F004C0F8
:1023C80011F00A0E126E000E136E000E146E000E3F
:1023D800156EB3EC27F00E50300F0001766F20EE2B
:1023E80002F04650D9264750DA22DE50DE10D8B423
:1023F80014D020EE02F04650D9264750DA2201D8F0
:1024080021D00500FA6EDE50FD6EDE50FE6EF850EB
:10241800FF6EFA5000017651120046C0D9FF47C03E
:10242800DAFFDECF4CF0DDCF4DF04CC0D9FF4DC008
:10243800DAFF76C0DFFF46C0D9FF47C0DAFFDE2AE1
:10244800000EDD2200017407D8A075070001742969
:102458008AE100017529D8A486D748C0F6FF49C08B
:10246800F7FF484A492A0800F5CF76F0000176516F
:10247800D8A48AEF09F0000E476E000E466E1200CF
:102488000101036F010103AF2AD10101036D0101AD
:102498000351800A120FD8A0ACD0000E0001A16F22
:1024A800030EA06F000E0001996F0A0E986F000EC0
:1024B8000001936F640E926F010103510001906F48
:1024C800916B90BF91075DEC25F090C096F091C09C
:1024D80097F049EC24F0090E0001962500019E6F43
:1024E800000E0001972100019F6F82EC29F0170E62
:1024F80000019E25F66E7F0E00019F21F76E0900F0
:10250800F5CFA7F00900F5CFA8F00A00F5CFA9F09C
:10251800000E0001996F640E986F010103510001CC
:10252800966F976B96BF970749EC24F0120E00013F
:10253800962500019E6F000E0001972100019F6FF4
:10254800000E0001A16F030EA06F82EC29F0170E98
:1025580000019E25F66E7F0E00019F21F76E09008F
:10256800F5CFA4F00900F5CFA5F00A00F5CFA6F045
:1025780043EC1EF0A4C000F1A5C001F1A6C002F111
:1025880000C1A4F001C1A5F002C1A6F0000E00012F
:10259800A16F030EA06F000E0001936F0A0E926FD9
:1025A800010103510001906F916B90BF91075DECA1
:1025B80025F090C09EF091C09FF082EC29F0170E94
:1025C80000019E25F66E7F0E00019F21F76E09001F
:1025D800F5CFA7F00900F5CFA8F00A00F5CFA9F0CC
:1025E80043EC1EF0A4C0B3F0A5C0B4F0A6C0B5F08B
:1025F800120001010351800A750FD8A05DD0000EAA
:102608000001996F0A0E986F010103510001966F3E
:10261800976B96BF970749EC24F0090E00019625A1
:1026280000019E6F000E0001972100019F6F000EB0
:102638000001A16F030EA06F82EC29F0170E0001B4
:102648009E25F66E7F0E00019F21F76E0900F5CFDB
:10265800A4F00900F5CFA5F00A00F5CFA6F0000E0A
:102668000001A16F030EA06F000E0001936F0A0E08
:10267800926F010103510001906F916B90BF910718
:102688005DEC25F090C09EF091C09FF082EC29F09F
:10269800170E00019E25F66E7F0E00019F21F76E32
:1026A8000900F5CFA7F00900F5CFA8F00A00F5CF8B
:1026B800A9F043EC1EF096D701010351030D170E44
:1026C800F324F66E7F0EF420F76E0900F5CFB3F011
:1026D8000900F5CFB4F00A00F5CFB5F012000101FA
:1026E8000351800A120FD8A0ACD0000E0001A16FD0
:1026F800030EA06F000E0001996F0A0E986F000E6E
:102708000001936F640E926F010103510001906FF5
:10271800916B90BF91075DEC25F090C096F091C049
:1027280097F049EC24F0090E0001962500019E6FF0
:10273800000E0001972100019F6F82EC29F03E0EE8
:1027480000019E25F66E7F0E00019F21F76E09009D
:10275800F5CFA7F00900F5CFA8F00A00F5CFA9F04A
:10276800000E0001996F640E986F0101035100017A
:10277800966F976B96BF970749EC24F0120E0001ED
:10278800962500019E6F000E0001972100019F6FA2
:10279800000E0001A16F030EA06F82EC29F03E0E1F
:1027A80000019E25F66E7F0E00019F21F76E09003D
:1027B800F5CFA4F00900F5CFA5F00A00F5CFA6F0F3
:1027C80043EC1EF0A4C000F1A5C001F1A6C002F1BF
:1027D80000C1A4F001C1A5F002C1A6F0000E0001DD
:1027E800A16F030EA06F000E0001936F0A0E926F87
:1027F800010103510001906F916B90BF91075DEC4F
:1028080025F090C09EF091C09FF082EC29F03E0E1A
:1028180000019E25F66E7F0E00019F21F76E0900CC
:10282800F5CFA7F00900F5CFA8F00A00F5CFA9F079
:1028380043EC1EF0A4C0B3F0A5C0B4F0A6C0B5F038
:10284800120001010351800A750FD8A05DD0000E57
:102858000001996F0A0E986F010103510001966FEC
:10286800976B96BF970749EC24F0090E000196254F
:1028780000019E6F000E0001972100019F6F000E5E
:102888000001A16F030EA06F82EC29F03E0E00013B
:102898009E25F66E7F0E00019F21F76E0900F5CF89
:1028A800A4F00900F5CFA5F00A00F5CFA6F0000EB8
:1028B8000001A16F030EA06F000E0001936F0A0EB6
:1028C800926F010103510001906F916B90BF9107C6
:1028D8005DEC25F090C09EF091C09FF082EC29F04D
:1028E8003E0E00019E25F66E7F0E00019F21F76EB9
:1028F8000900F5CFA7F00900F5CFA8F00A00F5CF39
:10290800A9F043EC1EF096D701010351030D3E0ECA
:10291800F324F66E7F0EF420F76E0900F5CFB3F0BE
:102928000900F5CFB4F00A00F5CFB5F01200366E05
:1029380036AEFBD0366C3650800A120FD8A091D034
:10294800000E126E030E116E000E0A6E0A0E096E4C
:10295800000E046E640E036E3650016E026A01BEEC
:1029680002067BEC27F001C007F002C008F043EC38
:1029780026F0090E07240F6E000E0820106E43EC97
:102988002AF0170E0F24F66E7F0E1020F76E09003E
:10299800F5CF24F00900F5CF25F00A00F5CF26F091
:1029A800000E0A6E640E096E3650076E086A07BE7E
:1029B800080643EC26F0120E07240F6E000E0820BE
:1029C800106E000E126E030E116E43EC2AF0170EF5
:1029D8000F24F66E7F0E1020F76E0900F5CF21F058
:1029E8000900F5CF22F00A00F5CF23F07EEC22F0A3
:1029F80021C033F022C034F023C035F033C021F0B9
:102A080034C022F035C023F0000E126E030E116E92
:102A1800000E046E0A0E036E3650016E026A01BE85
:102A280002067BEC27F001C00FF002C010F043EC67
:102A38002AF0170E0F24F66E7F0E1020F76E09008D
:102A4800F5CF24F00900F5CF25F00A00F5CF26F0E0
:102A58007EEC22F021C030F022C031F023C032F0E9
:102A680012003650800A750FD8A04DD0000E0A6E9D
:102A78000A0E096E3650076E086A07BE080643EC50
:102A880026F0090E07240F6E000E0820106E000EA7
:102A9800126E030E116E43EC2AF0170E0F24F66E19
:102AA8007F0E1020F76E0900F5CF21F00900F5CF51
:102AB80022F00A00F5CF23F0000E126E030E116EFD
:102AC800000E046E0A0E036E3650016E026A01BED5
:102AD80002067BEC27F001C00FF002C010F043ECB7
:102AE8002AF0170E0F24F66E7F0E1020F76E0900DD
:102AF800F5CF24F00900F5CF25F00A00F5CF26F030
:102B08007EEC22F0A7D73650030D170EF324F66E8D
:102B18007F0EF420F76E0900F5CF30F00900F5CFED
:102B280031F00A00F5CF32F012003650800A120F49
:102B3800D8A091D0000E126E030E116E000E0A6E10
:102B48000A0E096E000E046E640E036E3650016E96
:102B5800026A01BE02067BEC27F001C007F002C042
:102B680008F043EC26F0090E07240F6E000E08202B
:102B7800106E43EC2AF03E0E0F24F66E7F0E1020E6
:102B8800F76E0900F5CF24F00900F5CF25F00A000B
:102B9800F5CF26F0000E0A6E640E096E3650076EE9
:102BA800086A07BE080643EC26F0120E07240F6ECB
:102BB800000E0820106E000E126E030E116E43EC0C
:102BC8002AF03E0E0F24F66E7F0E1020F76E0900D5
:102BD800F5CF21F00900F5CF22F00A00F5CF23F058
:102BE8007EEC22F021C033F022C034F023C035F04F
:102BF80033C021F034C022F035C023F0000E126E2D
:102C0800030E116E000E046E0A0E036E3650016E2E
:102C1800026A01BE02067BEC27F001C00FF002C079
:102C280010F043EC2AF03E0E0F24F66E7F0E1020B3
:102C3800F76E0900F5CF24F00900F5CF25F00A005A
:102C4800F5CF26F07EEC22F021C030F022C031F022
:102C580023C032F012003650800A750FD8A04DD02C
:102C6800000E0A6E0A0E096E3650076E086A07BE15
:102C7800080643EC26F0090E07240F6E000E082004
:102C8800106E000E126E030E116E43EC2AF03E0E0B
:102C98000F24F66E7F0E1020F76E0900F5CF21F095
:102CA8000900F5CF22F00A00F5CF23F0000E126ECE
:102CB800030E116E000E046E0A0E036E3650016E7E
:102CC800026A01BE02067BEC27F001C00FF002C0C9
:102CD80010F043EC2AF03E0E0F24F66E7F0E102003
:102CE800F76E0900F5CF24F00900F5CF25F00A00AA
:102CF800F5CF26F07EEC22F0A7D73650030D3E0E16
:102D0800F324F66E7F0EF420F76E0900F5CF30F04D
:102D18000900F5CF31F00A00F5CF32F012000101B9
:102D2800066F6D0E01010665BAD0000E0001A16F95
:102D3800030EA06F000E0001996F0A0E986F000E27
:102D48000001936F640E926F06C190F00001916BC1
:102D58005DEC25F090C096F091C097F049EC24F016
:102D6800090E0001962500019E6F000E00019721B3
:102D780000019F6F82EC29F0170E00019E25F66E68
:102D88007F0E00019F21F76E0900F5CFA7F009001B
:102D9800F5CFA8F00A00F5CFA9F0000E0001996F51
:102DA800640E986F06C196F00001976B49EC24F009
:102DB800120E0001962500019E6F000E000197215A
:102DC80000019F6F000E0001A16F030EA06F82EC3F
:102DD80029F0170E00019E25F66E7F0E00019F2137
:102DE800F76E0900F5CFA4F00900F5CFA5F00A00A9
:102DF800F5CFA6F043EC1EF0A4C003F1A5C004F182
:102E0800A6C005F1000E0001A16F030EA06F000E11
:102E18000001936F0A0E926F06C190F00001916B4A
:102E28005DEC25F090C09EF091C09FF082EC29F0F7
:102E3800170E00019E25F66E7F0E00019F21F76E8A
:102E48000900F5CFA7F00900F5CFA8F00A00F5CFE3
:102E5800A9F003C1A4F004C1A5F005C1A6F043EC94
:102E68001EF0A4C000F1A5C001F1A6C002F100C186
:102E7800A4F001C1A5F002C1A6F0000E0001A76FE1
:102E8800000E0001A86F3F0E0001A96F43EC1EF071
:102E9800A4C0B3F0A5C0B4F0A6C0B5F012000A0EE5
:102EA800010106656ED0000E0001A16F030EA06F30
:102EB800000E0001936F0A0E926F06C190F0000198
:102EC800916B5DEC25F090C09EF091C09FF082EC74
:102ED80029F0170E00019E25F66E7F0E00019F2136
:102EE800F76E0900F5CFA7F00900F5CFA8F00A00A2
:102EF800F5CFA9F0000E0001996F0A0E986F06C170
:102F080096F00001976B49EC24F0090E0001962514
:102F180000019E6F000E0001972100019F6F000EB7
:102F28000001A16F030EA06F82EC29F0170E0001BB
:102F38009E25F66E7F0E00019F21F76E0900F5CFE2
:102F4800A4F00900F5CFA5F00A00F5CFA6F043ECF0
:102F58001EF0A4C003F1A5C004F1A6C005F103C189
:102F6800A4F004C1A5F005C1A6F0000E0001A76FEA
:102F7800000E0001A86F3F0E0001A96F43EC1EF080
:102F880087D701010651030D170EF324F66E7F0E45
:102F9800F420F76E0900F5CFA4F00900F5CFA5F0ED
:102FA8000A00F5CFA6F0000E0001A76F000E000181
:102FB800A86F3F0E0001A96F43EC1EF0A4C0B3F048
:102FC800A5C0B4F0A6C0B5F0120009C10DF1010109
:102FD8000E6B0F6B0101083501010D3701E30E81FE
:102FE80001010D510101126F0CC10DF101010E6BB0
:102FF8000F6B01010B3501010D3701E30E81010152
:103008000D510101116F010112510101D8B411D004
:10301800010111510101125DD8B012D00101125104
:1030280000080101112501010D6F180E01010D6540
:1030380007D00AC107F10BC108F10CC109F1120050
:10304800010111510101D8B411D00101125101013E
:10305800115DD8B012D001011151000801011225EB
:1030680001010D6F180E01010D6507D007C107F1A9
:1030780008C108F109C109F11200060E0101106F1B
:10308800010109AF02D00101108F01010CAF02D07C
:103098000101108D0101088FFF0E01010717FF0EB6
:1030A80001010817000E0101091701010B8FFF0E1E
:1030B80001010A17FF0E01010B17000E01010C1781
:1030C800010111510101125DD8B025D00101D8903C
:1030D8000A370B370C3701011107010112510101A1
:1030E8001119D8B411D00101100710C10DF1070E44
:1030F80001010D17D8B408D0E9D70101D8900933D8
:10310800083307330101122B010111510101121972
:10311800D8B42BD0F2D7010112510101115DD8B0FA
:1031280024D00101D8900737083709370101120761
:103138000101125101011119D8B411D00101100770
:1031480010C10DF1070E01010D17D8B408D0E9D749
:103158000101D8900C330B330A330101112B010103
:10316800115101011219D8A4F3D7010110AF12D0DF
:10317800FF0E0101071BFF0E0101081BFF0E0101D5
:10318800091B010E01010727000E01010823000E8B
:1031980001010923010110AD12D0FF0E01010A1B24
:1031A800FF0E01010B1BFF0E01010C1B010E01019B
:1031B8000A27000E01010B23000E01010C23000E4B
:1031C8000101106F0101075101010A27010108518E
:1031D80001010B230101095101010C2301010CAF6D
:1031E80015D0FF0E01010A1BFF0E01010B1BFF0E7C
:1031F80001010C1B010E01010A27000E01010B231E
:10320800000E01010C23010E0101106F0AC190F09C
:103218000BC191F00CC192F012C193F010C194F05F
:10322800F8EC21F090C007F191C008F192C009F1C3
:103238001200396E6D0E39649FD0000E126E030EA7
:10324800116E000E0A6E0A0E096E000E046E640EF0
:10325800036E39C001F0026A7BEC27F001C007F069
:1032680002C008F043EC26F0090E07240F6E000E8A
:103278000820106E43EC2AF0170E0F24F66E7F0E0E
:103288001020F76E0900F5CF24F00900F5CF25F0DE
:103298000A00F5CF26F0000E0A6E640E096E39C0DA
:1032A80007F0086A43EC26F0120E07240F6E000E92
:1032B8000820106E000E126E030E116E43EC2AF0F9
:1032C800170E0F24F66E7F0E1020F76E0900F5CF4B
:1032D80021F00900F5CF22F00A00F5CF23F07EECAB
:1032E80022F021C036F022C037F023C038F0000E9B
:1032F800126E030E116E000E046E0A0E036E39C0B4
:1033080001F0026A7BEC27F001C00FF002C010F058
:1033180043EC2AF0170E0F24F66E7F0E1020F76E7E
:103328000900F5CF24F00900F5CF25F00A00F5CF04
:1033380026F036C021F037C022F038C023F07EECEA
:1033480022F021C033F022C034F023C035F033C05E
:1033580021F034C022F035C023F0000E246E000E98
:10336800256E3F0E266E7EEC22F021C030F022C082
:1033780031F023C032F012000A0E39645DD0000E1D
:10338800126E030E116E000E046E0A0E036E39C023
:1033980001F0026A7BEC27F001C00FF002C010F0C8
:1033A80043EC2AF0170E0F24F66E7F0E1020F76EEE
:1033B8000900F5CF24F00900F5CF25F00A00F5CF74
:1033C80026F0000E0A6E0A0E096E39C007F0086A68
:1033D80043EC26F0090E07240F6E000E0820106E2D
:1033E800000E126E030E116E43EC2AF0170E0F2416
:1033F800F66E7F0E1020F76E0900F5CF21F0090058
:10340800F5CF22F00A00F5CF23F07EEC22F021C0A0
:1034180036F022C037F023C038F036C021F037C06C
:1034280022F038C023F0000E246E000E256E3F0EE9
:10343800266E7EEC22F099D73950030D170EF3242F
:10344800F66E7F0EF420F76E0900F5CF21F0090023
:10345800F5CF22F00A00F5CF23F0000E246E000EFF
:10346800256E3F0E266E7EEC22F021C030F022C081
:1034780031F023C032F0120017C01BF01C6A1D6A1D
:1034880016341B3601E31C801B50206E1AC01BF03B
:103498001C6A1D6A19341B3601E31C801B501F6E01
:1034A8002050D8B40BD01F50205CD8B00ED020507C
:1034B80000081F241B6E180E1B6407D018C015F0D7
:1034C80019C016F01AC017F012001F50D8B40BD04C
:1034D80020501F5CD8B00ED01F50000820241B6E4F
:1034E800180E1B6407D015C015F016C016F017C0CB
:1034F80017F01200060E1E6E17BE1E8E1ABE1E8C08
:10350800168EFF0E1516FF0E1616000E1716198EBC
:10351800FF0E1816FF0E1916000E1A161F50205C03
:10352800D8B01BD0D890183619361A361F06205036
:103538001F18D8B40DD01E061EC01BF0070E1B1690
:10354800D8B406D0EFD7D890173216321532202AC1
:103558001F502018D8B41FD0F6D720501F5CD8B001
:103568001AD0D890153616361736200620501F1850
:10357800D8B40DD01E061EC01BF0070E1B16D8B4FB
:1035880006D0EFD7D8901A32193218321F2A1F5096
:103598002018D8A4F7D71EAE0CD0FF0E151AFF0EB0
:1035A800161AFF0E171A010E1526000E1622000E07
:1035B80017221EAC0CD0FF0E181AFF0E191AFF0E98
:1035C8001A1A010E1826000E1922000E1A22000ED1
:1035D8001E6E155018261650192217501A221AAEA8
:1035E8000ED0FF0E181AFF0E191AFF0E1A1A010E26
:1035F8001826000E1922000E1A22010E1E6E18C07F
:1036080001F019C002F01AC003F020C004F01EC077
:1036180005F006EC25F001C015F002C016F003C055
:1036280017F012000B6E780EF66E7F0EF76E08001C
:10363800F5CF01F0010E026E012A02D0D8900236B1
:10364800012EFCD7770EF66E7F0EF76E0800F5CFC9
:1036580003F0010E046E032A02D0D8900436032E1C
:10366800FCD7760EF66E7F0EF76E0800F5CF05F0E4
:10367800010E066E052A02D0D8900636052EFCD714
:10368800750EF66E7F0EF76E0800F5CF07F0010E87
:10369800086E072A02D0D8900836072EFCD7740E79
:1036A800F66E7F0EF76E0800F5CF09F0010E0A6E70
:1036B800092A02D0D8900A36092EFCD70A500810D9
:1036C8000610041002108B127D0EF66E7F0EF76E38
:1036D8000800F5CF01F0010E026E012A02D0D89041
:1036E8000236012EFCD77C0EF66E7F0EF76E0800B0
:1036F800F5CF03F0010E046E032A02D0D8900436E9
:10370800032EFCD77A0EF66E7F0EF76E0800F5CF03
:1037180005F0010E066E052A02D0D8900636052E51
:10372800FCD7790EF66E7F0EF76E0800F5CF07F01E
:10373800010E086E072A02D0D8900836072EFCD74B
:1037480008500610041002108A12FF0E016EFF0EB8
:10375800026E0B50036E046A0150032602500422C5
:10376800740E0324F66E7F0E0420F76E0800F5CF62
:1037780005F0010E066E052A02D0D8900636052EF1
:10378800FCD70650FF0A8B16FF0E016EFF0E026E65
:103798000B50036E046A0150032602500422790E6E
:1037A8000324F66E7F0E0420F76E0800F5CF05F0AF
:1037B800010E066E052A02D0D8900636052EFCD7D3
:1037C8000650FF0A8A16120092C096F00001976B05
:1037D800986B000191350001963701E3978100014C
:1037E800965100019E6F00019E51D8A40AD0000E88
:1037F8000001906F000E916F000E926F000E936F94
:10380800120095C096F00001976B986B00019435F3
:103818000001963701E397810001965100019D6FE1
:1038280000019D51D8A40AD0000E0001906F000E2F
:10383800916F000E926F000E936F12000001918F2E
:10384800FF0E00019017FF0E00019117000E0001F6
:1038580092170001948FFF0E00019317FF0E0001CD
:103868009417000E00019517000E0001996F000EC5
:103878009A6F000E9B6F000E9C6F7F0E00019E5F7B
:1038880000019D51980F00019E5F180E00019D6F69
:103898000001D89099379A379B379C37000193518C
:1038A8000001905D0001945100019159000195516A
:1038B80000019259D8A00ED0000193510001905FE9
:1038C800000194510001915B000195510001925B48
:1038D800000199810001D890903791379237000103
:1038E8009D2FD6D700019EAF1AD000019E51800AA5
:1038F800970FD8B00AD0000E0001906F000E916F9C
:10390800000E926F000E936F12000001D8909C3346
:103918009B339A33993300019E3FF7D71BD0170E7C
:1039280000019E6512D0000E0001906F000E916F8D
:10393800000E926F000E936F12000001D890993715
:103948009A379B379C3700019E0700019E51000162
:10395800D8A4F3D799C090F09AC091F09BC092F088
:103968009CC093F0120098EC2AF0F28EF28C04ECD2
:1039780027F0C1EC2AF01F0E8B123C0E8A128B9294
:103988008A9658C090F059C091F05AC092F0240E0F
:103998000001936F740E0001946F490E0001956F3A
:1039A800E5EC23F00001D8A026D0490E01013C6FB8
:1039B800010E01013D6FEB0E01013E6F7F0E01010B
:1039C8003F6F58C098F059C099F05AC09AF0240E29
:1039D80000019B6F740E00019C6F490E00019D6FE2
:1039E800F2EC1EF098C040F199C041F19AC042F142
:1039F80046EC28F073D058C090F059C091F05AC0E6
:103A080092F0240E0001936F740E0001946F490E1A
:103A18000001956FE5EC23F00001D8B03AD058C00A
:103A280090F059C091F05AC092F0000E0001936FC7
:103A38007A0E0001946F440E0001956FE5EC23F0B7
:103A48000001D8A026D0490E01013C6F010E0101EA
:103A58003D6FD50E01013E6F7F0E01013F6F58C0CB
:103A680098F059C099F05AC09AF0000E00019B6F67
:103A78007A0E00019C6F440E00019D6FF2EC1EF05F
:103A880098C040F199C041F19AC042F146EC28F043
:103A980025D05AAE0FD0490E01013C6F010E01012D
:103AA8003D6FF60E01013E6F7F0E01013F6F46EC40
:103AB80028F014D0490E01013C6F010E01013D6F41
:103AC800E00E01013E6F7F0E01013F6F58C040F1CB
:103AD80059C041F15AC042F146EC28F0010E0001EC
:103AE800986F490E0001996F010E00019A6F010E3F
:103AF8007AEC2AF046D700019235933500019B6F86
:103B080000019B51D8A40AD0000E0001906F000E4E
:103B1800916F000E926F000E936F120000019535A1
:103B2800963500019A6F00019A51D8A40AD0000E68
:103B38000001906F000E916F000E926F000E936F50
:103B480012000001928FFF0E00019017FF0E9117CF
:103B5800FF0E9217000E93170001958FFF0E0001BC
:103B68009317FF0E9417FF0E9517000E9617000E69
:103B78000001966F000E976F000E986F000E996FF8
:103B88007F0E00019B5F00019A51A00F00019B5F0F
:103B9800200E00019A6F0001D89096379737983712
:103BA8009937000193510001905D00019451000183
:103BB8009159000195510001925900019651000157
:103BC8009359D8A012D0000193510001905F0001D1
:103BD80094510001915B000195510001925B000135
:103BE80096510001935B000196810001D8909037AF
:103BF80091379237933700019A2FCDD700019BAFA9
:103C08001AD000019B51800A9F0FD8B00AD0000E2D
:103C18000001906F000E916F000E926F000E936F6F
:103C280012000001D89099339833973396330001E6
:103C38009B3FF7D71BD01F0E00019B6512D0000ECB
:103C48000001906F000E916F000E926F000E936F3F
:103C580012000001D89096379737983799370001A6
:103C68009B0700019B510001D8A4F3D796C090F0A0
:103C780097C091F098C092F099C093F01200A6C036
:103C8800AAF00001AB6BAC6B0001A5350001AA37A7
:103C980001E3AB810001AA510001AD6F0001AD51F4
:103CA800D8A40AD0000E0001A46F000E0001A56F71
:103CB800000E0001A66F1200A9C0AAF00001AB6BAC
:103CC800AC6B0001A8350001AA3701E3AB81000104
:103CD800AA510001B26F0001B251D8A40AD0000E57
:103CE8000001A46F000E0001A56F000E0001A66F71
:103CF80012000001B2517B0F0001AD27A6C0B2F03F
:103D08000001A9510001B21B800E0001B217000189
:103D1800A58F0001A88FFF0E0001A717FF0E000155
:103D2800A817000E0001A917000E0001AE6F000EC3
:103D38000001AF6F000E0001B06F070E0001B16FF8
:103D48000001A4A10CD00001A7510001AE27000179
:103D5800A8510001AF230001A9510001B0230001BF
:103D6800D890A633A533A4330001D890A737A83735
:103D7800A9370001B12FE4D7090E0001B16F000186
:103D8800A4A10CD00001A7510001AE270001A85141
:103D98000001AF230001A9510001B0230001D89010
:103DA800A633A533A4330001D890B033AF33AE3374
:103DB8000001B12FE4D7AEC090F0AFC091F0B0C011
:103DC80092F0ADC093F0B2C094F0F8EC21F090C03E
:103DD800A4F091C0A5F092C0A6F012009AC09EF07F
:103DE80000019F6BA06B0001993500019E3701E32C
:103DF8009F8100019E510001A56F0001A551D8A423
:103E08000AD0000E0001986F000E0001996F000E95
:103E180000019A6F12009DC09EF000019F6BA06B7D
:103E280000019C3500019E3701E39F8100019E51EE
:103E38000001A66F0001A651D8A40AD0000E000107
:103E4800986F000E0001996F000E00019A6F120022
:103E5800000E0001A26F000E0001A36F000E00010A
:103E6800A46F0001A651890F0001A55F9AC0A6F0B2
:103E780000019D510001A61B800E0001A61700013C
:103E8800998FFF0E00019817FF0E00019917000E79
:103E980000019A1700019C8FFF0E00019B17FF0E6F
:103EA80000019C17000E00019D17180E0001A16F5C
:103EB8000001D890A237A337A43700019B51000115
:103EC800985D00019C510001995900019D51000124
:103ED8009A59D8A00ED000019B510001985F0001AB
:103EE8009C510001995B00019D5100019A5B000102
:103EF800A2810001D890983799379A370001A12FED
:103F0800D7D7A2C090F0A3C091F0A4C092F0A5C0EA
:103F180093F0A6C094F0F8EC21F090C098F091C00E
:103F280099F092C09AF0120006C108F10101096BDC
:103F38000A6B010105350101083701E30981010117
:103F480008510101126F01011251D8A40AD0000EC4
:103F58000101046F000E056F000E066F000E076F5B
:103F68001200170E0101086F04C109F105C10AF119
:103F780006C10BF10101082901010C6F05D00101EF
:103F8800D8900B330A33093301010C2FF8D70101FC
:103F9800095101010D6F0101058FFF0E0101041781
:103FA800FF0E01010517000E01010617010104515A
:103FB80001010E6F0101055101010F6F0101065149
:103FC8000101106F0101116B8E0E0101125F0101D9
:103FD80012AF1AD001011251800A8F0FD8B00AD03F
:103FE800000E0101046F000E056F000E066F000E33
:103FF800076F12000101D890113310330F330E33BD
:104008000101123FF7D71BD0170E0101126512D01C
:10401800000E0101046F000E056F000E066F000E02
:10402800076F12000101D8900E370F37103711377C
:1040380001011207010112510101D8A4F3D70101AE
:104048000D510101D8B409D00101111F101F0F1F14
:104058000E6D000E0F23102311230EC104F10FC1A2
:1040680005F110C106F111C107F1120003C007F0F4
:10407800086A096A0234073601E3088007500F6EA0
:104088000F50D8A409D0000E016E000E026E000E6B
:10409800036E000E046E120006C007F0086A096A73
:1040A8000534073601E3088007500E6E0E50D8A479
:1040B80009D0000E016E000E026E000E036E000E97
:1040C800046E1200028EFF0E0116FF0E0216000E7D
:1040D8000316058EFF0E0416FF0E0516000E0616B3
:1040E800000E0A6E000E0B6E000E0C6E000E0D6EAA
:1040F8007F0E0F5E0E50980F0F5E180E0E6ED89042
:104108000A360B360C360D360450015C0550025841
:1041180006500358D8A007D00450015E0550025A33
:104128000650035A0A80D8900136023603360E2EFE
:10413800E6D70FAE16D00F50800A970FD8B009D027
:10414800000E016E000E026E000E036E000E046E6D
:104158001200D8900D320C320B320A320F3EF9D7CA
:1041680015D0170E0F640FD0000E016E000E026EF0
:10417800000E036E000E046E1200D8900A360B363D
:104188000C360D360F060F50D8A4F7D70AC001F029
:104198000BC002F00CC003F00DC004F01200033491
:1041A80004340C6E0C50D8A409D0000E016E000E19
:1041B800026E000E036E000E046E12000634073401
:1041C8000B6E0B50D8A409D0000E016E000E026EC3
:1041D800000E036E000E046E1200038EFF0E011611
:1041E800FF0E0216FF0E0316000E0416068EFF0EB3
:1041F8000416FF0E0516FF0E0616000E0716000E13
:10420800076E000E086E000E096E000E0A6E7F0E15
:104218000C5E0B50A00F0C5E200E0B6ED89007366C
:10422800083609360A360450015C05500258065013
:10423800035807500458D8A009D00450015E05500F
:10424800025A0650035A0750045A0780D89001367C
:104258000236033604360B2EE1D70CAE16D00C50BE
:10426800800A9F0FD8B009D0000E016E000E026EB2
:10427800000E036E000E046E1200D8900A32093246
:10428800083207320C3EF9D715D01F0E0C640FD038
:10429800000E016E000E026E000E036E000E046E1C
:1042A8001200D8900736083609360A360C060C5024
:1042B800D8A4F7D707C001F008C002F009C003F07E
:1042C8000AC004F012005B04D8A402D08B9E12002E
:1042D800F3EC2AF041EC29F001C0B6F002C0B7F0C7
:1042E8008B8E000E126E030E116EFF0E0001CD258F
:1042F8000F6E106AFF0E102243EC2AF0650E0F2491
:10430800F66E7F0E1020F76E0900F5CF24F0090035
:10431800F5CF25F00A00F5CF26F0000E186ED80E5E
:10432800196EC10E1A6EB6C009F0B7C00AF068EC73
:104338002AF009C015F00AC016F00BC017F040ECBF
:104348001AF015C021F016C022F017C023F07EEC39
:1043580022F021C030F022C031F023C032F0A40E88
:10436800336E400E346E400E356E72EC23F030C062
:1043780058F031C059F032C05AF07E0E0001776F04
:104388007F0E0001786F58C079F059C07AF05AC092
:104398007BF0B6C07CF0B7C07DF0CDC07EF00001E8
:1043A8007F6BCCC080F00001816BB8EC29F0000174
:1043B800CC05D8A412D0E80E0001B65D030E0001AA
:1043C800B759D8B00AD0020E0001CD6506D0000159
:1043D800CD070001CD5116EC1BF0E6EC2AF08B9EC0
:1043E800F1EC2AF0F2921200000193510001D8B4C6
:1043F80008D0000190510001911100019211D8A438
:1044080011D0000E0001906F000E0001916F000E98
:104418000001926F12000001932B0001D890923393
:1044280091339033000E000190150001956F000E36
:10443800000191150001966FFE0E00019215000112
:10444800976F000195510001961100019711D8B49A
:1044580011D0E1D70001932B010E00019027000E27
:1044680000019123000E000192230001D89092339D
:1044780091339033000E000190150001956F000EE6
:10448800000191150001966FFF0E000192150001C1
:10449800976F000195510001961100019711D8B44A
:1044A80008D0D8D7000193070001D89090379137EA
:1044B8009237000191BF04D0020E00019361F2D738
:1044C800000193B102D00001919F0001D89093336D
:1044D8000001935100019213000194510001D8B4D6
:1044E80002D00001928F90C090F091C091F092C0DC
:1044F80092F0120023C027F0286A296A223427364E
:1045080001E3288027502A6E2A50D8A407D0000E2D
:10451800216E000E226E000E236E120026C027F0B8
:10452800286A296A2534273601E3288027502F6E08
:104538002F50D8A407D0000E216E000E226E000E58
:10454800236E12002F507B0F2A2623C02FF02650EF
:104558002F1A800E2F16228E258EFF0E2416FF0E80
:104568002516000E2616000E2B6E000E2C6E000E61
:104578002D6E070E2E6E21A006D024502B26255016
:104588002C2226502D22D890233222322132D89044
:104598002436253626362E2EEED7090E2E6E21A06D
:1045A80006D024502B2625502C2226502D22D89078
:1045B800233222322132D8902D322C322B322E2E19
:1045C800EED72BC001F02CC002F02DC003F02AC09A
:1045D80004F02FC005F006EC25F001C021F002C060
:1045E80022F003C023F0120039C03BF03C6A3D6A58
:1045F80038343B3601E33C803B50456E4550D8A4E7
:1046080009D0000E376E000E386E000E396E000E9F
:104618003A6E1200170E3B6E37C03CF038C03DF0C2
:1046280039C03EF03B283F6E04D0D8903E323D3230
:104638003C323F2EFAD73C50406E388EFF0E37166C
:10464800FF0E3816000E39163750416E3850426E3C
:104658003950436E446A8E0E455E45AE16D04550BD
:10466800800A8F0FD8B009D0000E376E000E386E52
:10467800000E396E000E3A6E1200D8904432433262
:1046880042324132453EF9D715D0170E45640FD056
:10469800000E376E000E386E000E396E000E3A6E40
:1046A8001200D890413642364336443645064550C6
:1046B800D8A4F7D74050D8B408D0441E431E421E91
:1046C800416C000E42224322442241C037F042C0CE
:1046D80038F043C039F044C03AF0120032C036F026
:1046E800376A386A3134363601E3378036503D6EE2
:1046F8003D50D8A407D0000E306E000E316E000E6B
:10470800326E120035C036F0376A386A34343636BD
:1047180001E3378036503E6E3E50D8A407D0000ED5
:10472800306E000E316E000E326E1200000E3A6EC0
:10473800000E3B6E000E3C6E3E50890F3D5E32C04F
:104748003EF035503E1A800E3E16318EFF0E301662
:10475800FF0E3116000E3216348EFF0E3316FF0E82
:104768003416000E3516180E396ED8903A363B3688
:104778003C363350305C3450315835503258D8A01C
:1047880007D03350305E3450315A3550325A3A805F
:10479800D890303631363236392EE7D73AC001F064
:1047A8003BC002F03CC003F03DC004F03EC005F041
:1047B80006EC25F001C030F002C031F003C032F041
:1047C8001200000192AF1DD090C096F091C097F0F2
:1047D80092C098F00001961F971F981F962B000E05
:1047E80097239823000E000196250001906F000E74
:1047F800000197210001916F800E000198210001AE
:10480800926F000195AF1DD093C096F094C097F0B9
:1048180095C098F00001961F971F981F962B000EC1
:1048280097239823000E000196250001936F000E30
:10483800000197210001946F800E0001982100016A
:10484800956F000E0001901B000E0001911B800E59
:104858000001921B000E0001931B000E0001941B27
:10486800800E0001951B000193510001905D00012D
:104878009451000191590001955100019259D8B005
:1048880002D0D8901200D8801200000E00019B6F51
:10489800000199AF08D00001986D991FD8B0992BE5
:1048A800010E00019B6F000197AF08D00001966DC3
:1048B800971FD8B0972B010E00019B1B000E00011B
:1048C8009D6F000E9C6F0001985100019911D8B49A
:1048D8002CD0010E00019A6F06D00001D8909837AD
:1048E800993700019A2B000199AFF7D70001D890AA
:1048F8009C379D37000198510001965D0001995140
:1049080000019759D8A00AD0000198510001965F7C
:10491800000199510001975B00019C810001D8902A
:104928009933983300019A2FE1D700019B51000178
:10493800D8B405D000019C6D9D1FD8B09D2B9CC09C
:1049480096F09DC097F01200000E0001986F000EBF
:10495800996F000E9A6F000E9B6F00019451000131
:1049680095110001961100019711D8B442D0010E9B
:1049780000019C6F08D00001D8909437953796377E
:10498800973700019C2B000197AFF5D70001D8900D
:10499800983799379A379B37000194510001905DF9
:1049A8000001955100019159000196510001925959
:1049B8000001975100019359D8A012D000019451D9
:1049C8000001905F000195510001915B0001965133
:1049D8000001925B000197510001935B00019881EF
:1049E8000001D890973396339533943300019C2F68
:1049F800CDD798C090F099C091F09AC092F09BC022
:104A080093F012000450D8B405D0015002100310DE
:104A1800D8A40CD0000E016E000E026E000E036EBC
:104A28001200042AD890033202320132000E011417
:104A3800066E000E0214076EFE0E0314086E065072
:104A480007100810D8B40CD0ECD7042A010E0126A0
:104A5800000E0222000E0322D890033202320132E5
:104A6800000E0114066E000E0214076EFF0E0314EA
:104A7800086E065007100810D8B406D0E6D704060A
:104A8800D89001360236033602BE03D0020E046007
:104A9800F6D704A0029ED8900432045003120550A1
:104AA800D8A4038E01C001F002C002F003C003F0D5
:104AB8001200000E0001956F000191AF08D00001AF
:104AC800906D911FD8B0912B010E0001956F0001D8
:104AD80093AF05D00001926D931FD8B0932B0001BE
:104AE800925100019311D8B426D0010E0001946FA1
:104AF80006D00001D890923793370001942B00011B
:104B080093AFF7D7000192510001905D00019351D6
:104B180000019159D8A008D0000192510001905F7E
:104B2800000193510001915B0001D89093339233B7
:104B38000001942FE7D7000195510001D8B405D0A2
:104B48000001906D911FD8B0912B90C090F091C04A
:104B580091F012000001A1510001A2110001A3115E
:104B68000001A411D8B43AD0010E0001A56F08D0F5
:104B78000001D890A137A237A337A4370001A52B8D
:104B88000001A4AFF5D70001A15100019D5D00010E
:104B9800A25100019E590001A35100019F59000133
:104BA800A4510001A059D8A010D00001A1510001C2
:104BB8009D5F0001A25100019E5B0001A35100010D
:104BC8009F5B0001A4510001A05B0001D890A433B1
:104BD800A333A233A1330001A52FD5D79DC09DF0E3
:104BE8009EC09EF09FC09FF0A0C0A0F0120003AE30
:104BF80016D001C007F002C008F003C009F0071E74
:104C0800081E091E072A000E08220922000E072482
:104C1800016E000E0820026E800E0920036E06AE9B
:104C280016D004C007F005C008F006C009F0071E3A
:104C3800081E091E072A000E08220922000E072452
:104C4800046E000E0820056E800E0920066E000E08
:104C5800011A000E021A800E031A000E041A000E22
:104C6800051A800E061A0450015C055002580650B9
:104C78000358D8B002D0D8901200D8801200000E85
:104C88000C6E0AAE06D0096C0A1ED8B00A2A010EAC
:104C98000C6E08AE06D0076C081ED8B0082A010EA4
:104CA8000C1A000E0E6E000E0D6E09500A10D8B4C4
:104CB8001CD0010E0B6E04D0D89009360A360B2A88
:104CC8000AAEFAD7D8900D360E360950075C0A504E
:104CD8000858D8A005D00950075E0A50085A0D8018
:104CE800D8900A3209320B2EEDD70C50D8B404D024
:104CF8000D6C0E1ED8B00E2A0DC007F00EC008F0BD
:104D08001200000E096E000E0A6E000E0B6E000EE9
:104D18000C6E0550061007100810D8B42AD0010EE2
:104D28000D6E06D0D89005360636073608360D2A99
:104D380008AEF8D7D89009360A360B360C36055027
:104D4800015C065002580750035808500458D8A070
:104D580009D00550015E0650025A0750035A085000
:104D6800045A0980D89008320732063205320D2ECF
:104D7800E1D709C001F00AC002F00BC003F00CC073
:104D880004F012008E0E0001A06F08D00001D89028
:104D98009B339A33993398330001A02B000E0001FE
:104DA800981500019C6F000E0001991500019D6F78
:104DB800000E00019A1500019E6FFF0E00019B1561
:104DC80000019F6F00019C5100019D1100019E117F
:104DD80000019F11D8A4DAD798C090F099C091F03B
:104DE8009AC092F0A0C093F0000E0001946FF8EC06
:104DF80021F090C098F091C099F092C09AF01200FA
:104E0800000E9DEC29F0680E0001936FE40EE82E69
:104E1800FED7932FFCD700F0030E30EC2AF01A0EC1
:104E28000001936FF80EE82EFED7932FFCD700F001
:104E3800030E30EC2AF03A0E0001936F230EE82E91
:104E4800FED7932FFCD7030E30EC2AF0020E30EC7D
:104E58002AF0020E30EC2AF0080E30EC2AF0000E90
:104E680030EC2AF00C0E30EC2AF0000E30EC2AF070
:104E7800060E30EC2AF012000001946F0001930531
:104E8800D8A418D0000194517F0F0001976F00013A
:104E980097390F0B0001956F000197510F0B000117
:104EA800966F0001955130EC2AF00001965130ECD4
:104EB8002AF01200020E00019319D8A41200000172
:104EC8009451BF0F0001976F000197390F0B000134
:104ED800956F000197510F0B0001966F00019551D6
:104EE80030EC2AF00001965130EC2AF01200000E46
:104EF800066E02AE06D0016C021ED8B0022A010E60
:104F0800066E04AE04D0036C041ED8B0042A035005
:104F18000410D8B418D0010E056E04D0D89003360A
:104F28000436052A04AEFAD70350015C045002582F
:104F3800D8A004D00350015E0450025AD89004321D
:104F48000332052EF1D70650D8B404D0016C021EE6
:104F5800D8B0022A01C001F002C002F012001250BB
:104F6800131014101510D8B424D0010E166E06D0E4
:104F7800D8901236133614361536162A15AEF8D7C9
:104F880012500E5C13500F581450105815501158E9
:104F9800D8A008D012500E5E13500F5A1450105A51
:104FA8001550115AD8901532143213321232162E67
:104FB800E7D70EC00EF00FC00FF010C010F011C0F0
:104FC80011F012000001CC05D8A405D0CDC0B8F06E
:104FD800000E0001CC6F050E0001CD6103D0000169
:104FE800CD2B03D0030E0001CD5F0001CC51D8A416
:104FF80009D00001B8510001CD19D8A403D0010E81
:105008000001CC6FB30E0001776F7F0E0001786F3F
:10501800CDC079F000017A6BB8EC29F00001CD51D0
:1050280016EC1BF0F09012008E0E116E06D0D89080
:105038000C320B320A320932112A000E09140D6E95
:10504800000E0A140E6E000E0B140F6EFF0E0C14D9
:10505800106E0D500E100F101010D8A4E8D709C00C
:1050680001F00AC002F00BC003F011C004F0000EFA
:10507800056E06EC25F001C009F002C00AF003C075
:105088000BF012003CC145F13DC146F1000E010193
:10509800476F000E0101486F400E0101436F010E7A
:1050A8000101446F450E0101196F010E01011A6FCC
:1050B8003EC11BF13FC11CF1430E01011D6F010EE2
:1050C80001011E6F52EC00F045C1D9FF46C1DAFF5D
:1050D800000EDF6E120001011651010117110101C6
:1050E8001811D8B409D0000E0101161B000E0101D9
:1050F800171B800E0101181B13C107F114C108F119
:1051080015C109F116C10AF117C10BF118C10CF14B
:10511800E9EC17F007C113F108C114F109C115F141
:105128001200000E0001976F000E966F10D000015C
:10513800965100019425D96E0001975100019521DF
:10514800DA6EDF50B9EC28F00001964B972B00017E
:10515800965100019425D96E0001975100019521BF
:10516800DA6EDF50D8B41200E2D70001936F000165
:1051780093510F0B0001916F00019351F00B000147
:10518800926F898A000192390F0B9DEC29F089886A
:10519800350EE82EFED700F08998000191519DEC5C
:1051A80029F08988350EE82EFED700F0899812007C
:1051B800110ED56E150ED76E9F0ED66ED650D7CF60
:1051C80092F00001936B92C093F00001926B000182
:1051D80092115C6E000193515D6EF294F28AFC0E9E
:1051E8000001906F510E0001916FDCEC2AF0EDEC9C
:1051F8002AF012005B50D8A40FD08BAE02D0010E5B
:1052080001D0000EFF0A0C6E0C320C328B500C18B9
:105218007F0B0C188B6E01D08B9E0001CC05D8A497
:105228001200050E0001CD6112000001CD2B000116
:10523800CD5116EC1BF01200D60EF66E550EF76E19
:10524800000EF86E00EECAF010EE04F00900F5CF7B
:10525800EEFFE550E150FAE100EEB6F0140EEE6A0A
:10526800E806FDE15B6A5A6A596A586A5E905E927E
:10527800000EF86E0001B7EF1CF0D6CF09F0D7CFBB
:105288000AF05CC003F05DC004F0031E041E034A6C
:10529800042A09500AC005F0066A05C006F0056A26
:1052A8000526000E062203500524076E045006202A
:1052B800086E07C001F008C002F012002450251043
:1052C8002610D8B406D0000E241A000E251A800E17
:1052D800261A21C015F022C016F023C017F024C0EA
:1052E80018F025C019F026C01AF040EC1AF015C0C5
:1052F80021F016C022F017C023F0120000019E51C1
:105308000001A003F3CFA2F0F4CFA3F000019E5157
:105318000001A103F3500001A32700019F510001E0
:10532800A003F3500001A327A2C09EF0A3C09FF0E2
:1053380012000001906F000190A102D0898601D06F
:105348008996000190A302D0898401D08994000134
:1053580090A502D0898201D08992000190A702D03D
:105368008980120089901200000E546E000E556E4E
:10537800C20E566E550E576E790E526E000E536E53
:10538800540E466E000E476E77C048F078C049F05C
:10539800520E4A6E000E4B6E88EC09F012000001A6
:1053A80090510001911100019211D8B409D0000E5A
:1053B8000001901B000E0001911B800E0001921B42
:1053C80090C090F091C091F092C092F01200000E3F
:1053D800896E3C0E8A6E1F0E8B6EC00E926EC30EC7
:1053E800936E200E946E200E0F013A6F000E0F017F
:1053F800396F000E0F01386F6168F19E1200F29448
:105408005D50D76E5CC0D6FF0001CE510001CF11B0
:10541800D8B4120001D8120005000001FA6ECE516E
:10542800FD6ECF51FE6EF850FF6EFA50120000016B
:10543800926F000E0001916F3A0E0001926107D041
:105448002F0E0001926503D0010E0001916F91C0EB
:1054580090F00001903112000001926F899A0001CA
:1054680092519DEC29F08988150E0001916FC60EA6
:10547800E82EFED7912FFCD700F0899812000F5024
:105488001102F3CF13F0F4CF14F00F501202F350BF
:10549800142610501102F350142613C00FF014C034
:1054A80010F01200015002100310D8B406D0000EFC
:1054B800011A000E021A800E031A01C001F002C080
:1054C80002F003C003F0120009C001F00AC002F0A4
:1054D800036A8E0E046E000E056E06EC25F001C000
:1054E80009F002C00AF003C00BF0120000019B6F24
:1054F80098C093F000019B5140EC27F099C094F0BC
:105508009AC095F095EC28F01200036E000E026E1A
:105518003A0E036005D02F0E036402D0010E026E0E
:1055280002C001F001301200EFEC2AF0EBEC29F098
:10553800C8EC2AF0CFEC2AF0DCEC28F0A5EC2AF035
:105548001200080EB86E800EAB6E240EAC6EA00E64
:10555800AF6E010EB06E12005EB2E1EF2AF00001EC
:10556800916F00019151BAEC2AF012000001906F7E
:105578009EA8FED790C0ADFF1200000E30EC2AF0B6
:10558800010E30EC2AF01200700ED36E040ED26EAB
:10559800000E9B6E1200F090F19AF086F292F19C48
:1055A800F2881200016E9EA8FED701C0ADFF12005E
:1055B80090C0CEF091C0CFF01200026E0250D6EC2F
:1055C8002AF012005D50D76E5CC0D6FF12007046FC
:1055D8000102D58E1200D09E1200D58E1200D59EE3
:0255E8001200AF
:107EEE0000010000000A00000064000000E803002A
:107EFE000010270000A086010040420F00809698D7
:107F0E000000E1F50500CA9A3B00803FCDCC3DD77D
:107F1E00233C12833AB7D138C62737388635C0D6B8
:107F2E0033CC2B32708930E7DB2EE53C1E42A20D9E
:107F3E0000803F00204100C842007A44401C465059
:107F4E00C34724744997184BBCBE4C6B6E4E031539
:107F5E005079AD60F3497100003F9AF940DCD84288
:107F6E00708A45C0DA4700010203040203030405C8
:107F7E0043617061636974616E63653A2025302ECA
:107F8E0032662070462028436F756E743A20257530
:107F9E0029202D2052616E67653A20256420282500
:107FAE0064290D0A000D0A53657474696E67207298
:107FBE00616E6765203D2025640D0A00256C752EC7
:107FCE0025362E366C7500433D2531322E33666EC6
:107FDE004600433D2531322E3066704600433D2526
:107FEE0031322E3666754600433D4552524F520091
:017FFE000082
:020000040020DA
:08000000FFFFFFFFFFFFFFFF00
:020000040030CA
:0E000000FF231F3CFFBF85FF0FC00FE00F4026
:00000001FF
