:040000004AEF00F0D3
:100008005D82FACF4BF0FBCF4CF0E9CF4DF0EACF51
:100018004EF0E1CF4FF0E2CF50F0D9CF51F0DACF28
:1000280052F0F3CF53F0F4CF54F0F6CF55F0F7CFAA
:1000380056F0F8CF57F0F5CF58F0F2BAF2A403D043
:1000480025EC11F005D0F2B8F2A202D064EC0FF062
:1000580058C0F5FF57C0F8FF56C0F7FF55C0F6FF68
:1000680054C0F4FF53C0F3FF52C0DAFF51C0D9FFA8
:1000780050C0E2FF4FC0E1FF4EC0EAFF4DC0E9FFAC
:100088004CC0FBFF4BC0FAFF5D921100A8EF11F0C6
:1006000000010000000A00000064000000E8030090
:100610000010270000A086010040420F008096983D
:100620000000E1F50500CA9A3B00803FCDCC3DD7E4
:10063000233C12833AB7D138C62737388635C0D61F
:1006400033CC2B32708930E7DB2EE53C1E42A20D05
:1006500000803F00204100C842007A44401C4650C0
:10066000C34724744997184BBCBE4C6B6E4E0315A0
:100670005079AD60F3497143617061636974616E73
:1006800063653A2025302E32662070460D0A000040
:10069000420E0001636F000E0001646F31EF08F03D
:1006A000250E00017819D8B406D000017851F5EC78
:1006B00011F031EF08F0000E0001726F000E716F43
:1006C000000E0001706F000E6F6F04D000016F8587
:1006D000404A412A40C0F6FF41C0F7FF0800F550EC
:1006E000300AD8B4F3D740C0F6FF41C0F7FF080086
:1006F000F5508BEC11F0D8A035D0000E0001726FD0
:10070000000E716F71C00FF072C010F0000E126E0B
:100710000A0E116E54EC11F00FC071F010C072F09F
:10072000D00E456EFF0E466E40C0F6FF41C0F7FF8B
:100730000800F550476E486A455047264650482203
:10074000475000017127485000017223404A412A56
:1007500040C0F6FF41C0F7FF0800F5508BEC11F0E8
:10076000D8B0D0D740C0F6FF41C0F7FF0800F55021
:100770002E0AD8A432D00001708D404A412A000EC2
:100780000001776F000E766F1DD076C00FF077C036
:1007900010F0000E126E0A0E116E54EC11F040C0F3
:1007A000F6FF41C0F7FF0800F5500F26000E10229B
:1007B000D00E0F240001766FFF0E10200001776F1E
:1007C000404A412A40C0F6FF41C0F7FF0800F550FB
:1007D0008BEC11F0D8A00CD0D8D7000E0001776FA9
:1007E000000E766F0001708903D00001708513D070
:1007F00040C0F6FF41C0F7FF404A412A0800F5CF4C
:1008000078F000017851000AD8B41200660AD8B412
:10081000ECD731EF08F0070E00017015D8B450D3B3
:10082000000170A905D0000E0001776F060E766FEB
:1008300063C0D9FF64C0DAFFDECF73F0DECF74F09F
:10084000DDCF75F0030E00016327000E6423000165
:1008500075AF11D073C001F074C002F075C003F021
:1008600067EC11F001C073F002C074F003C075F0C2
:10087000030E00016F13000E00016E6F000E6D6F0E
:10088000000173510001741100017511D8B48BD0AF
:10089000820E456EFF0E466E73C047F074C048F07E
:1008A00075C049F076C04AF0100E05D0D8904A3293
:1008B000493248324732E82EF9D7475045240001E3
:1008C0006D6F000E462000016E6F00016D07D8A00D
:1008D0006E076DC00FF06EC010F0000E126E030EAA
:1008E000116E54EC11F00FC06DF010C06EF06DC0C1
:1008F00007F06EC008F0000E0A6E0A0E096EA6EC34
:100900000FF007C06DF008C06EF000016EAF04D0AC
:1009100000016D07D8A06E0700016D51000840EC82
:1009200008F024C069F025C06AF026C06BF069C0E9
:1009300015F06AC016F06BC017F073C018F074C0E1
:1009400019F075C01AF05EEC0DF015C069F016C014
:100950006AF017C06BF069C001F06AC002F06BC0AA
:1009600003F0000E046E800E056E3F0E066E1CEC4A
:100970000FF0D8B005D000016D07D8A06E0713D0D6
:1009800069C001F06AC002F06BC003F0000E046E93
:10099000200E056E410E066E1CEC0FF0D8A003D0A1
:1009A00000016D4B6E2B000177BF08D0000177511D
:1009B0001DE10D0E0001765DD8B018D073C02EF089
:1009C00074C02FF075C030F00001765138EC0AF099
:1009D00024C031F025C032F026C033F05BEC0BF0C0
:1009E0002EC073F02FC074F030C075F000016EBFE0
:1009F00008D000016E5126E10A0E00016D5DD8B0ED
:100A000021D0000173510001741100017511D8B497
:100A10005BD073C02BF074C02CF075C02DF0D8ECF7
:100A20000DF02B502C102D102E10D8A44DD00001FD
:100A30006EBF4AD000016E5105E1020E00016D5DEE
:100A4000D8A042D069C001F06AC002F06BC003F0C8
:100A5000700E046E890E056E400E066E1CEC0FF0D3
:100A6000D8B003D00001F70E02D00001F80E6D27B8
:100A7000FF0E6E2300016D5140EC08F024C069F0B8
:100A800025C06AF026C06BF073C001F074C002F09C
:100A900075C003F069C004F06AC005F06BC006F0D1
:100AA00031EC0CF001C065F002C066F003C067F0E5
:100AB00004C068F0000E0001736F000E0001746F37
:100AC000000E0001756F33D073C02BF074C02CF092
:100AD00075C02DF0D8EC0DF02BC065F02CC066F081
:100AE0002DC067F02EC068F073C03AF074C03BF0C0
:100AF00075C03CF065C009F066C00AF067C00BF035
:100B000068C00CF094EC10F009C03DF00AC03EF053
:100B10000BC03FF005EC11F03AC073F03BC074F02D
:100B20003CC075F0000E00016E6F000E6D6F010E7F
:100B30000001786F0A0E00017819D8B41ED00001A8
:100B40007851040D010EF324F66E060EF420F76EB4
:100B50000900F5500001655D0900F5500001665976
:100B60000900F550000167590900F5500001685966
:100B7000D8A003D00001782BDDD778C045F0466AB5
:100B800045BE4606000176514526000177514622B2
:100B900000016D51452600016E514622455000016D
:100BA000715F46500001725B0001765100017711C0
:100BB000D8B404D000017107D8A07207030E000159
:100BC0006F15456E000E00017015466E45504610BB
:100BD000D8B404D000017107D8A0720700016FA536
:100BE00029D0030E00016F15456E000E000170152F
:100BF000466E45504610D8B40BD02D0EF5EC11F0D2
:100C000007D0300EF5EC11F000017107D8A0720783
:100C1000000172BF6FD000017251F3E10001710554
:100C2000D8A068D0EED7200EF5EC11F000017107C6
:100C3000D8A07207000172BF07D000017251F3E122
:100C400000017105D8B0EFD7030E00016F15456E96
:100C5000000E00017015466E45504610D8B44AD0BB
:100C60002D0EF5EC11F046D065C001F066C002F023
:100C700067C003F068C004F000017851040D010E54
:100C8000F324F66E060EF420F76E0900F5CF05F09A
:100C90000900F5CF06F00900F5CF07F00A00F5CFFF
:100CA00008F0E8EC0FF001C069F002C06AF003C080
:100CB0006BF004C06CF069C001F06AC002F06BC058
:100CC00003F06CC004F00A0E056E000E066E000EF6
:100CD000076E000E086E61EC10F001C069F002C0F2
:100CE0006AF003C06BF004C06CF000016951300F72
:100CF000F5EC11F00001780700017829D8B408D08C
:100D0000B3D7300EF5EC11F000016D07D8A06E07D7
:100D100000016EBF07D000016E51F3E100016D05C7
:100D2000D8B0EFD7000177BF0CD00001775105E1B3
:100D3000090E0001765DD8A004D0080E0001786F7E
:100D400002D076C078F0000178510001765F000E85
:100D5000000178BFFF0E0001775B000178510001B0
:100D6000D8B403D02E0EF5EC11F00001785140EC10
:100D700008F024C060F025C061F026C062F073C0A6
:100D800018F074C019F075C01AF060C015F061C099
:100D900016F062C017F05EEC0DF015C02BF016C017
:100DA0002CF017C02DF0D8EC0DF02BC065F02CC046
:100DB00066F02DC067F02EC068F06DD065C001F000
:100DC00066C002F067C003F068C004F0000178510B
:100DD000040D010EF324F66E060EF420F76E0900E2
:100DE000F5CF05F00900F5CF06F00900F5CF07F0C3
:100DF0000A00F5CF08F0E8EC0FF001C069F002C07E
:100E00006AF003C06BF004C06CF069C001F06AC006
:100E100002F06BC003F06CC004F00A0E056E000E09
:100E2000066E000E076E000E086E61EC10F001C039
:100E300069F002C06AF003C06BF004C06CF00001FE
:100E40006951300FF5EC11F065C001F066C002F099
:100E500067C003F068C004F000017851040D010E72
:100E6000F324F66E060EF420F76E0900F5CF05F0B8
:100E70000900F5CF06F00900F5CF07F00A00F5CF1D
:100E800008F061EC10F001C065F002C066F003C02C
:100E900067F004C068F00001780700017829D8B431
:100EA00008D08CD7300EF5EC11F000017607D8A0F1
:100EB00077070001765100017711D8B4D2D0F2D76C
:100EC0000001765100017711D8A40DD000016551C1
:100ED000000166110001671100016811D8A403D058
:100EE0000001764B772B800E000178BF7F0E456E98
:100EF000000176510001785D00017751800A455864
:100F0000D8B003D076C078F016D000017751800AAF
:100F1000456E000178510001765D800E000178BFBA
:100F20007F0E4558D8B007D0000178510001766F88
:100F3000776B76BF77070001715100017211D8B449
:100F400010D0030E00016F15456E000E00017015E4
:100F5000466E45504610D8B404D000017107D8A0A1
:100F60007207000170AD1CD0000171510001765D67
:100F700000017751800A456E00017251800A455880
:100F8000D8B009D0000176510001715F000177519E
:100F90000001725B05D0000E0001726F000E716FD0
:100FA000800E000178BF7F0E456E00017151000177
:100FB000785D00017251800A4558D8B00BD000010D
:100FC00078510001715F000E000178BFFF0E000133
:100FD000725B05D0000E0001726F000E716F000190
:100FE0006FA51DD0030E00016F15456E000E0001A8
:100FF0007015466E45504610D8B403D02D0EF5EC52
:1010000011F00001715100017211D8B42AD0300ED4
:10101000F5EC11F000017107D8A07207F2D70001BA
:10102000715100017211D8B40DD0200EF5EC11F001
:1010300000017107D8A072070001715100017211FF
:10104000D8A4F3D7030E00016F15456E000E000102
:101050007015466E45504610D8B403D02D0EF5ECF1
:1010600011F040C0F6FF41C0F7FF404A412A080096
:10107000F5CF78F000017851D8B4120050EF03F0AA
:101080002A6E2AAEFBD02A6C2A50800A120FD8A0F2
:1010900091D0000E126E030E116E000E0A6E0A0E33
:1010A000096E000E046E640E036E2A50016E026A11
:1010B00001BE020629EC10F001C007F002C008F0E2
:1010C000A6EC0FF0090E07240F6E000E0820106E1C
:1010D00054EC11F0290E0F24F66E060E1020F76E58
:1010E0000900F5CF18F00900F5CF19F00A00F5CF87
:1010F0001AF0000E0A6E640E096E2A50076E086A16
:1011000007BE0806A6EC0FF0120E07240F6E000EA5
:101110000820106E000E126E030E116E54EC11F0CA
:10112000290E0F24F66E060E1020F76E0900F5CF7B
:1011300015F00900F5CF16F00A00F5CF17F05EECB8
:101140000DF015C027F016C028F017C029F027C0F1
:1011500015F028C016F029C017F0000E126E030E0D
:10116000116E000E046E0A0E036E2A50016E026AA2
:1011700001BE020629EC10F001C00FF002C010F011
:1011800054EC11F0290E0F24F66E060E1020F76EA7
:101190000900F5CF18F00900F5CF19F00A00F5CFD6
:1011A0001AF05EEC0DF015C024F016C025F017C043
:1011B00026F012002A50800A750FD8A04DD0000EDC
:1011C0000A6E0A0E096E2A50076E086A07BE0806E4
:1011D000A6EC0FF0090E07240F6E000E0820106E0B
:1011E000000E126E030E116E54EC11F0290E0F2436
:1011F000F66E060E1020F76E0900F5CF15F0090007
:10120000F5CF16F00A00F5CF17F0000E126E030EA0
:10121000116E000E046E0A0E036E2A50016E026AF1
:1012200001BE020629EC10F001C00FF002C010F060
:1012300054EC11F0290E0F24F66E060E1020F76EF6
:101240000900F5CF18F00900F5CF19F00A00F5CF25
:101250001AF05EEC0DF0A7D72A50030D290EF324E7
:10126000F66E060EF420F76E0900F5CF24F00900A3
:10127000F5CF25F00A00F5CF26F012002A50800A9B
:10128000120FD8A091D0000E126E030E116E000E38
:101290000A6E0A0E096E000E046E640E036E2A506A
:1012A000016E026A01BE020629EC10F001C007F0CF
:1012B00002C008F0A6EC0FF0090E07240F6E000E16
:1012C0000820106E54EC11F0500E0F24F66E060E2E
:1012D0001020F76E0900F5CF18F00900F5CF19F0CE
:1012E0000A00F5CF1AF0000E0A6E640E096E2A503D
:1012F000076E086A07BE0806A6EC0FF0120E072458
:101300000F6E000E0820106E000E126E030E116E8E
:1013100054EC11F0500E0F24F66E060E1020F76EEE
:101320000900F5CF15F00900F5CF16F00A00F5CF4A
:1013300017F05EEC0DF015C027F016C028F017C0AE
:1013400029F027C015F028C016F029C017F0000EAC
:10135000126E030E116E000E046E0A0E036E2A50FA
:10136000016E026A01BE020629EC10F001C00FF006
:1013700002C010F054EC11F0500E0F24F66E060E61
:101380001020F76E0900F5CF18F00900F5CF19F01D
:101390000A00F5CF1AF05EEC0DF015C024F016C06F
:1013A00025F017C026F012002A50800A750FD8A029
:1013B0004DD0000E0A6E0A0E096E2A50076E086A9A
:1013C00007BE0806A6EC0FF0090E07240F6E000EEC
:1013D0000820106E000E126E030E116E54EC11F008
:1013E000500E0F24F66E060E1020F76E0900F5CF92
:1013F00015F00900F5CF16F00A00F5CF17F0000E32
:10140000126E030E116E000E046E0A0E036E2A5049
:10141000016E026A01BE020629EC10F001C00FF055
:1014200002C010F054EC11F0500E0F24F66E060EB0
:101430001020F76E0900F5CF18F00900F5CF19F06C
:101440000A00F5CF1AF05EEC0DF0A7D72A50030D75
:10145000500EF324F66E060EF420F76E0900F5CF59
:1014600024F00900F5CF25F00A00F5CF26F0120090
:101470002D6E6D0E2D649FD0000E126E030E116E38
:10148000000E0A6E0A0E096E000E046E640E036EE4
:101490002DC001F0026A29EC10F001C007F002C073
:1014A00008F0A6EC0FF0090E07240F6E000E0820BE
:1014B000106E54EC11F0290E0F24F66E060E10205B
:1014C000F76E0900F5CF18F00900F5CF19F00A0002
:1014D000F5CF1AF0000E0A6E640E096E2DC007F0EB
:1014E000086AA6EC0FF0120E07240F6E000E0820FB
:1014F000106E000E126E030E116E54EC11F0290ED8
:101500000F24F66E060E1020F76E0900F5CF15F0C9
:101510000900F5CF16F00A00F5CF17F05EEC0DF0DC
:1015200015C02AF016C02BF017C02CF0000E126E5A
:10153000030E116E000E046E0A0E036E2DC001F034
:10154000026A29EC10F001C00FF002C010F054EC58
:1015500011F0290E0F24F66E060E1020F76E09000A
:10156000F5CF18F00900F5CF19F00A00F5CF1AF001
:101570002AC015F02BC016F02CC017F05EEC0DF051
:1015800015C027F016C028F017C029F027C015F0A5
:1015900028C016F029C017F0000E186E000E196E44
:1015A0003F0E1A6E5EEC0DF015C024F016C025F04B
:1015B00017C026F012000A0E2D645DD0000E126EC8
:1015C000030E116E000E046E0A0E036E2DC001F0A4
:1015D000026A29EC10F001C00FF002C010F054ECC8
:1015E00011F0290E0F24F66E060E1020F76E09007A
:1015F000F5CF18F00900F5CF19F00A00F5CF1AF071
:10160000000E0A6E0A0E096E2DC007F0086AA6ECDD
:101610000FF0090E07240F6E000E0820106E000E4A
:10162000126E030E116E54EC11F0290E0F24F66E9B
:10163000060E1020F76E0900F5CF15F00900F5CF62
:1016400016F00A00F5CF17F05EEC0DF015C02AF089
:1016500016C02BF017C02CF02AC015F02BC016F0C6
:101660002CC017F0000E186E000E196E3F0E1A6E89
:101670005EEC0DF099D72D50030D290EF324F66E74
:10168000060EF420F76E0900F5CF15F00900F5CF2E
:1016900016F00A00F5CF17F0000E186E000E196E46
:1016A0003F0E1A6E5EEC0DF015C024F016C025F04A
:1016B00017C026F0120030C034F0356A366A2F3475
:1016C000343601E335803450396E33C034F0356A36
:1016D000366A3234343601E335803450386E39504E
:1016E000D8B40BD03850395CD8B00ED0395000087F
:1016F0003824346E180E346407D031C02EF032C056
:101700002FF033C030F012003850D8B40BD039501D
:10171000385CD8B00ED0385000083924346E180E1A
:10172000346407D02EC02EF02FC02FF030C030F020
:101730001200060E376E30BE378E33BE378C2F8EBA
:10174000FF0E2E16FF0E2F16000E3016328EFF0ED5
:101750003116FF0E3216000E33163850395CD8B0F1
:101760001BD0D890313632363336380639503818D7
:10177000D8B40DD0370637C034F0070E3416D8B4BD
:1017800006D0EFD7D89030322F322E32392A385047
:101790003918D8B41FD0F6D73950385CD8B01AD021
:1017A000D8902E362F363036390639503818D8B4FE
:1017B0000DD0370637C034F0070E3416D8B406D033
:1017C000EFD7D890333232323132382A3850391884
:1017D000D8A4F7D737AE0CD0FF0E2E1AFF0E2F1A53
:1017E000FF0E301A010E2E26000E2F22000E302280
:1017F00037AC0CD0FF0E311AFF0E321AFF0E331A1F
:10180000010E3126000E3222000E3322000E376EFA
:101810002E5031262F5032223050332233AE0ED08C
:10182000FF0E311AFF0E321AFF0E331A010E312647
:10183000000E3222000E3322010E376E31C001F04D
:1018400032C002F033C003F039C004F037C005F0F5
:10185000C5EC0EF001C02EF002C02FF003C030F036
:10186000120003C007F0086A096A0234073601E370
:10187000088007500F6E0F50D8A409D0000E016EDB
:10188000000E026E000E036E000E046E120006C003
:1018900007F0086A096A0534073601E30880075033
:1018A0000E6E0E50D8A409D0000E016E000E026E0E
:1018B000000E036E000E046E1200028EFF0E011663
:1018C000FF0E0216000E0316058EFF0E0416FF0E05
:1018D0000516000E0616000E0A6E000E0B6E000EA8
:1018E0000C6E000E0D6E7F0E0F5E0E50980F0F5E89
:1018F000180E0E6ED8900A360B360C360D36045084
:10190000015C0550025806500358D8A007D0045077
:10191000015E0550025A0650035A0A80D8900136DB
:10192000023603360E2EE6D70FAE16D00F50800AC1
:10193000970FD8B009D0000E016E000E026E000E97
:10194000036E000E046E1200D8900D320C320B3272
:101950000A320F3EF9D715D0170E0F640FD0000EC4
:10196000016E000E026E000E036E000E046E120079
:10197000D8900A360B360C360D360F060F50D8A409
:10198000F7D70AC001F00BC002F00CC003F00DC085
:1019900004F01200033404340C6E0C50D8A409D0A7
:1019A000000E016E000E026E000E036E000E046E3D
:1019B0001200063407340B6E0B50D8A409D0000E69
:1019C000016E000E026E000E036E000E046E120019
:1019D000038EFF0E0116FF0E0216FF0E0316000EF9
:1019E0000416068EFF0E0416FF0E0516FF0E0616D1
:1019F000000E0716000E076E000E086E000E096E30
:101A0000000E0A6E7F0E0C5E0B50A00F0C5E200EB7
:101A10000B6ED8900736083609360A360450015C3A
:101A2000055002580650035807500458D8A009D052
:101A30000450015E0550025A0650035A0750045ADA
:101A40000780D89001360236033604360B2EE1D7D4
:101A50000CAE16D00C50800A9F0FD8B009D0000EE3
:101A6000016E000E026E000E036E000E046E120078
:101A7000D8900A320932083207320C3EF9D715D015
:101A80001F0E0C640FD0000E016E000E026E000ED1
:101A9000036E000E046E1200D89007360836093621
:101AA0000A360C060C50D8A4F7D707C001F008C0BE
:101AB00002F009C003F00AC004F0120017C01BF0C6
:101AC0001C6A1D6A16341B3601E31C801B501E6EF7
:101AD0001E50D8A407D0000E156E000E166E000E14
:101AE000176E12001AC01BF01C6A1D6A19341B36CF
:101AF00001E31C801B50236E2350D8A407D0000E96
:101B0000156E000E166E000E176E120023507B0F1E
:101B10001E2617C023F01A50231A800E2316168E85
:101B2000198EFF0E1816FF0E1916000E1A16000E4B
:101B30001F6E000E206E000E216E070E226E15A085
:101B400006D018501F26195020221A502122D89052
:101B5000173216321532D890183619361A36222E08
:101B6000EED7090E226E15A006D018501F26195068
:101B700020221A502122D890173216321532D890CE
:101B8000213220321F32222EEED71FC001F020C09A
:101B900002F021C003F01EC004F023C005F0C5EC24
:101BA0000EF001C015F002C016F003C017F01200CD
:101BB0002DC02FF0306A316A2C342F3601E330808B
:101BC0002F50396E3950D8A409D0000E2B6E000E5C
:101BD0002C6E000E2D6E000E2E6E1200170E2F6E44
:101BE0002BC030F02CC031F02DC032F02F28336ED6
:101BF00004D0D890323231323032332EFAD73050CE
:101C0000346E2C8EFF0E2B16FF0E2C16000E2D168A
:101C10002B50356E2C50366E2D50376E386A8E0E26
:101C2000395E39AE16D03950800A8F0FD8B009D03E
:101C3000000E2B6E000E2C6E000E2D6E000E2E6E02
:101C40001200D8903832373236323532393EF9D731
:101C500015D0170E39640FD0000E2B6E000E2C6EAF
:101C6000000E2D6E000E2E6E1200D89035363636D0
:101C70003736383639063950D8A4F7D73450D8B467
:101C800008D0381E371E361E356C000E362237221D
:101C9000382235C02BF036C02CF037C02DF038C0BC
:101CA0002EF0120026C02AF02B6A2C6A25342A3620
:101CB00001E32B802A50316E3150D8A407D0000E9A
:101CC000246E000E256E000E266E120029C02AF02A
:101CD0002B6A2C6A28342A3601E32B802A50326E74
:101CE0003250D8A407D0000E246E000E256E000ED0
:101CF000266E1200000E2E6E000E2F6E000E306E3D
:101D00003250890F315E26C032F02950321A800ECF
:101D10003216258EFF0E2416FF0E2516000E2616EF
:101D2000288EFF0E2716FF0E2816000E2916180EF5
:101D30002D6ED8902E362F3630362750245C285002
:101D4000255829502658D8A007D02750245E28505F
:101D5000255A2950265A2E80D890243625362636E4
:101D60002D2EE7D72EC001F02FC002F030C003F0B7
:101D700031C004F032C005F0C5EC0EF001C024F013
:101D800002C025F003C026F012000450D8B405D0DC
:101D9000015002100310D8A40CD0000E016E000EEA
:101DA000026E000E036E1200042AD8900332023233
:101DB0000132000E0114066E000E0214076EFE0EB4
:101DC0000314086E065007100810D8B40CD0ECD7D6
:101DD000042A010E0126000E0222000E0322D890D2
:101DE000033202320132000E0114066E000E02149C
:101DF000076EFF0E0314086E065007100810D8B4C3
:101E000006D0E6D70406D89001360236033602BE65
:101E100003D0020E0460F6D704A0029ED8900432CC
:101E2000045003120550D8A4038E01C001F002C073
:101E300002F003C003F0120003AE16D001C007F099
:101E400002C008F003C009F0071E081E091E072A79
:101E5000000E08220922000E0724016E000E082041
:101E6000026E800E0920036E06AE16D004C007F085
:101E700005C008F006C009F0071E081E091E072A43
:101E8000000E08220922000E0724046E000E08200E
:101E9000056E800E0920066E000E011A000E021A51
:101EA000800E031A000E041A000E051A800E061A80
:101EB0000450015C0550025806500358D8B002D0B7
:101EC000D8901200D880120005EC12F0E4EC10F06B
:101ED00001C05BF002C05CF0D00E186E9D0E196E52
:101EE000450E1A6E5BC009F05CC00AF079EC11F087
:101EF00009C015F00AC016F00BC017F05EEC0DF02B
:101F000015C024F016C025F017C026F0000E276E6D
:101F1000400E286E400E296E52EC0EF024C081F067
:101F200025C082F026C083F0770E406E060E416E0B
:101F300081C042F082C043F083C044F048EC03F01B
:101F4000FAEC11F003EC12F0F2921200000E0C6E9B
:101F50000AAE06D0096C0A1ED8B00A2A010E0C6E11
:101F600008AE06D0076C081ED8B0082A010E0C1A5D
:101F7000000E0E6E000E0D6E09500A10D8B41CD063
:101F8000010E0B6E04D0D89009360A360B2A0AAE21
:101F9000FAD7D8900D360E360950075C0A5008580B
:101FA000D8A005D00950075E0A50085A0D80D89075
:101FB0000A3209320B2EEDD70C50D8B404D00D6C78
:101FC0000E1ED8B00E2A0DC007F00EC008F0120089
:101FD000000E096E000E0A6E000E0B6E000E0C6EE7
:101FE0000550061007100810D8B42AD0010E0D6E47
:101FF00006D0D89005360636073608360D2A08AEC4
:10200000F8D7D89009360A360B360C360550015CE5
:10201000065002580750035808500458D8A009D059
:102020000550015E0650025A0750035A0850045AE0
:102030000980D89008320732063205320D2EE1D7DA
:1020400009C001F00AC002F00BC003F00CC004F09C
:102050001200000E066E02AE06D0016C021ED8B051
:10206000022A010E066E04AE04D0036C041ED8B022
:10207000042A03500410D8B418D0010E056E04D001
:10208000D89003360436052A04AEFAD70350015C13
:1020900004500258D8A004D00350015E0450025AE4
:1020A000D89004320332052EF1D70650D8B404D0AC
:1020B000016C021ED8B0022A01C001F002C002F079
:1020C00012000550061007100810D8B424D0010ED5
:1020D000096E06D0D8900536063607360836092A26
:1020E00008AEF8D70550015C065002580750035857
:1020F00008500458D8A008D00550015E0650025A76
:102100000750035A0850045AD89008320732063252
:102110000532092EE7D701C001F002C002F003C06A
:1021200003F004C004F012008E0E116E06D0D89099
:102130000C320B320A320932112A000E09140D6ECC
:10214000000E0A140E6E000E0B140F6EFF0E0C1410
:10215000106E0D500E100F101010D8A4E8D709C043
:1021600001F00AC002F00BC003F011C004F0000E31
:10217000056EC5EC0EF001C009F002C00AF003C004
:102180000BF01200110ED56E150ED76E9F0ED66E87
:10219000D650D7CF7BF000017C6B7BC07CF0000178
:1021A0007B6B00017B11596E00017C515A6EF294D9
:1021B000F28A340E0001796F230E00017A6FEBEC86
:1021C00011F0FFEC11F01200D6CF09F0D7CF0AF0D2
:1021D00059C003F05AC004F0031E041E034A042A27
:1021E00009500AC005F0066A05C006F0056A052612
:1021F000000E062203500524076E04500620086EC8
:1022000007C001F008C002F012003D503E103F1020
:10221000D8B406D0000E3D1A000E3E1A800E3F1AAA
:102220003AC02EF03BC02FF03CC030F03DC031F042
:102230003EC032F03FC033F05BEC0BF02EC03AF002
:102240002FC03BF030C03CF01200F2945A50D76ED1
:1022500059C0D6FF00017F5100018011D8B412008F
:1022600001D8120005000001FA6E7F51FD6E805109
:10227000FE6EF850FF6EFA501200000E896E020ECC
:102280008A6E000E8B6E9268FD0E936EBF0E946E7A
:10229000BC0E0F013A6F3C0E0F01396F2F0E0F016C
:1022A000386F6168F19E12000F501102F3CF13F0E6
:1022B000F4CF14F00F501202F350142610501102F4
:1022C000F350142613C00FF014C010F01200015088
:1022D00002100310D8B406D0000E011A000E021A24
:1022E000800E031A01C001F002C002F003C003F027
:1022F000120009C001F00AC002F0036A8E0E046EDB
:10230000000E056EC5EC0EF001C009F002C00AF027
:1023100003C00BF01200036E000E026E3A0E036053
:1023200005D02F0E036402D0010E026E02C001F030
:10233000013012008AA202D0010E01D0000EFF0A65
:10234000016E01468A500118FD0B01188A6E1200B9
:102350000001836B826B816B5C6A5B6A5D905D924E
:10236000000EF86E0001E6EF11F001EC12F03DEC0A
:1023700011F0D9EC11F0C2EC11F0C2EC10F0CEEC7F
:1023800011F01200F292F19C000E0001796F000E24
:1023900000017A6FF0EC11F0F2881200080EB86EAE
:1023A000800EAB6E240EAC6EA00EAF6E010EB06E42
:1023B0001200700ED36E040ED26E000E9B6E1200D1
:1023C000016E9EA8FED701C0ADFF1200B5EC11F062
:1023D000F28EF28CFFD779C07FF07AC080F01200C5
:1023E00079C07DF07AC07EF01200026E0250E0ECFF
:1023F00011F012005A50D76E59C0D6FF1200D58E78
:0E2400001200D09E1200D58E1200D59E120042
:020000040020DA
:08000000FFFFFFFFFFFFFFFF00
:020000040030CA
:0E000000FF231F3CFFBF85FF0FC00FE00F4026
:00000001FF
