:040000004AEF00F0D3
:100008005A82FACF79F0FBCF7AF0E9CF7BF0EACFCA
:100018007CF0E1CF7DF0E2CF7EF0D9CF7FF0DACF70
:1000280080F0F3CF81F0F4CF82F0F6CF83F0F7CFF2
:1000380084F0F8CF85F0F5CF86F0F2BAF2A403D0B9
:10004800CAEC11F005D0F2B8F2A202D0AFEC0FF072
:1000580086C0F5FF85C0F8FF84C0F7FF83C0F6FFB0
:1000680082C0F4FF81C0F3FF80C0DAFF7FC0D9FFF0
:100078007EC0E2FF7DC0E1FF7CC0EAFF7BC0E9FFF4
:100088007AC0FBFF79C0FAFF5A9211005AEF12F0BA
:1006000000010000000A00000064000000E8030090
:100610000010270000A086010040420F008096983D
:100620000000E1F50500CA9A3B00803FCDCC3DD7E4
:10063000233C12833AB7D138C62737388635C0D61F
:1006400033CC2B32708930E7DB2EE53C1E42A20D05
:1006500000803F00204100C842007A44401C4650C0
:10066000C34724744997184BBCBE4C6B6E4E0315A0
:100670005079AD60F3497143617061636974616E73
:1006800063653A2025302E32662070462028436F5D
:10069000756E743A202575290D0A0000480E000178
:1006A000636F000E0001646FC4EF08F0250E0001B7
:1006B0007819D8B406D00001785199EC12F0C4EF43
:1006C00008F0000E0001726F000E716F000E000145
:1006D000706F000E6F6F04D000016F85464A472A85
:1006E00046C0F6FF47C0F7FF0800F550300AD8B4FF
:1006F000F3D746C0F6FF47C0F7FF0800F55030ECCF
:1007000012F0D8A035D0000E0001726F000E716F8C
:1007100071C00FF072C010F0000E126E0A0E116E52
:10072000F9EC11F00FC071F010C072F0D00E4D6EE8
:10073000FF0E4E6E46C0F6FF47C0F7FF0800F550AB
:100740004F6E506A4D504F264E5050224F50000170
:100750007127505000017223464A472A46C0F6FFCF
:1007600047C0F7FF0800F55030EC12F0D8B0D0D7F2
:1007700046C0F6FF47C0F7FF0800F5502E0AD8A480
:1007800032D00001708D464A472A000E0001776F73
:10079000000E766F1DD076C00FF077C010F0000EFF
:1007A000126E0A0E116EF9EC11F046C0F6FF47C04A
:1007B000F7FF0800F5500F26000E1022D00E0F2470
:1007C0000001766FFF0E10200001776F464A472A1E
:1007D00046C0F6FF47C0F7FF0800F55030EC12F0B6
:1007E000D8A010D0D8D7000E0001776F000E766F1A
:1007F0000001708907D0000170851AD0C00E000179
:100800006F1316D046C0F6FF47C0F7FF464A472A87
:100810000800F5CF78F000017851000AD8B4120032
:10082000660AD8B4E8D7130AD8B4E8D7C4EF08F0FA
:10083000070E00017015D8B450D3000170A905D07F
:10084000000E0001776F060E766F63C0D9FF64C09B
:10085000DAFFDECF73F0DECF74F0DDCF75F0030E7C
:1008600000016327000E6423000175AF11D073C02F
:1008700001F074C002F075C003F00CEC12F001C07E
:1008800073F002C074F003C075F0030E00016F1323
:10089000000E00016E6F000E6D6F000173510001BC
:1008A000741100017511D8B48BD0820E4D6EFF0EFD
:1008B0004E6E73C04FF074C050F075C051F076C0EA
:1008C00052F0100E05D0D8905232513250324F3281
:1008D000E82EF9D74F504D2400016D6F000E4E20C9
:1008E00000016E6F00016D07D8A06E076DC00FF09C
:1008F0006EC010F0000E126E030E116EF9EC11F0C6
:100900000FC06DF010C06EF06DC007F06EC008F043
:10091000000E0A6E0A0E096E4BEC10F007C06DF067
:1009200008C06EF000016EAF04D000016D07D8A0C2
:100930006E0700016D510008D3EC08F030C069F07B
:1009400031C06AF032C06BF069C021F06AC022F099
:100950006BC023F073C024F074C025F075C026F07E
:10096000F1EC0DF021C069F022C06AF023C06BF0F9
:1009700069C001F06AC002F06BC003F0000E046EA3
:10098000800E056E3F0E066E03EC10F0D8B005D059
:1009900000016D07D8A06E0713D069C001F06AC0CE
:1009A00002F06BC003F0000E046E200E056E410EC7
:1009B000066E03EC10F0D8A003D000016D4B6E2B37
:1009C000000177BF08D0000177511DE10D0E000135
:1009D000765DD8B018D073C015F074C016F075C02D
:1009E00017F000017651CBEC0AF030C018F031C09E
:1009F00019F032C01AF0EEEC0BF015C073F016C00F
:100A000074F017C075F000016EBF08D000016E5180
:100A100026E10A0E00016D5DD8B021D000017351AE
:100A20000001741100017511D8B45BD073C037F0A8
:100A300074C038F075C039F06BEC0EF037503810D8
:100A400039103A10D8A44DD000016EBF4AD0000131
:100A50006E5105E1020E00016D5DD8A042D069C063
:100A600001F06AC002F06BC003F0700E046E890ED4
:100A7000056E400E066E03EC10F0D8B003D00001F6
:100A8000F70E02D00001F80E6D27FF0E6E23000155
:100A90006D51D3EC08F030C069F031C06AF032C05B
:100AA0006BF073C001F074C002F075C003F069C050
:100AB00004F06AC005F06BC006F0C4EC0CF001C095
:100AC00065F002C066F003C067F004C068F0000E75
:100AD0000001736F000E0001746F000E0001756F4E
:100AE00033D073C037F074C038F075C039F06BEC98
:100AF0000EF037C065F038C066F039C067F03AC014
:100B000068F073C021F074C022F075C023F065C096
:100B100009F066C00AF067C00BF068C00CF039EC51
:100B200011F009C024F00AC025F00BC026F0AAEC91
:100B300011F021C073F022C074F023C075F0000ED4
:100B400000016E6F000E6D6F010E0001786F0A0ECE
:100B500000017819D8B41ED000017851040D010E9F
:100B6000F324F66E060EF420F76E0900F55000012E
:100B7000655D0900F550000166590900F550000156
:100B800067590900F55000016859D8A003D0000149
:100B9000782BDDD778C04DF04E6A4DBE4E06000171
:100BA00076514D26000177514E2200016D514D26A0
:100BB00000016E514E224D500001715F4E500001F8
:100BC000725B0001765100017711D8B404D00001A6
:100BD0007107D8A07207030E00016F154D6E000E4D
:100BE000000170154E6E4D504E10D8B404D0000167
:100BF0007107D8A0720700016FA529D0030E00016C
:100C00006F154D6E000E000170154E6E4D504E105A
:100C1000D8B40BD02D0E99EC12F007D0300E99EC11
:100C200012F000017107D8A07207000172BF6FD0E7
:100C300000017251F3E100017105D8A068D0EED730
:100C4000200E99EC12F000017107D8A07207000184
:100C500072BF07D000017251F3E100017105D8B0F5
:100C6000EFD7030E00016F154D6E000E00017015D9
:100C70004E6E4D504E10D8B44AD02D0E99EC12F055
:100C800046D065C001F066C002F067C003F068C0DE
:100C900004F000017851040D010EF324F66E060EE7
:100CA000F420F76E0900F5CF05F00900F5CF06F046
:100CB0000900F5CF07F00A00F5CF08F08DEC10F031
:100CC00001C069F002C06AF003C06BF004C06CF0B0
:100CD00069C00EF06AC00FF06BC010F06CC011F06C
:100CE0000A0E126E000E136E000E146E000E156EBC
:100CF00006EC11F00EC069F00FC06AF010C06BF086
:100D000011C06CF000016951300F99EC12F0000134
:100D1000780700017829D8B408D0B3D7300E99EC01
:100D200012F000016D07D8A06E0700016EBF07D05A
:100D300000016E51F3E100016D05D8B0EFD700015D
:100D400077BF0CD00001775105E1090E0001765DF7
:100D5000D8A004D0080E0001786F02D076C078F0D9
:100D6000000178510001765F000E000178BFFF0E90
:100D70000001775B000178510001D8B403D02E0E3A
:100D800099EC12F000017851D3EC08F030C060F01B
:100D900031C061F032C062F073C024F074C025F03D
:100DA00075C026F060C021F061C022F062C023F05F
:100DB000F1EC0DF021C037F022C038F023C039F03B
:100DC0006BEC0EF037C065F038C066F039C067F0E4
:100DD0003AC068F06DD065C001F066C002F067C02F
:100DE00003F068C004F000017851040D010EF324F3
:100DF000F66E060EF420F76E0900F5CF05F0090037
:100E0000F5CF06F00900F5CF07F00A00F5CF08F09E
:100E10008DEC10F001C069F002C06AF003C06BF005
:100E200004C06CF069C00EF06AC00FF06BC010F027
:100E30006CC011F00A0E126E000E136E000E146ECE
:100E4000000E156E06EC11F00EC069F00FC06AF0CE
:100E500010C06BF011C06CF000016951300F99ECBB
:100E600012F065C00EF066C00FF067C010F068C0E9
:100E700011F000017851040D010EF324F66E060EF8
:100E8000F420F76E0900F5CF12F00900F5CF13F04A
:100E90000900F5CF14F00A00F5CF15F006EC11F0BB
:100EA0000EC065F00FC066F010C067F011C068F0AA
:100EB0000001780700017829D8B408D08CD7300E0B
:100EC00099EC12F000017607D8A07707000176515F
:100ED00000017711D8B458D1F2D763C0D9FF64C0EC
:100EE000DAFFDECF4DF0DDCF4EF04DC065F04EC0E5
:100EF00066F00001676B686B020E00016327000E4D
:100F000064230001765100017711D8A40DD00001AF
:100F10006551000166110001671100016811D8A434
:100F200003D00001764B772B010E0001786F0A0E7B
:100F300000017819D8B41ED000017851040D010EBB
:100F4000F324F66E060EF420F76E0900F55000014A
:100F5000655D0900F550000166590900F550000172
:100F600067590900F55000016859D8A003D0000165
:100F7000782BDDD7800E000178BF7F0E4D6E00010B
:100F800076510001785D00017751800A4D58D8B044
:100F900003D076C078F016D000017751800A4D6EEC
:100FA000000178510001765D800E000178BF7F0E50
:100FB0004D58D8B007D0000178510001766F776B9B
:100FC00076BF77070001715100017211D8B410D0BB
:100FD000030E00016F154D6E000E000170154E6E70
:100FE0004D504E10D8B404D000017107D8A072073C
:100FF000000170AD1CD0000171510001765D00014F
:101000007751800A4D6E00017251800A4D58D8B058
:1010100009D0000176510001715F00017751000194
:10102000725B05D0000E0001726F000E716F800EB2
:10103000000178BF7F0E4D6E000171510001785D97
:1010400000017251800A4D58D8B00BD00001785180
:101050000001715F000E000178BFFF0E0001725B9E
:1010600005D0000E0001726F000E716F00016FA5B8
:101070001DD0030E00016F154D6E000E000170159E
:101080004E6E4D504E10D8B403D02D0E99EC12F088
:101090000001715100017211D8B46BD0300E99EC7F
:1010A00012F000017107D8A07207F2D70001715148
:1010B00000017211D8B40DD0200E99EC12F000018D
:1010C0007107D8A072070001715100017211D8A4F4
:1010D000F3D7030E00016F154D6E000E0001701561
:1010E0004E6E4D504E10D8B444D02D0E99EC12F0E7
:1010F00040D076C04DF077C04EF0D8904D364E3689
:10110000D8904D364E36010E4D24F66E060E4E200A
:10111000F76E0900F5CF05F00900F5CF06F00900DC
:10112000F5CF07F00A00F5CF08F065C001F066C002
:1011300002F067C003F068C004F08DEC10F001C04D
:101140000EF002C00FF003C010F004C011F00A0E40
:10115000126E000E136E000E146E000E156E06EC6D
:1011600011F00E50300F0001786F0001785199ECAA
:1011700012F000017607D8A0770700017629B9E1BF
:1011800000017729D8A4B5D746C0F6FF47C0F7FFBE
:10119000464A472A0800F5CF78F000017851D8B4C4
:1011A000120056EF03F0366E36AEFBD0366C36507A
:1011B000800A120FD8A091D0000E126E030E116E8D
:1011C000000E0A6E0A0E096E000E046E640E036EA7
:1011D0003650016E026A01BE0206CEEC10F001C06C
:1011E00007F002C008F04BEC10F0090E07240F6E58
:1011F000000E0820106EF9EC11F0290E0F24F66E87
:10120000060E1020F76E0900F5CF24F00900F5CF87
:1012100025F00A00F5CF26F0000E0A6E640E096E66
:101220003650076E086A07BE08064BEC10F0120E27
:1012300007240F6E000E0820106E000E126E030EB3
:10124000116EF9EC11F0290E0F24F66E060E102027
:10125000F76E0900F5CF21F00900F5CF22F00A0062
:10126000F5CF23F0F1EC0DF021C033F022C034F0C3
:1012700023C035F033C021F034C022F035C023F054
:10128000000E126E030E116E000E046E0A0E036E37
:101290003650016E026A01BE0206CEEC10F001C0AB
:1012A0000FF002C010F0F9EC11F0290E0F24F66EC9
:1012B000060E1020F76E0900F5CF24F00900F5CFD7
:1012C00025F00A00F5CF26F0F1EC0DF021C030F04A
:1012D00022C031F023C032F012003650800A750F60
:1012E000D8A04DD0000E0A6E0A0E096E3650076E59
:1012F000086A07BE08064BEC10F0090E07240F6EB3
:10130000000E0820106E000E126E030E116EF9EC26
:1013100011F0290E0F24F66E060E1020F76E09004C
:10132000F5CF21F00900F5CF22F00A00F5CF23F028
:10133000000E126E030E116E000E046E0A0E036E86
:101340003650016E026A01BE0206CEEC10F001C0FA
:101350000FF002C010F0F9EC11F0290E0F24F66E18
:10136000060E1020F76E0900F5CF24F00900F5CF26
:1013700025F00A00F5CF26F0F1EC0DF0A7D7365096
:10138000030D290EF324F66E060EF420F76E090005
:10139000F5CF30F00900F5CF31F00A00F5CF32F08B
:1013A00012003650800A120FD8A091D0000E126E93
:1013B000030E116E000E0A6E0A0E096E000E046E08
:1013C000640E036E3650016E026A01BE0206CEEC58
:1013D00010F001C007F002C008F04BEC10F0090E4D
:1013E00007240F6E000E0820106EF9EC11F0500E5D
:1013F0000F24F66E060E1020F76E0900F5CF24F0CC
:101400000900F5CF25F00A00F5CF26F0000E0A6E90
:10141000640E096E3650076E086A07BE08064BEC6C
:1014200010F0120E07240F6E000E0820106E000E32
:10143000126E030E116EF9EC11F0500E0F24F66EC1
:10144000060E1020F76E0900F5CF21F00900F5CF48
:1014500022F00A00F5CF23F0F1EC0DF021C033F0BB
:1014600022C034F023C035F033C021F034C022F064
:1014700035C023F0000E126E030E116E000E046EC6
:101480000A0E036E3650016E026A01BE0206CEECF1
:1014900010F001C00FF002C010F0F9EC11F0500E86
:1014A0000F24F66E060E1020F76E0900F5CF24F01B
:1014B0000900F5CF25F00A00F5CF26F0F1EC0DF08C
:1014C00021C030F022C031F023C032F0120036507B
:1014D000800A750FD8A04DD0000E0A6E0A0E096E54
:1014E0003650076E086A07BE08064BEC10F0090E6E
:1014F00007240F6E000E0820106E000E126E030EF1
:10150000116EF9EC11F0500E0F24F66E060E10203D
:10151000F76E0900F5CF21F00900F5CF22F00A009F
:10152000F5CF23F0000E126E030E116E000E046E46
:101530000A0E036E3650016E026A01BE0206CEEC40
:1015400010F001C00FF002C010F0F9EC11F0500ED5
:101550000F24F66E060E1020F76E0900F5CF24F06A
:101560000900F5CF25F00A00F5CF26F0F1EC0DF0DB
:10157000A7D73650030D500EF324F66E060EF42056
:10158000F76E0900F5CF30F00900F5CF31F00A0011
:10159000F5CF32F01200396E6D0E39649FD0000E17
:1015A000126E030E116E000E0A6E0A0E096E000E08
:1015B000046E640E036E39C001F0026ACEEC10F0C6
:1015C00001C007F002C008F04BEC10F0090E072430
:1015D0000F6E000E0820106EF9EC11F0290E0F248A
:1015E000F66E060E1020F76E0900F5CF24F0090004
:1015F000F5CF25F00A00F5CF26F0000E0A6E640E36
:10160000096E39C007F0086A4BEC10F0120E07247F
:101610000F6E000E0820106E000E126E030E116E7B
:10162000F9EC11F0290E0F24F66E060E1020F76E5D
:101630000900F5CF21F00900F5CF22F00A00F5CF1F
:1016400023F0F1EC0DF021C036F022C037F023C0BA
:1016500038F0000E126E030E116E000E046E0A0EAC
:10166000036E39C001F0026ACEEC10F001C00FF039
:1016700002C010F0F9EC11F0290E0F24F66E060EE0
:101680001020F76E0900F5CF24F00900F5CF25F002
:101690000A00F5CF26F036C021F037C022F038C05E
:1016A00023F0F1EC0DF021C033F022C034F023C060
:1016B00035F033C021F034C022F035C023F0000EE5
:1016C000246E000E256E3F0E266EF1EC0DF021C04B
:1016D00030F022C031F023C032F012000A0E39641B
:1016E0005DD0000E126E030E116E000E046E0A0E17
:1016F000036E39C001F0026ACEEC10F001C00FF0A9
:1017000002C010F0F9EC11F0290E0F24F66E060E4F
:101710001020F76E0900F5CF24F00900F5CF25F071
:101720000A00F5CF26F0000E0A6E0A0E096E39C0C7
:1017300007F0086A4BEC10F0090E07240F6E000E3C
:101740000820106E000E126E030E116EF9EC11F0EF
:10175000290E0F24F66E060E1020F76E0900F5CF45
:1017600021F00900F5CF22F00A00F5CF23F0F1ECCB
:101770000DF021C036F022C037F023C038F036C05B
:1017800021F037C022F038C023F0000E246E000E86
:10179000256E3F0E266EF1EC0DF099D73950030DF2
:1017A000290EF324F66E060EF420F76E0900F5CF2D
:1017B00021F00900F5CF22F00A00F5CF23F0000E4A
:1017C000246E000E256E3F0E266EF1EC0DF021C04A
:1017D00030F022C031F023C032F0120017C01BF0ED
:1017E0001C6A1D6A16341B3601E31C801B50206ED8
:1017F0001AC01BF01C6A1D6A19341B3601E31C80D9
:101800001B501F6E2050D8B40BD01F50205CD8B096
:101810000ED0205000081F241B6E180E1B6407D02A
:1018200018C015F019C016F01AC017F012001F509A
:10183000D8B40BD020501F5CD8B00ED01F50000879
:1018400020241B6E180E1B6407D015C015F016C09F
:1018500016F017C017F01200060E1E6E17BE1E8E71
:101860001ABE1E8C168EFF0E1516FF0E1616000ED3
:101870001716198EFF0E1816FF0E1916000E1A16DF
:101880001F50205CD8B01BD0D890183619361A36A5
:101890001F0620501F18D8B40DD01E061EC01BF006
:1018A000070E1B16D8B406D0EFD7D89017321632D1
:1018B0001532202A1F502018D8B41FD0F6D7205038
:1018C0001F5CD8B01AD0D8901536163617362006B9
:1018D00020501F18D8B40DD01E061EC01BF0070ED6
:1018E0001B16D8B406D0EFD7D8901A321932183256
:1018F0001F2A1F502018D8A4F7D71EAE0CD0FF0EF9
:10190000151AFF0E161AFF0E171A010E1526000ED5
:101910001622000E17221EAC0CD0FF0E181AFF0E56
:10192000191AFF0E1A1A010E1826000E1922000E9F
:101930001A22000E1E6E1550182616501922175026
:101940001A221AAE0ED0FF0E181AFF0E191AFF0E29
:101950001A1A010E1826000E1922000E1A22010E64
:101960001E6E18C001F019C002F01AC003F020C0AA
:1019700004F01EC005F058EC0FF001C015F002C0D5
:1019800016F003C017F0120003C007F0086A096AD6
:101990000234073601E3088007500F6E0F50D8A4B9
:1019A00009D0000E016E000E026E000E036E000ED6
:1019B000046E120006C007F0086A096A053407368B
:1019C00001E3088007500E6E0E50D8A409D0000E17
:1019D000016E000E026E000E036E000E046E120009
:1019E000028EFF0E0116FF0E0216000E0316058E64
:1019F000FF0E0416FF0E0516000E0616000E0A6EE8
:101A0000000E0B6E000E0C6E000E0D6E7F0E0F5E44
:101A10000E50980F0F5E180E0E6ED8900A360B36C9
:101A20000C360D360450015C055002580650035820
:101A3000D8A007D00450015E0550025A0650035A40
:101A40000A80D8900136023603360E2EE6D70FAE46
:101A500016D00F50800A970FD8B009D0000E016E33
:101A6000000E026E000E036E000E046E1200D8907F
:101A70000D320C320B320A320F3EF9D715D0170E49
:101A80000F640FD0000E016E000E026E000E036E8A
:101A9000000E046E1200D8900A360B360C360D3646
:101AA0000F060F50D8A4F7D70AC001F00BC002F000
:101AB0000CC003F00DC004F01200033404340C6EAB
:101AC0000C50D8A409D0000E016E000E026E000E5C
:101AD000036E000E046E1200063407340B6E0B50BA
:101AE000D8A409D0000E016E000E026E000E036E27
:101AF000000E046E1200038EFF0E0116FF0E02167A
:101B0000FF0E0316000E0416068EFF0E0416FF0EBF
:101B10000516FF0E0616000E0716000E076E000EC5
:101B2000086E000E096E000E0A6E7F0E0C5E0B50E2
:101B3000A00F0C5E200E0B6ED890073608360936C3
:101B40000A360450015C05500258065003580750ED
:101B50000458D8A009D00450015E0550025A06501E
:101B6000035A0750045A0780D890013602360336CC
:101B700004360B2EE1D70CAE16D00C50800A9F0F06
:101B8000D8B009D0000E016E000E026E000E036E7A
:101B9000000E046E1200D8900A3209320832073261
:101BA0000C3EF9D715D01F0E0C640FD0000E016E3D
:101BB000000E026E000E036E000E046E1200D8902E
:101BC0000736083609360A360C060C50D8A4F7D763
:101BD00007C001F008C002F009C003F00AC004F019
:101BE000120023C027F0286A296A2234273601E32D
:101BF000288027502A6E2A50D8A407D0000E216EC4
:101C0000000E226E000E236E120026C027F0286AF6
:101C1000296A2534273601E3288027502F6E2F505C
:101C2000D8A407D0000E216E000E226E000E236E87
:101C300012002F507B0F2A2623C02FF026502F1A78
:101C4000800E2F16228E258EFF0E2416FF0E2516CF
:101C5000000E2616000E2B6E000E2C6E000E2D6E42
:101C6000070E2E6E21A006D024502B2625502C22A4
:101C700026502D22D890233222322132D890243679
:101C8000253626362E2EEED7090E2E6E21A006D032
:101C900024502B2625502C2226502D22D89023323A
:101CA00022322132D8902D322C322B322E2EEED7EA
:101CB0002BC001F02CC002F02DC003F02AC004F0AC
:101CC0002FC005F058EC0FF001C021F002C022F047
:101CD00003C023F0120039C03BF03C6A3D6A38343F
:101CE0003B3601E33C803B50456E4550D8A409D0BB
:101CF000000E376E000E386E000E396E000E3A6E12
:101D00001200170E3B6E37C03CF038C03DF039C0B2
:101D10003EF03B283F6E04D0D8903E323D323C32FC
:101D20003F2EFAD73C50406E388EFF0E3716FF0E0E
:101D30003816000E39163750416E3850426E395001
:101D4000436E446A8E0E455E45AE16D04550800AFD
:101D50008F0FD8B009D0000E376E000E386E000E0F
:101D6000396E000E3A6E1200D8904432433242323D
:101D70004132453EF9D715D0170E45640FD0000EFD
:101D8000376E000E386E000E396E000E3A6E12007D
:101D9000D890413642364336443645064550D8A49D
:101DA000F7D74050D8B408D0441E431E421E416CA1
:101DB000000E42224322442241C037F042C038F094
:101DC00043C039F044C03AF0120032C036F0376AEE
:101DD000386A3134363601E3378036503D6E3D5037
:101DE000D8A407D0000E306E000E316E000E326E99
:101DF000120035C036F0376A386A3434363601E3BB
:101E0000378036503E6E3E50D8A407D0000E306E5C
:101E1000000E316E000E326E1200000E3A6E000E91
:101E20003B6E000E3C6E3E50890F3D5E32C03EF070
:101E300035503E1A800E3E16318EFF0E3016FF0EC4
:101E40003116000E3216348EFF0E3316FF0E341686
:101E5000000E3516180E396ED8903A363B363C36A1
:101E60003350305C3450315835503258D8A007D0F8
:101E70003350305E3450315A3550325A3A80D8900F
:101E8000303631363236392EE7D73AC001F03BC012
:101E900002F03CC003F03DC004F03EC005F058EC39
:101EA0000FF001C030F002C031F003C032F0120078
:101EB0000450D8B405D0015002100310D8A40CD09F
:101EC000000E016E000E026E000E036E1200042A58
:101ED000D890033202320132000E0114066E000E59
:101EE0000214076EFE0E0314086E06500710081049
:101EF000D8B40CD0ECD7042A010E0126000E022221
:101F0000000E0322D890033202320132000E011477
:101F1000066E000E0214076EFF0E0314086E0650C4
:101F200007100810D8B406D0E6D70406D8900136BA
:101F30000236033602BE03D0020E0460F6D704A0B8
:101F4000029ED8900432045003120550D8A4038E88
:101F500001C001F002C002F003C003F01200A9ECBE
:101F600012F089EC11F001C056F002C057F0400E9B
:101F7000246EF70E256E430E266E000E186ED80ED8
:101F8000196EC10E1A6E56C009F057C00AF01EEC49
:101F900012F009C015F00AC016F00BC017F0EEECF5
:101FA0000BF015C021F016C022F017C023F0F1ECA1
:101FB0000DF021C030F022C031F023C032F0A40E69
:101FC000336E400E346E400E356EE5EC0EF030C0D0
:101FD00053F031C054F032C055F0770E466E060E05
:101FE000476E53C048F054C049F055C04AF056C03F
:101FF0004BF057C04CF04EEC03F09EEC12F0A7EC07
:1020000012F0F292120003AE16D001C007F002C027
:1020100008F003C009F0071E081E091E072A000E5B
:1020200008220922000E0724016E000E0820026E0D
:10203000800E0920036E06AE16D004C007F005C05E
:1020400008F006C009F0071E081E091E072A000E28
:1020500008220922000E0724046E000E0820056ED7
:10206000800E0920066E000E011A000E021A800E64
:10207000031A000E041A000E051A800E061A0450E8
:10208000015C0550025806500358D8B002D0D890D1
:102090001200D8801200000E0C6E0AAE06D0096C39
:1020A0000A1ED8B00A2A010E0C6E08AE06D0076CC4
:1020B000081ED8B0082A010E0C1A000E0E6E000E73
:1020C0000D6E09500A10D8B41CD0010E0B6E04D04E
:1020D000D89009360A360B2A0AAEFAD7D8900D36B0
:1020E0000E360950075C0A500858D8A005D0095090
:1020F000075E0A50085A0D80D8900A3209320B2E1A
:10210000EDD70C50D8B404D00D6C0E1ED8B00E2AEA
:102110000DC007F00EC008F01200000E096E000E90
:102120000A6E000E0B6E000E0C6E055006100710A6
:102130000810D8B42AD0010E0D6E06D0D8900536FE
:102140000636073608360D2A08AEF8D7D890093675
:102150000A360B360C360550015C06500258075003
:10216000035808500458D8A009D00550015E065005
:10217000025A0750035A0850045A0980D89008326E
:102180000732063205320D2EE1D709C001F00AC030
:1021900002F00BC003F00CC004F01200000E066E3B
:1021A00002AE06D0016C021ED8B0022A010E066EE5
:1021B00004AE04D0036C041ED8B0042A03500410EB
:1021C000D8B418D0010E056E04D0D890033604366A
:1021D000052A04AEFAD70350015C04500258D8A077
:1021E00004D00350015E0450025AD89004320332E6
:1021F000052EF1D70650D8B404D0016C021ED8B019
:10220000022A01C001F002C002F0120012501310A5
:1022100014101510D8B424D0010E166E06D0D89024
:102220001236133614361536162A15AEF8D7125054
:102230000E5C13500F581450105815501158D8A058
:1022400008D012500E5E13500F5A1450105A1550E9
:10225000115AD8901532143213321232162EE7D793
:102260000EC00EF00FC00FF010C010F011C011F032
:1022700012008E0E116E06D0D8900C320B320A323C
:102280000932112A000E09140D6E000E0A140E6E8A
:10229000000E0B140F6EFF0E0C14106E0D500E106E
:1022A0000F101010D8A4E8D709C001F00AC002F03E
:1022B0000BC003F011C004F0000E056E58EC0FF0D7
:1022C00001C009F002C00AF003C00BF01200110EA9
:1022D000D56E150ED76E9F0ED66ED650D7CF89F01D
:1022E00000018A6B89C08AF00001896B00018911A5
:1022F000586E00018A51596EF294F28A7E0E0001E6
:10230000876F240E0001886F8FEC12F0A3EC12F09F
:102310001200D6CF09F0D7CF0AF058C003F059C049
:1023200004F0031E041E034A042A09500AC005F0E3
:10233000066A05C006F0056A0526000E062203504F
:102340000524076E04500620086E07C001F008C07F
:1023500002F01200245025102610D8B406D0000E2A
:10236000241A000E251A800E261A21C015F022C04C
:1023700016F023C017F024C018F025C019F026C0AD
:102380001AF0EEEC0BF015C021F016C022F017C0C9
:1023900023F01200F2945950D76E58C0D6FF0001B6
:1023A0008D5100018E11D8B4120001D81200050021
:1023B0000001FA6E8D51FD6E8E51FE6EF850FF6E6B
:1023C000FA501200000E896E020E8A6E000E8B6E9D
:1023D0009268FD0E936EBF0E946EBC0E0F013A6FA5
:1023E0003C0E0F01396F2F0E0F01386F6168F19E9F
:1023F00012000F501102F3CF13F0F4CF14F00F506E
:102400001202F350142610501102F350142613C078
:102410000FF014C010F01200015002100310D8B4D5
:1024200006D0000E011A000E021A800E031A01C017
:1024300001F002C002F003C003F0120009C001F075
:102440000AC002F0036A8E0E046E000E056E58EC90
:102450000FF001C009F002C00AF003C00BF0120037
:10246000036E000E026E3A0E036005D02F0E036459
:1024700002D0010E026E02C001F0013012008AA2E9
:1024800002D0010E01D0000EFF0A016E01468A50F3
:102490000118FD0B01188A6E1200A5EC12F0E2EC97
:1024A00011F07DEC12F066EC12F067EC11F072ECBA
:1024B00012F01200576A566A556A546A536A5A9063
:1024C0005A92000EF86E00018AEF12F0F292F19C1F
:1024D000000E0001876F000E0001886F94EC12F06F
:1024E000F2881200080EB86E800EAB6E240EAC6E31
:1024F000A00EAF6E010EB06E1200700ED36E040E01
:10250000D26E000E9B6E1200016E9EA8FED701C017
:10251000ADFF12004DEC12F0F28EF28CFFD787C0A7
:102520008DF088C08EF0120087C08BF088C08CF0D0
:102530001200026E025084EC12F012005950D76E55
:1025400058C0D6FF1200D58E1200D09E1200D58E34
:062550001200D59E1200EE
:020000040020DA
:08000000FFFFFFFFFFFFFFFF00
:020000040030CA
:0E000000FF231F3CFFBF85FF0FC00FE00F4026
:00000001FF
