:0400000050EF00F0CD
:100008005F82FACFA7F0FBCFA8F0E9CFA9F0EACF3B
:10001800AAF0E1CFABF0E2CFACF0D9CFADF0DACFB8
:10002800AEF0F3CFAFF0F4CFB0F0F6CFB1F0F7CF3A
:10003800B2F0F8CFB3F0F5CFB4F0F0B6F0A003D03B
:1000480002EC16F00BD0F2B8F2A203D09AEC11F041
:1000580005D0F2BAF2A402D083EC18F0B4C0F5FFD0
:10006800B3C0F8FFB2C0F7FFB1C0F6FFB0C0F4FFED
:10007800AFC0F3FFAEC0DAFFADC0D9FFACC0E2FF3E
:10008800ABC0E1FFAAC0EAFFA9C0E9FFA8C0FBFF17
:0C009800A7C0FAFF5F921100E2EF17F022
:1006000000010000000A00000064000000E8030090
:100610000010270000A086010040420F008096983D
:100620000000E1F50500CA9A3B00803FCDCC3DD7E4
:10063000233C12833AB7D138C62737388635C0D61F
:1006400033CC2B32708930E7DB2EE53C1E42A20D05
:1006500000803F00204100C842007A44401C4650C0
:10066000C34724744997184BBCBE4C6B6E4E0315A0
:100670005079AD60F3497100003F9AF940DCD842EF
:10068000708A45C0DA47000102030402030304052F
:100690000D0A53657474696E672072616E67652018
:1006A0003D2025640D0A0052616E67652025642097
:1006B00028256429256420256300433D45525220A6
:1006C0002F204F5645524C4F414400256C752E2526
:1006D000362E366C7500433D2531322E33666E461C
:1006E00000433D2531322E3066704600433D2531B2
:1006F000322E366675460000EDEF0BF0250E000138
:100700007A19D8B436D020EE02F04650D926475098
:10071000DA22DE50DE10D8B415D020EE02F04650BA
:10072000D9264750DA2202D8EDEF0BF00500FA6E19
:10073000DE50FD6EDE50FE6EF850FF6EFA50000186
:100740007A51120046C0D9FF47C0DAFFDECF4CF025
:10075000DDCF4DF04CC0D9FF4DC0DAFF7AC0DFFFCE
:1007600046C0D9FF47C0DAFFDE2A000EDD22EDEFDA
:100770000BF0000E0001706F000E6F6F000E000195
:10078000686F000E676F48C0F6FF49C0F7FF0800AA
:10079000F5501AEC19F0D8A035D0000E0001706F9A
:1007A000000E6F6F6FC00FF070C010F0000E126E71
:1007B0000A0E116EC4EC18F00FC06FF010C070F08C
:1007C000D00E4C6EFF0E4D6E48C0F6FF49C0F7FFCD
:1007D0000800F5504E6E4F6A4C504E264D504F2239
:1007E0004E5000016F274F5000017023484A492A9C
:1007F00048C0F6FF49C0F7FF0800F5501AEC19F0A1
:10080000D8B0D0D748C0F6FF49C0F7FF0800F55070
:100810002E0AD8A432D00001688D484A492A000E19
:100820000001796F000E786F1DD078C00FF079C08D
:1008300010F0000E126E0A0E116EC4EC18F048C0D3
:10084000F6FF49C0F7FF0800F5500F26000E1022F2
:10085000D00E0F240001786FFF0E10200001796F79
:10086000484A492A48C0F6FF49C0F7FF0800F5503A
:100870001AEC19F0D8A0EAD0D8D7000E0001796F91
:10088000000E786F00016889E1D000016789DED031
:1008900000016885FDD00001785100017911D8B4BC
:1008A0000ED0000165510001785D00016651000124
:1008B0007959D8B004D078C065F079C066F00001ED
:1008C0006F510001655D0001705100016659D8B09B
:1008D00009D00001655100016F5F00016651000100
:1008E000705B38D0000E0001706F000E6F6F32D059
:1008F00020EE02F04650D9264750DA22DE50DE10B4
:10090000D8B413D020EE02F04650D9264750DA2250
:1009100001D820D00500FA6EDE50FD6EDE50FE6E6E
:10092000F850FF6EFA50200E120046C0D9FF47C0A3
:10093000DAFFDECF4CF0DDCF4DF04CC0D9FF4DC01B
:10094000DAFF200EDF6E46C0D9FF47C0DAFFDE2A8D
:10095000000EDD2200016F07D8A0700700016F298B
:10096000C7E100017029D8B442D0C2D720EE02F00E
:100970004650D9264750DA22DE50DE10D8B41BD0BC
:1009800020EE02F04650D9264750DA2201D80FD087
:100990000500FA6EDE50FD6EDE50FE6EF850FF6E02
:1009A000FA5063C0D9FF64C0DAFFDF5012000001C3
:1009B000634B642B1CD063C0D9FF64C0DAFF46C010
:1009C000E1FF47C0E2FFE6CF4CF0E5CF4DF04CC071
:1009D000E1FF4DC0E2FFDFCFE7FF0001634B642B77
:1009E00046C0D9FF47C0DAFFDE2A000EDD22000133
:1009F0006507D8A0660700016529B8E100016629EE
:100A0000D8B4EDEF0BF0B2D74AC0D9FF4BC0DAFF34
:100A1000DFCF4CF0020EDE26DFCF4DF0000EDD22E0
:100A20004CC0D9FF4DC0DAFFDF5000017A6F7A0E5B
:100A30000001636F000E0001646F000E0001666F1D
:100A4000010E656F28D70001678D22D048C0F6FFE0
:100A500049C0F7FF484A492A0800F5CF7AF000015B
:100A60007A51000AD8B4FBEF0BF0630AD8B4CCD7A4
:100A7000070AD8B40DD0020AD8B40AD70F0AD8B4DE
:100A800007D0050AD8B401D7190AD8B4DCD7CFD714
:100A9000070E00016815D8B4C4EF09F0000168A979
:100AA00005D0000E0001796F060E786F4AC0D9FF9D
:100AB0004BC0DAFFDFCF4CF0030EDE26DFCF4DF068
:100AC000000EDD224CC0D9FF4DC0DAFFDECF75F03D
:100AD000DECF76F0DDCF77F0000177AF11D075C0B3
:100AE00001F076C002F077C003F0E9EC18F001C025
:100AF00075F002C076F003C077F0030E00016713B3
:100B0000000E00016A6F000E696F0001755100014F
:100B1000761100017711D8B48BD0820E4C6EFF0E87
:100B20004D6E75C04EF076C04FF077C050F078C073
:100B300051F0100E05D0D890513250324F324E3213
:100B4000E82EF9D74E504C240001696F000E4D205D
:100B500000016A6F00016907D8A06A0769C00FF039
:100B60006AC010F0000E126E030E116EC4EC18F085
:100B70000FC069F010C06AF069C007F06AC008F0E1
:100B8000000E0A6E0A0E096E7FEC15F007C069F0C0
:100B900008C06AF000016AAF04D000016907D8A05C
:100BA0006A0700016951000800EC0CF030C071F0D8
:100BB00031C072F032C073F071C021F072C022F007
:100BC00073C023F075C024F076C025F077C026F0FE
:100BD00079EC13F021C071F022C072F023C073F0E1
:100BE00071C001F072C002F073C003F0000E046E19
:100BF000800E056E3F0E066E37EC15F0D8B005D0AE
:100C000000016907D8A06A0713D071C001F072C053
:100C100002F073C003F0000E046E200E056E410E4C
:100C2000066E37EC15F0D8A003D00001694B6A2B93
:100C3000000179BF08D0000179511DE10D0E0001BE
:100C4000785DD8B018D075C015F076C016F077C0B2
:100C500017F000017851F8EC0DF030C018F031C0F9
:100C600019F032C01AF0F2EC0FF015C075F016C092
:100C700076F017C077F000016ABF08D000016A5112
:100C800026E10A0E0001695DD8B021D0000175513E
:100C90000001761100017711D8B45BD075C037F030
:100CA00076C038F077C039F0F3EC13F037503810D5
:100CB00039103A10D8A44DD000016ABF4AD00001C3
:100CC0006A5105E1020E0001695DD8A042D071C0F1
:100CD00001F072C002F073C003F0700E046E890E52
:100CE000056E400E066E37EC15F0D8B003D000014B
:100CF000F70E02D00001F80E6927FF0E6A230001EB
:100D0000695100EC0CF030C071F031C072F032C0AB
:100D100073F075C001F076C002F077C003F071C0C7
:100D200004F072C005F073C006F04CEC12F001C084
:100D30006BF002C06CF003C06DF004C06EF0000EEA
:100D40000001756F000E0001766F000E0001776FD5
:100D500033D075C037F076C038F077C039F0F3EC97
:100D600013F037C06BF038C06CF039C06DF03AC08A
:100D70006EF075C021F076C022F077C023F06BC012
:100D800009F06CC00AF06DC00BF06EC00CF0E6EC20
:100D900016F009C024F00AC025F00BC026F0C2EC02
:100DA00017F021C075F022C076F023C077F0000E56
:100DB00000016A6F000E696F010E00017A6F0A0E62
:100DC00000017A19D8B41ED000017A51040D010E29
:100DD000F324F66E060EF420F76E0900F5500001BC
:100DE0006B5D0900F55000016C590900F5500001D8
:100DF0006D590900F55000016E59D8A003D00001CB
:100E00007A2BDDD77AC04CF04D6A4CBE4D060001FE
:100E100078514C26000179514D22000169514C2630
:100E200000016A514D224C5000016F5F4D5000018E
:100E3000705B0001785100017911D8B404D0000131
:100E40006F07D8A07007030E000167154C6E000EE7
:100E5000000168154D6E4C504D10D8B437D032D0CB
:100E600020EE02F04650D9264750DA22DE50DE103E
:100E7000D8B413D020EE02F04650D9264750DA22DB
:100E800001D820D00500FA6EDE50FD6EDE50FE6EF9
:100E9000F850FF6EFA50200E120046C0D9FF47C02E
:100EA000DAFFDECF4CF0DDCF4DF04CC0D9FF4DC0A6
:100EB000DAFF200EDF6E46C0D9FF47C0DAFFDE2A18
:100EC000000EDD2200016F07D8A07007000170BF7F
:100ED00007D000017051C4E100016F05D8B0C0D740
:100EE000030E000167154C6E000E000168154D6E73
:100EF0004C504D10D8B4A4D020EE02F04650D92664
:100F00004750DA22DE50DE10D8B413D020EE02F0C3
:100F10004650D9264750DA2201D892D00500FA6E01
:100F2000DE50FD6EDE50FE6EF850FF6EFA502D0E54
:100F3000120046C0D9FF47C0DAFFDECF4CF0DDCF4C
:100F40004DF04CC0D9FF4DC0DAFF2D0E77D046C012
:100F5000D9FF47C0DAFFDE2A000EDD2271D06BC058
:100F600001F06CC002F06DC003F06EC004F000012F
:100F70007A51040D010EF324F66E060EF420F76E7E
:100F80000900F5CF05F00900F5CF06F00900F5CF0F
:100F900007F00A00F5CF08F0C1EC15F001C071F0C0
:100FA00002C072F003C073F004C074F071C00EF0A0
:100FB00072C00FF073C010F074C011F00A0E126E00
:100FC000000E136E000E146E000E156EB3EC16F0CC
:100FD0000EC071F00FC072F010C073F011C074F049
:100FE00020EE02F04650D9264750DA22DE50DE10BD
:100FF000D8B415D020EE02F04650D9264750DA2258
:1010000001D81ED00500FA6EDE50FD6EDE50FE6E79
:10101000F850FF6EFA5000017151300F12000001BC
:101020007151300F46C0D9FF47C0DAFFDECF4CF018
:10103000DDCF4DF04CC0D9FF4DC0DAFFDF6E87D752
:1010400000017A0700017A29D8B437D088D720EE7A
:1010500002F04650D9264750DA22DE50DE10D8B4CE
:1010600013D020EE02F04650D9264750DA2201D89C
:1010700020D00500FA6EDE50FD6EDE50FE6EF85098
:10108000FF6EFA50300E120046C0D9FF47C0DAFF9B
:10109000DECF4CF0DDCF4DF04CC0D9FF4DC0DAFFB4
:1010A000300EDF6E46C0D9FF47C0DAFFDE2A000EE1
:1010B000DD2200016907D8A06A0700016ABF07D0D6
:1010C00000016A51C4E100016905D8B0C0D7000130
:1010D00079BF0CD00001795105E1090E0001785D5E
:1010E000D8A004D0080E00017A6F02D078C07AF040
:1010F00000017A510001785F000E00017ABFFF0EF7
:101100000001795B00017A510001D8B432D020EEA1
:1011100002F04650D9264750DA22DE50DE10D8B40D
:1011200013D020EE02F04650D9264750DA2201D8DB
:1011300020D00500FA6EDE50FD6EDE50FE6EF850D7
:10114000FF6EFA502E0E120046C0D9FF47C0DAFFDC
:10115000DECF4CF0DDCF4DF04CC0D9FF4DC0DAFFF3
:101160002E0EDF6E46C0D9FF47C0DAFFDE2A000E22
:10117000DD2200017A5100EC0CF030C060F031C08B
:1011800061F032C062F075C024F076C025F077C0FF
:1011900026F060C021F061C022F062C023F079EC3B
:1011A00013F021C037F022C038F023C039F0F3EC3F
:1011B00013F037C06BF038C06CF039C06DF03AC036
:1011C0006EF09ED06BC001F06CC002F06DC003F0F9
:1011D0006EC004F000017A51040D010EF324F66E86
:1011E000060EF420F76E0900F5CF05F00900F5CFE3
:1011F00006F00900F5CF07F00A00F5CF08F0C1ECC2
:1012000015F001C071F002C072F003C073F004C0A9
:1012100074F071C00EF072C00FF073C010F074C0A3
:1012200011F00A0E126E000E136E000E146E000EF8
:10123000156EB3EC16F00EC071F00FC072F010C056
:1012400073F011C074F020EE02F04650D9264750DA
:10125000DA22DE50DE10D8B415D020EE02F046506F
:10126000D9264750DA2201D824D00500FA6EDE5084
:10127000FD6EDE50FE6EF850FF6EFA5000017151A7
:10128000300F120000017151300F46C0D9FF47C026
:10129000DAFFDECF4CF0DDCF4DF04CC0D9FF4DC0B2
:1012A000DAFFDF6E46C0D9FF47C0DAFFDE2A000E44
:1012B000DD226BC00EF06CC00FF06DC010F06EC080
:1012C00011F000017A51040D010EF324F66E060EA2
:1012D000F420F76E0900F5CF12F00900F5CF13F0F6
:1012E0000900F5CF14F00A00F5CF15F0B3EC16F0B5
:1012F0000EC06BF00FC06CF010C06DF011C06EF03E
:1013000000017A0700017A29D8B437D05BD720EEE4
:1013100002F04650D9264750DA22DE50DE10D8B40B
:1013200013D020EE02F04650D9264750DA2201D8D9
:1013300020D00500FA6EDE50FD6EDE50FE6EF850D5
:10134000FF6EFA50300E120046C0D9FF47C0DAFFD8
:10135000DECF4CF0DDCF4DF04CC0D9FF4DC0DAFFF1
:10136000300EDF6E46C0D9FF47C0DAFFDE2A000E1E
:10137000DD2200017807D8A079070001785100012B
:101380007911D8B42AD2C3D7000167BD46D0000175
:1013900067A919D04AC0D9FF4BC0DAFFDFCF4CF0A4
:1013A000040EDE26DFCF4DF0000EDD224CC0D9FF4B
:1013B0004DC0DAFFDECF6BF0DECF6CF0DECF6DF02C
:1013C000DECF6EF01AD04AC0D9FF4BC0DAFFDFCFB4
:1013D0004CF0020EDE26DFCF4DF0000EDD224CC0B9
:1013E000D9FF4DC0DAFFDECF6BF0DDCF6CF000012E
:1013F000000E6CBFFF0E6D6F6E6F00016EAF44D0BC
:10140000030E0001671300016E1F6D1F6C1F6B6DD3
:10141000000E6C236D236E2337D0000167A919D00D
:101420004AC0D9FF4BC0DAFFDFCF4CF0040EDE26F6
:10143000DFCF4DF0000EDD224CC0D9FF4DC0DAFFEA
:10144000DECF6BF0DECF6CF0DECF6DF0DECF6EF076
:101450001BD04AC0D9FF4BC0DAFFDFCF4CF0020EE1
:10146000DE26DFCF4DF0000EDD224CC0D9FF4DC08F
:10147000DAFFDECF4EF0DDCF4FF04EC06BF04FC045
:101480006CF000016D6B6E6B0001785100017911F9
:10149000D8A40DD000016B5100016C1100016D1139
:1014A00000016E11D8A403D00001784B792B010EF6
:1014B00000017A6F0A0E00017A19D8B41ED000011B
:1014C0007A51040D010EF324F66E060EF420F76E29
:1014D0000900F55000016B5D0900F55000016C59E1
:1014E0000900F55000016D590900F55000016E59D1
:1014F000D8A003D000017A2BDDD7800E00017ABF7F
:101500007F0E4C6E0001785100017A5D0001795127
:10151000800A4C58D8B003D078C07AF016D00001B9
:101520007951800A4C6E00017A510001785D800E7D
:1015300000017ABF7F0E4C58D8B007D000017A5115
:101540000001786F796B78BF790700016F51000156
:101550007011D8B410D0030E000167154C6E000E48
:10156000000168154D6E4C504D10D8B404D00001E8
:101570006F07D8A07007000168AD1CD000016F5143
:101580000001785D00017951800A4C6E00017051B4
:10159000800A4C58D8B009D00001785100016F5F23
:1015A000000179510001705B05D0000E0001706FE1
:1015B000000E6F6F800E00017ABF7F0E4C6E00012F
:1015C0006F5100017A5D00017051800A4C58D8B00B
:1015D0000BD000017A5100016F5F000E00017ABF4D
:1015E000FF0E0001705B05D0000E0001706F000E51
:1015F0006F6F00016F5100017011D8B43CD020EE24
:1016000002F04650D9264750DA22DE50DE10D8B418
:1016100013D020EE02F04650D9264750DA2201D8E6
:1016200020D00500FA6EDE50FD6EDE50FE6EF850E2
:10163000FF6EFA50200E120046C0D9FF47C0DAFFF5
:10164000DECF4CF0DDCF4DF04CC0D9FF4DC0DAFFFE
:10165000200EDF6E46C0D9FF47C0DAFFDE2A000E3B
:10166000DD2200016F07D8A0700700016F51000153
:101670007011D8A4C4D7030E000167154C6E000E7C
:10168000000168154D6E4C504D10D8B49BD020EE23
:1016900002F04650D9264750DA22DE50DE10D8B488
:1016A00013D020EE02F04650D9264750DA2201D856
:1016B00089D00500FA6EDE50FD6EDE50FE6EF850E9
:1016C000FF6EFA502D0E120046C0D9FF47C0DAFF58
:1016D000DECF4CF0DDCF4DF04CC0D9FF4DC0DAFF6E
:1016E0002D0EDF6E68D078C04CF079C04DF0D890E8
:1016F0004C364D36D8904C364D36010E4C24F66E95
:10170000060E4D20F76E0900F5CF05F00900F5CF64
:1017100006F00900F5CF07F00A00F5CF08F06BC01E
:1017200001F06CC002F06DC003F06EC004F0C1ECBB
:1017300015F001C00EF002C00FF003C010F004C09D
:1017400011F00A0E126E000E136E000E146E000ED3
:10175000156EB3EC16F00E50300F00017A6F20EECC
:1017600002F04650D9264750DA22DE50DE10D8B4B7
:1017700014D020EE02F04650D9264750DA2201D884
:1017800021D00500FA6EDE50FD6EDE50FE6EF85080
:10179000FF6EFA5000017A51120046C0D9FF47C0CF
:1017A000DAFFDECF4CF0DDCF4DF04CC0D9FF4DC09D
:1017B000DAFF7AC0DFFF46C0D9FF47C0DAFFDE2A72
:1017C000000EDD2200017807D8A0790700017829F2
:1017D0008AE100017929D8A486D748C0F6FF49C01C
:1017E000F7FF484A492A0800F5CF7AF000017A51FC
:1017F000D8A47EEF03F0000E476E000E466E120076
:10180000366E36AEFBD0366C3650800A120FD8A03A
:1018100091D0000E126E030E116E000E0A6E0A0EAB
:10182000096E000E046E640E036E3650016E026A7D
:1018300001BE02067BEC16F001C007F002C008F002
:101840007FEC15F0090E07240F6E000E0820106EB5
:10185000C4EC18F0290E0F24F66E060E1020F76E59
:101860000900F5CF24F00900F5CF25F00A00F5CFE7
:1018700026F0000E0A6E640E096E3650076E086A76
:1018800007BE08067FEC15F0120E07240F6E000E3F
:101890000820106E000E126E030E116EC4EC18F0CC
:1018A000290E0F24F66E060E1020F76E0900F5CFF4
:1018B00021F00900F5CF22F00A00F5CF23F079ECF2
:1018C00013F021C033F022C034F023C035F033C010
:1018D00021F034C022F035C023F0000E126E030E4A
:1018E000116E000E046E0A0E036E3650016E026A0F
:1018F00001BE02067BEC16F001C00FF002C010F032
:10190000C4EC18F0290E0F24F66E060E1020F76EA8
:101910000900F5CF24F00900F5CF25F00A00F5CF36
:1019200026F079EC13F021C030F022C031F023C052
:1019300032F012003650800A750FD8A04DD0000E3C
:101940000A6E0A0E096E3650076E086A07BE080650
:101950007FEC15F0090E07240F6E000E0820106EA4
:10196000000E126E030E116EC4EC18F0290E0F2437
:10197000F66E060E1020F76E0900F5CF21F0090073
:10198000F5CF22F00A00F5CF23F0000E126E030E01
:10199000116E000E046E0A0E036E3650016E026A5E
:1019A00001BE02067BEC16F001C00FF002C010F081
:1019B000C4EC18F0290E0F24F66E060E1020F76EF8
:1019C0000900F5CF24F00900F5CF25F00A00F5CF86
:1019D00026F079EC13F0A7D73650030D290EF32427
:1019E000F66E060EF420F76E0900F5CF30F0090010
:1019F000F5CF31F00A00F5CF32F012003650800AF0
:101A0000120FD8A091D0000E126E030E116E000EB0
:101A10000A6E0A0E096E000E046E640E036E3650D6
:101A2000016E026A01BE02067BEC16F001C007F0EF
:101A300002C008F07FEC15F0090E07240F6E000EAF
:101A40000820106EC4EC18F0500E0F24F66E060E2F
:101A50001020F76E0900F5CF24F00900F5CF25F02E
:101A60000A00F5CF26F0000E0A6E640E096E36509D
:101A7000076E086A07BE08067FEC15F0120E0724F1
:101A80000F6E000E0820106E000E126E030E116E07
:101A9000C4EC18F0500E0F24F66E060E1020F76EF0
:101AA0000900F5CF21F00900F5CF22F00A00F5CFAB
:101AB00023F079EC13F021C033F022C034F023C0BE
:101AC00035F033C021F034C022F035C023F0000ED1
:101AD000126E030E116E000E046E0A0E036E365067
:101AE000016E026A01BE02067BEC16F001C00FF027
:101AF00002C010F0C4EC18F0500E0F24F66E060E63
:101B00001020F76E0900F5CF24F00900F5CF25F07D
:101B10000A00F5CF26F079EC13F021C030F022C096
:101B200031F023C032F012003650800A750FD8A071
:101B30004DD0000E0A6E0A0E096E3650076E086A06
:101B400007BE08067FEC15F0090E07240F6E000E85
:101B50000820106E000E126E030E116EC4EC18F009
:101B6000500E0F24F66E060E1020F76E0900F5CF0A
:101B700021F00900F5CF22F00A00F5CF23F0000E86
:101B8000126E030E116E000E046E0A0E036E3650B6
:101B9000016E026A01BE02067BEC16F001C00FF076
:101BA00002C010F0C4EC18F0500E0F24F66E060EB2
:101BB0001020F76E0900F5CF24F00900F5CF25F0CD
:101BC0000A00F5CF26F079EC13F0A7D73650030DB5
:101BD000500EF324F66E060EF420F76E0900F5CFD2
:101BE00030F00900F5CF31F00A00F5CF32F01200E5
:101BF000396E6D0E39649FD0000E126E030E116E99
:101C0000000E0A6E0A0E096E000E046E640E036E5C
:101C100039C001F0026A7BEC16F001C007F002C087
:101C200008F07FEC15F0090E07240F6E000E082057
:101C3000106EC4EC18F0290E0F24F66E060E10205C
:101C4000F76E0900F5CF24F00900F5CF25F00A0062
:101C5000F5CF26F0000E0A6E640E096E39C007F04B
:101C6000086A7FEC15F0120E07240F6E000E082094
:101C7000106E000E126E030E116EC4EC18F0290ED9
:101C80000F24F66E060E1020F76E0900F5CF21F036
:101C90000900F5CF22F00A00F5CF23F079EC13F01C
:101CA00021C036F022C037F023C038F0000E126E8B
:101CB000030E116E000E046E0A0E036E39C001F0A1
:101CC000026A7BEC16F001C00FF002C010F0C4EC09
:101CD00018F0290E0F24F66E060E1020F76E09007C
:101CE000F5CF24F00900F5CF25F00A00F5CF26F056
:101CF00036C021F037C022F038C023F079EC13F061
:101D000021C033F022C034F023C035F033C021F0BD
:101D100034C022F035C023F0000E246E000E256E74
:101D20003F0E266E79EC13F021C030F022C031F066
:101D300023C032F012000A0E39645DD0000E126E1C
:101D4000030E116E000E046E0A0E036E39C001F010
:101D5000026A7BEC16F001C00FF002C010F0C4EC78
:101D600018F0290E0F24F66E060E1020F76E0900EB
:101D7000F5CF24F00900F5CF25F00A00F5CF26F0C5
:101D8000000E0A6E0A0E096E39C007F0086A7FEC71
:101D900015F0090E07240F6E000E0820106E000EBD
:101DA000126E030E116EC4EC18F0290E0F24F66E9D
:101DB000060E1020F76E0900F5CF21F00900F5CFCF
:101DC00022F00A00F5CF23F079EC13F021C036F0B1
:101DD00022C037F023C038F036C021F037C022F0DF
:101DE00038C023F0000E246E000E256E3F0E266EC6
:101DF00079EC13F099D73950030D290EF324F66EC0
:101E0000060EF420F76E0900F5CF21F00900F5CF9A
:101E100022F00A00F5CF23F0000E246E000E256E8E
:101E20003F0E266E79EC13F021C030F022C031F065
:101E300023C032F012000001CF29D8A404D0200E14
:101E40000001CF6F02D00001CF69B5C001F0B6C06C
:101E500002F0B7C003F0240E046E740E056E490E36
:101E6000066E37EC15F0D8A023D0970E00017B6FDB
:101E7000000E00017C6FEC0E00017D6F060E00016C
:101E80007E6FB5C030F0B6C031F0B7C032F0240E6E
:101E9000336E740E346E490E356E6DEC14F030C036
:101EA0007FF031C080F032C081F080EC17F069D053
:101EB000B5C001F0B6C002F0B7C003F0240E046E46
:101EC000740E056E490E066E37EC15F0D8B033D09F
:101ED000B5C001F0B6C002F0B7C003F0000E046E4A
:101EE0007A0E056E440E066E37EC15F0D8A023D09E
:101EF000970E00017B6F000E00017C6FD60E000173
:101F00007D6F060E00017E6FB5C030F0B6C031F0B7
:101F1000B7C032F0000E336E7A0E346E440E356E5A
:101F20006DEC14F030C07FF031C080F032C081F031
:101F300080EC17F026D00001B7AF0FD0970E00014C
:101F40007B6F000E00017C6FBA0E00017D6F060EE4
:101F500000017E6F80EC17F014D0970E00017B6FAC
:101F6000000E00017C6FE10E00017D6F060E000186
:101F70007E6FB5C07FF0B6C080F0B7C081F080EC56
:101F800017F0870E00017B6F000E00017C6FA70E1B
:101F900000017D6F060E00017E6FCEC07FF0000154
:101FA000806BCDC081F00001826BBAC083F000016C
:101FB000846BCFC085F00001866B80EC17F0010EBA
:101FC000096E970E0A6E000E0B6E010E36EC19F0BC
:101FD000020E096E870E0A6E000E0B6E010E36ECB5
:101FE00019F0120017C01BF01C6A1D6A16341B364C
:101FF00001E31C801B50206E1AC01BF01C6A1D6A76
:1020000019341B3601E31C801B501F6E2050D8B4BE
:102010000BD01F50205CD8B00ED0205000081F24D9
:102020001B6E180E1B6407D018C015F019C016F0EF
:102030001AC017F012001F50D8B40BD020501F5CEC
:10204000D8B00ED01F50000820241B6E180E1B6441
:1020500007D015C015F016C016F017C017F0120003
:10206000060E1E6E17BE1E8E1ABE1E8C168EFF0E1C
:102070001516FF0E1616000E1716198EFF0E1816DF
:10208000FF0E1916000E1A161F50205CD8B01BD078
:10209000D890183619361A361F0620501F18D8B493
:1020A0000DD01E061EC01BF0070E1B16D8B406D09E
:1020B000EFD7D890173216321532202A1F50201829
:1020C000D8B41FD0F6D720501F5CD8B01AD0D89003
:1020D000153616361736200620501F18D8B40DD0E6
:1020E0001E061EC01BF0070E1B16D8B406D0EFD775
:1020F000D8901A32193218321F2A1F502018D8A42B
:10210000F7D71EAE0CD0FF0E151AFF0E161AFF0ED3
:10211000171A010E1526000E1622000E17221EACED
:102120000CD0FF0E181AFF0E191AFF0E1A1A010E04
:102130001826000E1922000E1A22000E1E6E1550CF
:1021400018261650192217501A221AAE0ED0FF0E5A
:10215000181AFF0E191AFF0E1A1A010E1826000E71
:102160001922000E1A22010E1E6E18C001F019C0AD
:1021700002F01AC003F020C004F01EC005F0E0EC2D
:1021800014F001C015F002C016F003C017F01200E1
:102190000B6E8A0EF66E060EF76E0800F5CF01F094
:1021A000010E026E012A02D0D8900236012EFCD711
:1021B000890EF66E060EF76E0800F5CF03F0010EDD
:1021C000046E032A02D0D8900436032EFCD7880E62
:1021D000F66E060EF76E0800F5CF05F0010E066EDE
:1021E000052A02D0D8900636052EFCD7870EF66E4B
:1021F000060EF76E0800F5CF07F0010E086E072AED
:1022000002D0D8900836072EFCD7860EF66E060E42
:10221000F76E0800F5CF09F0010E0A6E092A02D008
:10222000D8900A36092EFCD70A5008100610041060
:1022300002108B128F0EF66E060EF76E0800F5CFA9
:1022400001F0010E026E012A02D0D8900236012E52
:10225000FCD78E0EF66E060EF76E0800F5CF03F073
:10226000010E046E032A02D0D8900436032EFCD748
:102270008C0EF66E060EF76E0800F5CF05F0010E17
:10228000066E052A02D0D8900636052EFCD78B0E96
:10229000F66E060EF76E0800F5CF07F0010E086E19
:1022A000072A02D0D8900836072EFCD7085006100F
:1022B000041002108A12FF0E016EFF0E026E0B5008
:1022C000036E046A0150032602500422860E032482
:1022D000F66E060E0420F76E0800F5CF05F0010E2D
:1022E000066E052A02D0D8900636052EFCD7065079
:1022F000FF0A8B16FF0E016EFF0E026E0B50036E6F
:10230000046A01500326025004228B0E0324F66E49
:10231000060E0420F76E0800F5CF05F0010E066EDC
:10232000052A02D0D8900636052EFCD70650FF0AA3
:102330008A1612005E04D8A402D08B9E12007EEC96
:1023400019F0A1EC17F001C0B8F002C0B9F08B8E03
:10235000A40E336E400E346E400E356E000E126EBB
:10236000030E116EFF0E0001CE250F6E106AFF0ED8
:102370001022C4EC18F0770E0F24F66E060E102013
:10238000F76E0900F5CF24F00900F5CF25F00A001B
:10239000F5CF26F0000E186ED80E196EC10E1A6E0B
:1023A000B8C009F0B9C00AF0D7EC18F009C015F0B0
:1023B0000AC016F00BC017F0F2EC0FF015C021F0B8
:1023C00016C022F017C023F079EC13F021C030F0D2
:1023D00022C031F023C032F06DEC14F030C059F05F
:1023E00031C05AF032C05BF0B5C015F0B6C016F07F
:1023F000B7C017F059C018F05AC019F05BC01AF0F6
:10240000F2EC0FF015C0B5F016C0B6F017C0B7F07B
:102410000001BA2B0A0E0001BA19D8A419D0B5C010
:1024200030F0B6C031F0B7C032F0000E336E200E7F
:10243000346E410E356E6DEC14F030C0B5F031C025
:10244000B6F032C0B7F01BEC0FF0000E0001BA6F0F
:102450000001CD05D8A412D0E80E0001B85D030E2E
:102460000001B959D8B00AD0020E0001CE6506D0DD
:102470000001CE070001CE51C8EC10F0340E586EAA
:10248000F20EE82EFED7582EFCD773EC19F08B9E77
:102490007CEC19F0F292120003C007F0086A096A96
:1024A0000234073601E3088007500F6E0F50D8A49E
:1024B00009D0000E016E000E026E000E036E000EBB
:1024C000046E120006C007F0086A096A0534073670
:1024D00001E3088007500E6E0E50D8A409D0000EFC
:1024E000016E000E026E000E036E000E046E1200EE
:1024F000028EFF0E0116FF0E0216000E0316058E49
:10250000FF0E0416FF0E0516000E0616000E0A6ECC
:10251000000E0B6E000E0C6E000E0D6E7F0E0F5E29
:102520000E50980F0F5E180E0E6ED8900A360B36AE
:102530000C360D360450015C055002580650035805
:10254000D8A007D00450015E0550025A0650035A25
:102550000A80D8900136023603360E2EE6D70FAE2B
:1025600016D00F50800A970FD8B009D0000E016E18
:10257000000E026E000E036E000E046E1200D89064
:102580000D320C320B320A320F3EF9D715D0170E2E
:102590000F640FD0000E016E000E026E000E036E6F
:1025A000000E046E1200D8900A360B360C360D362B
:1025B0000F060F50D8A4F7D70AC001F00BC002F0E5
:1025C0000CC003F00DC004F01200033404340C6E90
:1025D0000C50D8A409D0000E016E000E026E000E41
:1025E000036E000E046E1200063407340B6E0B509F
:1025F000D8A409D0000E016E000E026E000E036E0C
:10260000000E046E1200038EFF0E0116FF0E02165E
:10261000FF0E0316000E0416068EFF0E0416FF0EA4
:102620000516FF0E0616000E0716000E076E000EAA
:10263000086E000E096E000E0A6E7F0E0C5E0B50C7
:10264000A00F0C5E200E0B6ED890073608360936A8
:102650000A360450015C05500258065003580750D2
:102660000458D8A009D00450015E0550025A065003
:10267000035A0750045A0780D890013602360336B1
:1026800004360B2EE1D70CAE16D00C50800A9F0FEB
:10269000D8B009D0000E016E000E026E000E036E5F
:1026A000000E046E1200D8900A3209320832073246
:1026B0000C3EF9D715D01F0E0C640FD0000E016E22
:1026C000000E026E000E036E000E046E1200D89013
:1026D0000736083609360A360C060C50D8A4F7D748
:1026E00007C001F008C002F009C003F00AC004F0FE
:1026F000120023C027F0286A296A2234273601E312
:10270000288027502A6E2A50D8A407D0000E216EA8
:10271000000E226E000E236E120026C027F0286ADB
:10272000296A2534273601E3288027502F6E2F5041
:10273000D8A407D0000E216E000E226E000E236E6C
:1027400012002F507B0F2A2623C02FF026502F1A5D
:10275000800E2F16228E258EFF0E2416FF0E2516B4
:10276000000E2616000E2B6E000E2C6E000E2D6E27
:10277000070E2E6E21A006D024502B2625502C2289
:1027800026502D22D890233222322132D89024365E
:10279000253626362E2EEED7090E2E6E21A006D017
:1027A00024502B2625502C2226502D22D89023321F
:1027B00022322132D8902D322C322B322E2EEED7CF
:1027C0002BC001F02CC002F02DC003F02AC004F091
:1027D0002FC005F0E0EC14F001C021F002C022F09F
:1027E00003C023F0120039C03BF03C6A3D6A383424
:1027F0003B3601E33C803B50456E4550D8A409D0A0
:10280000000E376E000E386E000E396E000E3A6EF6
:102810001200170E3B6E37C03CF038C03DF039C097
:102820003EF03B283F6E04D0D8903E323D323C32E1
:102830003F2EFAD73C50406E388EFF0E3716FF0EF3
:102840003816000E39163750416E3850426E3950E6
:10285000436E446A8E0E455E45AE16D04550800AE2
:102860008F0FD8B009D0000E376E000E386E000EF4
:10287000396E000E3A6E1200D89044324332423222
:102880004132453EF9D715D0170E45640FD0000EE2
:10289000376E000E386E000E396E000E3A6E120062
:1028A000D890413642364336443645064550D8A482
:1028B000F7D74050D8B408D0441E431E421E416C86
:1028C000000E42224322442241C037F042C038F079
:1028D00043C039F044C03AF0120032C036F0376AD3
:1028E000386A3134363601E3378036503D6E3D501C
:1028F000D8A407D0000E306E000E316E000E326E7E
:10290000120035C036F0376A386A3434363601E39F
:10291000378036503E6E3E50D8A407D0000E306E41
:10292000000E316E000E326E1200000E3A6E000E76
:102930003B6E000E3C6E3E50890F3D5E32C03EF055
:1029400035503E1A800E3E16318EFF0E3016FF0EA9
:102950003116000E3216348EFF0E3316FF0E34166B
:10296000000E3516180E396ED8903A363B363C3686
:102970003350305C3450315835503258D8A007D0DD
:102980003350305E3450315A3550325A3A80D890F4
:10299000303631363236392EE7D73AC001F03BC0F7
:1029A00002F03CC003F03DC004F03EC005F0E0EC96
:1029B00014F001C030F002C031F003C032F0120058
:1029C0000450D8B405D0015002100310D8A40CD084
:1029D000000E016E000E026E000E036E1200042A3D
:1029E000D890033202320132000E0114066E000E3E
:1029F0000214076EFE0E0314086E0650071008102E
:102A0000D8B40CD0ECD7042A010E0126000E022205
:102A1000000E0322D890033202320132000E01145C
:102A2000066E000E0214076EFF0E0314086E0650A9
:102A300007100810D8B406D0E6D70406D89001369F
:102A40000236033602BE03D0020E0460F6D704A09D
:102A5000029ED8900432045003120550D8A4038E6D
:102A600001C001F002C002F003C003F0120003AE87
:102A700016D001C007F002C008F003C009F0071E1D
:102A8000081E091E072A000E08220922000E07242C
:102A9000016E000E0820026E800E0920036E06AE45
:102AA00016D004C007F005C008F006C009F0071EE4
:102AB000081E091E072A000E08220922000E0724FC
:102AC000046E000E0820056E800E0920066E000EB2
:102AD000011A000E021A800E031A000E041A000ECC
:102AE000051A800E061A0450015C05500258065063
:102AF0000358D8B002D0D8901200D8801200000E2F
:102B00000C6E0AAE06D0096C0A1ED8B00A2A010E55
:102B10000C6E08AE06D0076C081ED8B0082A010E4D
:102B20000C1A000E0E6E000E0D6E09500A10D8B46D
:102B30001CD0010E0B6E04D0D89009360A360B2A31
:102B40000AAEFAD7D8900D360E360950075C0A50F7
:102B50000858D8A005D00950075E0A50085A0D80C1
:102B6000D8900A3209320B2EEDD70C50D8B404D0CD
:102B70000D6C0E1ED8B00E2A0DC007F00EC008F066
:102B80001200000E096E000E0A6E000E0B6E000E93
:102B90000C6E0550061007100810D8B42AD0010E8C
:102BA0000D6E06D0D89005360636073608360D2A43
:102BB00008AEF8D7D89009360A360B360C360550D1
:102BC000015C065002580750035808500458D8A01A
:102BD00009D00550015E0650025A0750035A0850AA
:102BE000045A0980D89008320732063205320D2E79
:102BF000E1D709C001F00AC002F00BC003F00CC01D
:102C000004F012000001CD05D8A405D0CEC0BBF061
:102C1000000E0001CD6F050E0001CE6103D0000152
:102C2000CE2B03D0030E0001CE5F000E0001B56F66
:102C3000800E0001B66FBF0E0001B76F1BEC0FF0E6
:102C40000001CD51D8A409D00001BB510001CE191B
:102C5000D8A403D0010E0001CD6F900E00017B6F50
:102C6000060E00017C6FCEC07DF000017E6B36EC5D
:102C700018F00001CE51C8EC10F0F0901200000ED8
:102C80001BEC18F0680E0101036FE40EE82EFED76E
:102C9000032FFCD700F0030EB1EC18F01A0E01015F
:102CA000036FF80EE82EFED7032FFCD700F0030EBB
:102CB000B1EC18F03A0E0101036F230EE82EFED797
:102CC000032FFCD7030EB1EC18F0020EB1EC18F094
:102CD000020EB1EC18F0080EB1EC18F0000EB1ECD9
:102CE00018F00C0EB1EC18F0000EB1EC18F0060E56
:102CF000B1EC18F01200000E066E02AE06D0016CA8
:102D0000021ED8B0022A010E066E04AE04D0036C77
:102D1000041ED8B0042A03500410D8B418D0010EF1
:102D2000056E04D0D89003360436052A04AEFAD7CF
:102D30000350015C04500258D8A004D00350015E37
:102D40000450025AD89004320332052EF1D70650AF
:102D5000D8B404D0016C021ED8B0022A01C001F020
:102D600002C002F012001250131014101510D8B443
:102D700024D0010E166E06D0D890123613361436B3
:102D80001536162A15AEF8D712500E5C13500F5890
:102D90001450105815501158D8A008D012500E5E7B
:102DA00013500F5A1450105A1550115AD89015320A
:102DB000143213321232162EE7D70EC00EF00FC0A7
:102DC0000FF010C010F011C011F012008E0E116E35
:102DD00006D0D8900C320B320A320932112A000E7A
:102DE00009140D6E000E0A140E6E000E0B140F6EF9
:102DF000FF0E0C14106E0D500E100F101010D8A4F2
:102E0000E8D709C001F00AC002F00BC003F011C0FE
:102E100004F0000E056EE0EC14F001C009F002C0F1
:102E20000AF003C00BF01200056E0404D8A410D001
:102E300005507F0F086E08380F0B066E08500F0BF9
:102E4000076E0650FBEC18F00750FBEC18F0120070
:102E5000020E0418D8A412000550BF0F086E0838DF
:102E60000F0B066E08500F0B076E0650FBEC18F0A8
:102E70000750FBEC18F01200110ED56E150ED76E30
:102E80009F0ED66ED650D7CF02F10101036B02C15F
:102E900003F10101026B010102115C6E010103519A
:102EA0005D6EF294F28ABC0E0101006F2E0E0101DC
:102EB000016F69EC19F078EC19F012005E50D8A49B
:102EC0000FD08BAE02D0010E01D0000EFF0A0C6EA7
:102ED0000C320C328B500C187F0B0C188B6E01D0FF
:102EE0008B9E0001CD05D8A41200050E0001CE6115
:102EF00012000001CE2B0001CE51C8EC10F01200E0
:102F00007BC054F07CC055F0000E566E000E576E1C
:102F10007F0E526E000E536E540E466E000E476EBC
:102F20007DC048F07EC049F0520E4A6E000E4B6ED6
:102F30007CEC03F054C0D9FF55C0DAFF000EDF6E01
:102F40001200D6CF09F0D7CF0AF05CC003F05DC005
:102F500004F0031E041E034A042A09500AC005F0A7
:102F6000066A05C006F0056A0526000E0622035013
:102F70000524076E04500620086E07C001F008C043
:102F800002F01200245025102610D8B406D0000EEE
:102F9000241A000E251A800E261A21C015F022C010
:102FA00016F023C017F024C018F025C019F026C071
:102FB0001AF0F2EC0FF015C021F016C022F017C085
:102FC00023F01200000EF66E330EF76E000EF86E50
:102FD0000900F5CFCDF00900F5CFCEF00900F5CF0F
:102FE000CFF000EEB5F0180EEE6AE806FDE15E6A7D
:102FF0005F905F92000EF86E00010BEF19F0046E07
:1030000004500F0B026E0450F00B036E898A0338D4
:103010000F0B9BEC18F08988350EE82EFED700F0D8
:10302000899802509BEC18F08988350EE82EFED75F
:1030300000F0899812000101006F010100A102D087
:10304000898601D08996010100A302D0898401D02C
:103050008994010100A502D0898201D089920101E1
:1030600000A702D08980120089901200000E546ED1
:10307000000E556EDC0E566E320E576E7D0E526E81
:10308000000E536E540E466E000E476E7BC048F025
:103090007CC049F0520E4A6E000E4B6E7CEC03F081
:1030A0001200000E086E000E076E0BD007500524AC
:1030B000D96E08500620DA6EDF50FFEC17F0074A91
:1030C000082A07500524D96E08500620DA6EDF5012
:1030D000D8B41200EBD7000E896E3C0E8A6E1F0E1C
:1030E0008B6EC00E926EC30E936E200E946E200EE9
:1030F0000F013A6F000E0F01396F000E0F01386F8C
:103100006168F19E1200F2945D50D76E5CC0D6FFEC
:103110000101045101010511D8B4120001D81200B7
:1031200005000101FA6E0451FD6E0551FE6EF85066
:10313000FF6EFA501200016E01A002D0898601D004
:10314000899601A202D0898401D0899401A402D079
:10315000898201D0899201A602D0898012008990CB
:1031600012000101026F899A010102511BEC18F053
:103170008988150E0101016FC60EE82EFED7012FBA
:10318000FCD700F0899812000F501102F3CF13F012
:10319000F4CF14F00F501202F35014261050110205
:1031A000F350142613C00FF014C010F0120009C021
:1031B00001F00AC002F0036A8E0E046E000E056E66
:1031C000E0EC14F001C009F002C00AF003C00BF0FB
:1031D0001200015002100310D8B406D0000E011ADC
:1031E000000E021A800E031A01C001F002C002F0A4
:1031F00003C003F01200036E899A03509BEC18F091
:103200008988150E026EC60EE82EFED7022EFCD758
:1032100000D08998120029EC19F0F28EF28C3FEC64
:1032200016F04EEC19F01F0E8B123C0E8A128B9288
:103230008A96FFD7036E000E026E3A0E036005D029
:103240002F0E036402D0010E026E02C001F00130A5
:1032500012007AEC19F06BEC18F055EC19F05CECFC
:1032600019F03CEC17F043EC19F012000C6E09C099
:1032700004F00C5014EC17F00AC005F00BC006F077
:1032800051EC18F01200080EB86E800EAB6E240ED2
:10329000AC6EA00EAF6E010EB06E1200000EB1EC5F
:1032A00018F0010EB1EC18F01200700ED36E040E7F
:1032B000D26E000E9B6E1200F090F19AF086F292A0
:1032C000F19CF2881200016E9EA8FED701C0ADFFEE
:1032D000120000C104F101C105F11200026E02509A
:1032E00063EC19F012005D50D76E5CC0D6FF12007F
:1032F000D58E1200D09E1200D58E1200D59E1200DF
:033300000102FFC8
:020000040020DA
:08000000FFFFFFFFFFFFFFFF00
:020000040030CA
:0E000000FF231F3CFFBF85FF0FC00FE00F4026
:00000001FF
